{
	"contracts/kipu-bankV2.sol": {
		"KipuBank": {
			"abi": [
				{
					"inputs": [
						{
							"internalType": "uint256",
							"name": "_bankCapUSD",
							"type": "uint256"
						},
						{
							"internalType": "uint256",
							"name": "_withdrawalLimitUSD",
							"type": "uint256"
						},
						{
							"internalType": "address",
							"name": "_ethUsdPriceFeed",
							"type": "address"
						}
					],
					"stateMutability": "nonpayable",
					"type": "constructor"
				},
				{
					"inputs": [
						{
							"internalType": "uint256",
							"name": "currentBalanceUSD",
							"type": "uint256"
						},
						{
							"internalType": "uint256",
							"name": "depositValueUSD",
							"type": "uint256"
						},
						{
							"internalType": "uint256",
							"name": "capUSD",
							"type": "uint256"
						}
					],
					"name": "KipuBank__BankCapExceeded",
					"type": "error"
				},
				{
					"inputs": [],
					"name": "KipuBank__FallbackNotAllowed",
					"type": "error"
				},
				{
					"inputs": [
						{
							"internalType": "uint256",
							"name": "requiredAmount",
							"type": "uint256"
						},
						{
							"internalType": "uint256",
							"name": "availableAmount",
							"type": "uint256"
						}
					],
					"name": "KipuBank__InsufficientBalance",
					"type": "error"
				},
				{
					"inputs": [
						{
							"internalType": "address",
							"name": "priceFeed",
							"type": "address"
						}
					],
					"name": "KipuBank__InvalidPriceFeed",
					"type": "error"
				},
				{
					"inputs": [],
					"name": "KipuBank__MustUseDepositEth",
					"type": "error"
				},
				{
					"inputs": [
						{
							"internalType": "address",
							"name": "token",
							"type": "address"
						}
					],
					"name": "KipuBank__TokenNotAllowed",
					"type": "error"
				},
				{
					"inputs": [],
					"name": "KipuBank__TransferFailed",
					"type": "error"
				},
				{
					"inputs": [
						{
							"internalType": "uint256",
							"name": "withdrawValueUSD",
							"type": "uint256"
						},
						{
							"internalType": "uint256",
							"name": "limitUSD",
							"type": "uint256"
						}
					],
					"name": "KipuBank__WithdrawLimitExceeded",
					"type": "error"
				},
				{
					"inputs": [],
					"name": "KipuBank__ZeroAmount",
					"type": "error"
				},
				{
					"inputs": [
						{
							"internalType": "address",
							"name": "owner",
							"type": "address"
						}
					],
					"name": "OwnableInvalidOwner",
					"type": "error"
				},
				{
					"inputs": [
						{
							"internalType": "address",
							"name": "account",
							"type": "address"
						}
					],
					"name": "OwnableUnauthorizedAccount",
					"type": "error"
				},
				{
					"inputs": [
						{
							"internalType": "address",
							"name": "token",
							"type": "address"
						}
					],
					"name": "SafeERC20FailedOperation",
					"type": "error"
				},
				{
					"anonymous": false,
					"inputs": [
						{
							"indexed": true,
							"internalType": "address",
							"name": "user",
							"type": "address"
						},
						{
							"indexed": true,
							"internalType": "address",
							"name": "token",
							"type": "address"
						},
						{
							"indexed": false,
							"internalType": "uint256",
							"name": "amount",
							"type": "uint256"
						},
						{
							"indexed": false,
							"internalType": "uint256",
							"name": "valueUSD",
							"type": "uint256"
						}
					],
					"name": "Deposited",
					"type": "event"
				},
				{
					"anonymous": false,
					"inputs": [
						{
							"indexed": true,
							"internalType": "address",
							"name": "previousOwner",
							"type": "address"
						},
						{
							"indexed": true,
							"internalType": "address",
							"name": "newOwner",
							"type": "address"
						}
					],
					"name": "OwnershipTransferred",
					"type": "event"
				},
				{
					"anonymous": false,
					"inputs": [
						{
							"indexed": true,
							"internalType": "address",
							"name": "token",
							"type": "address"
						},
						{
							"indexed": true,
							"internalType": "address",
							"name": "priceFeed",
							"type": "address"
						},
						{
							"indexed": false,
							"internalType": "uint8",
							"name": "decimals",
							"type": "uint8"
						}
					],
					"name": "TokenAllowed",
					"type": "event"
				},
				{
					"anonymous": false,
					"inputs": [
						{
							"indexed": true,
							"internalType": "address",
							"name": "token",
							"type": "address"
						},
						{
							"indexed": true,
							"internalType": "address",
							"name": "newPriceFeed",
							"type": "address"
						}
					],
					"name": "TokenPriceFeedUpdated",
					"type": "event"
				},
				{
					"anonymous": false,
					"inputs": [
						{
							"indexed": true,
							"internalType": "address",
							"name": "user",
							"type": "address"
						},
						{
							"indexed": true,
							"internalType": "address",
							"name": "token",
							"type": "address"
						},
						{
							"indexed": false,
							"internalType": "uint256",
							"name": "amount",
							"type": "uint256"
						},
						{
							"indexed": false,
							"internalType": "uint256",
							"name": "valueUSD",
							"type": "uint256"
						}
					],
					"name": "Withdrawn",
					"type": "event"
				},
				{
					"stateMutability": "payable",
					"type": "fallback"
				},
				{
					"inputs": [],
					"name": "ETH_ADDRESS",
					"outputs": [
						{
							"internalType": "address",
							"name": "",
							"type": "address"
						}
					],
					"stateMutability": "view",
					"type": "function"
				},
				{
					"inputs": [],
					"name": "USD_DECIMALS",
					"outputs": [
						{
							"internalType": "uint8",
							"name": "",
							"type": "uint8"
						}
					],
					"stateMutability": "view",
					"type": "function"
				},
				{
					"inputs": [],
					"name": "USD_PRECISION",
					"outputs": [
						{
							"internalType": "uint256",
							"name": "",
							"type": "uint256"
						}
					],
					"stateMutability": "view",
					"type": "function"
				},
				{
					"inputs": [
						{
							"internalType": "address",
							"name": "_token",
							"type": "address"
						},
						{
							"internalType": "address",
							"name": "_priceFeed",
							"type": "address"
						},
						{
							"internalType": "uint8",
							"name": "_decimals",
							"type": "uint8"
						}
					],
					"name": "allowToken",
					"outputs": [],
					"stateMutability": "nonpayable",
					"type": "function"
				},
				{
					"inputs": [],
					"name": "depositEth",
					"outputs": [],
					"stateMutability": "payable",
					"type": "function"
				},
				{
					"inputs": [
						{
							"internalType": "address",
							"name": "_token",
							"type": "address"
						},
						{
							"internalType": "uint256",
							"name": "_amount",
							"type": "uint256"
						}
					],
					"name": "depositToken",
					"outputs": [],
					"stateMutability": "nonpayable",
					"type": "function"
				},
				{
					"inputs": [
						{
							"internalType": "address",
							"name": "_token",
							"type": "address"
						},
						{
							"internalType": "uint256",
							"name": "_amount",
							"type": "uint256"
						}
					],
					"name": "emergencyWithdraw",
					"outputs": [],
					"stateMutability": "nonpayable",
					"type": "function"
				},
				{
					"inputs": [
						{
							"internalType": "address",
							"name": "_token",
							"type": "address"
						},
						{
							"internalType": "address",
							"name": "_user",
							"type": "address"
						}
					],
					"name": "getBalance",
					"outputs": [
						{
							"internalType": "uint256",
							"name": "",
							"type": "uint256"
						}
					],
					"stateMutability": "view",
					"type": "function"
				},
				{
					"inputs": [
						{
							"internalType": "address",
							"name": "_token",
							"type": "address"
						}
					],
					"name": "getTokenConfig",
					"outputs": [
						{
							"components": [
								{
									"internalType": "address",
									"name": "priceFeed",
									"type": "address"
								},
								{
									"internalType": "uint8",
									"name": "decimals",
									"type": "uint8"
								}
							],
							"internalType": "struct KipuBank.TokenConfig",
							"name": "",
							"type": "tuple"
						}
					],
					"stateMutability": "view",
					"type": "function"
				},
				{
					"inputs": [
						{
							"internalType": "address",
							"name": "_token",
							"type": "address"
						},
						{
							"internalType": "uint256",
							"name": "_amount",
							"type": "uint256"
						}
					],
					"name": "getTokenValueUSD",
					"outputs": [
						{
							"internalType": "uint256",
							"name": "",
							"type": "uint256"
						}
					],
					"stateMutability": "view",
					"type": "function"
				},
				{
					"inputs": [],
					"name": "i_bankCapUSD",
					"outputs": [
						{
							"internalType": "uint256",
							"name": "",
							"type": "uint256"
						}
					],
					"stateMutability": "view",
					"type": "function"
				},
				{
					"inputs": [],
					"name": "i_withdrawalLimitUSD",
					"outputs": [
						{
							"internalType": "uint256",
							"name": "",
							"type": "uint256"
						}
					],
					"stateMutability": "view",
					"type": "function"
				},
				{
					"inputs": [],
					"name": "owner",
					"outputs": [
						{
							"internalType": "address",
							"name": "",
							"type": "address"
						}
					],
					"stateMutability": "view",
					"type": "function"
				},
				{
					"inputs": [],
					"name": "renounceOwnership",
					"outputs": [],
					"stateMutability": "nonpayable",
					"type": "function"
				},
				{
					"inputs": [
						{
							"internalType": "address",
							"name": "",
							"type": "address"
						},
						{
							"internalType": "address",
							"name": "",
							"type": "address"
						}
					],
					"name": "s_balances",
					"outputs": [
						{
							"internalType": "uint256",
							"name": "",
							"type": "uint256"
						}
					],
					"stateMutability": "view",
					"type": "function"
				},
				{
					"inputs": [],
					"name": "s_depositCount",
					"outputs": [
						{
							"internalType": "uint256",
							"name": "",
							"type": "uint256"
						}
					],
					"stateMutability": "view",
					"type": "function"
				},
				{
					"inputs": [
						{
							"internalType": "address",
							"name": "",
							"type": "address"
						}
					],
					"name": "s_tokenConfig",
					"outputs": [
						{
							"internalType": "address",
							"name": "priceFeed",
							"type": "address"
						},
						{
							"internalType": "uint8",
							"name": "decimals",
							"type": "uint8"
						}
					],
					"stateMutability": "view",
					"type": "function"
				},
				{
					"inputs": [],
					"name": "s_totalBankValueUSD",
					"outputs": [
						{
							"internalType": "uint256",
							"name": "",
							"type": "uint256"
						}
					],
					"stateMutability": "view",
					"type": "function"
				},
				{
					"inputs": [],
					"name": "s_withdrawalCount",
					"outputs": [
						{
							"internalType": "uint256",
							"name": "",
							"type": "uint256"
						}
					],
					"stateMutability": "view",
					"type": "function"
				},
				{
					"inputs": [
						{
							"internalType": "address",
							"name": "newOwner",
							"type": "address"
						}
					],
					"name": "transferOwnership",
					"outputs": [],
					"stateMutability": "nonpayable",
					"type": "function"
				},
				{
					"inputs": [
						{
							"internalType": "address",
							"name": "_token",
							"type": "address"
						},
						{
							"internalType": "address",
							"name": "_newPriceFeed",
							"type": "address"
						}
					],
					"name": "updateTokenPriceFeed",
					"outputs": [],
					"stateMutability": "nonpayable",
					"type": "function"
				},
				{
					"inputs": [
						{
							"internalType": "address",
							"name": "_token",
							"type": "address"
						},
						{
							"internalType": "uint256",
							"name": "_amount",
							"type": "uint256"
						}
					],
					"name": "withdraw",
					"outputs": [],
					"stateMutability": "nonpayable",
					"type": "function"
				},
				{
					"stateMutability": "payable",
					"type": "receive"
				}
			],
			"devdoc": {
				"author": "Facundo Criado",
				"errors": {
					"OwnableInvalidOwner(address)": [
						{
							"details": "The owner is not a valid owner account. (eg. `address(0)`)"
						}
					],
					"OwnableUnauthorizedAccount(address)": [
						{
							"details": "The caller account is not authorized to perform an operation."
						}
					],
					"SafeERC20FailedOperation(address)": [
						{
							"details": "An operation with an ERC-20 token failed."
						}
					]
				},
				"kind": "dev",
				"methods": {
					"allowToken(address,address,uint8)": {
						"params": {
							"_decimals": "Los decimales del token.",
							"_priceFeed": "La direccion del oraculo de precio.",
							"_token": "La direccion del contrato ERC-20."
						}
					},
					"constructor": {
						"params": {
							"_bankCapUSD": "Limite de capitalizacion del banco en USD.",
							"_ethUsdPriceFeed": "Direccion del oraculo ETH/USD de Chainlink.",
							"_withdrawalLimitUSD": "Limite de retiro por tx en USD."
						}
					},
					"depositEth()": {
						"details": "Usa `msg.value` como la cantidad a depositar."
					},
					"depositToken(address,uint256)": {
						"details": "El usuario debe haber aprobado al contrato previamente.",
						"params": {
							"_amount": "La cantidad de tokens a depositar (en la unidad mas pequeña del token).",
							"_token": "La direccion del contrato ERC-20."
						}
					},
					"emergencyWithdraw(address,uint256)": {
						"details": "No actualiza `s_totalBankValueUSD` intencionalmente, ya que es una funcion de emergencia."
					},
					"getTokenValueUSD(address,uint256)": {
						"params": {
							"_amount": "La cantidad del token.",
							"_token": "La direccion del token."
						},
						"returns": {
							"_0": "valueUSD El valor equivalente en USD (con 8 decimales)."
						}
					},
					"owner()": {
						"details": "Returns the address of the current owner."
					},
					"renounceOwnership()": {
						"details": "Leaves the contract without owner. It will not be possible to call `onlyOwner` functions. Can only be called by the current owner. NOTE: Renouncing ownership will leave the contract without an owner, thereby disabling any functionality that is only available to the owner."
					},
					"transferOwnership(address)": {
						"details": "Transfers ownership of the contract to a new account (`newOwner`). Can only be called by the current owner."
					},
					"withdraw(address,uint256)": {
						"params": {
							"_amount": "La cantidad a retirar (en la unidad mas pequeña del token).",
							"_token": "La direccion del token a retirar (usar `address(0)` para ETH)."
						}
					}
				},
				"stateVariables": {
					"s_balances": {
						"details": "(tokenAddress => userAddress => balance)"
					}
				},
				"title": "Contrato bancario",
				"version": 1
			},
			"evm": {
				"assembly": "    /* \"contracts/kipu-bankV2.sol\":384:14368  contract KipuBank is Ownable {... */\n  mstore(0x40, 0xc0)\n    /* \"contracts/kipu-bankV2.sol\":5187:5840  constructor(... */\n  callvalue\n  dup1\n  iszero\n  tag_1\n  jumpi\n  revert(0x00, 0x00)\ntag_1:\n  pop\n  mload(0x40)\n  sub(codesize, bytecodeSize)\n  dup1\n  bytecodeSize\n  dup4\n  codecopy\n  dup2\n  dup2\n  add\n  0x40\n  mstore\n  dup2\n  add\n  swap1\n  tag_2\n  swap2\n  swap1\n  tag_3\n  jump\t// in\ntag_2:\n    /* \"contracts/kipu-bankV2.sol\":5317:5327  msg.sender */\n  caller\n    /* \"@openzeppelin/contracts/access/Ownable.sol\":1297:1298  0 */\n  0x00\n    /* \"@openzeppelin/contracts/access/Ownable.sol\":1273:1299  initialOwner == address(0) */\n  0xffffffffffffffffffffffffffffffffffffffff\n  and\n    /* \"@openzeppelin/contracts/access/Ownable.sol\":1273:1285  initialOwner */\n  dup2\n    /* \"@openzeppelin/contracts/access/Ownable.sol\":1273:1299  initialOwner == address(0) */\n  0xffffffffffffffffffffffffffffffffffffffff\n  and\n  sub\n    /* \"@openzeppelin/contracts/access/Ownable.sol\":1269:1364  if (initialOwner == address(0)) {... */\n  tag_7\n  jumpi\n    /* \"@openzeppelin/contracts/access/Ownable.sol\":1350:1351  0 */\n  0x00\n    /* \"@openzeppelin/contracts/access/Ownable.sol\":1322:1353  OwnableInvalidOwner(address(0)) */\n  mload(0x40)\n  0x1e4fbdf700000000000000000000000000000000000000000000000000000000\n  dup2\n  mstore\n  0x04\n  add\n  tag_8\n  swap2\n  swap1\n  tag_9\n  jump\t// in\ntag_8:\n  mload(0x40)\n  dup1\n  swap2\n  sub\n  swap1\n  revert\n    /* \"@openzeppelin/contracts/access/Ownable.sol\":1269:1364  if (initialOwner == address(0)) {... */\ntag_7:\n    /* \"@openzeppelin/contracts/access/Ownable.sol\":1373:1405  _transferOwnership(initialOwner) */\n  tag_10\n    /* \"@openzeppelin/contracts/access/Ownable.sol\":1392:1404  initialOwner */\n  dup2\n    /* \"@openzeppelin/contracts/access/Ownable.sol\":1373:1391  _transferOwnership */\n  shl(0x20, tag_11)\n    /* \"@openzeppelin/contracts/access/Ownable.sol\":1373:1405  _transferOwnership(initialOwner) */\n  0x20\n  shr\n  jump\t// in\ntag_10:\n    /* \"@openzeppelin/contracts/access/Ownable.sol\":1225:1412  constructor(address initialOwner) {... */\n  pop\n    /* \"contracts/kipu-bankV2.sol\":5372:5373  0 */\n  0x00\n    /* \"contracts/kipu-bankV2.sol\":5344:5374  _ethUsdPriceFeed == address(0) */\n  0xffffffffffffffffffffffffffffffffffffffff\n  and\n    /* \"contracts/kipu-bankV2.sol\":5344:5360  _ethUsdPriceFeed */\n  dup2\n    /* \"contracts/kipu-bankV2.sol\":5344:5374  _ethUsdPriceFeed == address(0) */\n  0xffffffffffffffffffffffffffffffffffffffff\n  and\n  sub\n    /* \"contracts/kipu-bankV2.sol\":5340:5454  if (_ethUsdPriceFeed == address(0)) {... */\n  tag_13\n  jumpi\n    /* \"contracts/kipu-bankV2.sol\":5425:5441  _ethUsdPriceFeed */\n  dup1\n    /* \"contracts/kipu-bankV2.sol\":5398:5442  KipuBank__InvalidPriceFeed(_ethUsdPriceFeed) */\n  mload(0x40)\n  0x18378d8c00000000000000000000000000000000000000000000000000000000\n  dup2\n  mstore\n  0x04\n  add\n  tag_14\n  swap2\n  swap1\n  tag_9\n  jump\t// in\ntag_14:\n  mload(0x40)\n  dup1\n  swap2\n  sub\n  swap1\n  revert\n    /* \"contracts/kipu-bankV2.sol\":5340:5454  if (_ethUsdPriceFeed == address(0)) {... */\ntag_13:\n    /* \"contracts/kipu-bankV2.sol\":5481:5492  _bankCapUSD */\n  dup3\n    /* \"contracts/kipu-bankV2.sol\":5466:5492  i_bankCapUSD = _bankCapUSD */\n  0x80\n  dup2\n  dup2\n  mstore\n  pop\n  pop\n    /* \"contracts/kipu-bankV2.sol\":5526:5545  _withdrawalLimitUSD */\n  dup2\n    /* \"contracts/kipu-bankV2.sol\":5503:5545  i_withdrawalLimitUSD = _withdrawalLimitUSD */\n  0xa0\n  dup2\n  dup2\n  mstore\n  pop\n  pop\n    /* \"contracts/kipu-bankV2.sol\":5642:5769  TokenConfig({... */\n  mload(0x40)\n  dup1\n  0x40\n  add\n  0x40\n  mstore\n  dup1\n    /* \"contracts/kipu-bankV2.sol\":5680:5696  _ethUsdPriceFeed */\n  dup3\n    /* \"contracts/kipu-bankV2.sol\":5642:5769  TokenConfig({... */\n  0xffffffffffffffffffffffffffffffffffffffff\n  and\n  dup2\n  mstore\n  0x20\n  add\n    /* \"contracts/kipu-bankV2.sol\":5721:5723  18 */\n  0x12\n    /* \"contracts/kipu-bankV2.sol\":5642:5769  TokenConfig({... */\n  0xff\n  and\n  dup2\n  mstore\n  pop\n    /* \"contracts/kipu-bankV2.sol\":5613:5626  s_tokenConfig */\n  0x05\n    /* \"contracts/kipu-bankV2.sol\":5613:5639  s_tokenConfig[ETH_ADDRESS] */\n  0x00\n    /* \"contracts/kipu-bankV2.sol\":1243:1244  0 */\n  0x00\n    /* \"contracts/kipu-bankV2.sol\":5613:5639  s_tokenConfig[ETH_ADDRESS] */\n  0xffffffffffffffffffffffffffffffffffffffff\n  and\n  0xffffffffffffffffffffffffffffffffffffffff\n  and\n  dup2\n  mstore\n  0x20\n  add\n  swap1\n  dup2\n  mstore\n  0x20\n  add\n  0x00\n  keccak256\n    /* \"contracts/kipu-bankV2.sol\":5613:5769  s_tokenConfig[ETH_ADDRESS] = TokenConfig({... */\n  0x00\n  dup3\n  add\n  mload\n  dup2\n  0x00\n  add\n  exp(0x0100, 0x00)\n  dup2\n  sload\n  dup2\n  0xffffffffffffffffffffffffffffffffffffffff\n  mul\n  not\n  and\n  swap1\n  dup4\n  0xffffffffffffffffffffffffffffffffffffffff\n  and\n  mul\n  or\n  swap1\n  sstore\n  pop\n  0x20\n  dup3\n  add\n  mload\n  dup2\n  0x00\n  add\n  exp(0x0100, 0x14)\n  dup2\n  sload\n  dup2\n  0xff\n  mul\n  not\n  and\n  swap1\n  dup4\n  0xff\n  and\n  mul\n  or\n  swap1\n  sstore\n  pop\n  swap1\n  pop\n  pop\n    /* \"contracts/kipu-bankV2.sol\":5811:5827  _ethUsdPriceFeed */\n  dup1\n    /* \"contracts/kipu-bankV2.sol\":5785:5832  TokenAllowed(ETH_ADDRESS, _ethUsdPriceFeed, 18) */\n  0xffffffffffffffffffffffffffffffffffffffff\n  and\n    /* \"contracts/kipu-bankV2.sol\":1243:1244  0 */\n  0x00\n    /* \"contracts/kipu-bankV2.sol\":5785:5832  TokenAllowed(ETH_ADDRESS, _ethUsdPriceFeed, 18) */\n  0xffffffffffffffffffffffffffffffffffffffff\n  and\n  0x6d28000829e988111dfd4f9075c2dc3f734e48013bc94e9ffbc8e523687314d7\n    /* \"contracts/kipu-bankV2.sol\":5829:5831  18 */\n  0x12\n    /* \"contracts/kipu-bankV2.sol\":5785:5832  TokenAllowed(ETH_ADDRESS, _ethUsdPriceFeed, 18) */\n  mload(0x40)\n  tag_15\n  swap2\n  swap1\n  tag_16\n  jump\t// in\ntag_15:\n  mload(0x40)\n  dup1\n  swap2\n  sub\n  swap1\n  log3\n    /* \"contracts/kipu-bankV2.sol\":5187:5840  constructor(... */\n  pop\n  pop\n  pop\n    /* \"contracts/kipu-bankV2.sol\":384:14368  contract KipuBank is Ownable {... */\n  jump(tag_17)\n    /* \"@openzeppelin/contracts/access/Ownable.sol\":2912:3099  function _transferOwnership(address newOwner) internal virtual {... */\ntag_11:\n    /* \"@openzeppelin/contracts/access/Ownable.sol\":2985:3001  address oldOwner */\n  0x00\n    /* \"@openzeppelin/contracts/access/Ownable.sol\":3004:3010  _owner */\n  0x00\n  0x00\n  swap1\n  sload\n  swap1\n  0x0100\n  exp\n  swap1\n  div\n  0xffffffffffffffffffffffffffffffffffffffff\n  and\n    /* \"@openzeppelin/contracts/access/Ownable.sol\":2985:3010  address oldOwner = _owner */\n  swap1\n  pop\n    /* \"@openzeppelin/contracts/access/Ownable.sol\":3029:3037  newOwner */\n  dup2\n    /* \"@openzeppelin/contracts/access/Ownable.sol\":3020:3026  _owner */\n  0x00\n  0x00\n    /* \"@openzeppelin/contracts/access/Ownable.sol\":3020:3037  _owner = newOwner */\n  0x0100\n  exp\n  dup2\n  sload\n  dup2\n  0xffffffffffffffffffffffffffffffffffffffff\n  mul\n  not\n  and\n  swap1\n  dup4\n  0xffffffffffffffffffffffffffffffffffffffff\n  and\n  mul\n  or\n  swap1\n  sstore\n  pop\n    /* \"@openzeppelin/contracts/access/Ownable.sol\":3083:3091  newOwner */\n  dup2\n    /* \"@openzeppelin/contracts/access/Ownable.sol\":3052:3092  OwnershipTransferred(oldOwner, newOwner) */\n  0xffffffffffffffffffffffffffffffffffffffff\n  and\n    /* \"@openzeppelin/contracts/access/Ownable.sol\":3073:3081  oldOwner */\n  dup2\n    /* \"@openzeppelin/contracts/access/Ownable.sol\":3052:3092  OwnershipTransferred(oldOwner, newOwner) */\n  0xffffffffffffffffffffffffffffffffffffffff\n  and\n  0x8be0079c531659141344cd1fd0a4f28419497f9722a3daafe3b4186f6b6457e0\n  mload(0x40)\n  mload(0x40)\n  dup1\n  swap2\n  sub\n  swap1\n  log3\n    /* \"@openzeppelin/contracts/access/Ownable.sol\":2975:3099  {... */\n  pop\n    /* \"@openzeppelin/contracts/access/Ownable.sol\":2912:3099  function _transferOwnership(address newOwner) internal virtual {... */\n  pop\n  jump\t// out\n    /* \"#utility.yul\":88:205   */\ntag_20:\n    /* \"#utility.yul\":197:198   */\n  0x00\n    /* \"#utility.yul\":194:195   */\n  0x00\n    /* \"#utility.yul\":187:199   */\n  revert\n    /* \"#utility.yul\":334:411   */\ntag_22:\n    /* \"#utility.yul\":371:378   */\n  0x00\n    /* \"#utility.yul\":400:405   */\n  dup2\n    /* \"#utility.yul\":389:405   */\n  swap1\n  pop\n    /* \"#utility.yul\":334:411   */\n  swap2\n  swap1\n  pop\n  jump\t// out\n    /* \"#utility.yul\":417:539   */\ntag_23:\n    /* \"#utility.yul\":490:514   */\n  tag_41\n    /* \"#utility.yul\":508:513   */\n  dup2\n    /* \"#utility.yul\":490:514   */\n  tag_22\n  jump\t// in\ntag_41:\n    /* \"#utility.yul\":483:488   */\n  dup2\n    /* \"#utility.yul\":480:515   */\n  eq\n    /* \"#utility.yul\":470:533   */\n  tag_42\n  jumpi\n    /* \"#utility.yul\":529:530   */\n  0x00\n    /* \"#utility.yul\":526:527   */\n  0x00\n    /* \"#utility.yul\":519:531   */\n  revert\n    /* \"#utility.yul\":470:533   */\ntag_42:\n    /* \"#utility.yul\":417:539   */\n  pop\n  jump\t// out\n    /* \"#utility.yul\":545:688   */\ntag_24:\n    /* \"#utility.yul\":602:607   */\n  0x00\n    /* \"#utility.yul\":633:639   */\n  dup2\n    /* \"#utility.yul\":627:640   */\n  mload\n    /* \"#utility.yul\":618:640   */\n  swap1\n  pop\n    /* \"#utility.yul\":649:682   */\n  tag_44\n    /* \"#utility.yul\":676:681   */\n  dup2\n    /* \"#utility.yul\":649:682   */\n  tag_23\n  jump\t// in\ntag_44:\n    /* \"#utility.yul\":545:688   */\n  swap3\n  swap2\n  pop\n  pop\n  jump\t// out\n    /* \"#utility.yul\":694:820   */\ntag_25:\n    /* \"#utility.yul\":731:738   */\n  0x00\n    /* \"#utility.yul\":771:813   */\n  0xffffffffffffffffffffffffffffffffffffffff\n    /* \"#utility.yul\":764:769   */\n  dup3\n    /* \"#utility.yul\":760:814   */\n  and\n    /* \"#utility.yul\":749:814   */\n  swap1\n  pop\n    /* \"#utility.yul\":694:820   */\n  swap2\n  swap1\n  pop\n  jump\t// out\n    /* \"#utility.yul\":826:922   */\ntag_26:\n    /* \"#utility.yul\":863:870   */\n  0x00\n    /* \"#utility.yul\":892:916   */\n  tag_47\n    /* \"#utility.yul\":910:915   */\n  dup3\n    /* \"#utility.yul\":892:916   */\n  tag_25\n  jump\t// in\ntag_47:\n    /* \"#utility.yul\":881:916   */\n  swap1\n  pop\n    /* \"#utility.yul\":826:922   */\n  swap2\n  swap1\n  pop\n  jump\t// out\n    /* \"#utility.yul\":928:1050   */\ntag_27:\n    /* \"#utility.yul\":1001:1025   */\n  tag_49\n    /* \"#utility.yul\":1019:1024   */\n  dup2\n    /* \"#utility.yul\":1001:1025   */\n  tag_26\n  jump\t// in\ntag_49:\n    /* \"#utility.yul\":994:999   */\n  dup2\n    /* \"#utility.yul\":991:1026   */\n  eq\n    /* \"#utility.yul\":981:1044   */\n  tag_50\n  jumpi\n    /* \"#utility.yul\":1040:1041   */\n  0x00\n    /* \"#utility.yul\":1037:1038   */\n  0x00\n    /* \"#utility.yul\":1030:1042   */\n  revert\n    /* \"#utility.yul\":981:1044   */\ntag_50:\n    /* \"#utility.yul\":928:1050   */\n  pop\n  jump\t// out\n    /* \"#utility.yul\":1056:1199   */\ntag_28:\n    /* \"#utility.yul\":1113:1118   */\n  0x00\n    /* \"#utility.yul\":1144:1150   */\n  dup2\n    /* \"#utility.yul\":1138:1151   */\n  mload\n    /* \"#utility.yul\":1129:1151   */\n  swap1\n  pop\n    /* \"#utility.yul\":1160:1193   */\n  tag_52\n    /* \"#utility.yul\":1187:1192   */\n  dup2\n    /* \"#utility.yul\":1160:1193   */\n  tag_27\n  jump\t// in\ntag_52:\n    /* \"#utility.yul\":1056:1199   */\n  swap3\n  swap2\n  pop\n  pop\n  jump\t// out\n    /* \"#utility.yul\":1205:1868   */\ntag_3:\n    /* \"#utility.yul\":1293:1299   */\n  0x00\n    /* \"#utility.yul\":1301:1307   */\n  0x00\n    /* \"#utility.yul\":1309:1315   */\n  0x00\n    /* \"#utility.yul\":1358:1360   */\n  0x60\n    /* \"#utility.yul\":1346:1355   */\n  dup5\n    /* \"#utility.yul\":1337:1344   */\n  dup7\n    /* \"#utility.yul\":1333:1356   */\n  sub\n    /* \"#utility.yul\":1329:1361   */\n  slt\n    /* \"#utility.yul\":1326:1445   */\n  iszero\n  tag_54\n  jumpi\n    /* \"#utility.yul\":1364:1443   */\n  tag_55\n  tag_20\n  jump\t// in\ntag_55:\n    /* \"#utility.yul\":1326:1445   */\ntag_54:\n    /* \"#utility.yul\":1484:1485   */\n  0x00\n    /* \"#utility.yul\":1509:1573   */\n  tag_56\n    /* \"#utility.yul\":1565:1572   */\n  dup7\n    /* \"#utility.yul\":1556:1562   */\n  dup3\n    /* \"#utility.yul\":1545:1554   */\n  dup8\n    /* \"#utility.yul\":1541:1563   */\n  add\n    /* \"#utility.yul\":1509:1573   */\n  tag_24\n  jump\t// in\ntag_56:\n    /* \"#utility.yul\":1499:1573   */\n  swap4\n  pop\n    /* \"#utility.yul\":1455:1583   */\n  pop\n    /* \"#utility.yul\":1622:1624   */\n  0x20\n    /* \"#utility.yul\":1648:1712   */\n  tag_57\n    /* \"#utility.yul\":1704:1711   */\n  dup7\n    /* \"#utility.yul\":1695:1701   */\n  dup3\n    /* \"#utility.yul\":1684:1693   */\n  dup8\n    /* \"#utility.yul\":1680:1702   */\n  add\n    /* \"#utility.yul\":1648:1712   */\n  tag_24\n  jump\t// in\ntag_57:\n    /* \"#utility.yul\":1638:1712   */\n  swap3\n  pop\n    /* \"#utility.yul\":1593:1722   */\n  pop\n    /* \"#utility.yul\":1761:1763   */\n  0x40\n    /* \"#utility.yul\":1787:1851   */\n  tag_58\n    /* \"#utility.yul\":1843:1850   */\n  dup7\n    /* \"#utility.yul\":1834:1840   */\n  dup3\n    /* \"#utility.yul\":1823:1832   */\n  dup8\n    /* \"#utility.yul\":1819:1841   */\n  add\n    /* \"#utility.yul\":1787:1851   */\n  tag_28\n  jump\t// in\ntag_58:\n    /* \"#utility.yul\":1777:1851   */\n  swap2\n  pop\n    /* \"#utility.yul\":1732:1861   */\n  pop\n    /* \"#utility.yul\":1205:1868   */\n  swap3\n  pop\n  swap3\n  pop\n  swap3\n  jump\t// out\n    /* \"#utility.yul\":1874:1992   */\ntag_29:\n    /* \"#utility.yul\":1961:1985   */\n  tag_60\n    /* \"#utility.yul\":1979:1984   */\n  dup2\n    /* \"#utility.yul\":1961:1985   */\n  tag_26\n  jump\t// in\ntag_60:\n    /* \"#utility.yul\":1956:1959   */\n  dup3\n    /* \"#utility.yul\":1949:1986   */\n  mstore\n    /* \"#utility.yul\":1874:1992   */\n  pop\n  pop\n  jump\t// out\n    /* \"#utility.yul\":1998:2220   */\ntag_9:\n    /* \"#utility.yul\":2091:2095   */\n  0x00\n    /* \"#utility.yul\":2129:2131   */\n  0x20\n    /* \"#utility.yul\":2118:2127   */\n  dup3\n    /* \"#utility.yul\":2114:2132   */\n  add\n    /* \"#utility.yul\":2106:2132   */\n  swap1\n  pop\n    /* \"#utility.yul\":2142:2213   */\n  tag_62\n    /* \"#utility.yul\":2210:2211   */\n  0x00\n    /* \"#utility.yul\":2199:2208   */\n  dup4\n    /* \"#utility.yul\":2195:2212   */\n  add\n    /* \"#utility.yul\":2186:2192   */\n  dup5\n    /* \"#utility.yul\":2142:2213   */\n  tag_29\n  jump\t// in\ntag_62:\n    /* \"#utility.yul\":1998:2220   */\n  swap3\n  swap2\n  pop\n  pop\n  jump\t// out\n    /* \"#utility.yul\":2226:2312   */\ntag_30:\n    /* \"#utility.yul\":2272:2279   */\n  0x00\n    /* \"#utility.yul\":2301:2306   */\n  dup2\n    /* \"#utility.yul\":2290:2306   */\n  swap1\n  pop\n    /* \"#utility.yul\":2226:2312   */\n  swap2\n  swap1\n  pop\n  jump\t// out\n    /* \"#utility.yul\":2318:2404   */\ntag_31:\n    /* \"#utility.yul\":2353:2360   */\n  0x00\n    /* \"#utility.yul\":2393:2397   */\n  0xff\n    /* \"#utility.yul\":2386:2391   */\n  dup3\n    /* \"#utility.yul\":2382:2398   */\n  and\n    /* \"#utility.yul\":2371:2398   */\n  swap1\n  pop\n    /* \"#utility.yul\":2318:2404   */\n  swap2\n  swap1\n  pop\n  jump\t// out\n    /* \"#utility.yul\":2410:2470   */\ntag_32:\n    /* \"#utility.yul\":2438:2441   */\n  0x00\n    /* \"#utility.yul\":2459:2464   */\n  dup2\n    /* \"#utility.yul\":2452:2464   */\n  swap1\n  pop\n    /* \"#utility.yul\":2410:2470   */\n  swap2\n  swap1\n  pop\n  jump\t// out\n    /* \"#utility.yul\":2476:2632   */\ntag_33:\n    /* \"#utility.yul\":2533:2542   */\n  0x00\n    /* \"#utility.yul\":2566:2626   */\n  tag_67\n    /* \"#utility.yul\":2582:2625   */\n  tag_68\n    /* \"#utility.yul\":2591:2624   */\n  tag_69\n    /* \"#utility.yul\":2618:2623   */\n  dup5\n    /* \"#utility.yul\":2591:2624   */\n  tag_30\n  jump\t// in\ntag_69:\n    /* \"#utility.yul\":2582:2625   */\n  tag_32\n  jump\t// in\ntag_68:\n    /* \"#utility.yul\":2566:2626   */\n  tag_31\n  jump\t// in\ntag_67:\n    /* \"#utility.yul\":2553:2626   */\n  swap1\n  pop\n    /* \"#utility.yul\":2476:2632   */\n  swap2\n  swap1\n  pop\n  jump\t// out\n    /* \"#utility.yul\":2638:2783   */\ntag_34:\n    /* \"#utility.yul\":2732:2776   */\n  tag_71\n    /* \"#utility.yul\":2770:2775   */\n  dup2\n    /* \"#utility.yul\":2732:2776   */\n  tag_33\n  jump\t// in\ntag_71:\n    /* \"#utility.yul\":2727:2730   */\n  dup3\n    /* \"#utility.yul\":2720:2777   */\n  mstore\n    /* \"#utility.yul\":2638:2783   */\n  pop\n  pop\n  jump\t// out\n    /* \"#utility.yul\":2789:3025   */\ntag_16:\n    /* \"#utility.yul\":2889:2893   */\n  0x00\n    /* \"#utility.yul\":2927:2929   */\n  0x20\n    /* \"#utility.yul\":2916:2925   */\n  dup3\n    /* \"#utility.yul\":2912:2930   */\n  add\n    /* \"#utility.yul\":2904:2930   */\n  swap1\n  pop\n    /* \"#utility.yul\":2940:3018   */\n  tag_73\n    /* \"#utility.yul\":3015:3016   */\n  0x00\n    /* \"#utility.yul\":3004:3013   */\n  dup4\n    /* \"#utility.yul\":3000:3017   */\n  add\n    /* \"#utility.yul\":2991:2997   */\n  dup5\n    /* \"#utility.yul\":2940:3018   */\n  tag_34\n  jump\t// in\ntag_73:\n    /* \"#utility.yul\":2789:3025   */\n  swap3\n  swap2\n  pop\n  pop\n  jump\t// out\n    /* \"contracts/kipu-bankV2.sol\":384:14368  contract KipuBank is Ownable {... */\ntag_17:\n  mload(0x80)\n  mload(0xa0)\n  codecopy(0x00, dataOffset(sub_0), dataSize(sub_0))\n  0x00\n  assignImmutable(\"0x0344bbb4e8632aa15d8a069bcbd225e8c78f94ca35b4d1de1da43fb9c1323e48\")\n  0x00\n  assignImmutable(\"0xf2290fd0e22f8570f68b7114eeb23b8e9ea5ade789a40d0e03867eea96c90726\")\n  return(0x00, dataSize(sub_0))\nstop\n\nsub_0: assembly {\n        /* \"contracts/kipu-bankV2.sol\":384:14368  contract KipuBank is Ownable {... */\n      mstore(0x40, 0x80)\n      jumpi(tag_1, lt(calldatasize, 0x04))\n      shr(0xe0, calldataload(0x00))\n      dup1\n      0xa734f06e\n      gt\n      tag_25\n      jumpi\n      dup1\n      0xdccd58e3\n      gt\n      tag_26\n      jumpi\n      dup1\n      0xdccd58e3\n      eq\n      tag_19\n      jumpi\n      dup1\n      0xedd2f190\n      eq\n      tag_20\n      jumpi\n      dup1\n      0xf2fde38b\n      eq\n      tag_21\n      jumpi\n      dup1\n      0xf3fef3a3\n      eq\n      tag_22\n      jumpi\n      dup1\n      0xfc5c96ee\n      eq\n      tag_23\n      jumpi\n      dup1\n      0xfee4aaeb\n      eq\n      tag_24\n      jumpi\n      jump(tag_2)\n    tag_26:\n      dup1\n      0xa734f06e\n      eq\n      tag_14\n      jumpi\n      dup1\n      0xb2343b1c\n      eq\n      tag_15\n      jumpi\n      dup1\n      0xcac2e25f\n      eq\n      tag_16\n      jumpi\n      dup1\n      0xcb67e3b1\n      eq\n      tag_17\n      jumpi\n      dup1\n      0xd4fac45d\n      eq\n      tag_18\n      jumpi\n      jump(tag_2)\n    tag_25:\n      dup1\n      0x4bfdfa6f\n      gt\n      tag_27\n      jumpi\n      dup1\n      0x4bfdfa6f\n      eq\n      tag_8\n      jumpi\n      dup1\n      0x6b251a0b\n      eq\n      tag_9\n      jumpi\n      dup1\n      0x715018a6\n      eq\n      tag_10\n      jumpi\n      dup1\n      0x82d2f5b1\n      eq\n      tag_11\n      jumpi\n      dup1\n      0x8da5cb5b\n      eq\n      tag_12\n      jumpi\n      dup1\n      0x95ccea67\n      eq\n      tag_13\n      jumpi\n      jump(tag_2)\n    tag_27:\n      dup1\n      0x0ccee433\n      eq\n      tag_3\n      jumpi\n      dup1\n      0x2a6daba3\n      eq\n      tag_4\n      jumpi\n      dup1\n      0x2f6ee695\n      eq\n      tag_5\n      jumpi\n      dup1\n      0x338b5dea\n      eq\n      tag_6\n      jumpi\n      dup1\n      0x439370b1\n      eq\n      tag_7\n      jumpi\n      jump(tag_2)\n    tag_1:\n      jumpi(tag_2, calldatasize)\n        /* \"contracts/kipu-bankV2.sol\":4709:4710  0 */\n      0x00\n        /* \"contracts/kipu-bankV2.sol\":4696:4705  msg.value */\n      callvalue\n        /* \"contracts/kipu-bankV2.sol\":4696:4710  msg.value == 0 */\n      sub\n        /* \"contracts/kipu-bankV2.sol\":4692:4741  if (msg.value == 0) revert KipuBank__ZeroAmount() */\n      tag_30\n      jumpi\n        /* \"contracts/kipu-bankV2.sol\":4719:4741  KipuBank__ZeroAmount() */\n      mload(0x40)\n      0x3f36295200000000000000000000000000000000000000000000000000000000\n      dup2\n      mstore\n      0x04\n      add\n      mload(0x40)\n      dup1\n      swap2\n      sub\n      swap1\n      revert\n        /* \"contracts/kipu-bankV2.sol\":4692:4741  if (msg.value == 0) revert KipuBank__ZeroAmount() */\n    tag_30:\n        /* \"contracts/kipu-bankV2.sol\":14144:14182  _handleDeposit(ETH_ADDRESS, msg.value) */\n      tag_32\n        /* \"contracts/kipu-bankV2.sol\":1243:1244  0 */\n      0x00\n        /* \"contracts/kipu-bankV2.sol\":14172:14181  msg.value */\n      callvalue\n        /* \"contracts/kipu-bankV2.sol\":14144:14158  _handleDeposit */\n      tag_33\n        /* \"contracts/kipu-bankV2.sol\":14144:14182  _handleDeposit(ETH_ADDRESS, msg.value) */\n      jump\t// in\n    tag_32:\n        /* \"contracts/kipu-bankV2.sol\":384:14368  contract KipuBank is Ownable {... */\n      stop\n    tag_2:\n        /* \"contracts/kipu-bankV2.sol\":14327:14357  KipuBank__FallbackNotAllowed() */\n      mload(0x40)\n      0x9437e2a700000000000000000000000000000000000000000000000000000000\n      dup2\n      mstore\n      0x04\n      add\n      mload(0x40)\n      dup1\n      swap2\n      sub\n      swap1\n      revert\n        /* \"contracts/kipu-bankV2.sol\":1771:1808  uint256 public immutable i_bankCapUSD */\n    tag_3:\n      callvalue\n      dup1\n      iszero\n      tag_36\n      jumpi\n      revert(0x00, 0x00)\n    tag_36:\n      pop\n      tag_37\n      tag_38\n      jump\t// in\n    tag_37:\n      mload(0x40)\n      tag_39\n      swap2\n      swap1\n      tag_40\n      jump\t// in\n    tag_39:\n      mload(0x40)\n      dup1\n      swap2\n      sub\n      swap1\n      return\n        /* \"contracts/kipu-bankV2.sol\":10035:10825  function getTokenValueUSD(... */\n    tag_4:\n      callvalue\n      dup1\n      iszero\n      tag_41\n      jumpi\n      revert(0x00, 0x00)\n    tag_41:\n      pop\n      tag_42\n      0x04\n      dup1\n      calldatasize\n      sub\n      dup2\n      add\n      swap1\n      tag_43\n      swap2\n      swap1\n      tag_44\n      jump\t// in\n    tag_43:\n      tag_45\n      jump\t// in\n    tag_42:\n      mload(0x40)\n      tag_46\n      swap2\n      swap1\n      tag_40\n      jump\t// in\n    tag_46:\n      mload(0x40)\n      dup1\n      swap2\n      sub\n      swap1\n      return\n        /* \"contracts/kipu-bankV2.sol\":1332:1370  uint8 public constant USD_DECIMALS = 8 */\n    tag_5:\n      callvalue\n      dup1\n      iszero\n      tag_47\n      jumpi\n      revert(0x00, 0x00)\n    tag_47:\n      pop\n      tag_48\n      tag_49\n      jump\t// in\n    tag_48:\n      mload(0x40)\n      tag_50\n      swap2\n      swap1\n      tag_51\n      jump\t// in\n    tag_50:\n      mload(0x40)\n      dup1\n      swap2\n      sub\n      swap1\n      return\n        /* \"contracts/kipu-bankV2.sol\":6602:6814  function depositToken(address _token, uint256 _amount) external nonZeroAmount(_amount) { ... */\n    tag_6:\n      callvalue\n      dup1\n      iszero\n      tag_52\n      jumpi\n      revert(0x00, 0x00)\n    tag_52:\n      pop\n      tag_53\n      0x04\n      dup1\n      calldatasize\n      sub\n      dup2\n      add\n      swap1\n      tag_54\n      swap2\n      swap1\n      tag_44\n      jump\t// in\n    tag_54:\n      tag_55\n      jump\t// in\n    tag_53:\n      stop\n        /* \"contracts/kipu-bankV2.sol\":6172:6282  function depositEth() external payable nonZeroValue { ... */\n    tag_7:\n      tag_56\n      tag_57\n      jump\t// in\n    tag_56:\n      stop\n        /* \"contracts/kipu-bankV2.sol\":1437:1493  uint256 public constant USD_PRECISION = 10**USD_DECIMALS */\n    tag_8:\n      callvalue\n      dup1\n      iszero\n      tag_58\n      jumpi\n      revert(0x00, 0x00)\n    tag_58:\n      pop\n      tag_59\n      tag_60\n      jump\t// in\n    tag_59:\n      mload(0x40)\n      tag_61\n      swap2\n      swap1\n      tag_40\n      jump\t// in\n    tag_61:\n      mload(0x40)\n      dup1\n      swap2\n      sub\n      swap1\n      return\n        /* \"contracts/kipu-bankV2.sol\":1893:1938  uint256 public immutable i_withdrawalLimitUSD */\n    tag_9:\n      callvalue\n      dup1\n      iszero\n      tag_62\n      jumpi\n      revert(0x00, 0x00)\n    tag_62:\n      pop\n      tag_63\n      tag_64\n      jump\t// in\n    tag_63:\n      mload(0x40)\n      tag_65\n      swap2\n      swap1\n      tag_40\n      jump\t// in\n    tag_65:\n      mload(0x40)\n      dup1\n      swap2\n      sub\n      swap1\n      return\n        /* \"@openzeppelin/contracts/access/Ownable.sol\":2293:2394  function renounceOwnership() public virtual onlyOwner {... */\n    tag_10:\n      callvalue\n      dup1\n      iszero\n      tag_66\n      jumpi\n      revert(0x00, 0x00)\n    tag_66:\n      pop\n      tag_67\n      tag_68\n      jump\t// in\n    tag_67:\n      stop\n        /* \"contracts/kipu-bankV2.sol\":12376:12772  function updateTokenPriceFeed(... */\n    tag_11:\n      callvalue\n      dup1\n      iszero\n      tag_69\n      jumpi\n      revert(0x00, 0x00)\n    tag_69:\n      pop\n      tag_70\n      0x04\n      dup1\n      calldatasize\n      sub\n      dup2\n      add\n      swap1\n      tag_71\n      swap2\n      swap1\n      tag_72\n      jump\t// in\n    tag_71:\n      tag_73\n      jump\t// in\n    tag_70:\n      stop\n        /* \"@openzeppelin/contracts/access/Ownable.sol\":1638:1723  function owner() public view virtual returns (address) {... */\n    tag_12:\n      callvalue\n      dup1\n      iszero\n      tag_74\n      jumpi\n      revert(0x00, 0x00)\n    tag_74:\n      pop\n      tag_75\n      tag_76\n      jump\t// in\n    tag_75:\n      mload(0x40)\n      tag_77\n      swap2\n      swap1\n      tag_78\n      jump\t// in\n    tag_77:\n      mload(0x40)\n      dup1\n      swap2\n      sub\n      swap1\n      return\n        /* \"contracts/kipu-bankV2.sol\":12963:13311  function emergencyWithdraw(address _token, uint256 _amount) external onlyOwner {... */\n    tag_13:\n      callvalue\n      dup1\n      iszero\n      tag_79\n      jumpi\n      revert(0x00, 0x00)\n    tag_79:\n      pop\n      tag_80\n      0x04\n      dup1\n      calldatasize\n      sub\n      dup2\n      add\n      swap1\n      tag_81\n      swap2\n      swap1\n      tag_44\n      jump\t// in\n    tag_81:\n      tag_82\n      jump\t// in\n    tag_80:\n      stop\n        /* \"contracts/kipu-bankV2.sol\":1197:1245  address public constant ETH_ADDRESS = address(0) */\n    tag_14:\n      callvalue\n      dup1\n      iszero\n      tag_83\n      jumpi\n      revert(0x00, 0x00)\n    tag_83:\n      pop\n      tag_84\n      tag_85\n      jump\t// in\n    tag_84:\n      mload(0x40)\n      tag_86\n      swap2\n      swap1\n      tag_78\n      jump\t// in\n    tag_86:\n      mload(0x40)\n      dup1\n      swap2\n      sub\n      swap1\n      return\n        /* \"contracts/kipu-bankV2.sol\":2262:2294  uint256 public s_withdrawalCount */\n    tag_15:\n      callvalue\n      dup1\n      iszero\n      tag_87\n      jumpi\n      revert(0x00, 0x00)\n    tag_87:\n      pop\n      tag_88\n      tag_89\n      jump\t// in\n    tag_88:\n      mload(0x40)\n      tag_90\n      swap2\n      swap1\n      tag_40\n      jump\t// in\n    tag_90:\n      mload(0x40)\n      dup1\n      swap2\n      sub\n      swap1\n      return\n        /* \"contracts/kipu-bankV2.sol\":2152:2181  uint256 public s_depositCount */\n    tag_16:\n      callvalue\n      dup1\n      iszero\n      tag_91\n      jumpi\n      revert(0x00, 0x00)\n    tag_91:\n      pop\n      tag_92\n      tag_93\n      jump\t// in\n    tag_92:\n      mload(0x40)\n      tag_94\n      swap2\n      swap1\n      tag_40\n      jump\t// in\n    tag_94:\n      mload(0x40)\n      dup1\n      swap2\n      sub\n      swap1\n      return\n        /* \"contracts/kipu-bankV2.sol\":11173:11319  function getTokenConfig(... */\n    tag_17:\n      callvalue\n      dup1\n      iszero\n      tag_95\n      jumpi\n      revert(0x00, 0x00)\n    tag_95:\n      pop\n      tag_96\n      0x04\n      dup1\n      calldatasize\n      sub\n      dup2\n      add\n      swap1\n      tag_97\n      swap2\n      swap1\n      tag_98\n      jump\t// in\n    tag_97:\n      tag_99\n      jump\t// in\n    tag_96:\n      mload(0x40)\n      tag_100\n      swap2\n      swap1\n      tag_101\n      jump\t// in\n    tag_100:\n      mload(0x40)\n      dup1\n      swap2\n      sub\n      swap1\n      return\n        /* \"contracts/kipu-bankV2.sol\":10924:11083  function getBalance(... */\n    tag_18:\n      callvalue\n      dup1\n      iszero\n      tag_102\n      jumpi\n      revert(0x00, 0x00)\n    tag_102:\n      pop\n      tag_103\n      0x04\n      dup1\n      calldatasize\n      sub\n      dup2\n      add\n      swap1\n      tag_104\n      swap2\n      swap1\n      tag_72\n      jump\t// in\n    tag_104:\n      tag_105\n      jump\t// in\n    tag_103:\n      mload(0x40)\n      tag_106\n      swap2\n      swap1\n      tag_40\n      jump\t// in\n    tag_106:\n      mload(0x40)\n      dup1\n      swap2\n      sub\n      swap1\n      return\n        /* \"contracts/kipu-bankV2.sol\":2426:2491  mapping(address => mapping(address => uint256)) public s_balances */\n    tag_19:\n      callvalue\n      dup1\n      iszero\n      tag_107\n      jumpi\n      revert(0x00, 0x00)\n    tag_107:\n      pop\n      tag_108\n      0x04\n      dup1\n      calldatasize\n      sub\n      dup2\n      add\n      swap1\n      tag_109\n      swap2\n      swap1\n      tag_72\n      jump\t// in\n    tag_109:\n      tag_110\n      jump\t// in\n    tag_108:\n      mload(0x40)\n      tag_111\n      swap2\n      swap1\n      tag_40\n      jump\t// in\n    tag_111:\n      mload(0x40)\n      dup1\n      swap2\n      sub\n      swap1\n      return\n        /* \"contracts/kipu-bankV2.sol\":2036:2070  uint256 public s_totalBankValueUSD */\n    tag_20:\n      callvalue\n      dup1\n      iszero\n      tag_112\n      jumpi\n      revert(0x00, 0x00)\n    tag_112:\n      pop\n      tag_113\n      tag_114\n      jump\t// in\n    tag_113:\n      mload(0x40)\n      tag_115\n      swap2\n      swap1\n      tag_40\n      jump\t// in\n    tag_115:\n      mload(0x40)\n      dup1\n      swap2\n      sub\n      swap1\n      return\n        /* \"@openzeppelin/contracts/access/Ownable.sol\":2543:2758  function transferOwnership(address newOwner) public virtual onlyOwner {... */\n    tag_21:\n      callvalue\n      dup1\n      iszero\n      tag_116\n      jumpi\n      revert(0x00, 0x00)\n    tag_116:\n      pop\n      tag_117\n      0x04\n      dup1\n      calldatasize\n      sub\n      dup2\n      add\n      swap1\n      tag_118\n      swap2\n      swap1\n      tag_98\n      jump\t// in\n    tag_118:\n      tag_119\n      jump\t// in\n    tag_117:\n      stop\n        /* \"contracts/kipu-bankV2.sol\":8281:9547  function withdraw(address _token, uint256 _amount) external nonZeroAmount(_amount) {... */\n    tag_22:\n      callvalue\n      dup1\n      iszero\n      tag_120\n      jumpi\n      revert(0x00, 0x00)\n    tag_120:\n      pop\n      tag_121\n      0x04\n      dup1\n      calldatasize\n      sub\n      dup2\n      add\n      swap1\n      tag_122\n      swap2\n      swap1\n      tag_44\n      jump\t// in\n    tag_122:\n      tag_123\n      jump\t// in\n    tag_121:\n      stop\n        /* \"contracts/kipu-bankV2.sol\":2607:2659  mapping(address => TokenConfig) public s_tokenConfig */\n    tag_23:\n      callvalue\n      dup1\n      iszero\n      tag_124\n      jumpi\n      revert(0x00, 0x00)\n    tag_124:\n      pop\n      tag_125\n      0x04\n      dup1\n      calldatasize\n      sub\n      dup2\n      add\n      swap1\n      tag_126\n      swap2\n      swap1\n      tag_98\n      jump\t// in\n    tag_126:\n      tag_127\n      jump\t// in\n    tag_125:\n      mload(0x40)\n      tag_128\n      swap3\n      swap2\n      swap1\n      tag_129\n      jump\t// in\n    tag_128:\n      mload(0x40)\n      dup1\n      swap2\n      sub\n      swap1\n      return\n        /* \"contracts/kipu-bankV2.sol\":11778:12292  function allowToken(... */\n    tag_24:\n      callvalue\n      dup1\n      iszero\n      tag_130\n      jumpi\n      revert(0x00, 0x00)\n    tag_130:\n      pop\n      tag_131\n      0x04\n      dup1\n      calldatasize\n      sub\n      dup2\n      add\n      swap1\n      tag_132\n      swap2\n      swap1\n      tag_133\n      jump\t// in\n    tag_132:\n      tag_134\n      jump\t// in\n    tag_131:\n      stop\n        /* \"contracts/kipu-bankV2.sol\":6897:8012  function _handleDeposit(address _token, uint256 _amount) private {... */\n    tag_33:\n        /* \"contracts/kipu-bankV2.sol\":7096:7122  _checkTokenAllowed(_token) */\n      tag_136\n        /* \"contracts/kipu-bankV2.sol\":7115:7121  _token */\n      dup3\n        /* \"contracts/kipu-bankV2.sol\":7096:7114  _checkTokenAllowed */\n      tag_137\n        /* \"contracts/kipu-bankV2.sol\":7096:7122  _checkTokenAllowed(_token) */\n      jump\t// in\n    tag_136:\n        /* \"contracts/kipu-bankV2.sol\":7135:7158  uint256 depositValueUSD */\n      0x00\n        /* \"contracts/kipu-bankV2.sol\":7161:7194  getTokenValueUSD(_token, _amount) */\n      tag_138\n        /* \"contracts/kipu-bankV2.sol\":7178:7184  _token */\n      dup4\n        /* \"contracts/kipu-bankV2.sol\":7186:7193  _amount */\n      dup4\n        /* \"contracts/kipu-bankV2.sol\":7161:7177  getTokenValueUSD */\n      tag_45\n        /* \"contracts/kipu-bankV2.sol\":7161:7194  getTokenValueUSD(_token, _amount) */\n      jump\t// in\n    tag_138:\n        /* \"contracts/kipu-bankV2.sol\":7135:7194  uint256 depositValueUSD = getTokenValueUSD(_token, _amount) */\n      swap1\n      pop\n        /* \"contracts/kipu-bankV2.sol\":7205:7233  uint256 newTotalBankValueUSD */\n      0x00\n        /* \"contracts/kipu-bankV2.sol\":7258:7273  depositValueUSD */\n      dup2\n        /* \"contracts/kipu-bankV2.sol\":7236:7255  s_totalBankValueUSD */\n      sload(0x01)\n        /* \"contracts/kipu-bankV2.sol\":7236:7273  s_totalBankValueUSD + depositValueUSD */\n      tag_139\n      swap2\n      swap1\n      tag_140\n      jump\t// in\n    tag_139:\n        /* \"contracts/kipu-bankV2.sol\":7205:7273  uint256 newTotalBankValueUSD = s_totalBankValueUSD + depositValueUSD */\n      swap1\n      pop\n        /* \"contracts/kipu-bankV2.sol\":7313:7325  i_bankCapUSD */\n      immutable(\"0xf2290fd0e22f8570f68b7114eeb23b8e9ea5ade789a40d0e03867eea96c90726\")\n        /* \"contracts/kipu-bankV2.sol\":7290:7310  newTotalBankValueUSD */\n      dup2\n        /* \"contracts/kipu-bankV2.sol\":7290:7325  newTotalBankValueUSD > i_bankCapUSD */\n      gt\n        /* \"contracts/kipu-bankV2.sol\":7286:7504  if (newTotalBankValueUSD > i_bankCapUSD) {... */\n      iszero\n      tag_141\n      jumpi\n        /* \"contracts/kipu-bankV2.sol\":7393:7412  s_totalBankValueUSD */\n      sload(0x01)\n        /* \"contracts/kipu-bankV2.sol\":7431:7446  depositValueUSD */\n      dup3\n        /* \"contracts/kipu-bankV2.sol\":7465:7477  i_bankCapUSD */\n      immutable(\"0xf2290fd0e22f8570f68b7114eeb23b8e9ea5ade789a40d0e03867eea96c90726\")\n        /* \"contracts/kipu-bankV2.sol\":7349:7492  KipuBank__BankCapExceeded(... */\n      mload(0x40)\n      0xc4a0472300000000000000000000000000000000000000000000000000000000\n      dup2\n      mstore\n      0x04\n      add\n      tag_142\n      swap4\n      swap3\n      swap2\n      swap1\n      tag_143\n      jump\t// in\n    tag_142:\n      mload(0x40)\n      dup1\n      swap2\n      sub\n      swap1\n      revert\n        /* \"contracts/kipu-bankV2.sol\":7286:7504  if (newTotalBankValueUSD > i_bankCapUSD) {... */\n    tag_141:\n        /* \"contracts/kipu-bankV2.sol\":7578:7585  _amount */\n      dup3\n        /* \"contracts/kipu-bankV2.sol\":7544:7554  s_balances */\n      0x04\n        /* \"contracts/kipu-bankV2.sol\":7544:7562  s_balances[_token] */\n      0x00\n        /* \"contracts/kipu-bankV2.sol\":7555:7561  _token */\n      dup7\n        /* \"contracts/kipu-bankV2.sol\":7544:7562  s_balances[_token] */\n      0xffffffffffffffffffffffffffffffffffffffff\n      and\n      0xffffffffffffffffffffffffffffffffffffffff\n      and\n      dup2\n      mstore\n      0x20\n      add\n      swap1\n      dup2\n      mstore\n      0x20\n      add\n      0x00\n      keccak256\n        /* \"contracts/kipu-bankV2.sol\":7544:7574  s_balances[_token][msg.sender] */\n      0x00\n        /* \"contracts/kipu-bankV2.sol\":7563:7573  msg.sender */\n      caller\n        /* \"contracts/kipu-bankV2.sol\":7544:7574  s_balances[_token][msg.sender] */\n      0xffffffffffffffffffffffffffffffffffffffff\n      and\n      0xffffffffffffffffffffffffffffffffffffffff\n      and\n      dup2\n      mstore\n      0x20\n      add\n      swap1\n      dup2\n      mstore\n      0x20\n      add\n      0x00\n      keccak256\n      0x00\n        /* \"contracts/kipu-bankV2.sol\":7544:7585  s_balances[_token][msg.sender] += _amount */\n      dup3\n      dup3\n      sload\n      tag_144\n      swap2\n      swap1\n      tag_140\n      jump\t// in\n    tag_144:\n      swap3\n      pop\n      pop\n      dup2\n      swap1\n      sstore\n      pop\n        /* \"contracts/kipu-bankV2.sol\":7618:7638  newTotalBankValueUSD */\n      dup1\n        /* \"contracts/kipu-bankV2.sol\":7596:7615  s_totalBankValueUSD */\n      0x01\n        /* \"contracts/kipu-bankV2.sol\":7596:7638  s_totalBankValueUSD = newTotalBankValueUSD */\n      dup2\n      swap1\n      sstore\n      pop\n        /* \"contracts/kipu-bankV2.sol\":7649:7663  s_depositCount */\n      0x02\n      0x00\n        /* \"contracts/kipu-bankV2.sol\":7649:7665  s_depositCount++ */\n      dup2\n      sload\n      dup1\n      swap3\n      swap2\n      swap1\n      tag_145\n      swap1\n      tag_146\n      jump\t// in\n    tag_145:\n      swap2\n      swap1\n      pop\n      sstore\n      pop\n        /* \"contracts/kipu-bankV2.sol\":1243:1244  0 */\n      0x00\n        /* \"contracts/kipu-bankV2.sol\":7749:7770  _token != ETH_ADDRESS */\n      0xffffffffffffffffffffffffffffffffffffffff\n      and\n        /* \"contracts/kipu-bankV2.sol\":7749:7755  _token */\n      dup5\n        /* \"contracts/kipu-bankV2.sol\":7749:7770  _token != ETH_ADDRESS */\n      0xffffffffffffffffffffffffffffffffffffffff\n      and\n      eq\n        /* \"contracts/kipu-bankV2.sol\":7745:7932  if (_token != ETH_ADDRESS) {... */\n      tag_147\n      jumpi\n        /* \"contracts/kipu-bankV2.sol\":7787:7920  IERC20(_token).safeTransferFrom(... */\n      tag_148\n        /* \"contracts/kipu-bankV2.sol\":7837:7847  msg.sender */\n      caller\n        /* \"contracts/kipu-bankV2.sol\":7874:7878  this */\n      address\n        /* \"contracts/kipu-bankV2.sol\":7898:7905  _amount */\n      dup6\n        /* \"contracts/kipu-bankV2.sol\":7794:7800  _token */\n      dup8\n        /* \"contracts/kipu-bankV2.sol\":7787:7818  IERC20(_token).safeTransferFrom */\n      0xffffffffffffffffffffffffffffffffffffffff\n      and\n      tag_149\n      swap1\n        /* \"contracts/kipu-bankV2.sol\":7787:7920  IERC20(_token).safeTransferFrom(... */\n      swap4\n      swap3\n      swap2\n      swap1\n      0xffffffff\n      and\n      jump\t// in\n    tag_148:\n        /* \"contracts/kipu-bankV2.sol\":7745:7932  if (_token != ETH_ADDRESS) {... */\n    tag_147:\n        /* \"contracts/kipu-bankV2.sol\":7971:7977  _token */\n      dup4\n        /* \"contracts/kipu-bankV2.sol\":7949:8004  Deposited(msg.sender, _token, _amount, depositValueUSD) */\n      0xffffffffffffffffffffffffffffffffffffffff\n      and\n        /* \"contracts/kipu-bankV2.sol\":7959:7969  msg.sender */\n      caller\n        /* \"contracts/kipu-bankV2.sol\":7949:8004  Deposited(msg.sender, _token, _amount, depositValueUSD) */\n      0xffffffffffffffffffffffffffffffffffffffff\n      and\n      0xf5681f9d0db1b911ac18ee83d515a1cf1051853a9eae418316a2fdf7dea427c5\n        /* \"contracts/kipu-bankV2.sol\":7979:7986  _amount */\n      dup6\n        /* \"contracts/kipu-bankV2.sol\":7988:8003  depositValueUSD */\n      dup6\n        /* \"contracts/kipu-bankV2.sol\":7949:8004  Deposited(msg.sender, _token, _amount, depositValueUSD) */\n      mload(0x40)\n      tag_150\n      swap3\n      swap2\n      swap1\n      tag_151\n      jump\t// in\n    tag_150:\n      mload(0x40)\n      dup1\n      swap2\n      sub\n      swap1\n      log3\n        /* \"contracts/kipu-bankV2.sol\":6962:8012  {... */\n      pop\n      pop\n        /* \"contracts/kipu-bankV2.sol\":6897:8012  function _handleDeposit(address _token, uint256 _amount) private {... */\n      pop\n      pop\n      jump\t// out\n        /* \"contracts/kipu-bankV2.sol\":1771:1808  uint256 public immutable i_bankCapUSD */\n    tag_38:\n      immutable(\"0xf2290fd0e22f8570f68b7114eeb23b8e9ea5ade789a40d0e03867eea96c90726\")\n      dup2\n      jump\t// out\n        /* \"contracts/kipu-bankV2.sol\":10035:10825  function getTokenValueUSD(... */\n    tag_45:\n        /* \"contracts/kipu-bankV2.sol\":10140:10147  uint256 */\n      0x00\n        /* \"contracts/kipu-bankV2.sol\":10175:10176  0 */\n      0x00\n        /* \"contracts/kipu-bankV2.sol\":10164:10171  _amount */\n      dup3\n        /* \"contracts/kipu-bankV2.sol\":10164:10176  _amount == 0 */\n      sub\n        /* \"contracts/kipu-bankV2.sol\":10160:10186  if (_amount == 0) return 0 */\n      tag_153\n      jumpi\n        /* \"contracts/kipu-bankV2.sol\":10185:10186  0 */\n      0x00\n        /* \"contracts/kipu-bankV2.sol\":10178:10186  return 0 */\n      swap1\n      pop\n      jump(tag_152)\n        /* \"contracts/kipu-bankV2.sol\":10160:10186  if (_amount == 0) return 0 */\n    tag_153:\n        /* \"contracts/kipu-bankV2.sol\":10199:10224  TokenConfig memory config */\n      0x00\n        /* \"contracts/kipu-bankV2.sol\":10227:10240  s_tokenConfig */\n      0x05\n        /* \"contracts/kipu-bankV2.sol\":10227:10248  s_tokenConfig[_token] */\n      0x00\n        /* \"contracts/kipu-bankV2.sol\":10241:10247  _token */\n      dup6\n        /* \"contracts/kipu-bankV2.sol\":10227:10248  s_tokenConfig[_token] */\n      0xffffffffffffffffffffffffffffffffffffffff\n      and\n      0xffffffffffffffffffffffffffffffffffffffff\n      and\n      dup2\n      mstore\n      0x20\n      add\n      swap1\n      dup2\n      mstore\n      0x20\n      add\n      0x00\n      keccak256\n        /* \"contracts/kipu-bankV2.sol\":10199:10248  TokenConfig memory config = s_tokenConfig[_token] */\n      mload(0x40)\n      dup1\n      0x40\n      add\n      0x40\n      mstore\n      swap1\n      dup2\n      0x00\n      dup3\n      add\n      0x00\n      swap1\n      sload\n      swap1\n      0x0100\n      exp\n      swap1\n      div\n      0xffffffffffffffffffffffffffffffffffffffff\n      and\n      0xffffffffffffffffffffffffffffffffffffffff\n      and\n      0xffffffffffffffffffffffffffffffffffffffff\n      and\n      dup2\n      mstore\n      0x20\n      add\n      0x00\n      dup3\n      add\n      0x14\n      swap1\n      sload\n      swap1\n      0x0100\n      exp\n      swap1\n      div\n      0xff\n      and\n      0xff\n      and\n      0xff\n      and\n      dup2\n      mstore\n      pop\n      pop\n      swap1\n      pop\n        /* \"contracts/kipu-bankV2.sol\":10291:10292  0 */\n      0x00\n        /* \"contracts/kipu-bankV2.sol\":10263:10293  config.priceFeed == address(0) */\n      0xffffffffffffffffffffffffffffffffffffffff\n      and\n        /* \"contracts/kipu-bankV2.sol\":10263:10269  config */\n      dup2\n        /* \"contracts/kipu-bankV2.sol\":10263:10279  config.priceFeed */\n      0x00\n      add\n      mload\n        /* \"contracts/kipu-bankV2.sol\":10263:10293  config.priceFeed == address(0) */\n      0xffffffffffffffffffffffffffffffffffffffff\n      and\n      sub\n        /* \"contracts/kipu-bankV2.sol\":10259:10362  if (config.priceFeed == address(0)) {... */\n      tag_154\n      jumpi\n        /* \"contracts/kipu-bankV2.sol\":10343:10349  _token */\n      dup4\n        /* \"contracts/kipu-bankV2.sol\":10317:10350  KipuBank__TokenNotAllowed(_token) */\n      mload(0x40)\n      0xfb21d4aa00000000000000000000000000000000000000000000000000000000\n      dup2\n      mstore\n      0x04\n      add\n      tag_155\n      swap2\n      swap1\n      tag_78\n      jump\t// in\n    tag_155:\n      mload(0x40)\n      dup1\n      swap2\n      sub\n      swap1\n      revert\n        /* \"contracts/kipu-bankV2.sol\":10259:10362  if (config.priceFeed == address(0)) {... */\n    tag_154:\n        /* \"contracts/kipu-bankV2.sol\":10419:10450  AggregatorV3Interface priceFeed */\n      0x00\n        /* \"contracts/kipu-bankV2.sol\":10475:10481  config */\n      dup2\n        /* \"contracts/kipu-bankV2.sol\":10475:10491  config.priceFeed */\n      0x00\n      add\n      mload\n        /* \"contracts/kipu-bankV2.sol\":10419:10492  AggregatorV3Interface priceFeed = AggregatorV3Interface(config.priceFeed) */\n      swap1\n      pop\n        /* \"contracts/kipu-bankV2.sol\":10506:10518  int256 price */\n      0x00\n        /* \"contracts/kipu-bankV2.sol\":10528:10537  priceFeed */\n      dup2\n        /* \"contracts/kipu-bankV2.sol\":10528:10553  priceFeed.latestRoundData */\n      0xffffffffffffffffffffffffffffffffffffffff\n      and\n      0xfeaf968c\n        /* \"contracts/kipu-bankV2.sol\":10528:10555  priceFeed.latestRoundData() */\n      mload(0x40)\n      dup2\n      0xffffffff\n      and\n      0xe0\n      shl\n      dup2\n      mstore\n      0x04\n      add\n      0xa0\n      mload(0x40)\n      dup1\n      dup4\n      sub\n      dup2\n      dup7\n      gas\n      staticcall\n      iszero\n      dup1\n      iszero\n      tag_157\n      jumpi\n      returndatacopy(0x00, 0x00, returndatasize)\n      revert(0x00, returndatasize)\n    tag_157:\n      pop\n      pop\n      pop\n      pop\n      mload(0x40)\n      returndatasize\n      not(0x1f)\n      0x1f\n      dup3\n      add\n      and\n      dup3\n      add\n      dup1\n      0x40\n      mstore\n      pop\n      dup2\n      add\n      swap1\n      tag_158\n      swap2\n      swap1\n      tag_159\n      jump\t// in\n    tag_158:\n        /* \"contracts/kipu-bankV2.sol\":10503:10555  (, int256 price, , , ) = priceFeed.latestRoundData() */\n      pop\n      pop\n      pop\n      swap2\n      pop\n      pop\n        /* \"contracts/kipu-bankV2.sol\":10800:10806  config */\n      dup3\n        /* \"contracts/kipu-bankV2.sol\":10800:10815  config.decimals */\n      0x20\n      add\n      mload\n        /* \"contracts/kipu-bankV2.sol\":10792:10816  uint256(config.decimals) */\n      0xff\n      and\n        /* \"contracts/kipu-bankV2.sol\":10788:10790  10 */\n      0x0a\n        /* \"contracts/kipu-bankV2.sol\":10788:10816  10**uint256(config.decimals) */\n      tag_160\n      swap2\n      swap1\n      tag_161\n      jump\t// in\n    tag_160:\n        /* \"contracts/kipu-bankV2.sol\":10777:10782  price */\n      dup2\n        /* \"contracts/kipu-bankV2.sol\":10759:10766  _amount */\n      dup7\n        /* \"contracts/kipu-bankV2.sol\":10759:10783  _amount * uint256(price) */\n      tag_162\n      swap2\n      swap1\n      tag_163\n      jump\t// in\n    tag_162:\n        /* \"contracts/kipu-bankV2.sol\":10758:10817  (_amount * uint256(price)) / (10**uint256(config.decimals)) */\n      tag_164\n      swap2\n      swap1\n      tag_165\n      jump\t// in\n    tag_164:\n        /* \"contracts/kipu-bankV2.sol\":10738:10817  return... */\n      swap4\n      pop\n      pop\n      pop\n      pop\n        /* \"contracts/kipu-bankV2.sol\":10035:10825  function getTokenValueUSD(... */\n    tag_152:\n      swap3\n      swap2\n      pop\n      pop\n      jump\t// out\n        /* \"contracts/kipu-bankV2.sol\":1332:1370  uint8 public constant USD_DECIMALS = 8 */\n    tag_49:\n        /* \"contracts/kipu-bankV2.sol\":1369:1370  8 */\n      0x08\n        /* \"contracts/kipu-bankV2.sol\":1332:1370  uint8 public constant USD_DECIMALS = 8 */\n      dup2\n      jump\t// out\n        /* \"contracts/kipu-bankV2.sol\":6602:6814  function depositToken(address _token, uint256 _amount) external nonZeroAmount(_amount) { ... */\n    tag_55:\n        /* \"contracts/kipu-bankV2.sol\":6680:6687  _amount */\n      dup1\n        /* \"contracts/kipu-bankV2.sol\":4530:4531  0 */\n      0x00\n        /* \"contracts/kipu-bankV2.sol\":4519:4526  _amount */\n      dup2\n        /* \"contracts/kipu-bankV2.sol\":4519:4531  _amount == 0 */\n      sub\n        /* \"contracts/kipu-bankV2.sol\":4515:4562  if (_amount == 0) revert KipuBank__ZeroAmount() */\n      tag_167\n      jumpi\n        /* \"contracts/kipu-bankV2.sol\":4540:4562  KipuBank__ZeroAmount() */\n      mload(0x40)\n      0x3f36295200000000000000000000000000000000000000000000000000000000\n      dup2\n      mstore\n      0x04\n      add\n      mload(0x40)\n      dup1\n      swap2\n      sub\n      swap1\n      revert\n        /* \"contracts/kipu-bankV2.sol\":4515:4562  if (_amount == 0) revert KipuBank__ZeroAmount() */\n    tag_167:\n        /* \"contracts/kipu-bankV2.sol\":1243:1244  0 */\n      0x00\n        /* \"contracts/kipu-bankV2.sol\":6705:6726  _token == ETH_ADDRESS */\n      0xffffffffffffffffffffffffffffffffffffffff\n      and\n        /* \"contracts/kipu-bankV2.sol\":6705:6711  _token */\n      dup4\n        /* \"contracts/kipu-bankV2.sol\":6705:6726  _token == ETH_ADDRESS */\n      0xffffffffffffffffffffffffffffffffffffffff\n      and\n      sub\n        /* \"contracts/kipu-bankV2.sol\":6701:6764  if (_token == ETH_ADDRESS) revert KipuBank__MustUseDepositEth() */\n      tag_169\n      jumpi\n        /* \"contracts/kipu-bankV2.sol\":6735:6764  KipuBank__MustUseDepositEth() */\n      mload(0x40)\n      0x633bfff400000000000000000000000000000000000000000000000000000000\n      dup2\n      mstore\n      0x04\n      add\n      mload(0x40)\n      dup1\n      swap2\n      sub\n      swap1\n      revert\n        /* \"contracts/kipu-bankV2.sol\":6701:6764  if (_token == ETH_ADDRESS) revert KipuBank__MustUseDepositEth() */\n    tag_169:\n        /* \"contracts/kipu-bankV2.sol\":6775:6806  _handleDeposit(_token, _amount) */\n      tag_170\n        /* \"contracts/kipu-bankV2.sol\":6790:6796  _token */\n      dup4\n        /* \"contracts/kipu-bankV2.sol\":6798:6805  _amount */\n      dup4\n        /* \"contracts/kipu-bankV2.sol\":6775:6789  _handleDeposit */\n      tag_33\n        /* \"contracts/kipu-bankV2.sol\":6775:6806  _handleDeposit(_token, _amount) */\n      jump\t// in\n    tag_170:\n        /* \"contracts/kipu-bankV2.sol\":6602:6814  function depositToken(address _token, uint256 _amount) external nonZeroAmount(_amount) { ... */\n      pop\n      pop\n      pop\n      jump\t// out\n        /* \"contracts/kipu-bankV2.sol\":6172:6282  function depositEth() external payable nonZeroValue { ... */\n    tag_57:\n        /* \"contracts/kipu-bankV2.sol\":4709:4710  0 */\n      0x00\n        /* \"contracts/kipu-bankV2.sol\":4696:4705  msg.value */\n      callvalue\n        /* \"contracts/kipu-bankV2.sol\":4696:4710  msg.value == 0 */\n      sub\n        /* \"contracts/kipu-bankV2.sol\":4692:4741  if (msg.value == 0) revert KipuBank__ZeroAmount() */\n      tag_172\n      jumpi\n        /* \"contracts/kipu-bankV2.sol\":4719:4741  KipuBank__ZeroAmount() */\n      mload(0x40)\n      0x3f36295200000000000000000000000000000000000000000000000000000000\n      dup2\n      mstore\n      0x04\n      add\n      mload(0x40)\n      dup1\n      swap2\n      sub\n      swap1\n      revert\n        /* \"contracts/kipu-bankV2.sol\":4692:4741  if (msg.value == 0) revert KipuBank__ZeroAmount() */\n    tag_172:\n        /* \"contracts/kipu-bankV2.sol\":6236:6274  _handleDeposit(ETH_ADDRESS, msg.value) */\n      tag_174\n        /* \"contracts/kipu-bankV2.sol\":1243:1244  0 */\n      0x00\n        /* \"contracts/kipu-bankV2.sol\":6264:6273  msg.value */\n      callvalue\n        /* \"contracts/kipu-bankV2.sol\":6236:6250  _handleDeposit */\n      tag_33\n        /* \"contracts/kipu-bankV2.sol\":6236:6274  _handleDeposit(ETH_ADDRESS, msg.value) */\n      jump\t// in\n    tag_174:\n        /* \"contracts/kipu-bankV2.sol\":6172:6282  function depositEth() external payable nonZeroValue { ... */\n      jump\t// out\n        /* \"contracts/kipu-bankV2.sol\":1437:1493  uint256 public constant USD_PRECISION = 10**USD_DECIMALS */\n    tag_60:\n        /* \"contracts/kipu-bankV2.sol\":1369:1370  8 */\n      0x08\n        /* \"contracts/kipu-bankV2.sol\":1477:1479  10 */\n      0x0a\n        /* \"contracts/kipu-bankV2.sol\":1477:1493  10**USD_DECIMALS */\n      tag_175\n      swap2\n      swap1\n      tag_176\n      jump\t// in\n    tag_175:\n        /* \"contracts/kipu-bankV2.sol\":1437:1493  uint256 public constant USD_PRECISION = 10**USD_DECIMALS */\n      dup2\n      jump\t// out\n        /* \"contracts/kipu-bankV2.sol\":1893:1938  uint256 public immutable i_withdrawalLimitUSD */\n    tag_64:\n      immutable(\"0x0344bbb4e8632aa15d8a069bcbd225e8c78f94ca35b4d1de1da43fb9c1323e48\")\n      dup2\n      jump\t// out\n        /* \"@openzeppelin/contracts/access/Ownable.sol\":2293:2394  function renounceOwnership() public virtual onlyOwner {... */\n    tag_68:\n        /* \"@openzeppelin/contracts/access/Ownable.sol\":1531:1544  _checkOwner() */\n      tag_178\n        /* \"@openzeppelin/contracts/access/Ownable.sol\":1531:1542  _checkOwner */\n      tag_179\n        /* \"@openzeppelin/contracts/access/Ownable.sol\":1531:1544  _checkOwner() */\n      jump\t// in\n    tag_178:\n        /* \"@openzeppelin/contracts/access/Ownable.sol\":2357:2387  _transferOwnership(address(0)) */\n      tag_181\n        /* \"@openzeppelin/contracts/access/Ownable.sol\":2384:2385  0 */\n      0x00\n        /* \"@openzeppelin/contracts/access/Ownable.sol\":2357:2375  _transferOwnership */\n      tag_182\n        /* \"@openzeppelin/contracts/access/Ownable.sol\":2357:2387  _transferOwnership(address(0)) */\n      jump\t// in\n    tag_181:\n        /* \"@openzeppelin/contracts/access/Ownable.sol\":2293:2394  function renounceOwnership() public virtual onlyOwner {... */\n      jump\t// out\n        /* \"contracts/kipu-bankV2.sol\":12376:12772  function updateTokenPriceFeed(... */\n    tag_73:\n        /* \"@openzeppelin/contracts/access/Ownable.sol\":1531:1544  _checkOwner() */\n      tag_184\n        /* \"@openzeppelin/contracts/access/Ownable.sol\":1531:1542  _checkOwner */\n      tag_179\n        /* \"@openzeppelin/contracts/access/Ownable.sol\":1531:1544  _checkOwner() */\n      jump\t// in\n    tag_184:\n        /* \"contracts/kipu-bankV2.sol\":12500:12526  _checkTokenAllowed(_token) */\n      tag_186\n        /* \"contracts/kipu-bankV2.sol\":12519:12525  _token */\n      dup3\n        /* \"contracts/kipu-bankV2.sol\":12500:12518  _checkTokenAllowed */\n      tag_137\n        /* \"contracts/kipu-bankV2.sol\":12500:12526  _checkTokenAllowed(_token) */\n      jump\t// in\n    tag_186:\n        /* \"contracts/kipu-bankV2.sol\":12566:12567  0 */\n      0x00\n        /* \"contracts/kipu-bankV2.sol\":12541:12568  _newPriceFeed == address(0) */\n      0xffffffffffffffffffffffffffffffffffffffff\n      and\n        /* \"contracts/kipu-bankV2.sol\":12541:12554  _newPriceFeed */\n      dup2\n        /* \"contracts/kipu-bankV2.sol\":12541:12568  _newPriceFeed == address(0) */\n      0xffffffffffffffffffffffffffffffffffffffff\n      and\n      sub\n        /* \"contracts/kipu-bankV2.sol\":12537:12645  if (_newPriceFeed == address(0)) {... */\n      tag_187\n      jumpi\n        /* \"contracts/kipu-bankV2.sol\":12619:12632  _newPriceFeed */\n      dup1\n        /* \"contracts/kipu-bankV2.sol\":12592:12633  KipuBank__InvalidPriceFeed(_newPriceFeed) */\n      mload(0x40)\n      0x18378d8c00000000000000000000000000000000000000000000000000000000\n      dup2\n      mstore\n      0x04\n      add\n      tag_188\n      swap2\n      swap1\n      tag_78\n      jump\t// in\n    tag_188:\n      mload(0x40)\n      dup1\n      swap2\n      sub\n      swap1\n      revert\n        /* \"contracts/kipu-bankV2.sol\":12537:12645  if (_newPriceFeed == address(0)) {... */\n    tag_187:\n        /* \"contracts/kipu-bankV2.sol\":12691:12704  _newPriceFeed */\n      dup1\n        /* \"contracts/kipu-bankV2.sol\":12657:12670  s_tokenConfig */\n      0x05\n        /* \"contracts/kipu-bankV2.sol\":12657:12678  s_tokenConfig[_token] */\n      0x00\n        /* \"contracts/kipu-bankV2.sol\":12671:12677  _token */\n      dup5\n        /* \"contracts/kipu-bankV2.sol\":12657:12678  s_tokenConfig[_token] */\n      0xffffffffffffffffffffffffffffffffffffffff\n      and\n      0xffffffffffffffffffffffffffffffffffffffff\n      and\n      dup2\n      mstore\n      0x20\n      add\n      swap1\n      dup2\n      mstore\n      0x20\n      add\n      0x00\n      keccak256\n        /* \"contracts/kipu-bankV2.sol\":12657:12688  s_tokenConfig[_token].priceFeed */\n      0x00\n      add\n      0x00\n        /* \"contracts/kipu-bankV2.sol\":12657:12704  s_tokenConfig[_token].priceFeed = _newPriceFeed */\n      0x0100\n      exp\n      dup2\n      sload\n      dup2\n      0xffffffffffffffffffffffffffffffffffffffff\n      mul\n      not\n      and\n      swap1\n      dup4\n      0xffffffffffffffffffffffffffffffffffffffff\n      and\n      mul\n      or\n      swap1\n      sstore\n      pop\n        /* \"contracts/kipu-bankV2.sol\":12750:12763  _newPriceFeed */\n      dup1\n        /* \"contracts/kipu-bankV2.sol\":12720:12764  TokenPriceFeedUpdated(_token, _newPriceFeed) */\n      0xffffffffffffffffffffffffffffffffffffffff\n      and\n        /* \"contracts/kipu-bankV2.sol\":12742:12748  _token */\n      dup3\n        /* \"contracts/kipu-bankV2.sol\":12720:12764  TokenPriceFeedUpdated(_token, _newPriceFeed) */\n      0xffffffffffffffffffffffffffffffffffffffff\n      and\n      0xbdc29f691f539931aac0eb61b6040016944303cd36b1493f9bc5d3f74e10c8e2\n      mload(0x40)\n      mload(0x40)\n      dup1\n      swap2\n      sub\n      swap1\n      log3\n        /* \"contracts/kipu-bankV2.sol\":12376:12772  function updateTokenPriceFeed(... */\n      pop\n      pop\n      jump\t// out\n        /* \"@openzeppelin/contracts/access/Ownable.sol\":1638:1723  function owner() public view virtual returns (address) {... */\n    tag_76:\n        /* \"@openzeppelin/contracts/access/Ownable.sol\":1684:1691  address */\n      0x00\n        /* \"@openzeppelin/contracts/access/Ownable.sol\":1710:1716  _owner */\n      0x00\n      0x00\n      swap1\n      sload\n      swap1\n      0x0100\n      exp\n      swap1\n      div\n      0xffffffffffffffffffffffffffffffffffffffff\n      and\n        /* \"@openzeppelin/contracts/access/Ownable.sol\":1703:1716  return _owner */\n      swap1\n      pop\n        /* \"@openzeppelin/contracts/access/Ownable.sol\":1638:1723  function owner() public view virtual returns (address) {... */\n      swap1\n      jump\t// out\n        /* \"contracts/kipu-bankV2.sol\":12963:13311  function emergencyWithdraw(address _token, uint256 _amount) external onlyOwner {... */\n    tag_82:\n        /* \"@openzeppelin/contracts/access/Ownable.sol\":1531:1544  _checkOwner() */\n      tag_191\n        /* \"@openzeppelin/contracts/access/Ownable.sol\":1531:1542  _checkOwner */\n      tag_179\n        /* \"@openzeppelin/contracts/access/Ownable.sol\":1531:1544  _checkOwner() */\n      jump\t// in\n    tag_191:\n        /* \"contracts/kipu-bankV2.sol\":1243:1244  0 */\n      0x00\n        /* \"contracts/kipu-bankV2.sol\":13057:13078  _token == ETH_ADDRESS */\n      0xffffffffffffffffffffffffffffffffffffffff\n      and\n        /* \"contracts/kipu-bankV2.sol\":13057:13063  _token */\n      dup3\n        /* \"contracts/kipu-bankV2.sol\":13057:13078  _token == ETH_ADDRESS */\n      0xffffffffffffffffffffffffffffffffffffffff\n      and\n      sub\n        /* \"contracts/kipu-bankV2.sol\":13053:13304  if (_token == ETH_ADDRESS) {... */\n      tag_193\n      jumpi\n        /* \"contracts/kipu-bankV2.sol\":13096:13108  bool success */\n      0x00\n        /* \"contracts/kipu-bankV2.sol\":13114:13124  msg.sender */\n      caller\n        /* \"contracts/kipu-bankV2.sol\":13114:13129  msg.sender.call */\n      0xffffffffffffffffffffffffffffffffffffffff\n      and\n        /* \"contracts/kipu-bankV2.sol\":13137:13144  _amount */\n      dup3\n        /* \"contracts/kipu-bankV2.sol\":13114:13149  msg.sender.call{value: _amount}(\"\") */\n      mload(0x40)\n      tag_194\n      swap1\n      tag_195\n      jump\t// in\n    tag_194:\n      0x00\n      mload(0x40)\n      dup1\n      dup4\n      sub\n      dup2\n      dup6\n      dup8\n      gas\n      call\n      swap3\n      pop\n      pop\n      pop\n      returndatasize\n      dup1\n      0x00\n      dup2\n      eq\n      tag_198\n      jumpi\n      mload(0x40)\n      swap2\n      pop\n      and(add(returndatasize, 0x3f), not(0x1f))\n      dup3\n      add\n      0x40\n      mstore\n      returndatasize\n      dup3\n      mstore\n      returndatasize\n      0x00\n      0x20\n      dup5\n      add\n      returndatacopy\n      jump(tag_197)\n    tag_198:\n      0x60\n      swap2\n      pop\n    tag_197:\n      pop\n        /* \"contracts/kipu-bankV2.sol\":13095:13149  (bool success, ) = msg.sender.call{value: _amount}(\"\") */\n      pop\n      swap1\n      pop\n        /* \"contracts/kipu-bankV2.sol\":13169:13176  success */\n      dup1\n        /* \"contracts/kipu-bankV2.sol\":13164:13211  if (!success) revert KipuBank__TransferFailed() */\n      tag_199\n      jumpi\n        /* \"contracts/kipu-bankV2.sol\":13185:13211  KipuBank__TransferFailed() */\n      mload(0x40)\n      0x2ae871a500000000000000000000000000000000000000000000000000000000\n      dup2\n      mstore\n      0x04\n      add\n      mload(0x40)\n      dup1\n      swap2\n      sub\n      swap1\n      revert\n        /* \"contracts/kipu-bankV2.sol\":13164:13211  if (!success) revert KipuBank__TransferFailed() */\n    tag_199:\n        /* \"contracts/kipu-bankV2.sol\":13080:13223  {... */\n      pop\n        /* \"contracts/kipu-bankV2.sol\":13053:13304  if (_token == ETH_ADDRESS) {... */\n      jump(tag_200)\n    tag_193:\n        /* \"contracts/kipu-bankV2.sol\":13244:13292  IERC20(_token).safeTransfer(msg.sender, _amount) */\n      tag_201\n        /* \"contracts/kipu-bankV2.sol\":13272:13282  msg.sender */\n      caller\n        /* \"contracts/kipu-bankV2.sol\":13284:13291  _amount */\n      dup3\n        /* \"contracts/kipu-bankV2.sol\":13251:13257  _token */\n      dup5\n        /* \"contracts/kipu-bankV2.sol\":13244:13271  IERC20(_token).safeTransfer */\n      0xffffffffffffffffffffffffffffffffffffffff\n      and\n      tag_202\n      swap1\n        /* \"contracts/kipu-bankV2.sol\":13244:13292  IERC20(_token).safeTransfer(msg.sender, _amount) */\n      swap3\n      swap2\n      swap1\n      0xffffffff\n      and\n      jump\t// in\n    tag_201:\n        /* \"contracts/kipu-bankV2.sol\":13053:13304  if (_token == ETH_ADDRESS) {... */\n    tag_200:\n        /* \"contracts/kipu-bankV2.sol\":12963:13311  function emergencyWithdraw(address _token, uint256 _amount) external onlyOwner {... */\n      pop\n      pop\n      jump\t// out\n        /* \"contracts/kipu-bankV2.sol\":1197:1245  address public constant ETH_ADDRESS = address(0) */\n    tag_85:\n        /* \"contracts/kipu-bankV2.sol\":1243:1244  0 */\n      0x00\n        /* \"contracts/kipu-bankV2.sol\":1197:1245  address public constant ETH_ADDRESS = address(0) */\n      dup2\n      jump\t// out\n        /* \"contracts/kipu-bankV2.sol\":2262:2294  uint256 public s_withdrawalCount */\n    tag_89:\n      sload(0x03)\n      dup2\n      jump\t// out\n        /* \"contracts/kipu-bankV2.sol\":2152:2181  uint256 public s_depositCount */\n    tag_93:\n      sload(0x02)\n      dup2\n      jump\t// out\n        /* \"contracts/kipu-bankV2.sol\":11173:11319  function getTokenConfig(... */\n    tag_99:\n        /* \"contracts/kipu-bankV2.sol\":11252:11270  TokenConfig memory */\n      tag_203\n      tag_204\n      jump\t// in\n    tag_203:\n        /* \"contracts/kipu-bankV2.sol\":11290:11303  s_tokenConfig */\n      0x05\n        /* \"contracts/kipu-bankV2.sol\":11290:11311  s_tokenConfig[_token] */\n      0x00\n        /* \"contracts/kipu-bankV2.sol\":11304:11310  _token */\n      dup4\n        /* \"contracts/kipu-bankV2.sol\":11290:11311  s_tokenConfig[_token] */\n      0xffffffffffffffffffffffffffffffffffffffff\n      and\n      0xffffffffffffffffffffffffffffffffffffffff\n      and\n      dup2\n      mstore\n      0x20\n      add\n      swap1\n      dup2\n      mstore\n      0x20\n      add\n      0x00\n      keccak256\n        /* \"contracts/kipu-bankV2.sol\":11283:11311  return s_tokenConfig[_token] */\n      mload(0x40)\n      dup1\n      0x40\n      add\n      0x40\n      mstore\n      swap1\n      dup2\n      0x00\n      dup3\n      add\n      0x00\n      swap1\n      sload\n      swap1\n      0x0100\n      exp\n      swap1\n      div\n      0xffffffffffffffffffffffffffffffffffffffff\n      and\n      0xffffffffffffffffffffffffffffffffffffffff\n      and\n      0xffffffffffffffffffffffffffffffffffffffff\n      and\n      dup2\n      mstore\n      0x20\n      add\n      0x00\n      dup3\n      add\n      0x14\n      swap1\n      sload\n      swap1\n      0x0100\n      exp\n      swap1\n      div\n      0xff\n      and\n      0xff\n      and\n      0xff\n      and\n      dup2\n      mstore\n      pop\n      pop\n      swap1\n      pop\n        /* \"contracts/kipu-bankV2.sol\":11173:11319  function getTokenConfig(... */\n      swap2\n      swap1\n      pop\n      jump\t// out\n        /* \"contracts/kipu-bankV2.sol\":10924:11083  function getBalance(... */\n    tag_105:\n        /* \"contracts/kipu-bankV2.sol\":11023:11030  uint256 */\n      0x00\n        /* \"contracts/kipu-bankV2.sol\":11050:11060  s_balances */\n      0x04\n        /* \"contracts/kipu-bankV2.sol\":11050:11068  s_balances[_token] */\n      0x00\n        /* \"contracts/kipu-bankV2.sol\":11061:11067  _token */\n      dup5\n        /* \"contracts/kipu-bankV2.sol\":11050:11068  s_balances[_token] */\n      0xffffffffffffffffffffffffffffffffffffffff\n      and\n      0xffffffffffffffffffffffffffffffffffffffff\n      and\n      dup2\n      mstore\n      0x20\n      add\n      swap1\n      dup2\n      mstore\n      0x20\n      add\n      0x00\n      keccak256\n        /* \"contracts/kipu-bankV2.sol\":11050:11075  s_balances[_token][_user] */\n      0x00\n        /* \"contracts/kipu-bankV2.sol\":11069:11074  _user */\n      dup4\n        /* \"contracts/kipu-bankV2.sol\":11050:11075  s_balances[_token][_user] */\n      0xffffffffffffffffffffffffffffffffffffffff\n      and\n      0xffffffffffffffffffffffffffffffffffffffff\n      and\n      dup2\n      mstore\n      0x20\n      add\n      swap1\n      dup2\n      mstore\n      0x20\n      add\n      0x00\n      keccak256\n      sload\n        /* \"contracts/kipu-bankV2.sol\":11043:11075  return s_balances[_token][_user] */\n      swap1\n      pop\n        /* \"contracts/kipu-bankV2.sol\":10924:11083  function getBalance(... */\n      swap3\n      swap2\n      pop\n      pop\n      jump\t// out\n        /* \"contracts/kipu-bankV2.sol\":2426:2491  mapping(address => mapping(address => uint256)) public s_balances */\n    tag_110:\n      mstore(0x20, 0x04)\n      dup2\n      0x00\n      mstore\n      mstore(0x20, keccak256(0x00, 0x40))\n      dup1\n      0x00\n      mstore\n      keccak256(0x00, 0x40)\n      0x00\n      swap2\n      pop\n      swap2\n      pop\n      pop\n      sload\n      dup2\n      jump\t// out\n        /* \"contracts/kipu-bankV2.sol\":2036:2070  uint256 public s_totalBankValueUSD */\n    tag_114:\n      sload(0x01)\n      dup2\n      jump\t// out\n        /* \"@openzeppelin/contracts/access/Ownable.sol\":2543:2758  function transferOwnership(address newOwner) public virtual onlyOwner {... */\n    tag_119:\n        /* \"@openzeppelin/contracts/access/Ownable.sol\":1531:1544  _checkOwner() */\n      tag_208\n        /* \"@openzeppelin/contracts/access/Ownable.sol\":1531:1542  _checkOwner */\n      tag_179\n        /* \"@openzeppelin/contracts/access/Ownable.sol\":1531:1544  _checkOwner() */\n      jump\t// in\n    tag_208:\n        /* \"@openzeppelin/contracts/access/Ownable.sol\":2647:2648  0 */\n      0x00\n        /* \"@openzeppelin/contracts/access/Ownable.sol\":2627:2649  newOwner == address(0) */\n      0xffffffffffffffffffffffffffffffffffffffff\n      and\n        /* \"@openzeppelin/contracts/access/Ownable.sol\":2627:2635  newOwner */\n      dup2\n        /* \"@openzeppelin/contracts/access/Ownable.sol\":2627:2649  newOwner == address(0) */\n      0xffffffffffffffffffffffffffffffffffffffff\n      and\n      sub\n        /* \"@openzeppelin/contracts/access/Ownable.sol\":2623:2714  if (newOwner == address(0)) {... */\n      tag_210\n      jumpi\n        /* \"@openzeppelin/contracts/access/Ownable.sol\":2700:2701  0 */\n      0x00\n        /* \"@openzeppelin/contracts/access/Ownable.sol\":2672:2703  OwnableInvalidOwner(address(0)) */\n      mload(0x40)\n      0x1e4fbdf700000000000000000000000000000000000000000000000000000000\n      dup2\n      mstore\n      0x04\n      add\n      tag_211\n      swap2\n      swap1\n      tag_78\n      jump\t// in\n    tag_211:\n      mload(0x40)\n      dup1\n      swap2\n      sub\n      swap1\n      revert\n        /* \"@openzeppelin/contracts/access/Ownable.sol\":2623:2714  if (newOwner == address(0)) {... */\n    tag_210:\n        /* \"@openzeppelin/contracts/access/Ownable.sol\":2723:2751  _transferOwnership(newOwner) */\n      tag_212\n        /* \"@openzeppelin/contracts/access/Ownable.sol\":2742:2750  newOwner */\n      dup2\n        /* \"@openzeppelin/contracts/access/Ownable.sol\":2723:2741  _transferOwnership */\n      tag_182\n        /* \"@openzeppelin/contracts/access/Ownable.sol\":2723:2751  _transferOwnership(newOwner) */\n      jump\t// in\n    tag_212:\n        /* \"@openzeppelin/contracts/access/Ownable.sol\":2543:2758  function transferOwnership(address newOwner) public virtual onlyOwner {... */\n      pop\n      jump\t// out\n        /* \"contracts/kipu-bankV2.sol\":8281:9547  function withdraw(address _token, uint256 _amount) external nonZeroAmount(_amount) {... */\n    tag_123:\n        /* \"contracts/kipu-bankV2.sol\":8355:8362  _amount */\n      dup1\n        /* \"contracts/kipu-bankV2.sol\":4530:4531  0 */\n      0x00\n        /* \"contracts/kipu-bankV2.sol\":4519:4526  _amount */\n      dup2\n        /* \"contracts/kipu-bankV2.sol\":4519:4531  _amount == 0 */\n      sub\n        /* \"contracts/kipu-bankV2.sol\":4515:4562  if (_amount == 0) revert KipuBank__ZeroAmount() */\n      tag_214\n      jumpi\n        /* \"contracts/kipu-bankV2.sol\":4540:4562  KipuBank__ZeroAmount() */\n      mload(0x40)\n      0x3f36295200000000000000000000000000000000000000000000000000000000\n      dup2\n      mstore\n      0x04\n      add\n      mload(0x40)\n      dup1\n      swap2\n      sub\n      swap1\n      revert\n        /* \"contracts/kipu-bankV2.sol\":4515:4562  if (_amount == 0) revert KipuBank__ZeroAmount() */\n    tag_214:\n        /* \"contracts/kipu-bankV2.sol\":8468:8494  _checkTokenAllowed(_token) */\n      tag_216\n        /* \"contracts/kipu-bankV2.sol\":8487:8493  _token */\n      dup4\n        /* \"contracts/kipu-bankV2.sol\":8468:8486  _checkTokenAllowed */\n      tag_137\n        /* \"contracts/kipu-bankV2.sol\":8468:8494  _checkTokenAllowed(_token) */\n      jump\t// in\n    tag_216:\n        /* \"contracts/kipu-bankV2.sol\":8507:8526  uint256 userBalance */\n      0x00\n        /* \"contracts/kipu-bankV2.sol\":8529:8539  s_balances */\n      0x04\n        /* \"contracts/kipu-bankV2.sol\":8529:8547  s_balances[_token] */\n      0x00\n        /* \"contracts/kipu-bankV2.sol\":8540:8546  _token */\n      dup6\n        /* \"contracts/kipu-bankV2.sol\":8529:8547  s_balances[_token] */\n      0xffffffffffffffffffffffffffffffffffffffff\n      and\n      0xffffffffffffffffffffffffffffffffffffffff\n      and\n      dup2\n      mstore\n      0x20\n      add\n      swap1\n      dup2\n      mstore\n      0x20\n      add\n      0x00\n      keccak256\n        /* \"contracts/kipu-bankV2.sol\":8529:8559  s_balances[_token][msg.sender] */\n      0x00\n        /* \"contracts/kipu-bankV2.sol\":8548:8558  msg.sender */\n      caller\n        /* \"contracts/kipu-bankV2.sol\":8529:8559  s_balances[_token][msg.sender] */\n      0xffffffffffffffffffffffffffffffffffffffff\n      and\n      0xffffffffffffffffffffffffffffffffffffffff\n      and\n      dup2\n      mstore\n      0x20\n      add\n      swap1\n      dup2\n      mstore\n      0x20\n      add\n      0x00\n      keccak256\n      sload\n        /* \"contracts/kipu-bankV2.sol\":8507:8559  uint256 userBalance = s_balances[_token][msg.sender] */\n      swap1\n      pop\n        /* \"contracts/kipu-bankV2.sol\":8584:8595  userBalance */\n      dup1\n        /* \"contracts/kipu-bankV2.sol\":8574:8581  _amount */\n      dup4\n        /* \"contracts/kipu-bankV2.sol\":8574:8595  _amount > userBalance */\n      gt\n        /* \"contracts/kipu-bankV2.sol\":8570:8682  if (_amount > userBalance) {... */\n      iszero\n      tag_217\n      jumpi\n        /* \"contracts/kipu-bankV2.sol\":8649:8656  _amount */\n      dup3\n        /* \"contracts/kipu-bankV2.sol\":8658:8669  userBalance */\n      dup2\n        /* \"contracts/kipu-bankV2.sol\":8619:8670  KipuBank__InsufficientBalance(_amount, userBalance) */\n      mload(0x40)\n      0x61965c4e00000000000000000000000000000000000000000000000000000000\n      dup2\n      mstore\n      0x04\n      add\n      tag_218\n      swap3\n      swap2\n      swap1\n      tag_151\n      jump\t// in\n    tag_218:\n      mload(0x40)\n      dup1\n      swap2\n      sub\n      swap1\n      revert\n        /* \"contracts/kipu-bankV2.sol\":8570:8682  if (_amount > userBalance) {... */\n    tag_217:\n        /* \"contracts/kipu-bankV2.sol\":8694:8718  uint256 withdrawValueUSD */\n      0x00\n        /* \"contracts/kipu-bankV2.sol\":8721:8754  getTokenValueUSD(_token, _amount) */\n      tag_219\n        /* \"contracts/kipu-bankV2.sol\":8738:8744  _token */\n      dup6\n        /* \"contracts/kipu-bankV2.sol\":8746:8753  _amount */\n      dup6\n        /* \"contracts/kipu-bankV2.sol\":8721:8737  getTokenValueUSD */\n      tag_45\n        /* \"contracts/kipu-bankV2.sol\":8721:8754  getTokenValueUSD(_token, _amount) */\n      jump\t// in\n    tag_219:\n        /* \"contracts/kipu-bankV2.sol\":8694:8754  uint256 withdrawValueUSD = getTokenValueUSD(_token, _amount) */\n      swap1\n      pop\n        /* \"contracts/kipu-bankV2.sol\":8788:8808  i_withdrawalLimitUSD */\n      immutable(\"0x0344bbb4e8632aa15d8a069bcbd225e8c78f94ca35b4d1de1da43fb9c1323e48\")\n        /* \"contracts/kipu-bankV2.sol\":8769:8785  withdrawValueUSD */\n      dup2\n        /* \"contracts/kipu-bankV2.sol\":8769:8808  withdrawValueUSD > i_withdrawalLimitUSD */\n      gt\n        /* \"contracts/kipu-bankV2.sol\":8765:8964  if (withdrawValueUSD > i_withdrawalLimitUSD) {... */\n      iszero\n      tag_220\n      jumpi\n        /* \"contracts/kipu-bankV2.sol\":8882:8898  withdrawValueUSD */\n      dup1\n        /* \"contracts/kipu-bankV2.sol\":8917:8937  i_withdrawalLimitUSD */\n      immutable(\"0x0344bbb4e8632aa15d8a069bcbd225e8c78f94ca35b4d1de1da43fb9c1323e48\")\n        /* \"contracts/kipu-bankV2.sol\":8832:8952  KipuBank__WithdrawLimitExceeded(... */\n      mload(0x40)\n      0x8672a83200000000000000000000000000000000000000000000000000000000\n      dup2\n      mstore\n      0x04\n      add\n      tag_221\n      swap3\n      swap2\n      swap1\n      tag_151\n      jump\t// in\n    tag_221:\n      mload(0x40)\n      dup1\n      swap2\n      sub\n      swap1\n      revert\n        /* \"contracts/kipu-bankV2.sol\":8765:8964  if (withdrawValueUSD > i_withdrawalLimitUSD) {... */\n    tag_220:\n        /* \"contracts/kipu-bankV2.sol\":9081:9088  _amount */\n      dup4\n        /* \"contracts/kipu-bankV2.sol\":9067:9078  userBalance */\n      dup3\n        /* \"contracts/kipu-bankV2.sol\":9067:9088  userBalance - _amount */\n      tag_222\n      swap2\n      swap1\n      tag_223\n      jump\t// in\n    tag_222:\n        /* \"contracts/kipu-bankV2.sol\":9034:9044  s_balances */\n      0x04\n        /* \"contracts/kipu-bankV2.sol\":9034:9052  s_balances[_token] */\n      0x00\n        /* \"contracts/kipu-bankV2.sol\":9045:9051  _token */\n      dup8\n        /* \"contracts/kipu-bankV2.sol\":9034:9052  s_balances[_token] */\n      0xffffffffffffffffffffffffffffffffffffffff\n      and\n      0xffffffffffffffffffffffffffffffffffffffff\n      and\n      dup2\n      mstore\n      0x20\n      add\n      swap1\n      dup2\n      mstore\n      0x20\n      add\n      0x00\n      keccak256\n        /* \"contracts/kipu-bankV2.sol\":9034:9064  s_balances[_token][msg.sender] */\n      0x00\n        /* \"contracts/kipu-bankV2.sol\":9053:9063  msg.sender */\n      caller\n        /* \"contracts/kipu-bankV2.sol\":9034:9064  s_balances[_token][msg.sender] */\n      0xffffffffffffffffffffffffffffffffffffffff\n      and\n      0xffffffffffffffffffffffffffffffffffffffff\n      and\n      dup2\n      mstore\n      0x20\n      add\n      swap1\n      dup2\n      mstore\n      0x20\n      add\n      0x00\n      keccak256\n        /* \"contracts/kipu-bankV2.sol\":9034:9088  s_balances[_token][msg.sender] = userBalance - _amount */\n      dup2\n      swap1\n      sstore\n      pop\n        /* \"contracts/kipu-bankV2.sol\":9122:9138  withdrawValueUSD */\n      dup1\n        /* \"contracts/kipu-bankV2.sol\":9099:9118  s_totalBankValueUSD */\n      0x01\n      0x00\n        /* \"contracts/kipu-bankV2.sol\":9099:9138  s_totalBankValueUSD -= withdrawValueUSD */\n      dup3\n      dup3\n      sload\n      tag_224\n      swap2\n      swap1\n      tag_223\n      jump\t// in\n    tag_224:\n      swap3\n      pop\n      pop\n      dup2\n      swap1\n      sstore\n      pop\n        /* \"contracts/kipu-bankV2.sol\":9149:9166  s_withdrawalCount */\n      0x03\n      0x00\n        /* \"contracts/kipu-bankV2.sol\":9149:9168  s_withdrawalCount++ */\n      dup2\n      sload\n      dup1\n      swap3\n      swap2\n      swap1\n      tag_225\n      swap1\n      tag_146\n      jump\t// in\n    tag_225:\n      swap2\n      swap1\n      pop\n      sstore\n      pop\n        /* \"contracts/kipu-bankV2.sol\":1243:1244  0 */\n      0x00\n        /* \"contracts/kipu-bankV2.sol\":9219:9240  _token == ETH_ADDRESS */\n      0xffffffffffffffffffffffffffffffffffffffff\n      and\n        /* \"contracts/kipu-bankV2.sol\":9219:9225  _token */\n      dup6\n        /* \"contracts/kipu-bankV2.sol\":9219:9240  _token == ETH_ADDRESS */\n      0xffffffffffffffffffffffffffffffffffffffff\n      and\n      sub\n        /* \"contracts/kipu-bankV2.sol\":9215:9466  if (_token == ETH_ADDRESS) {... */\n      tag_226\n      jumpi\n        /* \"contracts/kipu-bankV2.sol\":9258:9270  bool success */\n      0x00\n        /* \"contracts/kipu-bankV2.sol\":9276:9286  msg.sender */\n      caller\n        /* \"contracts/kipu-bankV2.sol\":9276:9291  msg.sender.call */\n      0xffffffffffffffffffffffffffffffffffffffff\n      and\n        /* \"contracts/kipu-bankV2.sol\":9299:9306  _amount */\n      dup6\n        /* \"contracts/kipu-bankV2.sol\":9276:9311  msg.sender.call{value: _amount}(\"\") */\n      mload(0x40)\n      tag_227\n      swap1\n      tag_195\n      jump\t// in\n    tag_227:\n      0x00\n      mload(0x40)\n      dup1\n      dup4\n      sub\n      dup2\n      dup6\n      dup8\n      gas\n      call\n      swap3\n      pop\n      pop\n      pop\n      returndatasize\n      dup1\n      0x00\n      dup2\n      eq\n      tag_230\n      jumpi\n      mload(0x40)\n      swap2\n      pop\n      and(add(returndatasize, 0x3f), not(0x1f))\n      dup3\n      add\n      0x40\n      mstore\n      returndatasize\n      dup3\n      mstore\n      returndatasize\n      0x00\n      0x20\n      dup5\n      add\n      returndatacopy\n      jump(tag_229)\n    tag_230:\n      0x60\n      swap2\n      pop\n    tag_229:\n      pop\n        /* \"contracts/kipu-bankV2.sol\":9257:9311  (bool success, ) = msg.sender.call{value: _amount}(\"\") */\n      pop\n      swap1\n      pop\n        /* \"contracts/kipu-bankV2.sol\":9331:9338  success */\n      dup1\n        /* \"contracts/kipu-bankV2.sol\":9326:9373  if (!success) revert KipuBank__TransferFailed() */\n      tag_231\n      jumpi\n        /* \"contracts/kipu-bankV2.sol\":9347:9373  KipuBank__TransferFailed() */\n      mload(0x40)\n      0x2ae871a500000000000000000000000000000000000000000000000000000000\n      dup2\n      mstore\n      0x04\n      add\n      mload(0x40)\n      dup1\n      swap2\n      sub\n      swap1\n      revert\n        /* \"contracts/kipu-bankV2.sol\":9326:9373  if (!success) revert KipuBank__TransferFailed() */\n    tag_231:\n        /* \"contracts/kipu-bankV2.sol\":9242:9385  {... */\n      pop\n        /* \"contracts/kipu-bankV2.sol\":9215:9466  if (_token == ETH_ADDRESS) {... */\n      jump(tag_232)\n    tag_226:\n        /* \"contracts/kipu-bankV2.sol\":9406:9454  IERC20(_token).safeTransfer(msg.sender, _amount) */\n      tag_233\n        /* \"contracts/kipu-bankV2.sol\":9434:9444  msg.sender */\n      caller\n        /* \"contracts/kipu-bankV2.sol\":9446:9453  _amount */\n      dup6\n        /* \"contracts/kipu-bankV2.sol\":9413:9419  _token */\n      dup8\n        /* \"contracts/kipu-bankV2.sol\":9406:9433  IERC20(_token).safeTransfer */\n      0xffffffffffffffffffffffffffffffffffffffff\n      and\n      tag_202\n      swap1\n        /* \"contracts/kipu-bankV2.sol\":9406:9454  IERC20(_token).safeTransfer(msg.sender, _amount) */\n      swap3\n      swap2\n      swap1\n      0xffffffff\n      and\n      jump\t// in\n    tag_233:\n        /* \"contracts/kipu-bankV2.sol\":9215:9466  if (_token == ETH_ADDRESS) {... */\n    tag_232:\n        /* \"contracts/kipu-bankV2.sol\":9505:9511  _token */\n      dup5\n        /* \"contracts/kipu-bankV2.sol\":9483:9539  Withdrawn(msg.sender, _token, _amount, withdrawValueUSD) */\n      0xffffffffffffffffffffffffffffffffffffffff\n      and\n        /* \"contracts/kipu-bankV2.sol\":9493:9503  msg.sender */\n      caller\n        /* \"contracts/kipu-bankV2.sol\":9483:9539  Withdrawn(msg.sender, _token, _amount, withdrawValueUSD) */\n      0xffffffffffffffffffffffffffffffffffffffff\n      and\n      0x91fb9d98b786c57d74c099ccd2beca1739e9f6a81fb49001ca465c4b7591bbe2\n        /* \"contracts/kipu-bankV2.sol\":9513:9520  _amount */\n      dup7\n        /* \"contracts/kipu-bankV2.sol\":9522:9538  withdrawValueUSD */\n      dup5\n        /* \"contracts/kipu-bankV2.sol\":9483:9539  Withdrawn(msg.sender, _token, _amount, withdrawValueUSD) */\n      mload(0x40)\n      tag_234\n      swap3\n      swap2\n      swap1\n      tag_151\n      jump\t// in\n    tag_234:\n      mload(0x40)\n      dup1\n      swap2\n      sub\n      swap1\n      log3\n        /* \"contracts/kipu-bankV2.sol\":8364:9547  {... */\n      pop\n      pop\n        /* \"contracts/kipu-bankV2.sol\":8281:9547  function withdraw(address _token, uint256 _amount) external nonZeroAmount(_amount) {... */\n      pop\n      pop\n      pop\n      jump\t// out\n        /* \"contracts/kipu-bankV2.sol\":2607:2659  mapping(address => TokenConfig) public s_tokenConfig */\n    tag_127:\n      mstore(0x20, 0x05)\n      dup1\n      0x00\n      mstore\n      keccak256(0x00, 0x40)\n      0x00\n      swap2\n      pop\n      swap1\n      pop\n      dup1\n      0x00\n      add\n      0x00\n      swap1\n      sload\n      swap1\n      0x0100\n      exp\n      swap1\n      div\n      0xffffffffffffffffffffffffffffffffffffffff\n      and\n      swap1\n      dup1\n      0x00\n      add\n      0x14\n      swap1\n      sload\n      swap1\n      0x0100\n      exp\n      swap1\n      div\n      0xff\n      and\n      swap1\n      pop\n      dup3\n      jump\t// out\n        /* \"contracts/kipu-bankV2.sol\":11778:12292  function allowToken(... */\n    tag_134:\n        /* \"@openzeppelin/contracts/access/Ownable.sol\":1531:1544  _checkOwner() */\n      tag_236\n        /* \"@openzeppelin/contracts/access/Ownable.sol\":1531:1542  _checkOwner */\n      tag_179\n        /* \"@openzeppelin/contracts/access/Ownable.sol\":1531:1544  _checkOwner() */\n      jump\t// in\n    tag_236:\n        /* \"contracts/kipu-bankV2.sol\":1243:1244  0 */\n      0x00\n        /* \"contracts/kipu-bankV2.sol\":11919:11940  _token == ETH_ADDRESS */\n      0xffffffffffffffffffffffffffffffffffffffff\n      and\n        /* \"contracts/kipu-bankV2.sol\":11919:11925  _token */\n      dup4\n        /* \"contracts/kipu-bankV2.sol\":11919:11940  _token == ETH_ADDRESS */\n      0xffffffffffffffffffffffffffffffffffffffff\n      and\n      sub\n        /* \"contracts/kipu-bankV2.sol\":11915:11982  if (_token == ETH_ADDRESS) revert KipuBank__TokenNotAllowed(_token) */\n      tag_238\n      jumpi\n        /* \"contracts/kipu-bankV2.sol\":11975:11981  _token */\n      dup3\n        /* \"contracts/kipu-bankV2.sol\":11949:11982  KipuBank__TokenNotAllowed(_token) */\n      mload(0x40)\n      0xfb21d4aa00000000000000000000000000000000000000000000000000000000\n      dup2\n      mstore\n      0x04\n      add\n      tag_239\n      swap2\n      swap1\n      tag_78\n      jump\t// in\n    tag_239:\n      mload(0x40)\n      dup1\n      swap2\n      sub\n      swap1\n      revert\n        /* \"contracts/kipu-bankV2.sol\":11915:11982  if (_token == ETH_ADDRESS) revert KipuBank__TokenNotAllowed(_token) */\n    tag_238:\n        /* \"contracts/kipu-bankV2.sol\":12019:12020  0 */\n      0x00\n        /* \"contracts/kipu-bankV2.sol\":11997:12021  _priceFeed == address(0) */\n      0xffffffffffffffffffffffffffffffffffffffff\n      and\n        /* \"contracts/kipu-bankV2.sol\":11997:12007  _priceFeed */\n      dup3\n        /* \"contracts/kipu-bankV2.sol\":11997:12021  _priceFeed == address(0) */\n      0xffffffffffffffffffffffffffffffffffffffff\n      and\n      sub\n        /* \"contracts/kipu-bankV2.sol\":11993:12095  if (_priceFeed == address(0)) {... */\n      tag_240\n      jumpi\n        /* \"contracts/kipu-bankV2.sol\":12072:12082  _priceFeed */\n      dup2\n        /* \"contracts/kipu-bankV2.sol\":12045:12083  KipuBank__InvalidPriceFeed(_priceFeed) */\n      mload(0x40)\n      0x18378d8c00000000000000000000000000000000000000000000000000000000\n      dup2\n      mstore\n      0x04\n      add\n      tag_241\n      swap2\n      swap1\n      tag_78\n      jump\t// in\n    tag_241:\n      mload(0x40)\n      dup1\n      swap2\n      sub\n      swap1\n      revert\n        /* \"contracts/kipu-bankV2.sol\":11993:12095  if (_priceFeed == address(0)) {... */\n    tag_240:\n        /* \"contracts/kipu-bankV2.sol\":12131:12225  TokenConfig({... */\n      mload(0x40)\n      dup1\n      0x40\n      add\n      0x40\n      mstore\n      dup1\n        /* \"contracts/kipu-bankV2.sol\":12169:12179  _priceFeed */\n      dup4\n        /* \"contracts/kipu-bankV2.sol\":12131:12225  TokenConfig({... */\n      0xffffffffffffffffffffffffffffffffffffffff\n      and\n      dup2\n      mstore\n      0x20\n      add\n        /* \"contracts/kipu-bankV2.sol\":12204:12213  _decimals */\n      dup3\n        /* \"contracts/kipu-bankV2.sol\":12131:12225  TokenConfig({... */\n      0xff\n      and\n      dup2\n      mstore\n      pop\n        /* \"contracts/kipu-bankV2.sol\":12107:12120  s_tokenConfig */\n      0x05\n        /* \"contracts/kipu-bankV2.sol\":12107:12128  s_tokenConfig[_token] */\n      0x00\n        /* \"contracts/kipu-bankV2.sol\":12121:12127  _token */\n      dup6\n        /* \"contracts/kipu-bankV2.sol\":12107:12128  s_tokenConfig[_token] */\n      0xffffffffffffffffffffffffffffffffffffffff\n      and\n      0xffffffffffffffffffffffffffffffffffffffff\n      and\n      dup2\n      mstore\n      0x20\n      add\n      swap1\n      dup2\n      mstore\n      0x20\n      add\n      0x00\n      keccak256\n        /* \"contracts/kipu-bankV2.sol\":12107:12225  s_tokenConfig[_token] = TokenConfig({... */\n      0x00\n      dup3\n      add\n      mload\n      dup2\n      0x00\n      add\n      exp(0x0100, 0x00)\n      dup2\n      sload\n      dup2\n      0xffffffffffffffffffffffffffffffffffffffff\n      mul\n      not\n      and\n      swap1\n      dup4\n      0xffffffffffffffffffffffffffffffffffffffff\n      and\n      mul\n      or\n      swap1\n      sstore\n      pop\n      0x20\n      dup3\n      add\n      mload\n      dup2\n      0x00\n      add\n      exp(0x0100, 0x14)\n      dup2\n      sload\n      dup2\n      0xff\n      mul\n      not\n      and\n      swap1\n      dup4\n      0xff\n      and\n      mul\n      or\n      swap1\n      sstore\n      pop\n      swap1\n      pop\n      pop\n        /* \"contracts/kipu-bankV2.sol\":12262:12272  _priceFeed */\n      dup2\n        /* \"contracts/kipu-bankV2.sol\":12241:12284  TokenAllowed(_token, _priceFeed, _decimals) */\n      0xffffffffffffffffffffffffffffffffffffffff\n      and\n        /* \"contracts/kipu-bankV2.sol\":12254:12260  _token */\n      dup4\n        /* \"contracts/kipu-bankV2.sol\":12241:12284  TokenAllowed(_token, _priceFeed, _decimals) */\n      0xffffffffffffffffffffffffffffffffffffffff\n      and\n      0x6d28000829e988111dfd4f9075c2dc3f734e48013bc94e9ffbc8e523687314d7\n        /* \"contracts/kipu-bankV2.sol\":12274:12283  _decimals */\n      dup4\n        /* \"contracts/kipu-bankV2.sol\":12241:12284  TokenAllowed(_token, _priceFeed, _decimals) */\n      mload(0x40)\n      tag_242\n      swap2\n      swap1\n      tag_51\n      jump\t// in\n    tag_242:\n      mload(0x40)\n      dup1\n      swap2\n      sub\n      swap1\n      log3\n        /* \"contracts/kipu-bankV2.sol\":11778:12292  function allowToken(... */\n      pop\n      pop\n      pop\n      jump\t// out\n        /* \"contracts/kipu-bankV2.sol\":13604:13797  function _checkTokenAllowed(address _token) private view {... */\n    tag_137:\n        /* \"contracts/kipu-bankV2.sol\":13719:13720  0 */\n      0x00\n        /* \"contracts/kipu-bankV2.sol\":13676:13721  s_tokenConfig[_token].priceFeed == address(0) */\n      0xffffffffffffffffffffffffffffffffffffffff\n      and\n        /* \"contracts/kipu-bankV2.sol\":13676:13689  s_tokenConfig */\n      0x05\n        /* \"contracts/kipu-bankV2.sol\":13676:13697  s_tokenConfig[_token] */\n      0x00\n        /* \"contracts/kipu-bankV2.sol\":13690:13696  _token */\n      dup4\n        /* \"contracts/kipu-bankV2.sol\":13676:13697  s_tokenConfig[_token] */\n      0xffffffffffffffffffffffffffffffffffffffff\n      and\n      0xffffffffffffffffffffffffffffffffffffffff\n      and\n      dup2\n      mstore\n      0x20\n      add\n      swap1\n      dup2\n      mstore\n      0x20\n      add\n      0x00\n      keccak256\n        /* \"contracts/kipu-bankV2.sol\":13676:13707  s_tokenConfig[_token].priceFeed */\n      0x00\n      add\n      0x00\n      swap1\n      sload\n      swap1\n      0x0100\n      exp\n      swap1\n      div\n      0xffffffffffffffffffffffffffffffffffffffff\n      and\n        /* \"contracts/kipu-bankV2.sol\":13676:13721  s_tokenConfig[_token].priceFeed == address(0) */\n      0xffffffffffffffffffffffffffffffffffffffff\n      and\n      sub\n        /* \"contracts/kipu-bankV2.sol\":13672:13790  if (s_tokenConfig[_token].priceFeed == address(0)) {... */\n      tag_244\n      jumpi\n        /* \"contracts/kipu-bankV2.sol\":13771:13777  _token */\n      dup1\n        /* \"contracts/kipu-bankV2.sol\":13745:13778  KipuBank__TokenNotAllowed(_token) */\n      mload(0x40)\n      0xfb21d4aa00000000000000000000000000000000000000000000000000000000\n      dup2\n      mstore\n      0x04\n      add\n      tag_245\n      swap2\n      swap1\n      tag_78\n      jump\t// in\n    tag_245:\n      mload(0x40)\n      dup1\n      swap2\n      sub\n      swap1\n      revert\n        /* \"contracts/kipu-bankV2.sol\":13672:13790  if (s_tokenConfig[_token].priceFeed == address(0)) {... */\n    tag_244:\n        /* \"contracts/kipu-bankV2.sol\":13604:13797  function _checkTokenAllowed(address _token) private view {... */\n      pop\n      jump\t// out\n        /* \"@openzeppelin/contracts/token/ERC20/utils/SafeERC20.sol\":1618:1806  function safeTransferFrom(IERC20 token, address from, address to, uint256 value) internal {... */\n    tag_149:\n        /* \"@openzeppelin/contracts/token/ERC20/utils/SafeERC20.sol\":1718:1799  _callOptionalReturn(token, abi.encodeCall(token.transferFrom, (from, to, value))) */\n      tag_247\n        /* \"@openzeppelin/contracts/token/ERC20/utils/SafeERC20.sol\":1738:1743  token */\n      dup5\n        /* \"@openzeppelin/contracts/token/ERC20/utils/SafeERC20.sol\":1760:1765  token */\n      dup6\n        /* \"@openzeppelin/contracts/token/ERC20/utils/SafeERC20.sol\":1760:1778  token.transferFrom */\n      0xffffffffffffffffffffffffffffffffffffffff\n      and\n      0x23b872dd\n        /* \"@openzeppelin/contracts/token/ERC20/utils/SafeERC20.sol\":1781:1785  from */\n      dup7\n        /* \"@openzeppelin/contracts/token/ERC20/utils/SafeERC20.sol\":1787:1789  to */\n      dup7\n        /* \"@openzeppelin/contracts/token/ERC20/utils/SafeERC20.sol\":1791:1796  value */\n      dup7\n        /* \"@openzeppelin/contracts/token/ERC20/utils/SafeERC20.sol\":1745:1798  abi.encodeCall(token.transferFrom, (from, to, value)) */\n      add(0x24, mload(0x40))\n      tag_248\n      swap4\n      swap3\n      swap2\n      swap1\n      tag_249\n      jump\t// in\n    tag_248:\n      mload(0x40)\n      0x20\n      dup2\n      dup4\n      sub\n      sub\n      dup2\n      mstore\n      swap1\n      0x40\n      mstore\n      swap2\n      pop\n      0xe0\n      shl\n      0x20\n      dup3\n      add\n      dup1\n      mload\n      0xffffffffffffffffffffffffffffffffffffffffffffffffffffffff\n      dup4\n      dup2\n      dup4\n      and\n      or\n      dup4\n      mstore\n      pop\n      pop\n      pop\n      pop\n        /* \"@openzeppelin/contracts/token/ERC20/utils/SafeERC20.sol\":1718:1737  _callOptionalReturn */\n      tag_250\n        /* \"@openzeppelin/contracts/token/ERC20/utils/SafeERC20.sol\":1718:1799  _callOptionalReturn(token, abi.encodeCall(token.transferFrom, (from, to, value))) */\n      jump\t// in\n    tag_247:\n        /* \"@openzeppelin/contracts/token/ERC20/utils/SafeERC20.sol\":1618:1806  function safeTransferFrom(IERC20 token, address from, address to, uint256 value) internal {... */\n      pop\n      pop\n      pop\n      pop\n      jump\t// out\n        /* \"@openzeppelin/contracts/access/Ownable.sol\":1796:1958  function _checkOwner() internal view virtual {... */\n    tag_179:\n        /* \"@openzeppelin/contracts/access/Ownable.sol\":1866:1878  _msgSender() */\n      tag_252\n        /* \"@openzeppelin/contracts/access/Ownable.sol\":1866:1876  _msgSender */\n      tag_253\n        /* \"@openzeppelin/contracts/access/Ownable.sol\":1866:1878  _msgSender() */\n      jump\t// in\n    tag_252:\n        /* \"@openzeppelin/contracts/access/Ownable.sol\":1855:1878  owner() != _msgSender() */\n      0xffffffffffffffffffffffffffffffffffffffff\n      and\n        /* \"@openzeppelin/contracts/access/Ownable.sol\":1855:1862  owner() */\n      tag_254\n        /* \"@openzeppelin/contracts/access/Ownable.sol\":1855:1860  owner */\n      tag_76\n        /* \"@openzeppelin/contracts/access/Ownable.sol\":1855:1862  owner() */\n      jump\t// in\n    tag_254:\n        /* \"@openzeppelin/contracts/access/Ownable.sol\":1855:1878  owner() != _msgSender() */\n      0xffffffffffffffffffffffffffffffffffffffff\n      and\n      eq\n        /* \"@openzeppelin/contracts/access/Ownable.sol\":1851:1952  if (owner() != _msgSender()) {... */\n      tag_255\n      jumpi\n        /* \"@openzeppelin/contracts/access/Ownable.sol\":1928:1940  _msgSender() */\n      tag_256\n        /* \"@openzeppelin/contracts/access/Ownable.sol\":1928:1938  _msgSender */\n      tag_253\n        /* \"@openzeppelin/contracts/access/Ownable.sol\":1928:1940  _msgSender() */\n      jump\t// in\n    tag_256:\n        /* \"@openzeppelin/contracts/access/Ownable.sol\":1901:1941  OwnableUnauthorizedAccount(_msgSender()) */\n      mload(0x40)\n      0x118cdaa700000000000000000000000000000000000000000000000000000000\n      dup2\n      mstore\n      0x04\n      add\n      tag_257\n      swap2\n      swap1\n      tag_78\n      jump\t// in\n    tag_257:\n      mload(0x40)\n      dup1\n      swap2\n      sub\n      swap1\n      revert\n        /* \"@openzeppelin/contracts/access/Ownable.sol\":1851:1952  if (owner() != _msgSender()) {... */\n    tag_255:\n        /* \"@openzeppelin/contracts/access/Ownable.sol\":1796:1958  function _checkOwner() internal view virtual {... */\n      jump\t// out\n        /* \"@openzeppelin/contracts/access/Ownable.sol\":2912:3099  function _transferOwnership(address newOwner) internal virtual {... */\n    tag_182:\n        /* \"@openzeppelin/contracts/access/Ownable.sol\":2985:3001  address oldOwner */\n      0x00\n        /* \"@openzeppelin/contracts/access/Ownable.sol\":3004:3010  _owner */\n      0x00\n      0x00\n      swap1\n      sload\n      swap1\n      0x0100\n      exp\n      swap1\n      div\n      0xffffffffffffffffffffffffffffffffffffffff\n      and\n        /* \"@openzeppelin/contracts/access/Ownable.sol\":2985:3010  address oldOwner = _owner */\n      swap1\n      pop\n        /* \"@openzeppelin/contracts/access/Ownable.sol\":3029:3037  newOwner */\n      dup2\n        /* \"@openzeppelin/contracts/access/Ownable.sol\":3020:3026  _owner */\n      0x00\n      0x00\n        /* \"@openzeppelin/contracts/access/Ownable.sol\":3020:3037  _owner = newOwner */\n      0x0100\n      exp\n      dup2\n      sload\n      dup2\n      0xffffffffffffffffffffffffffffffffffffffff\n      mul\n      not\n      and\n      swap1\n      dup4\n      0xffffffffffffffffffffffffffffffffffffffff\n      and\n      mul\n      or\n      swap1\n      sstore\n      pop\n        /* \"@openzeppelin/contracts/access/Ownable.sol\":3083:3091  newOwner */\n      dup2\n        /* \"@openzeppelin/contracts/access/Ownable.sol\":3052:3092  OwnershipTransferred(oldOwner, newOwner) */\n      0xffffffffffffffffffffffffffffffffffffffff\n      and\n        /* \"@openzeppelin/contracts/access/Ownable.sol\":3073:3081  oldOwner */\n      dup2\n        /* \"@openzeppelin/contracts/access/Ownable.sol\":3052:3092  OwnershipTransferred(oldOwner, newOwner) */\n      0xffffffffffffffffffffffffffffffffffffffff\n      and\n      0x8be0079c531659141344cd1fd0a4f28419497f9722a3daafe3b4186f6b6457e0\n      mload(0x40)\n      mload(0x40)\n      dup1\n      swap2\n      sub\n      swap1\n      log3\n        /* \"@openzeppelin/contracts/access/Ownable.sol\":2975:3099  {... */\n      pop\n        /* \"@openzeppelin/contracts/access/Ownable.sol\":2912:3099  function _transferOwnership(address newOwner) internal virtual {... */\n      pop\n      jump\t// out\n        /* \"@openzeppelin/contracts/token/ERC20/utils/SafeERC20.sol\":1219:1379  function safeTransfer(IERC20 token, address to, uint256 value) internal {... */\n    tag_202:\n        /* \"@openzeppelin/contracts/token/ERC20/utils/SafeERC20.sol\":1301:1372  _callOptionalReturn(token, abi.encodeCall(token.transfer, (to, value))) */\n      tag_260\n        /* \"@openzeppelin/contracts/token/ERC20/utils/SafeERC20.sol\":1321:1326  token */\n      dup4\n        /* \"@openzeppelin/contracts/token/ERC20/utils/SafeERC20.sol\":1343:1348  token */\n      dup5\n        /* \"@openzeppelin/contracts/token/ERC20/utils/SafeERC20.sol\":1343:1357  token.transfer */\n      0xffffffffffffffffffffffffffffffffffffffff\n      and\n      0xa9059cbb\n        /* \"@openzeppelin/contracts/token/ERC20/utils/SafeERC20.sol\":1360:1362  to */\n      dup6\n        /* \"@openzeppelin/contracts/token/ERC20/utils/SafeERC20.sol\":1364:1369  value */\n      dup6\n        /* \"@openzeppelin/contracts/token/ERC20/utils/SafeERC20.sol\":1328:1371  abi.encodeCall(token.transfer, (to, value)) */\n      add(0x24, mload(0x40))\n      tag_261\n      swap3\n      swap2\n      swap1\n      tag_262\n      jump\t// in\n    tag_261:\n      mload(0x40)\n      0x20\n      dup2\n      dup4\n      sub\n      sub\n      dup2\n      mstore\n      swap1\n      0x40\n      mstore\n      swap2\n      pop\n      0xe0\n      shl\n      0x20\n      dup3\n      add\n      dup1\n      mload\n      0xffffffffffffffffffffffffffffffffffffffffffffffffffffffff\n      dup4\n      dup2\n      dup4\n      and\n      or\n      dup4\n      mstore\n      pop\n      pop\n      pop\n      pop\n        /* \"@openzeppelin/contracts/token/ERC20/utils/SafeERC20.sol\":1301:1320  _callOptionalReturn */\n      tag_250\n        /* \"@openzeppelin/contracts/token/ERC20/utils/SafeERC20.sol\":1301:1372  _callOptionalReturn(token, abi.encodeCall(token.transfer, (to, value))) */\n      jump\t// in\n    tag_260:\n        /* \"@openzeppelin/contracts/token/ERC20/utils/SafeERC20.sol\":1219:1379  function safeTransfer(IERC20 token, address to, uint256 value) internal {... */\n      pop\n      pop\n      pop\n      jump\t// out\n        /* \"@openzeppelin/contracts/token/ERC20/utils/SafeERC20.sol\":8370:9090  function _callOptionalReturn(IERC20 token, bytes memory data) private {... */\n    tag_250:\n        /* \"@openzeppelin/contracts/token/ERC20/utils/SafeERC20.sol\":8450:8468  uint256 returnSize */\n      0x00\n        /* \"@openzeppelin/contracts/token/ERC20/utils/SafeERC20.sol\":8478:8497  uint256 returnValue */\n      0x00\n        /* \"@openzeppelin/contracts/token/ERC20/utils/SafeERC20.sol\":8616:8620  0x20 */\n      0x20\n        /* \"@openzeppelin/contracts/token/ERC20/utils/SafeERC20.sol\":8613:8614  0 */\n      0x00\n        /* \"@openzeppelin/contracts/token/ERC20/utils/SafeERC20.sol\":8606:8610  data */\n      dup5\n        /* \"@openzeppelin/contracts/token/ERC20/utils/SafeERC20.sol\":8600:8611  mload(data) */\n      mload\n        /* \"@openzeppelin/contracts/token/ERC20/utils/SafeERC20.sol\":8593:8597  0x20 */\n      0x20\n        /* \"@openzeppelin/contracts/token/ERC20/utils/SafeERC20.sol\":8587:8591  data */\n      dup7\n        /* \"@openzeppelin/contracts/token/ERC20/utils/SafeERC20.sol\":8583:8598  add(data, 0x20) */\n      add\n        /* \"@openzeppelin/contracts/token/ERC20/utils/SafeERC20.sol\":8580:8581  0 */\n      0x00\n        /* \"@openzeppelin/contracts/token/ERC20/utils/SafeERC20.sol\":8573:8578  token */\n      dup9\n        /* \"@openzeppelin/contracts/token/ERC20/utils/SafeERC20.sol\":8566:8571  gas() */\n      gas\n        /* \"@openzeppelin/contracts/token/ERC20/utils/SafeERC20.sol\":8561:8621  call(gas(), token, 0, add(data, 0x20), mload(data), 0, 0x20) */\n      call\n        /* \"@openzeppelin/contracts/token/ERC20/utils/SafeERC20.sol\":8673:8680  success */\n      dup1\n        /* \"@openzeppelin/contracts/token/ERC20/utils/SafeERC20.sol\":8663:8839  if iszero(success) {... */\n      tag_264\n      jumpi\n        /* \"@openzeppelin/contracts/token/ERC20/utils/SafeERC20.sol\":8717:8721  0x40 */\n      0x40\n        /* \"@openzeppelin/contracts/token/ERC20/utils/SafeERC20.sol\":8711:8722  mload(0x40) */\n      mload\n        /* \"@openzeppelin/contracts/token/ERC20/utils/SafeERC20.sol\":8762:8778  returndatasize() */\n      returndatasize\n        /* \"@openzeppelin/contracts/token/ERC20/utils/SafeERC20.sol\":8759:8760  0 */\n      0x00\n        /* \"@openzeppelin/contracts/token/ERC20/utils/SafeERC20.sol\":8754:8757  ptr */\n      dup3\n        /* \"@openzeppelin/contracts/token/ERC20/utils/SafeERC20.sol\":8739:8779  returndatacopy(ptr, 0, returndatasize()) */\n      returndatacopy\n        /* \"@openzeppelin/contracts/token/ERC20/utils/SafeERC20.sol\":8808:8824  returndatasize() */\n      returndatasize\n        /* \"@openzeppelin/contracts/token/ERC20/utils/SafeERC20.sol\":8803:8806  ptr */\n      dup2\n        /* \"@openzeppelin/contracts/token/ERC20/utils/SafeERC20.sol\":8796:8825  revert(ptr, returndatasize()) */\n      revert\n        /* \"@openzeppelin/contracts/token/ERC20/utils/SafeERC20.sol\":8663:8839  if iszero(success) {... */\n    tag_264:\n        /* \"@openzeppelin/contracts/token/ERC20/utils/SafeERC20.sol\":8866:8882  returndatasize() */\n      returndatasize\n        /* \"@openzeppelin/contracts/token/ERC20/utils/SafeERC20.sol\":8852:8882  returnSize := returndatasize() */\n      swap3\n      pop\n        /* \"@openzeppelin/contracts/token/ERC20/utils/SafeERC20.sol\":8916:8917  0 */\n      0x00\n        /* \"@openzeppelin/contracts/token/ERC20/utils/SafeERC20.sol\":8910:8918  mload(0) */\n      mload\n        /* \"@openzeppelin/contracts/token/ERC20/utils/SafeERC20.sol\":8895:8918  returnValue := mload(0) */\n      swap2\n      pop\n        /* \"@openzeppelin/contracts/token/ERC20/utils/SafeERC20.sol\":8532:8928  {... */\n      pop\n        /* \"@openzeppelin/contracts/token/ERC20/utils/SafeERC20.sol\":8956:8957  0 */\n      0x00\n        /* \"@openzeppelin/contracts/token/ERC20/utils/SafeERC20.sol\":8942:8952  returnSize */\n      dup3\n        /* \"@openzeppelin/contracts/token/ERC20/utils/SafeERC20.sol\":8942:8957  returnSize == 0 */\n      eq\n        /* \"@openzeppelin/contracts/token/ERC20/utils/SafeERC20.sol\":8942:9010  returnSize == 0 ? address(token).code.length == 0 : returnValue != 1 */\n      tag_265\n      jumpi\n        /* \"@openzeppelin/contracts/token/ERC20/utils/SafeERC20.sol\":9009:9010  1 */\n      0x01\n        /* \"@openzeppelin/contracts/token/ERC20/utils/SafeERC20.sol\":8994:9005  returnValue */\n      dup2\n        /* \"@openzeppelin/contracts/token/ERC20/utils/SafeERC20.sol\":8994:9010  returnValue != 1 */\n      eq\n      iszero\n        /* \"@openzeppelin/contracts/token/ERC20/utils/SafeERC20.sol\":8942:9010  returnSize == 0 ? address(token).code.length == 0 : returnValue != 1 */\n      jump(tag_266)\n    tag_265:\n        /* \"@openzeppelin/contracts/token/ERC20/utils/SafeERC20.sol\":8990:8991  0 */\n      0x00\n        /* \"@openzeppelin/contracts/token/ERC20/utils/SafeERC20.sol\":8968:8973  token */\n      dup5\n        /* \"@openzeppelin/contracts/token/ERC20/utils/SafeERC20.sol\":8960:8986  address(token).code.length */\n      0xffffffffffffffffffffffffffffffffffffffff\n      and\n      extcodesize\n        /* \"@openzeppelin/contracts/token/ERC20/utils/SafeERC20.sol\":8960:8991  address(token).code.length == 0 */\n      eq\n        /* \"@openzeppelin/contracts/token/ERC20/utils/SafeERC20.sol\":8942:9010  returnSize == 0 ? address(token).code.length == 0 : returnValue != 1 */\n    tag_266:\n        /* \"@openzeppelin/contracts/token/ERC20/utils/SafeERC20.sol\":8938:9084  if (returnSize == 0 ? address(token).code.length == 0 : returnValue != 1) {... */\n      iszero\n      tag_267\n      jumpi\n        /* \"@openzeppelin/contracts/token/ERC20/utils/SafeERC20.sol\":9066:9071  token */\n      dup4\n        /* \"@openzeppelin/contracts/token/ERC20/utils/SafeERC20.sol\":9033:9073  SafeERC20FailedOperation(address(token)) */\n      mload(0x40)\n      0x5274afe700000000000000000000000000000000000000000000000000000000\n      dup2\n      mstore\n      0x04\n      add\n      tag_268\n      swap2\n      swap1\n      tag_78\n      jump\t// in\n    tag_268:\n      mload(0x40)\n      dup1\n      swap2\n      sub\n      swap1\n      revert\n        /* \"@openzeppelin/contracts/token/ERC20/utils/SafeERC20.sol\":8938:9084  if (returnSize == 0 ? address(token).code.length == 0 : returnValue != 1) {... */\n    tag_267:\n        /* \"@openzeppelin/contracts/token/ERC20/utils/SafeERC20.sol\":8440:9090  {... */\n      pop\n      pop\n        /* \"@openzeppelin/contracts/token/ERC20/utils/SafeERC20.sol\":8370:9090  function _callOptionalReturn(IERC20 token, bytes memory data) private {... */\n      pop\n      pop\n      jump\t// out\n        /* \"@openzeppelin/contracts/utils/Context.sol\":656:752  function _msgSender() internal view virtual returns (address) {... */\n    tag_253:\n        /* \"@openzeppelin/contracts/utils/Context.sol\":709:716  address */\n      0x00\n        /* \"@openzeppelin/contracts/utils/Context.sol\":735:745  msg.sender */\n      caller\n        /* \"@openzeppelin/contracts/utils/Context.sol\":728:745  return msg.sender */\n      swap1\n      pop\n        /* \"@openzeppelin/contracts/utils/Context.sol\":656:752  function _msgSender() internal view virtual returns (address) {... */\n      swap1\n      jump\t// out\n    tag_204:\n      mload(0x40)\n      dup1\n      0x40\n      add\n      0x40\n      mstore\n      dup1\n      and(0xffffffffffffffffffffffffffffffffffffffff, 0x00)\n      dup2\n      mstore\n      0x20\n      add\n      and(0xff, 0x00)\n      dup2\n      mstore\n      pop\n      swap1\n      jump\t// out\n        /* \"#utility.yul\":7:84   */\n    tag_270:\n        /* \"#utility.yul\":44:51   */\n      0x00\n        /* \"#utility.yul\":73:78   */\n      dup2\n        /* \"#utility.yul\":62:78   */\n      swap1\n      pop\n        /* \"#utility.yul\":7:84   */\n      swap2\n      swap1\n      pop\n      jump\t// out\n        /* \"#utility.yul\":90:208   */\n    tag_271:\n        /* \"#utility.yul\":177:201   */\n      tag_307\n        /* \"#utility.yul\":195:200   */\n      dup2\n        /* \"#utility.yul\":177:201   */\n      tag_270\n      jump\t// in\n    tag_307:\n        /* \"#utility.yul\":172:175   */\n      dup3\n        /* \"#utility.yul\":165:202   */\n      mstore\n        /* \"#utility.yul\":90:208   */\n      pop\n      pop\n      jump\t// out\n        /* \"#utility.yul\":214:436   */\n    tag_40:\n        /* \"#utility.yul\":307:311   */\n      0x00\n        /* \"#utility.yul\":345:347   */\n      0x20\n        /* \"#utility.yul\":334:343   */\n      dup3\n        /* \"#utility.yul\":330:348   */\n      add\n        /* \"#utility.yul\":322:348   */\n      swap1\n      pop\n        /* \"#utility.yul\":358:429   */\n      tag_309\n        /* \"#utility.yul\":426:427   */\n      0x00\n        /* \"#utility.yul\":415:424   */\n      dup4\n        /* \"#utility.yul\":411:428   */\n      add\n        /* \"#utility.yul\":402:408   */\n      dup5\n        /* \"#utility.yul\":358:429   */\n      tag_271\n      jump\t// in\n    tag_309:\n        /* \"#utility.yul\":214:436   */\n      swap3\n      swap2\n      pop\n      pop\n      jump\t// out\n        /* \"#utility.yul\":523:640   */\n    tag_273:\n        /* \"#utility.yul\":632:633   */\n      0x00\n        /* \"#utility.yul\":629:630   */\n      0x00\n        /* \"#utility.yul\":622:634   */\n      revert\n        /* \"#utility.yul\":769:895   */\n    tag_275:\n        /* \"#utility.yul\":806:813   */\n      0x00\n        /* \"#utility.yul\":846:888   */\n      0xffffffffffffffffffffffffffffffffffffffff\n        /* \"#utility.yul\":839:844   */\n      dup3\n        /* \"#utility.yul\":835:889   */\n      and\n        /* \"#utility.yul\":824:889   */\n      swap1\n      pop\n        /* \"#utility.yul\":769:895   */\n      swap2\n      swap1\n      pop\n      jump\t// out\n        /* \"#utility.yul\":901:997   */\n    tag_276:\n        /* \"#utility.yul\":938:945   */\n      0x00\n        /* \"#utility.yul\":967:991   */\n      tag_315\n        /* \"#utility.yul\":985:990   */\n      dup3\n        /* \"#utility.yul\":967:991   */\n      tag_275\n      jump\t// in\n    tag_315:\n        /* \"#utility.yul\":956:991   */\n      swap1\n      pop\n        /* \"#utility.yul\":901:997   */\n      swap2\n      swap1\n      pop\n      jump\t// out\n        /* \"#utility.yul\":1003:1125   */\n    tag_277:\n        /* \"#utility.yul\":1076:1100   */\n      tag_317\n        /* \"#utility.yul\":1094:1099   */\n      dup2\n        /* \"#utility.yul\":1076:1100   */\n      tag_276\n      jump\t// in\n    tag_317:\n        /* \"#utility.yul\":1069:1074   */\n      dup2\n        /* \"#utility.yul\":1066:1101   */\n      eq\n        /* \"#utility.yul\":1056:1119   */\n      tag_318\n      jumpi\n        /* \"#utility.yul\":1115:1116   */\n      0x00\n        /* \"#utility.yul\":1112:1113   */\n      0x00\n        /* \"#utility.yul\":1105:1117   */\n      revert\n        /* \"#utility.yul\":1056:1119   */\n    tag_318:\n        /* \"#utility.yul\":1003:1125   */\n      pop\n      jump\t// out\n        /* \"#utility.yul\":1131:1270   */\n    tag_278:\n        /* \"#utility.yul\":1177:1182   */\n      0x00\n        /* \"#utility.yul\":1215:1221   */\n      dup2\n        /* \"#utility.yul\":1202:1222   */\n      calldataload\n        /* \"#utility.yul\":1193:1222   */\n      swap1\n      pop\n        /* \"#utility.yul\":1231:1264   */\n      tag_320\n        /* \"#utility.yul\":1258:1263   */\n      dup2\n        /* \"#utility.yul\":1231:1264   */\n      tag_277\n      jump\t// in\n    tag_320:\n        /* \"#utility.yul\":1131:1270   */\n      swap3\n      swap2\n      pop\n      pop\n      jump\t// out\n        /* \"#utility.yul\":1276:1398   */\n    tag_279:\n        /* \"#utility.yul\":1349:1373   */\n      tag_322\n        /* \"#utility.yul\":1367:1372   */\n      dup2\n        /* \"#utility.yul\":1349:1373   */\n      tag_270\n      jump\t// in\n    tag_322:\n        /* \"#utility.yul\":1342:1347   */\n      dup2\n        /* \"#utility.yul\":1339:1374   */\n      eq\n        /* \"#utility.yul\":1329:1392   */\n      tag_323\n      jumpi\n        /* \"#utility.yul\":1388:1389   */\n      0x00\n        /* \"#utility.yul\":1385:1386   */\n      0x00\n        /* \"#utility.yul\":1378:1390   */\n      revert\n        /* \"#utility.yul\":1329:1392   */\n    tag_323:\n        /* \"#utility.yul\":1276:1398   */\n      pop\n      jump\t// out\n        /* \"#utility.yul\":1404:1543   */\n    tag_280:\n        /* \"#utility.yul\":1450:1455   */\n      0x00\n        /* \"#utility.yul\":1488:1494   */\n      dup2\n        /* \"#utility.yul\":1475:1495   */\n      calldataload\n        /* \"#utility.yul\":1466:1495   */\n      swap1\n      pop\n        /* \"#utility.yul\":1504:1537   */\n      tag_325\n        /* \"#utility.yul\":1531:1536   */\n      dup2\n        /* \"#utility.yul\":1504:1537   */\n      tag_279\n      jump\t// in\n    tag_325:\n        /* \"#utility.yul\":1404:1543   */\n      swap3\n      swap2\n      pop\n      pop\n      jump\t// out\n        /* \"#utility.yul\":1549:2023   */\n    tag_44:\n        /* \"#utility.yul\":1617:1623   */\n      0x00\n        /* \"#utility.yul\":1625:1631   */\n      0x00\n        /* \"#utility.yul\":1674:1676   */\n      0x40\n        /* \"#utility.yul\":1662:1671   */\n      dup4\n        /* \"#utility.yul\":1653:1660   */\n      dup6\n        /* \"#utility.yul\":1649:1672   */\n      sub\n        /* \"#utility.yul\":1645:1677   */\n      slt\n        /* \"#utility.yul\":1642:1761   */\n      iszero\n      tag_327\n      jumpi\n        /* \"#utility.yul\":1680:1759   */\n      tag_328\n      tag_273\n      jump\t// in\n    tag_328:\n        /* \"#utility.yul\":1642:1761   */\n    tag_327:\n        /* \"#utility.yul\":1800:1801   */\n      0x00\n        /* \"#utility.yul\":1825:1878   */\n      tag_329\n        /* \"#utility.yul\":1870:1877   */\n      dup6\n        /* \"#utility.yul\":1861:1867   */\n      dup3\n        /* \"#utility.yul\":1850:1859   */\n      dup7\n        /* \"#utility.yul\":1846:1868   */\n      add\n        /* \"#utility.yul\":1825:1878   */\n      tag_278\n      jump\t// in\n    tag_329:\n        /* \"#utility.yul\":1815:1878   */\n      swap3\n      pop\n        /* \"#utility.yul\":1771:1888   */\n      pop\n        /* \"#utility.yul\":1927:1929   */\n      0x20\n        /* \"#utility.yul\":1953:2006   */\n      tag_330\n        /* \"#utility.yul\":1998:2005   */\n      dup6\n        /* \"#utility.yul\":1989:1995   */\n      dup3\n        /* \"#utility.yul\":1978:1987   */\n      dup7\n        /* \"#utility.yul\":1974:1996   */\n      add\n        /* \"#utility.yul\":1953:2006   */\n      tag_280\n      jump\t// in\n    tag_330:\n        /* \"#utility.yul\":1943:2006   */\n      swap2\n      pop\n        /* \"#utility.yul\":1898:2016   */\n      pop\n        /* \"#utility.yul\":1549:2023   */\n      swap3\n      pop\n      swap3\n      swap1\n      pop\n      jump\t// out\n        /* \"#utility.yul\":2029:2115   */\n    tag_281:\n        /* \"#utility.yul\":2064:2071   */\n      0x00\n        /* \"#utility.yul\":2104:2108   */\n      0xff\n        /* \"#utility.yul\":2097:2102   */\n      dup3\n        /* \"#utility.yul\":2093:2109   */\n      and\n        /* \"#utility.yul\":2082:2109   */\n      swap1\n      pop\n        /* \"#utility.yul\":2029:2115   */\n      swap2\n      swap1\n      pop\n      jump\t// out\n        /* \"#utility.yul\":2121:2233   */\n    tag_282:\n        /* \"#utility.yul\":2204:2226   */\n      tag_333\n        /* \"#utility.yul\":2220:2225   */\n      dup2\n        /* \"#utility.yul\":2204:2226   */\n      tag_281\n      jump\t// in\n    tag_333:\n        /* \"#utility.yul\":2199:2202   */\n      dup3\n        /* \"#utility.yul\":2192:2227   */\n      mstore\n        /* \"#utility.yul\":2121:2233   */\n      pop\n      pop\n      jump\t// out\n        /* \"#utility.yul\":2239:2453   */\n    tag_51:\n        /* \"#utility.yul\":2328:2332   */\n      0x00\n        /* \"#utility.yul\":2366:2368   */\n      0x20\n        /* \"#utility.yul\":2355:2364   */\n      dup3\n        /* \"#utility.yul\":2351:2369   */\n      add\n        /* \"#utility.yul\":2343:2369   */\n      swap1\n      pop\n        /* \"#utility.yul\":2379:2446   */\n      tag_335\n        /* \"#utility.yul\":2443:2444   */\n      0x00\n        /* \"#utility.yul\":2432:2441   */\n      dup4\n        /* \"#utility.yul\":2428:2445   */\n      add\n        /* \"#utility.yul\":2419:2425   */\n      dup5\n        /* \"#utility.yul\":2379:2446   */\n      tag_282\n      jump\t// in\n    tag_335:\n        /* \"#utility.yul\":2239:2453   */\n      swap3\n      swap2\n      pop\n      pop\n      jump\t// out\n        /* \"#utility.yul\":2459:2933   */\n    tag_72:\n        /* \"#utility.yul\":2527:2533   */\n      0x00\n        /* \"#utility.yul\":2535:2541   */\n      0x00\n        /* \"#utility.yul\":2584:2586   */\n      0x40\n        /* \"#utility.yul\":2572:2581   */\n      dup4\n        /* \"#utility.yul\":2563:2570   */\n      dup6\n        /* \"#utility.yul\":2559:2582   */\n      sub\n        /* \"#utility.yul\":2555:2587   */\n      slt\n        /* \"#utility.yul\":2552:2671   */\n      iszero\n      tag_337\n      jumpi\n        /* \"#utility.yul\":2590:2669   */\n      tag_338\n      tag_273\n      jump\t// in\n    tag_338:\n        /* \"#utility.yul\":2552:2671   */\n    tag_337:\n        /* \"#utility.yul\":2710:2711   */\n      0x00\n        /* \"#utility.yul\":2735:2788   */\n      tag_339\n        /* \"#utility.yul\":2780:2787   */\n      dup6\n        /* \"#utility.yul\":2771:2777   */\n      dup3\n        /* \"#utility.yul\":2760:2769   */\n      dup7\n        /* \"#utility.yul\":2756:2778   */\n      add\n        /* \"#utility.yul\":2735:2788   */\n      tag_278\n      jump\t// in\n    tag_339:\n        /* \"#utility.yul\":2725:2788   */\n      swap3\n      pop\n        /* \"#utility.yul\":2681:2798   */\n      pop\n        /* \"#utility.yul\":2837:2839   */\n      0x20\n        /* \"#utility.yul\":2863:2916   */\n      tag_340\n        /* \"#utility.yul\":2908:2915   */\n      dup6\n        /* \"#utility.yul\":2899:2905   */\n      dup3\n        /* \"#utility.yul\":2888:2897   */\n      dup7\n        /* \"#utility.yul\":2884:2906   */\n      add\n        /* \"#utility.yul\":2863:2916   */\n      tag_278\n      jump\t// in\n    tag_340:\n        /* \"#utility.yul\":2853:2916   */\n      swap2\n      pop\n        /* \"#utility.yul\":2808:2926   */\n      pop\n        /* \"#utility.yul\":2459:2933   */\n      swap3\n      pop\n      swap3\n      swap1\n      pop\n      jump\t// out\n        /* \"#utility.yul\":2939:3057   */\n    tag_283:\n        /* \"#utility.yul\":3026:3050   */\n      tag_342\n        /* \"#utility.yul\":3044:3049   */\n      dup2\n        /* \"#utility.yul\":3026:3050   */\n      tag_276\n      jump\t// in\n    tag_342:\n        /* \"#utility.yul\":3021:3024   */\n      dup3\n        /* \"#utility.yul\":3014:3051   */\n      mstore\n        /* \"#utility.yul\":2939:3057   */\n      pop\n      pop\n      jump\t// out\n        /* \"#utility.yul\":3063:3285   */\n    tag_78:\n        /* \"#utility.yul\":3156:3160   */\n      0x00\n        /* \"#utility.yul\":3194:3196   */\n      0x20\n        /* \"#utility.yul\":3183:3192   */\n      dup3\n        /* \"#utility.yul\":3179:3197   */\n      add\n        /* \"#utility.yul\":3171:3197   */\n      swap1\n      pop\n        /* \"#utility.yul\":3207:3278   */\n      tag_344\n        /* \"#utility.yul\":3275:3276   */\n      0x00\n        /* \"#utility.yul\":3264:3273   */\n      dup4\n        /* \"#utility.yul\":3260:3277   */\n      add\n        /* \"#utility.yul\":3251:3257   */\n      dup5\n        /* \"#utility.yul\":3207:3278   */\n      tag_283\n      jump\t// in\n    tag_344:\n        /* \"#utility.yul\":3063:3285   */\n      swap3\n      swap2\n      pop\n      pop\n      jump\t// out\n        /* \"#utility.yul\":3291:3620   */\n    tag_98:\n        /* \"#utility.yul\":3350:3356   */\n      0x00\n        /* \"#utility.yul\":3399:3401   */\n      0x20\n        /* \"#utility.yul\":3387:3396   */\n      dup3\n        /* \"#utility.yul\":3378:3385   */\n      dup5\n        /* \"#utility.yul\":3374:3397   */\n      sub\n        /* \"#utility.yul\":3370:3402   */\n      slt\n        /* \"#utility.yul\":3367:3486   */\n      iszero\n      tag_346\n      jumpi\n        /* \"#utility.yul\":3405:3484   */\n      tag_347\n      tag_273\n      jump\t// in\n    tag_347:\n        /* \"#utility.yul\":3367:3486   */\n    tag_346:\n        /* \"#utility.yul\":3525:3526   */\n      0x00\n        /* \"#utility.yul\":3550:3603   */\n      tag_348\n        /* \"#utility.yul\":3595:3602   */\n      dup5\n        /* \"#utility.yul\":3586:3592   */\n      dup3\n        /* \"#utility.yul\":3575:3584   */\n      dup6\n        /* \"#utility.yul\":3571:3593   */\n      add\n        /* \"#utility.yul\":3550:3603   */\n      tag_278\n      jump\t// in\n    tag_348:\n        /* \"#utility.yul\":3540:3603   */\n      swap2\n      pop\n        /* \"#utility.yul\":3496:3613   */\n      pop\n        /* \"#utility.yul\":3291:3620   */\n      swap3\n      swap2\n      pop\n      pop\n      jump\t// out\n        /* \"#utility.yul\":3626:3734   */\n    tag_284:\n        /* \"#utility.yul\":3703:3727   */\n      tag_350\n        /* \"#utility.yul\":3721:3726   */\n      dup2\n        /* \"#utility.yul\":3703:3727   */\n      tag_276\n      jump\t// in\n    tag_350:\n        /* \"#utility.yul\":3698:3701   */\n      dup3\n        /* \"#utility.yul\":3691:3728   */\n      mstore\n        /* \"#utility.yul\":3626:3734   */\n      pop\n      pop\n      jump\t// out\n        /* \"#utility.yul\":3740:3842   */\n    tag_285:\n        /* \"#utility.yul\":3813:3835   */\n      tag_352\n        /* \"#utility.yul\":3829:3834   */\n      dup2\n        /* \"#utility.yul\":3813:3835   */\n      tag_281\n      jump\t// in\n    tag_352:\n        /* \"#utility.yul\":3808:3811   */\n      dup3\n        /* \"#utility.yul\":3801:3836   */\n      mstore\n        /* \"#utility.yul\":3740:3842   */\n      pop\n      pop\n      jump\t// out\n        /* \"#utility.yul\":3914:4432   */\n    tag_286:\n        /* \"#utility.yul\":4067:4071   */\n      0x40\n        /* \"#utility.yul\":4062:4065   */\n      dup3\n        /* \"#utility.yul\":4058:4072   */\n      add\n        /* \"#utility.yul\":4159:4163   */\n      0x00\n        /* \"#utility.yul\":4152:4157   */\n      dup3\n        /* \"#utility.yul\":4148:4164   */\n      add\n        /* \"#utility.yul\":4142:4165   */\n      mload\n        /* \"#utility.yul\":4178:4241   */\n      tag_354\n        /* \"#utility.yul\":4235:4239   */\n      0x00\n        /* \"#utility.yul\":4230:4233   */\n      dup6\n        /* \"#utility.yul\":4226:4240   */\n      add\n        /* \"#utility.yul\":4212:4224   */\n      dup3\n        /* \"#utility.yul\":4178:4241   */\n      tag_284\n      jump\t// in\n    tag_354:\n        /* \"#utility.yul\":4082:4251   */\n      pop\n        /* \"#utility.yul\":4337:4341   */\n      0x20\n        /* \"#utility.yul\":4330:4335   */\n      dup3\n        /* \"#utility.yul\":4326:4342   */\n      add\n        /* \"#utility.yul\":4320:4343   */\n      mload\n        /* \"#utility.yul\":4356:4415   */\n      tag_355\n        /* \"#utility.yul\":4409:4413   */\n      0x20\n        /* \"#utility.yul\":4404:4407   */\n      dup6\n        /* \"#utility.yul\":4400:4414   */\n      add\n        /* \"#utility.yul\":4386:4398   */\n      dup3\n        /* \"#utility.yul\":4356:4415   */\n      tag_285\n      jump\t// in\n    tag_355:\n        /* \"#utility.yul\":4261:4425   */\n      pop\n        /* \"#utility.yul\":4036:4432   */\n      pop\n        /* \"#utility.yul\":3914:4432   */\n      pop\n      pop\n      jump\t// out\n        /* \"#utility.yul\":4438:4772   */\n    tag_101:\n        /* \"#utility.yul\":4587:4591   */\n      0x00\n        /* \"#utility.yul\":4625:4627   */\n      0x40\n        /* \"#utility.yul\":4614:4623   */\n      dup3\n        /* \"#utility.yul\":4610:4628   */\n      add\n        /* \"#utility.yul\":4602:4628   */\n      swap1\n      pop\n        /* \"#utility.yul\":4638:4765   */\n      tag_357\n        /* \"#utility.yul\":4762:4763   */\n      0x00\n        /* \"#utility.yul\":4751:4760   */\n      dup4\n        /* \"#utility.yul\":4747:4764   */\n      add\n        /* \"#utility.yul\":4738:4744   */\n      dup5\n        /* \"#utility.yul\":4638:4765   */\n      tag_286\n      jump\t// in\n    tag_357:\n        /* \"#utility.yul\":4438:4772   */\n      swap3\n      swap2\n      pop\n      pop\n      jump\t// out\n        /* \"#utility.yul\":4778:5102   */\n    tag_129:\n        /* \"#utility.yul\":4895:4899   */\n      0x00\n        /* \"#utility.yul\":4933:4935   */\n      0x40\n        /* \"#utility.yul\":4922:4931   */\n      dup3\n        /* \"#utility.yul\":4918:4936   */\n      add\n        /* \"#utility.yul\":4910:4936   */\n      swap1\n      pop\n        /* \"#utility.yul\":4946:5017   */\n      tag_359\n        /* \"#utility.yul\":5014:5015   */\n      0x00\n        /* \"#utility.yul\":5003:5012   */\n      dup4\n        /* \"#utility.yul\":4999:5016   */\n      add\n        /* \"#utility.yul\":4990:4996   */\n      dup6\n        /* \"#utility.yul\":4946:5017   */\n      tag_283\n      jump\t// in\n    tag_359:\n        /* \"#utility.yul\":5027:5095   */\n      tag_360\n        /* \"#utility.yul\":5091:5093   */\n      0x20\n        /* \"#utility.yul\":5080:5089   */\n      dup4\n        /* \"#utility.yul\":5076:5094   */\n      add\n        /* \"#utility.yul\":5067:5073   */\n      dup5\n        /* \"#utility.yul\":5027:5095   */\n      tag_282\n      jump\t// in\n    tag_360:\n        /* \"#utility.yul\":4778:5102   */\n      swap4\n      swap3\n      pop\n      pop\n      pop\n      jump\t// out\n        /* \"#utility.yul\":5108:5226   */\n    tag_287:\n        /* \"#utility.yul\":5179:5201   */\n      tag_362\n        /* \"#utility.yul\":5195:5200   */\n      dup2\n        /* \"#utility.yul\":5179:5201   */\n      tag_281\n      jump\t// in\n    tag_362:\n        /* \"#utility.yul\":5172:5177   */\n      dup2\n        /* \"#utility.yul\":5169:5202   */\n      eq\n        /* \"#utility.yul\":5159:5220   */\n      tag_363\n      jumpi\n        /* \"#utility.yul\":5216:5217   */\n      0x00\n        /* \"#utility.yul\":5213:5214   */\n      0x00\n        /* \"#utility.yul\":5206:5218   */\n      revert\n        /* \"#utility.yul\":5159:5220   */\n    tag_363:\n        /* \"#utility.yul\":5108:5226   */\n      pop\n      jump\t// out\n        /* \"#utility.yul\":5232:5367   */\n    tag_288:\n        /* \"#utility.yul\":5276:5281   */\n      0x00\n        /* \"#utility.yul\":5314:5320   */\n      dup2\n        /* \"#utility.yul\":5301:5321   */\n      calldataload\n        /* \"#utility.yul\":5292:5321   */\n      swap1\n      pop\n        /* \"#utility.yul\":5330:5361   */\n      tag_365\n        /* \"#utility.yul\":5355:5360   */\n      dup2\n        /* \"#utility.yul\":5330:5361   */\n      tag_287\n      jump\t// in\n    tag_365:\n        /* \"#utility.yul\":5232:5367   */\n      swap3\n      swap2\n      pop\n      pop\n      jump\t// out\n        /* \"#utility.yul\":5373:5988   */\n    tag_133:\n        /* \"#utility.yul\":5448:5454   */\n      0x00\n        /* \"#utility.yul\":5456:5462   */\n      0x00\n        /* \"#utility.yul\":5464:5470   */\n      0x00\n        /* \"#utility.yul\":5513:5515   */\n      0x60\n        /* \"#utility.yul\":5501:5510   */\n      dup5\n        /* \"#utility.yul\":5492:5499   */\n      dup7\n        /* \"#utility.yul\":5488:5511   */\n      sub\n        /* \"#utility.yul\":5484:5516   */\n      slt\n        /* \"#utility.yul\":5481:5600   */\n      iszero\n      tag_367\n      jumpi\n        /* \"#utility.yul\":5519:5598   */\n      tag_368\n      tag_273\n      jump\t// in\n    tag_368:\n        /* \"#utility.yul\":5481:5600   */\n    tag_367:\n        /* \"#utility.yul\":5639:5640   */\n      0x00\n        /* \"#utility.yul\":5664:5717   */\n      tag_369\n        /* \"#utility.yul\":5709:5716   */\n      dup7\n        /* \"#utility.yul\":5700:5706   */\n      dup3\n        /* \"#utility.yul\":5689:5698   */\n      dup8\n        /* \"#utility.yul\":5685:5707   */\n      add\n        /* \"#utility.yul\":5664:5717   */\n      tag_278\n      jump\t// in\n    tag_369:\n        /* \"#utility.yul\":5654:5717   */\n      swap4\n      pop\n        /* \"#utility.yul\":5610:5727   */\n      pop\n        /* \"#utility.yul\":5766:5768   */\n      0x20\n        /* \"#utility.yul\":5792:5845   */\n      tag_370\n        /* \"#utility.yul\":5837:5844   */\n      dup7\n        /* \"#utility.yul\":5828:5834   */\n      dup3\n        /* \"#utility.yul\":5817:5826   */\n      dup8\n        /* \"#utility.yul\":5813:5835   */\n      add\n        /* \"#utility.yul\":5792:5845   */\n      tag_278\n      jump\t// in\n    tag_370:\n        /* \"#utility.yul\":5782:5845   */\n      swap3\n      pop\n        /* \"#utility.yul\":5737:5855   */\n      pop\n        /* \"#utility.yul\":5894:5896   */\n      0x40\n        /* \"#utility.yul\":5920:5971   */\n      tag_371\n        /* \"#utility.yul\":5963:5970   */\n      dup7\n        /* \"#utility.yul\":5954:5960   */\n      dup3\n        /* \"#utility.yul\":5943:5952   */\n      dup8\n        /* \"#utility.yul\":5939:5961   */\n      add\n        /* \"#utility.yul\":5920:5971   */\n      tag_288\n      jump\t// in\n    tag_371:\n        /* \"#utility.yul\":5910:5971   */\n      swap2\n      pop\n        /* \"#utility.yul\":5865:5981   */\n      pop\n        /* \"#utility.yul\":5373:5988   */\n      swap3\n      pop\n      swap3\n      pop\n      swap3\n      jump\t// out\n        /* \"#utility.yul\":5994:6174   */\n    tag_289:\n        /* \"#utility.yul\":6042:6119   */\n      0x4e487b7100000000000000000000000000000000000000000000000000000000\n        /* \"#utility.yul\":6039:6040   */\n      0x00\n        /* \"#utility.yul\":6032:6120   */\n      mstore\n        /* \"#utility.yul\":6139:6143   */\n      0x11\n        /* \"#utility.yul\":6136:6137   */\n      0x04\n        /* \"#utility.yul\":6129:6144   */\n      mstore\n        /* \"#utility.yul\":6163:6167   */\n      0x24\n        /* \"#utility.yul\":6160:6161   */\n      0x00\n        /* \"#utility.yul\":6153:6168   */\n      revert\n        /* \"#utility.yul\":6180:6371   */\n    tag_140:\n        /* \"#utility.yul\":6220:6223   */\n      0x00\n        /* \"#utility.yul\":6239:6259   */\n      tag_374\n        /* \"#utility.yul\":6257:6258   */\n      dup3\n        /* \"#utility.yul\":6239:6259   */\n      tag_270\n      jump\t// in\n    tag_374:\n        /* \"#utility.yul\":6234:6259   */\n      swap2\n      pop\n        /* \"#utility.yul\":6273:6293   */\n      tag_375\n        /* \"#utility.yul\":6291:6292   */\n      dup4\n        /* \"#utility.yul\":6273:6293   */\n      tag_270\n      jump\t// in\n    tag_375:\n        /* \"#utility.yul\":6268:6293   */\n      swap3\n      pop\n        /* \"#utility.yul\":6316:6317   */\n      dup3\n        /* \"#utility.yul\":6313:6314   */\n      dup3\n        /* \"#utility.yul\":6309:6318   */\n      add\n        /* \"#utility.yul\":6302:6318   */\n      swap1\n      pop\n        /* \"#utility.yul\":6337:6340   */\n      dup1\n        /* \"#utility.yul\":6334:6335   */\n      dup3\n        /* \"#utility.yul\":6331:6341   */\n      gt\n        /* \"#utility.yul\":6328:6364   */\n      iszero\n      tag_376\n      jumpi\n        /* \"#utility.yul\":6344:6362   */\n      tag_377\n      tag_289\n      jump\t// in\n    tag_377:\n        /* \"#utility.yul\":6328:6364   */\n    tag_376:\n        /* \"#utility.yul\":6180:6371   */\n      swap3\n      swap2\n      pop\n      pop\n      jump\t// out\n        /* \"#utility.yul\":6377:6819   */\n    tag_143:\n        /* \"#utility.yul\":6526:6530   */\n      0x00\n        /* \"#utility.yul\":6564:6566   */\n      0x60\n        /* \"#utility.yul\":6553:6562   */\n      dup3\n        /* \"#utility.yul\":6549:6567   */\n      add\n        /* \"#utility.yul\":6541:6567   */\n      swap1\n      pop\n        /* \"#utility.yul\":6577:6648   */\n      tag_379\n        /* \"#utility.yul\":6645:6646   */\n      0x00\n        /* \"#utility.yul\":6634:6643   */\n      dup4\n        /* \"#utility.yul\":6630:6647   */\n      add\n        /* \"#utility.yul\":6621:6627   */\n      dup7\n        /* \"#utility.yul\":6577:6648   */\n      tag_271\n      jump\t// in\n    tag_379:\n        /* \"#utility.yul\":6658:6730   */\n      tag_380\n        /* \"#utility.yul\":6726:6728   */\n      0x20\n        /* \"#utility.yul\":6715:6724   */\n      dup4\n        /* \"#utility.yul\":6711:6729   */\n      add\n        /* \"#utility.yul\":6702:6708   */\n      dup6\n        /* \"#utility.yul\":6658:6730   */\n      tag_271\n      jump\t// in\n    tag_380:\n        /* \"#utility.yul\":6740:6812   */\n      tag_381\n        /* \"#utility.yul\":6808:6810   */\n      0x40\n        /* \"#utility.yul\":6797:6806   */\n      dup4\n        /* \"#utility.yul\":6793:6811   */\n      add\n        /* \"#utility.yul\":6784:6790   */\n      dup5\n        /* \"#utility.yul\":6740:6812   */\n      tag_271\n      jump\t// in\n    tag_381:\n        /* \"#utility.yul\":6377:6819   */\n      swap5\n      swap4\n      pop\n      pop\n      pop\n      pop\n      jump\t// out\n        /* \"#utility.yul\":6825:7058   */\n    tag_146:\n        /* \"#utility.yul\":6864:6867   */\n      0x00\n        /* \"#utility.yul\":6887:6911   */\n      tag_383\n        /* \"#utility.yul\":6905:6910   */\n      dup3\n        /* \"#utility.yul\":6887:6911   */\n      tag_270\n      jump\t// in\n    tag_383:\n        /* \"#utility.yul\":6878:6911   */\n      swap2\n      pop\n        /* \"#utility.yul\":6933:6999   */\n      0xffffffffffffffffffffffffffffffffffffffffffffffffffffffffffffffff\n        /* \"#utility.yul\":6926:6931   */\n      dup3\n        /* \"#utility.yul\":6923:7000   */\n      sub\n        /* \"#utility.yul\":6920:7023   */\n      tag_384\n      jumpi\n        /* \"#utility.yul\":7003:7021   */\n      tag_385\n      tag_289\n      jump\t// in\n    tag_385:\n        /* \"#utility.yul\":6920:7023   */\n    tag_384:\n        /* \"#utility.yul\":7050:7051   */\n      0x01\n        /* \"#utility.yul\":7043:7048   */\n      dup3\n        /* \"#utility.yul\":7039:7052   */\n      add\n        /* \"#utility.yul\":7032:7052   */\n      swap1\n      pop\n        /* \"#utility.yul\":6825:7058   */\n      swap2\n      swap1\n      pop\n      jump\t// out\n        /* \"#utility.yul\":7064:7396   */\n    tag_151:\n        /* \"#utility.yul\":7185:7189   */\n      0x00\n        /* \"#utility.yul\":7223:7225   */\n      0x40\n        /* \"#utility.yul\":7212:7221   */\n      dup3\n        /* \"#utility.yul\":7208:7226   */\n      add\n        /* \"#utility.yul\":7200:7226   */\n      swap1\n      pop\n        /* \"#utility.yul\":7236:7307   */\n      tag_387\n        /* \"#utility.yul\":7304:7305   */\n      0x00\n        /* \"#utility.yul\":7293:7302   */\n      dup4\n        /* \"#utility.yul\":7289:7306   */\n      add\n        /* \"#utility.yul\":7280:7286   */\n      dup6\n        /* \"#utility.yul\":7236:7307   */\n      tag_271\n      jump\t// in\n    tag_387:\n        /* \"#utility.yul\":7317:7389   */\n      tag_388\n        /* \"#utility.yul\":7385:7387   */\n      0x20\n        /* \"#utility.yul\":7374:7383   */\n      dup4\n        /* \"#utility.yul\":7370:7388   */\n      add\n        /* \"#utility.yul\":7361:7367   */\n      dup5\n        /* \"#utility.yul\":7317:7389   */\n      tag_271\n      jump\t// in\n    tag_388:\n        /* \"#utility.yul\":7064:7396   */\n      swap4\n      swap3\n      pop\n      pop\n      pop\n      jump\t// out\n        /* \"#utility.yul\":7402:7507   */\n    tag_290:\n        /* \"#utility.yul\":7438:7445   */\n      0x00\n        /* \"#utility.yul\":7478:7500   */\n      0xffffffffffffffffffff\n        /* \"#utility.yul\":7471:7476   */\n      dup3\n        /* \"#utility.yul\":7467:7501   */\n      and\n        /* \"#utility.yul\":7456:7501   */\n      swap1\n      pop\n        /* \"#utility.yul\":7402:7507   */\n      swap2\n      swap1\n      pop\n      jump\t// out\n        /* \"#utility.yul\":7513:7633   */\n    tag_291:\n        /* \"#utility.yul\":7585:7608   */\n      tag_391\n        /* \"#utility.yul\":7602:7607   */\n      dup2\n        /* \"#utility.yul\":7585:7608   */\n      tag_290\n      jump\t// in\n    tag_391:\n        /* \"#utility.yul\":7578:7583   */\n      dup2\n        /* \"#utility.yul\":7575:7609   */\n      eq\n        /* \"#utility.yul\":7565:7627   */\n      tag_392\n      jumpi\n        /* \"#utility.yul\":7623:7624   */\n      0x00\n        /* \"#utility.yul\":7620:7621   */\n      0x00\n        /* \"#utility.yul\":7613:7625   */\n      revert\n        /* \"#utility.yul\":7565:7627   */\n    tag_392:\n        /* \"#utility.yul\":7513:7633   */\n      pop\n      jump\t// out\n        /* \"#utility.yul\":7639:7780   */\n    tag_292:\n        /* \"#utility.yul\":7695:7700   */\n      0x00\n        /* \"#utility.yul\":7726:7732   */\n      dup2\n        /* \"#utility.yul\":7720:7733   */\n      mload\n        /* \"#utility.yul\":7711:7733   */\n      swap1\n      pop\n        /* \"#utility.yul\":7742:7774   */\n      tag_394\n        /* \"#utility.yul\":7768:7773   */\n      dup2\n        /* \"#utility.yul\":7742:7774   */\n      tag_291\n      jump\t// in\n    tag_394:\n        /* \"#utility.yul\":7639:7780   */\n      swap3\n      swap2\n      pop\n      pop\n      jump\t// out\n        /* \"#utility.yul\":7786:7862   */\n    tag_293:\n        /* \"#utility.yul\":7822:7829   */\n      0x00\n        /* \"#utility.yul\":7851:7856   */\n      dup2\n        /* \"#utility.yul\":7840:7856   */\n      swap1\n      pop\n        /* \"#utility.yul\":7786:7862   */\n      swap2\n      swap1\n      pop\n      jump\t// out\n        /* \"#utility.yul\":7868:7988   */\n    tag_294:\n        /* \"#utility.yul\":7940:7963   */\n      tag_397\n        /* \"#utility.yul\":7957:7962   */\n      dup2\n        /* \"#utility.yul\":7940:7963   */\n      tag_293\n      jump\t// in\n    tag_397:\n        /* \"#utility.yul\":7933:7938   */\n      dup2\n        /* \"#utility.yul\":7930:7964   */\n      eq\n        /* \"#utility.yul\":7920:7982   */\n      tag_398\n      jumpi\n        /* \"#utility.yul\":7978:7979   */\n      0x00\n        /* \"#utility.yul\":7975:7976   */\n      0x00\n        /* \"#utility.yul\":7968:7980   */\n      revert\n        /* \"#utility.yul\":7920:7982   */\n    tag_398:\n        /* \"#utility.yul\":7868:7988   */\n      pop\n      jump\t// out\n        /* \"#utility.yul\":7994:8135   */\n    tag_295:\n        /* \"#utility.yul\":8050:8055   */\n      0x00\n        /* \"#utility.yul\":8081:8087   */\n      dup2\n        /* \"#utility.yul\":8075:8088   */\n      mload\n        /* \"#utility.yul\":8066:8088   */\n      swap1\n      pop\n        /* \"#utility.yul\":8097:8129   */\n      tag_400\n        /* \"#utility.yul\":8123:8128   */\n      dup2\n        /* \"#utility.yul\":8097:8129   */\n      tag_294\n      jump\t// in\n    tag_400:\n        /* \"#utility.yul\":7994:8135   */\n      swap3\n      swap2\n      pop\n      pop\n      jump\t// out\n        /* \"#utility.yul\":8141:8284   */\n    tag_296:\n        /* \"#utility.yul\":8198:8203   */\n      0x00\n        /* \"#utility.yul\":8229:8235   */\n      dup2\n        /* \"#utility.yul\":8223:8236   */\n      mload\n        /* \"#utility.yul\":8214:8236   */\n      swap1\n      pop\n        /* \"#utility.yul\":8245:8278   */\n      tag_402\n        /* \"#utility.yul\":8272:8277   */\n      dup2\n        /* \"#utility.yul\":8245:8278   */\n      tag_279\n      jump\t// in\n    tag_402:\n        /* \"#utility.yul\":8141:8284   */\n      swap3\n      swap2\n      pop\n      pop\n      jump\t// out\n        /* \"#utility.yul\":8290:9261   */\n    tag_159:\n        /* \"#utility.yul\":8393:8399   */\n      0x00\n        /* \"#utility.yul\":8401:8407   */\n      0x00\n        /* \"#utility.yul\":8409:8415   */\n      0x00\n        /* \"#utility.yul\":8417:8423   */\n      0x00\n        /* \"#utility.yul\":8425:8431   */\n      0x00\n        /* \"#utility.yul\":8474:8477   */\n      0xa0\n        /* \"#utility.yul\":8462:8471   */\n      dup7\n        /* \"#utility.yul\":8453:8460   */\n      dup9\n        /* \"#utility.yul\":8449:8472   */\n      sub\n        /* \"#utility.yul\":8445:8478   */\n      slt\n        /* \"#utility.yul\":8442:8562   */\n      iszero\n      tag_404\n      jumpi\n        /* \"#utility.yul\":8481:8560   */\n      tag_405\n      tag_273\n      jump\t// in\n    tag_405:\n        /* \"#utility.yul\":8442:8562   */\n    tag_404:\n        /* \"#utility.yul\":8601:8602   */\n      0x00\n        /* \"#utility.yul\":8626:8689   */\n      tag_406\n        /* \"#utility.yul\":8681:8688   */\n      dup9\n        /* \"#utility.yul\":8672:8678   */\n      dup3\n        /* \"#utility.yul\":8661:8670   */\n      dup10\n        /* \"#utility.yul\":8657:8679   */\n      add\n        /* \"#utility.yul\":8626:8689   */\n      tag_292\n      jump\t// in\n    tag_406:\n        /* \"#utility.yul\":8616:8689   */\n      swap6\n      pop\n        /* \"#utility.yul\":8572:8699   */\n      pop\n        /* \"#utility.yul\":8738:8740   */\n      0x20\n        /* \"#utility.yul\":8764:8827   */\n      tag_407\n        /* \"#utility.yul\":8819:8826   */\n      dup9\n        /* \"#utility.yul\":8810:8816   */\n      dup3\n        /* \"#utility.yul\":8799:8808   */\n      dup10\n        /* \"#utility.yul\":8795:8817   */\n      add\n        /* \"#utility.yul\":8764:8827   */\n      tag_295\n      jump\t// in\n    tag_407:\n        /* \"#utility.yul\":8754:8827   */\n      swap5\n      pop\n        /* \"#utility.yul\":8709:8837   */\n      pop\n        /* \"#utility.yul\":8876:8878   */\n      0x40\n        /* \"#utility.yul\":8902:8966   */\n      tag_408\n        /* \"#utility.yul\":8958:8965   */\n      dup9\n        /* \"#utility.yul\":8949:8955   */\n      dup3\n        /* \"#utility.yul\":8938:8947   */\n      dup10\n        /* \"#utility.yul\":8934:8956   */\n      add\n        /* \"#utility.yul\":8902:8966   */\n      tag_296\n      jump\t// in\n    tag_408:\n        /* \"#utility.yul\":8892:8966   */\n      swap4\n      pop\n        /* \"#utility.yul\":8847:8976   */\n      pop\n        /* \"#utility.yul\":9015:9017   */\n      0x60\n        /* \"#utility.yul\":9041:9105   */\n      tag_409\n        /* \"#utility.yul\":9097:9104   */\n      dup9\n        /* \"#utility.yul\":9088:9094   */\n      dup3\n        /* \"#utility.yul\":9077:9086   */\n      dup10\n        /* \"#utility.yul\":9073:9095   */\n      add\n        /* \"#utility.yul\":9041:9105   */\n      tag_296\n      jump\t// in\n    tag_409:\n        /* \"#utility.yul\":9031:9105   */\n      swap3\n      pop\n        /* \"#utility.yul\":8986:9115   */\n      pop\n        /* \"#utility.yul\":9154:9157   */\n      0x80\n        /* \"#utility.yul\":9181:9244   */\n      tag_410\n        /* \"#utility.yul\":9236:9243   */\n      dup9\n        /* \"#utility.yul\":9227:9233   */\n      dup3\n        /* \"#utility.yul\":9216:9225   */\n      dup10\n        /* \"#utility.yul\":9212:9234   */\n      add\n        /* \"#utility.yul\":9181:9244   */\n      tag_292\n      jump\t// in\n    tag_410:\n        /* \"#utility.yul\":9171:9244   */\n      swap2\n      pop\n        /* \"#utility.yul\":9125:9254   */\n      pop\n        /* \"#utility.yul\":8290:9261   */\n      swap3\n      swap6\n      pop\n      swap3\n      swap6\n      swap1\n      swap4\n      pop\n      jump\t// out\n        /* \"#utility.yul\":9267:9369   */\n    tag_297:\n        /* \"#utility.yul\":9309:9317   */\n      0x00\n        /* \"#utility.yul\":9356:9361   */\n      dup2\n        /* \"#utility.yul\":9353:9354   */\n      0x01\n        /* \"#utility.yul\":9349:9362   */\n      shr\n        /* \"#utility.yul\":9328:9362   */\n      swap1\n      pop\n        /* \"#utility.yul\":9267:9369   */\n      swap2\n      swap1\n      pop\n      jump\t// out\n        /* \"#utility.yul\":9375:10223   */\n    tag_298:\n        /* \"#utility.yul\":9436:9441   */\n      0x00\n        /* \"#utility.yul\":9443:9447   */\n      0x00\n        /* \"#utility.yul\":9467:9473   */\n      dup3\n        /* \"#utility.yul\":9458:9473   */\n      swap2\n      pop\n        /* \"#utility.yul\":9491:9496   */\n      dup4\n        /* \"#utility.yul\":9482:9496   */\n      swap1\n      pop\n        /* \"#utility.yul\":9505:10217   */\n    tag_413:\n        /* \"#utility.yul\":9526:9527   */\n      0x01\n        /* \"#utility.yul\":9516:9524   */\n      dup6\n        /* \"#utility.yul\":9513:9528   */\n      gt\n        /* \"#utility.yul\":9505:10217   */\n      iszero\n      tag_415\n      jumpi\n        /* \"#utility.yul\":9621:9625   */\n      dup1\n        /* \"#utility.yul\":9616:9619   */\n      dup7\n        /* \"#utility.yul\":9612:9626   */\n      div\n        /* \"#utility.yul\":9606:9610   */\n      dup2\n        /* \"#utility.yul\":9603:9627   */\n      gt\n        /* \"#utility.yul\":9600:9650   */\n      iszero\n      tag_416\n      jumpi\n        /* \"#utility.yul\":9630:9648   */\n      tag_417\n      tag_289\n      jump\t// in\n    tag_417:\n        /* \"#utility.yul\":9600:9650   */\n    tag_416:\n        /* \"#utility.yul\":9680:9681   */\n      0x01\n        /* \"#utility.yul\":9670:9678   */\n      dup6\n        /* \"#utility.yul\":9666:9682   */\n      and\n        /* \"#utility.yul\":9663:10114   */\n      iszero\n      tag_418\n      jumpi\n        /* \"#utility.yul\":10095:10099   */\n      dup1\n        /* \"#utility.yul\":10088:10093   */\n      dup3\n        /* \"#utility.yul\":10084:10100   */\n      mul\n        /* \"#utility.yul\":10075:10100   */\n      swap2\n      pop\n        /* \"#utility.yul\":9663:10114   */\n    tag_418:\n        /* \"#utility.yul\":10145:10149   */\n      dup1\n        /* \"#utility.yul\":10139:10143   */\n      dup2\n        /* \"#utility.yul\":10135:10150   */\n      mul\n        /* \"#utility.yul\":10127:10150   */\n      swap1\n      pop\n        /* \"#utility.yul\":10175:10207   */\n      tag_419\n        /* \"#utility.yul\":10198:10206   */\n      dup6\n        /* \"#utility.yul\":10175:10207   */\n      tag_297\n      jump\t// in\n    tag_419:\n        /* \"#utility.yul\":10163:10207   */\n      swap5\n      pop\n        /* \"#utility.yul\":9505:10217   */\n      jump(tag_413)\n    tag_415:\n        /* \"#utility.yul\":9375:10223   */\n      swap5\n      pop\n      swap5\n      swap3\n      pop\n      pop\n      pop\n      jump\t// out\n        /* \"#utility.yul\":10229:11302   */\n    tag_299:\n        /* \"#utility.yul\":10283:10288   */\n      0x00\n        /* \"#utility.yul\":10474:10482   */\n      dup3\n        /* \"#utility.yul\":10464:10504   */\n      tag_421\n      jumpi\n        /* \"#utility.yul\":10495:10496   */\n      0x01\n        /* \"#utility.yul\":10486:10496   */\n      swap1\n      pop\n        /* \"#utility.yul\":10497:10502   */\n      jump(tag_420)\n        /* \"#utility.yul\":10464:10504   */\n    tag_421:\n        /* \"#utility.yul\":10523:10527   */\n      dup2\n        /* \"#utility.yul\":10513:10549   */\n      tag_422\n      jumpi\n        /* \"#utility.yul\":10540:10541   */\n      0x00\n        /* \"#utility.yul\":10531:10541   */\n      swap1\n      pop\n        /* \"#utility.yul\":10542:10547   */\n      jump(tag_420)\n        /* \"#utility.yul\":10513:10549   */\n    tag_422:\n        /* \"#utility.yul\":10609:10613   */\n      dup2\n        /* \"#utility.yul\":10657:10658   */\n      0x01\n        /* \"#utility.yul\":10652:10679   */\n      dup2\n      eq\n      tag_424\n      jumpi\n        /* \"#utility.yul\":10693:10694   */\n      0x02\n        /* \"#utility.yul\":10688:10879   */\n      dup2\n      eq\n      tag_425\n      jumpi\n        /* \"#utility.yul\":10602:10879   */\n      jump(tag_423)\n        /* \"#utility.yul\":10652:10679   */\n    tag_424:\n        /* \"#utility.yul\":10670:10671   */\n      0x01\n        /* \"#utility.yul\":10661:10671   */\n      swap2\n      pop\n        /* \"#utility.yul\":10672:10677   */\n      pop\n      jump(tag_420)\n        /* \"#utility.yul\":10688:10879   */\n    tag_425:\n        /* \"#utility.yul\":10733:10736   */\n      0xff\n        /* \"#utility.yul\":10723:10731   */\n      dup5\n        /* \"#utility.yul\":10720:10737   */\n      gt\n        /* \"#utility.yul\":10717:10760   */\n      iszero\n      tag_426\n      jumpi\n        /* \"#utility.yul\":10740:10758   */\n      tag_427\n      tag_289\n      jump\t// in\n    tag_427:\n        /* \"#utility.yul\":10717:10760   */\n    tag_426:\n        /* \"#utility.yul\":10789:10797   */\n      dup4\n        /* \"#utility.yul\":10786:10787   */\n      0x02\n        /* \"#utility.yul\":10782:10798   */\n      exp\n        /* \"#utility.yul\":10773:10798   */\n      swap2\n      pop\n        /* \"#utility.yul\":10824:10827   */\n      dup5\n        /* \"#utility.yul\":10817:10822   */\n      dup3\n        /* \"#utility.yul\":10814:10828   */\n      gt\n        /* \"#utility.yul\":10811:10851   */\n      iszero\n      tag_428\n      jumpi\n        /* \"#utility.yul\":10831:10849   */\n      tag_429\n      tag_289\n      jump\t// in\n    tag_429:\n        /* \"#utility.yul\":10811:10851   */\n    tag_428:\n        /* \"#utility.yul\":10864:10869   */\n      pop\n      jump(tag_420)\n        /* \"#utility.yul\":10602:10879   */\n    tag_423:\n      pop\n        /* \"#utility.yul\":10988:10990   */\n      0x20\n        /* \"#utility.yul\":10978:10986   */\n      dup4\n        /* \"#utility.yul\":10975:10991   */\n      lt\n        /* \"#utility.yul\":10969:10972   */\n      0x0133\n        /* \"#utility.yul\":10963:10967   */\n      dup4\n        /* \"#utility.yul\":10960:10973   */\n      lt\n        /* \"#utility.yul\":10956:10992   */\n      and\n        /* \"#utility.yul\":10938:10940   */\n      0x4e\n        /* \"#utility.yul\":10928:10936   */\n      dup5\n        /* \"#utility.yul\":10925:10941   */\n      lt\n        /* \"#utility.yul\":10920:10922   */\n      0x0b\n        /* \"#utility.yul\":10914:10918   */\n      dup5\n        /* \"#utility.yul\":10911:10923   */\n      lt\n        /* \"#utility.yul\":10907:10942   */\n      and\n        /* \"#utility.yul\":10891:11002   */\n      or\n        /* \"#utility.yul\":10888:11134   */\n      iszero\n      tag_430\n      jumpi\n        /* \"#utility.yul\":11044:11052   */\n      dup3\n        /* \"#utility.yul\":11038:11042   */\n      dup3\n        /* \"#utility.yul\":11034:11053   */\n      exp\n        /* \"#utility.yul\":11025:11053   */\n      swap1\n      pop\n        /* \"#utility.yul\":11079:11082   */\n      dup4\n        /* \"#utility.yul\":11072:11077   */\n      dup2\n        /* \"#utility.yul\":11069:11083   */\n      gt\n        /* \"#utility.yul\":11066:11106   */\n      iszero\n      tag_431\n      jumpi\n        /* \"#utility.yul\":11086:11104   */\n      tag_432\n      tag_289\n      jump\t// in\n    tag_432:\n        /* \"#utility.yul\":11066:11106   */\n    tag_431:\n        /* \"#utility.yul\":11119:11124   */\n      jump(tag_420)\n        /* \"#utility.yul\":10888:11134   */\n    tag_430:\n        /* \"#utility.yul\":11159:11201   */\n      tag_433\n        /* \"#utility.yul\":11197:11200   */\n      dup5\n        /* \"#utility.yul\":11187:11195   */\n      dup5\n        /* \"#utility.yul\":11181:11185   */\n      dup5\n        /* \"#utility.yul\":11178:11179   */\n      0x01\n        /* \"#utility.yul\":11159:11201   */\n      tag_298\n      jump\t// in\n    tag_433:\n        /* \"#utility.yul\":11144:11201   */\n      swap3\n      pop\n      swap1\n      pop\n        /* \"#utility.yul\":11233:11237   */\n      dup2\n        /* \"#utility.yul\":11228:11231   */\n      dup5\n        /* \"#utility.yul\":11224:11238   */\n      div\n        /* \"#utility.yul\":11217:11222   */\n      dup2\n        /* \"#utility.yul\":11214:11239   */\n      gt\n        /* \"#utility.yul\":11211:11262   */\n      iszero\n      tag_434\n      jumpi\n        /* \"#utility.yul\":11242:11260   */\n      tag_435\n      tag_289\n      jump\t// in\n    tag_435:\n        /* \"#utility.yul\":11211:11262   */\n    tag_434:\n        /* \"#utility.yul\":11291:11295   */\n      dup2\n        /* \"#utility.yul\":11284:11289   */\n      dup2\n        /* \"#utility.yul\":11280:11296   */\n      mul\n        /* \"#utility.yul\":11271:11296   */\n      swap1\n      pop\n        /* \"#utility.yul\":10229:11302   */\n    tag_420:\n      swap4\n      swap3\n      pop\n      pop\n      pop\n      jump\t// out\n        /* \"#utility.yul\":11308:11593   */\n    tag_161:\n        /* \"#utility.yul\":11368:11373   */\n      0x00\n        /* \"#utility.yul\":11392:11415   */\n      tag_437\n        /* \"#utility.yul\":11410:11414   */\n      dup3\n        /* \"#utility.yul\":11392:11415   */\n      tag_270\n      jump\t// in\n    tag_437:\n        /* \"#utility.yul\":11384:11415   */\n      swap2\n      pop\n        /* \"#utility.yul\":11436:11463   */\n      tag_438\n        /* \"#utility.yul\":11454:11462   */\n      dup4\n        /* \"#utility.yul\":11436:11463   */\n      tag_270\n      jump\t// in\n    tag_438:\n        /* \"#utility.yul\":11424:11463   */\n      swap3\n      pop\n        /* \"#utility.yul\":11482:11586   */\n      tag_439\n        /* \"#utility.yul\":11519:11585   */\n      0xffffffffffffffffffffffffffffffffffffffffffffffffffffffffffffffff\n        /* \"#utility.yul\":11509:11517   */\n      dup5\n        /* \"#utility.yul\":11503:11507   */\n      dup5\n        /* \"#utility.yul\":11482:11586   */\n      tag_299\n      jump\t// in\n    tag_439:\n        /* \"#utility.yul\":11473:11586   */\n      swap1\n      pop\n        /* \"#utility.yul\":11308:11593   */\n      swap3\n      swap2\n      pop\n      pop\n      jump\t// out\n        /* \"#utility.yul\":11599:12009   */\n    tag_163:\n        /* \"#utility.yul\":11639:11646   */\n      0x00\n        /* \"#utility.yul\":11662:11682   */\n      tag_441\n        /* \"#utility.yul\":11680:11681   */\n      dup3\n        /* \"#utility.yul\":11662:11682   */\n      tag_270\n      jump\t// in\n    tag_441:\n        /* \"#utility.yul\":11657:11682   */\n      swap2\n      pop\n        /* \"#utility.yul\":11696:11716   */\n      tag_442\n        /* \"#utility.yul\":11714:11715   */\n      dup4\n        /* \"#utility.yul\":11696:11716   */\n      tag_270\n      jump\t// in\n    tag_442:\n        /* \"#utility.yul\":11691:11716   */\n      swap3\n      pop\n        /* \"#utility.yul\":11751:11752   */\n      dup3\n        /* \"#utility.yul\":11748:11749   */\n      dup3\n        /* \"#utility.yul\":11744:11753   */\n      mul\n        /* \"#utility.yul\":11773:11803   */\n      tag_443\n        /* \"#utility.yul\":11791:11802   */\n      dup2\n        /* \"#utility.yul\":11773:11803   */\n      tag_270\n      jump\t// in\n    tag_443:\n        /* \"#utility.yul\":11762:11803   */\n      swap2\n      pop\n        /* \"#utility.yul\":11952:11953   */\n      dup3\n        /* \"#utility.yul\":11943:11950   */\n      dup3\n        /* \"#utility.yul\":11939:11954   */\n      div\n        /* \"#utility.yul\":11936:11937   */\n      dup5\n        /* \"#utility.yul\":11933:11955   */\n      eq\n        /* \"#utility.yul\":11913:11914   */\n      dup4\n        /* \"#utility.yul\":11906:11915   */\n      iszero\n        /* \"#utility.yul\":11886:11969   */\n      or\n        /* \"#utility.yul\":11863:12002   */\n      tag_444\n      jumpi\n        /* \"#utility.yul\":11982:12000   */\n      tag_445\n      tag_289\n      jump\t// in\n    tag_445:\n        /* \"#utility.yul\":11863:12002   */\n    tag_444:\n        /* \"#utility.yul\":11647:12009   */\n      pop\n        /* \"#utility.yul\":11599:12009   */\n      swap3\n      swap2\n      pop\n      pop\n      jump\t// out\n        /* \"#utility.yul\":12015:12195   */\n    tag_300:\n        /* \"#utility.yul\":12063:12140   */\n      0x4e487b7100000000000000000000000000000000000000000000000000000000\n        /* \"#utility.yul\":12060:12061   */\n      0x00\n        /* \"#utility.yul\":12053:12141   */\n      mstore\n        /* \"#utility.yul\":12160:12164   */\n      0x12\n        /* \"#utility.yul\":12157:12158   */\n      0x04\n        /* \"#utility.yul\":12150:12165   */\n      mstore\n        /* \"#utility.yul\":12184:12188   */\n      0x24\n        /* \"#utility.yul\":12181:12182   */\n      0x00\n        /* \"#utility.yul\":12174:12189   */\n      revert\n        /* \"#utility.yul\":12201:12386   */\n    tag_165:\n        /* \"#utility.yul\":12241:12242   */\n      0x00\n        /* \"#utility.yul\":12258:12278   */\n      tag_448\n        /* \"#utility.yul\":12276:12277   */\n      dup3\n        /* \"#utility.yul\":12258:12278   */\n      tag_270\n      jump\t// in\n    tag_448:\n        /* \"#utility.yul\":12253:12278   */\n      swap2\n      pop\n        /* \"#utility.yul\":12292:12312   */\n      tag_449\n        /* \"#utility.yul\":12310:12311   */\n      dup4\n        /* \"#utility.yul\":12292:12312   */\n      tag_270\n      jump\t// in\n    tag_449:\n        /* \"#utility.yul\":12287:12312   */\n      swap3\n      pop\n        /* \"#utility.yul\":12331:12332   */\n      dup3\n        /* \"#utility.yul\":12321:12356   */\n      tag_450\n      jumpi\n        /* \"#utility.yul\":12336:12354   */\n      tag_451\n      tag_300\n      jump\t// in\n    tag_451:\n        /* \"#utility.yul\":12321:12356   */\n    tag_450:\n        /* \"#utility.yul\":12378:12379   */\n      dup3\n        /* \"#utility.yul\":12375:12376   */\n      dup3\n        /* \"#utility.yul\":12371:12380   */\n      div\n        /* \"#utility.yul\":12366:12380   */\n      swap1\n      pop\n        /* \"#utility.yul\":12201:12386   */\n      swap3\n      swap2\n      pop\n      pop\n      jump\t// out\n        /* \"#utility.yul\":12392:12673   */\n    tag_176:\n        /* \"#utility.yul\":12450:12455   */\n      0x00\n        /* \"#utility.yul\":12474:12497   */\n      tag_453\n        /* \"#utility.yul\":12492:12496   */\n      dup3\n        /* \"#utility.yul\":12474:12497   */\n      tag_270\n      jump\t// in\n    tag_453:\n        /* \"#utility.yul\":12466:12497   */\n      swap2\n      pop\n        /* \"#utility.yul\":12518:12543   */\n      tag_454\n        /* \"#utility.yul\":12534:12542   */\n      dup4\n        /* \"#utility.yul\":12518:12543   */\n      tag_281\n      jump\t// in\n    tag_454:\n        /* \"#utility.yul\":12506:12543   */\n      swap3\n      pop\n        /* \"#utility.yul\":12562:12666   */\n      tag_455\n        /* \"#utility.yul\":12599:12665   */\n      0xffffffffffffffffffffffffffffffffffffffffffffffffffffffffffffffff\n        /* \"#utility.yul\":12589:12597   */\n      dup5\n        /* \"#utility.yul\":12583:12587   */\n      dup5\n        /* \"#utility.yul\":12562:12666   */\n      tag_299\n      jump\t// in\n    tag_455:\n        /* \"#utility.yul\":12553:12666   */\n      swap1\n      pop\n        /* \"#utility.yul\":12392:12673   */\n      swap3\n      swap2\n      pop\n      pop\n      jump\t// out\n        /* \"#utility.yul\":12679:12826   */\n    tag_301:\n        /* \"#utility.yul\":12780:12791   */\n      0x00\n        /* \"#utility.yul\":12817:12820   */\n      dup2\n        /* \"#utility.yul\":12802:12820   */\n      swap1\n      pop\n        /* \"#utility.yul\":12679:12826   */\n      swap3\n      swap2\n      pop\n      pop\n      jump\t// out\n        /* \"#utility.yul\":12832:12946   */\n    tag_302:\n      pop\n      jump\t// out\n        /* \"#utility.yul\":12952:13350   */\n    tag_303:\n        /* \"#utility.yul\":13111:13114   */\n      0x00\n        /* \"#utility.yul\":13132:13215   */\n      tag_459\n        /* \"#utility.yul\":13213:13214   */\n      0x00\n        /* \"#utility.yul\":13208:13211   */\n      dup4\n        /* \"#utility.yul\":13132:13215   */\n      tag_301\n      jump\t// in\n    tag_459:\n        /* \"#utility.yul\":13125:13215   */\n      swap2\n      pop\n        /* \"#utility.yul\":13224:13317   */\n      tag_460\n        /* \"#utility.yul\":13313:13316   */\n      dup3\n        /* \"#utility.yul\":13224:13317   */\n      tag_302\n      jump\t// in\n    tag_460:\n        /* \"#utility.yul\":13342:13343   */\n      0x00\n        /* \"#utility.yul\":13337:13340   */\n      dup3\n        /* \"#utility.yul\":13333:13344   */\n      add\n        /* \"#utility.yul\":13326:13344   */\n      swap1\n      pop\n        /* \"#utility.yul\":12952:13350   */\n      swap2\n      swap1\n      pop\n      jump\t// out\n        /* \"#utility.yul\":13356:13735   */\n    tag_195:\n        /* \"#utility.yul\":13540:13543   */\n      0x00\n        /* \"#utility.yul\":13562:13709   */\n      tag_462\n        /* \"#utility.yul\":13705:13708   */\n      dup3\n        /* \"#utility.yul\":13562:13709   */\n      tag_303\n      jump\t// in\n    tag_462:\n        /* \"#utility.yul\":13555:13709   */\n      swap2\n      pop\n        /* \"#utility.yul\":13726:13729   */\n      dup2\n        /* \"#utility.yul\":13719:13729   */\n      swap1\n      pop\n        /* \"#utility.yul\":13356:13735   */\n      swap2\n      swap1\n      pop\n      jump\t// out\n        /* \"#utility.yul\":13741:13935   */\n    tag_223:\n        /* \"#utility.yul\":13781:13785   */\n      0x00\n        /* \"#utility.yul\":13801:13821   */\n      tag_464\n        /* \"#utility.yul\":13819:13820   */\n      dup3\n        /* \"#utility.yul\":13801:13821   */\n      tag_270\n      jump\t// in\n    tag_464:\n        /* \"#utility.yul\":13796:13821   */\n      swap2\n      pop\n        /* \"#utility.yul\":13835:13855   */\n      tag_465\n        /* \"#utility.yul\":13853:13854   */\n      dup4\n        /* \"#utility.yul\":13835:13855   */\n      tag_270\n      jump\t// in\n    tag_465:\n        /* \"#utility.yul\":13830:13855   */\n      swap3\n      pop\n        /* \"#utility.yul\":13879:13880   */\n      dup3\n        /* \"#utility.yul\":13876:13877   */\n      dup3\n        /* \"#utility.yul\":13872:13881   */\n      sub\n        /* \"#utility.yul\":13864:13881   */\n      swap1\n      pop\n        /* \"#utility.yul\":13903:13904   */\n      dup2\n        /* \"#utility.yul\":13897:13901   */\n      dup2\n        /* \"#utility.yul\":13894:13905   */\n      gt\n        /* \"#utility.yul\":13891:13928   */\n      iszero\n      tag_466\n      jumpi\n        /* \"#utility.yul\":13908:13926   */\n      tag_467\n      tag_289\n      jump\t// in\n    tag_467:\n        /* \"#utility.yul\":13891:13928   */\n    tag_466:\n        /* \"#utility.yul\":13741:13935   */\n      swap3\n      swap2\n      pop\n      pop\n      jump\t// out\n        /* \"#utility.yul\":13941:14383   */\n    tag_249:\n        /* \"#utility.yul\":14090:14094   */\n      0x00\n        /* \"#utility.yul\":14128:14130   */\n      0x60\n        /* \"#utility.yul\":14117:14126   */\n      dup3\n        /* \"#utility.yul\":14113:14131   */\n      add\n        /* \"#utility.yul\":14105:14131   */\n      swap1\n      pop\n        /* \"#utility.yul\":14141:14212   */\n      tag_469\n        /* \"#utility.yul\":14209:14210   */\n      0x00\n        /* \"#utility.yul\":14198:14207   */\n      dup4\n        /* \"#utility.yul\":14194:14211   */\n      add\n        /* \"#utility.yul\":14185:14191   */\n      dup7\n        /* \"#utility.yul\":14141:14212   */\n      tag_283\n      jump\t// in\n    tag_469:\n        /* \"#utility.yul\":14222:14294   */\n      tag_470\n        /* \"#utility.yul\":14290:14292   */\n      0x20\n        /* \"#utility.yul\":14279:14288   */\n      dup4\n        /* \"#utility.yul\":14275:14293   */\n      add\n        /* \"#utility.yul\":14266:14272   */\n      dup6\n        /* \"#utility.yul\":14222:14294   */\n      tag_283\n      jump\t// in\n    tag_470:\n        /* \"#utility.yul\":14304:14376   */\n      tag_471\n        /* \"#utility.yul\":14372:14374   */\n      0x40\n        /* \"#utility.yul\":14361:14370   */\n      dup4\n        /* \"#utility.yul\":14357:14375   */\n      add\n        /* \"#utility.yul\":14348:14354   */\n      dup5\n        /* \"#utility.yul\":14304:14376   */\n      tag_271\n      jump\t// in\n    tag_471:\n        /* \"#utility.yul\":13941:14383   */\n      swap5\n      swap4\n      pop\n      pop\n      pop\n      pop\n      jump\t// out\n        /* \"#utility.yul\":14389:14721   */\n    tag_262:\n        /* \"#utility.yul\":14510:14514   */\n      0x00\n        /* \"#utility.yul\":14548:14550   */\n      0x40\n        /* \"#utility.yul\":14537:14546   */\n      dup3\n        /* \"#utility.yul\":14533:14551   */\n      add\n        /* \"#utility.yul\":14525:14551   */\n      swap1\n      pop\n        /* \"#utility.yul\":14561:14632   */\n      tag_473\n        /* \"#utility.yul\":14629:14630   */\n      0x00\n        /* \"#utility.yul\":14618:14627   */\n      dup4\n        /* \"#utility.yul\":14614:14631   */\n      add\n        /* \"#utility.yul\":14605:14611   */\n      dup6\n        /* \"#utility.yul\":14561:14632   */\n      tag_283\n      jump\t// in\n    tag_473:\n        /* \"#utility.yul\":14642:14714   */\n      tag_474\n        /* \"#utility.yul\":14710:14712   */\n      0x20\n        /* \"#utility.yul\":14699:14708   */\n      dup4\n        /* \"#utility.yul\":14695:14713   */\n      add\n        /* \"#utility.yul\":14686:14692   */\n      dup5\n        /* \"#utility.yul\":14642:14714   */\n      tag_271\n      jump\t// in\n    tag_474:\n        /* \"#utility.yul\":14389:14721   */\n      swap4\n      swap3\n      pop\n      pop\n      pop\n      jump\t// out\n\n    auxdata: 0xa26469706673582212207e72c599d82903b29b1af61abf6b94663099371996f78837b10422a80ce169ec64736f6c634300081e0033\n}\n",
				"bytecode": {
					"linkReferences": {},
					"object": "60c060405234801561000f575f5ffd5b506040516126a83803806126a8833981810160405281019061003191906103c5565b335f73ffffffffffffffffffffffffffffffffffffffff168173ffffffffffffffffffffffffffffffffffffffff16036100a2575f6040517f1e4fbdf70000000000000000000000000000000000000000000000000000000081526004016100999190610424565b60405180910390fd5b6100b18161027360201b60201c565b505f73ffffffffffffffffffffffffffffffffffffffff168173ffffffffffffffffffffffffffffffffffffffff160361012257806040517f18378d8c0000000000000000000000000000000000000000000000000000000081526004016101199190610424565b60405180910390fd5b82608081815250508160a0818152505060405180604001604052808273ffffffffffffffffffffffffffffffffffffffff168152602001601260ff1681525060055f5f73ffffffffffffffffffffffffffffffffffffffff1673ffffffffffffffffffffffffffffffffffffffff1681526020019081526020015f205f820151815f015f6101000a81548173ffffffffffffffffffffffffffffffffffffffff021916908373ffffffffffffffffffffffffffffffffffffffff1602179055506020820151815f0160146101000a81548160ff021916908360ff1602179055509050508073ffffffffffffffffffffffffffffffffffffffff165f73ffffffffffffffffffffffffffffffffffffffff167f6d28000829e988111dfd4f9075c2dc3f734e48013bc94e9ffbc8e523687314d76012604051610263919061048b565b60405180910390a35050506104a4565b5f5f5f9054906101000a900473ffffffffffffffffffffffffffffffffffffffff169050815f5f6101000a81548173ffffffffffffffffffffffffffffffffffffffff021916908373ffffffffffffffffffffffffffffffffffffffff1602179055508173ffffffffffffffffffffffffffffffffffffffff168173ffffffffffffffffffffffffffffffffffffffff167f8be0079c531659141344cd1fd0a4f28419497f9722a3daafe3b4186f6b6457e060405160405180910390a35050565b5f5ffd5b5f819050919050565b61034a81610338565b8114610354575f5ffd5b50565b5f8151905061036581610341565b92915050565b5f73ffffffffffffffffffffffffffffffffffffffff82169050919050565b5f6103948261036b565b9050919050565b6103a48161038a565b81146103ae575f5ffd5b50565b5f815190506103bf8161039b565b92915050565b5f5f5f606084860312156103dc576103db610334565b5b5f6103e986828701610357565b93505060206103fa86828701610357565b925050604061040b868287016103b1565b9150509250925092565b61041e8161038a565b82525050565b5f6020820190506104375f830184610415565b92915050565b5f819050919050565b5f60ff82169050919050565b5f819050919050565b5f61047561047061046b8461043d565b610452565b610446565b9050919050565b6104858161045b565b82525050565b5f60208201905061049e5f83018461047c565b92915050565b60805160a0516121c76104e15f395f8181610ab50152818161109501526110be01525f8181610594015281816105c0015261079901526121c75ff3fe608060405260043610610138575f3560e01c8063a734f06e116100aa578063dccd58e31161006e578063dccd58e314610450578063edd2f1901461048c578063f2fde38b146104b6578063f3fef3a3146104de578063fc5c96ee14610506578063fee4aaeb1461054357610182565b8063a734f06e1461035a578063b2343b1c14610384578063cac2e25f146103ae578063cb67e3b1146103d8578063d4fac45d1461041457610182565b80634bfdfa6f116100fc5780634bfdfa6f146102765780636b251a0b146102a0578063715018a6146102ca57806382d2f5b1146102e05780638da5cb5b1461030857806395ccea671461033257610182565b80630ccee433146101b45780632a6daba3146101de5780632f6ee6951461021a578063338b5dea14610244578063439370b11461026c57610182565b36610182575f3403610176576040517f3f36295200000000000000000000000000000000000000000000000000000000815260040160405180910390fd5b6101805f3461056b565b005b6040517f9437e2a700000000000000000000000000000000000000000000000000000000815260040160405180910390fd5b3480156101bf575f5ffd5b506101c8610797565b6040516101d591906119b7565b60405180910390f35b3480156101e9575f5ffd5b5061020460048036038101906101ff9190611a58565b6107bb565b60405161021191906119b7565b60405180910390f35b348015610225575f5ffd5b5061022e6109aa565b60405161023b9190611ab1565b60405180910390f35b34801561024f575f5ffd5b5061026a60048036038101906102659190611a58565b6109af565b005b610274610a5d565b005b348015610281575f5ffd5b5061028a610aa2565b60405161029791906119b7565b60405180910390f35b3480156102ab575f5ffd5b506102b4610ab3565b6040516102c191906119b7565b60405180910390f35b3480156102d5575f5ffd5b506102de610ad7565b005b3480156102eb575f5ffd5b5061030660048036038101906103019190611aca565b610aea565b005b348015610313575f5ffd5b5061031c610c46565b6040516103299190611b17565b60405180910390f35b34801561033d575f5ffd5b5061035860048036038101906103539190611a58565b610c6d565b005b348015610365575f5ffd5b5061036e610d7d565b60405161037b9190611b17565b60405180910390f35b34801561038f575f5ffd5b50610398610d81565b6040516103a591906119b7565b60405180910390f35b3480156103b9575f5ffd5b506103c2610d87565b6040516103cf91906119b7565b60405180910390f35b3480156103e3575f5ffd5b506103fe60048036038101906103f99190611b30565b610d8d565b60405161040b9190611ba6565b60405180910390f35b34801561041f575f5ffd5b5061043a60048036038101906104359190611aca565b610e54565b60405161044791906119b7565b60405180910390f35b34801561045b575f5ffd5b5061047660048036038101906104719190611aca565b610ed6565b60405161048391906119b7565b60405180910390f35b348015610497575f5ffd5b506104a0610ef6565b6040516104ad91906119b7565b60405180910390f35b3480156104c1575f5ffd5b506104dc60048036038101906104d79190611b30565b610efc565b005b3480156104e9575f5ffd5b5061050460048036038101906104ff9190611a58565b610f80565b005b348015610511575f5ffd5b5061052c60048036038101906105279190611b30565b611343565b60405161053a929190611bbf565b60405180910390f35b34801561054e575f5ffd5b5061056960048036038101906105649190611c10565b61138e565b005b610574826115b2565b5f61057f83836107bb565b90505f816001546105909190611c8d565b90507f000000000000000000000000000000000000000000000000000000000000000081111561061d57600154827f00000000000000000000000000000000000000000000000000000000000000006040517fc4a0472300000000000000000000000000000000000000000000000000000000815260040161061493929190611cc0565b60405180910390fd5b8260045f8673ffffffffffffffffffffffffffffffffffffffff1673ffffffffffffffffffffffffffffffffffffffff1681526020019081526020015f205f3373ffffffffffffffffffffffffffffffffffffffff1673ffffffffffffffffffffffffffffffffffffffff1681526020019081526020015f205f8282546106a49190611c8d565b925050819055508060018190555060025f8154809291906106c490611cf5565b91905055505f73ffffffffffffffffffffffffffffffffffffffff168473ffffffffffffffffffffffffffffffffffffffff161461072a576107293330858773ffffffffffffffffffffffffffffffffffffffff16611683909392919063ffffffff16565b5b8373ffffffffffffffffffffffffffffffffffffffff163373ffffffffffffffffffffffffffffffffffffffff167ff5681f9d0db1b911ac18ee83d515a1cf1051853a9eae418316a2fdf7dea427c58585604051610789929190611d3c565b60405180910390a350505050565b7f000000000000000000000000000000000000000000000000000000000000000081565b5f5f82036107cb575f90506109a4565b5f60055f8573ffffffffffffffffffffffffffffffffffffffff1673ffffffffffffffffffffffffffffffffffffffff1681526020019081526020015f206040518060400160405290815f82015f9054906101000a900473ffffffffffffffffffffffffffffffffffffffff1673ffffffffffffffffffffffffffffffffffffffff1673ffffffffffffffffffffffffffffffffffffffff1681526020015f820160149054906101000a900460ff1660ff1660ff168152505090505f73ffffffffffffffffffffffffffffffffffffffff16815f015173ffffffffffffffffffffffffffffffffffffffff16036108f957836040517ffb21d4aa0000000000000000000000000000000000000000000000000000000081526004016108f09190611b17565b60405180910390fd5b5f815f015190505f8173ffffffffffffffffffffffffffffffffffffffff1663feaf968c6040518163ffffffff1660e01b815260040160a060405180830381865afa15801561094a573d5f5f3e3d5ffd5b505050506040513d601f19601f8201168201806040525081019061096e9190611de9565b505050915050826020015160ff16600a6109889190611f8f565b81866109949190611fd9565b61099e9190612047565b93505050505b92915050565b600881565b805f81036109e9576040517f3f36295200000000000000000000000000000000000000000000000000000000815260040160405180910390fd5b5f73ffffffffffffffffffffffffffffffffffffffff168373ffffffffffffffffffffffffffffffffffffffff1603610a4e576040517f633bfff400000000000000000000000000000000000000000000000000000000815260040160405180910390fd5b610a58838361056b565b505050565b5f3403610a96576040517f3f36295200000000000000000000000000000000000000000000000000000000815260040160405180910390fd5b610aa05f3461056b565b565b6008600a610ab09190612077565b81565b7f000000000000000000000000000000000000000000000000000000000000000081565b610adf611705565b610ae85f61178c565b565b610af2611705565b610afb826115b2565b5f73ffffffffffffffffffffffffffffffffffffffff168173ffffffffffffffffffffffffffffffffffffffff1603610b6b57806040517f18378d8c000000000000000000000000000000000000000000000000000000008152600401610b629190611b17565b60405180910390fd5b8060055f8473ffffffffffffffffffffffffffffffffffffffff1673ffffffffffffffffffffffffffffffffffffffff1681526020019081526020015f205f015f6101000a81548173ffffffffffffffffffffffffffffffffffffffff021916908373ffffffffffffffffffffffffffffffffffffffff1602179055508073ffffffffffffffffffffffffffffffffffffffff168273ffffffffffffffffffffffffffffffffffffffff167fbdc29f691f539931aac0eb61b6040016944303cd36b1493f9bc5d3f74e10c8e260405160405180910390a35050565b5f5f5f9054906101000a900473ffffffffffffffffffffffffffffffffffffffff16905090565b610c75611705565b5f73ffffffffffffffffffffffffffffffffffffffff168273ffffffffffffffffffffffffffffffffffffffff1603610d4d575f3373ffffffffffffffffffffffffffffffffffffffff1682604051610ccd906120ee565b5f6040518083038185875af1925050503d805f8114610d07576040519150601f19603f3d011682016040523d82523d5f602084013e610d0c565b606091505b5050905080610d47576040517f2ae871a500000000000000000000000000000000000000000000000000000000815260040160405180910390fd5b50610d79565b610d7833828473ffffffffffffffffffffffffffffffffffffffff1661184d9092919063ffffffff16565b5b5050565b5f81565b60035481565b60025481565b610d9561196e565b60055f8373ffffffffffffffffffffffffffffffffffffffff1673ffffffffffffffffffffffffffffffffffffffff1681526020019081526020015f206040518060400160405290815f82015f9054906101000a900473ffffffffffffffffffffffffffffffffffffffff1673ffffffffffffffffffffffffffffffffffffffff1673ffffffffffffffffffffffffffffffffffffffff1681526020015f820160149054906101000a900460ff1660ff1660ff16815250509050919050565b5f60045f8473ffffffffffffffffffffffffffffffffffffffff1673ffffffffffffffffffffffffffffffffffffffff1681526020019081526020015f205f8373ffffffffffffffffffffffffffffffffffffffff1673ffffffffffffffffffffffffffffffffffffffff1681526020019081526020015f2054905092915050565b6004602052815f5260405f20602052805f5260405f205f91509150505481565b60015481565b610f04611705565b5f73ffffffffffffffffffffffffffffffffffffffff168173ffffffffffffffffffffffffffffffffffffffff1603610f74575f6040517f1e4fbdf7000000000000000000000000000000000000000000000000000000008152600401610f6b9190611b17565b60405180910390fd5b610f7d8161178c565b50565b805f8103610fba576040517f3f36295200000000000000000000000000000000000000000000000000000000815260040160405180910390fd5b610fc3836115b2565b5f60045f8573ffffffffffffffffffffffffffffffffffffffff1673ffffffffffffffffffffffffffffffffffffffff1681526020019081526020015f205f3373ffffffffffffffffffffffffffffffffffffffff1673ffffffffffffffffffffffffffffffffffffffff1681526020019081526020015f20549050808311156110865782816040517f61965c4e00000000000000000000000000000000000000000000000000000000815260040161107d929190611d3c565b60405180910390fd5b5f61109185856107bb565b90507f000000000000000000000000000000000000000000000000000000000000000081111561111a57807f00000000000000000000000000000000000000000000000000000000000000006040517f8672a832000000000000000000000000000000000000000000000000000000008152600401611111929190611d3c565b60405180910390fd5b83826111269190612102565b60045f8773ffffffffffffffffffffffffffffffffffffffff1673ffffffffffffffffffffffffffffffffffffffff1681526020019081526020015f205f3373ffffffffffffffffffffffffffffffffffffffff1673ffffffffffffffffffffffffffffffffffffffff1681526020019081526020015f20819055508060015f8282546111b39190612102565b9250508190555060035f8154809291906111cc90611cf5565b91905055505f73ffffffffffffffffffffffffffffffffffffffff168573ffffffffffffffffffffffffffffffffffffffff16036112a9575f3373ffffffffffffffffffffffffffffffffffffffff1685604051611229906120ee565b5f6040518083038185875af1925050503d805f8114611263576040519150601f19603f3d011682016040523d82523d5f602084013e611268565b606091505b50509050806112a3576040517f2ae871a500000000000000000000000000000000000000000000000000000000815260040160405180910390fd5b506112d5565b6112d433858773ffffffffffffffffffffffffffffffffffffffff1661184d9092919063ffffffff16565b5b8473ffffffffffffffffffffffffffffffffffffffff163373ffffffffffffffffffffffffffffffffffffffff167f91fb9d98b786c57d74c099ccd2beca1739e9f6a81fb49001ca465c4b7591bbe28684604051611334929190611d3c565b60405180910390a35050505050565b6005602052805f5260405f205f91509050805f015f9054906101000a900473ffffffffffffffffffffffffffffffffffffffff1690805f0160149054906101000a900460ff16905082565b611396611705565b5f73ffffffffffffffffffffffffffffffffffffffff168373ffffffffffffffffffffffffffffffffffffffff160361140657826040517ffb21d4aa0000000000000000000000000000000000000000000000000000000081526004016113fd9190611b17565b60405180910390fd5b5f73ffffffffffffffffffffffffffffffffffffffff168273ffffffffffffffffffffffffffffffffffffffff160361147657816040517f18378d8c00000000000000000000000000000000000000000000000000000000815260040161146d9190611b17565b60405180910390fd5b60405180604001604052808373ffffffffffffffffffffffffffffffffffffffff1681526020018260ff1681525060055f8573ffffffffffffffffffffffffffffffffffffffff1673ffffffffffffffffffffffffffffffffffffffff1681526020019081526020015f205f820151815f015f6101000a81548173ffffffffffffffffffffffffffffffffffffffff021916908373ffffffffffffffffffffffffffffffffffffffff1602179055506020820151815f0160146101000a81548160ff021916908360ff1602179055509050508173ffffffffffffffffffffffffffffffffffffffff168373ffffffffffffffffffffffffffffffffffffffff167f6d28000829e988111dfd4f9075c2dc3f734e48013bc94e9ffbc8e523687314d7836040516115a59190611ab1565b60405180910390a3505050565b5f73ffffffffffffffffffffffffffffffffffffffff1660055f8373ffffffffffffffffffffffffffffffffffffffff1673ffffffffffffffffffffffffffffffffffffffff1681526020019081526020015f205f015f9054906101000a900473ffffffffffffffffffffffffffffffffffffffff1673ffffffffffffffffffffffffffffffffffffffff160361168057806040517ffb21d4aa0000000000000000000000000000000000000000000000000000000081526004016116779190611b17565b60405180910390fd5b50565b6116ff848573ffffffffffffffffffffffffffffffffffffffff166323b872dd8686866040516024016116b893929190612135565b604051602081830303815290604052915060e01b6020820180517bffffffffffffffffffffffffffffffffffffffffffffffffffffffff83818316178352505050506118cc565b50505050565b61170d611967565b73ffffffffffffffffffffffffffffffffffffffff1661172b610c46565b73ffffffffffffffffffffffffffffffffffffffff161461178a5761174e611967565b6040517f118cdaa70000000000000000000000000000000000000000000000000000000081526004016117819190611b17565b60405180910390fd5b565b5f5f5f9054906101000a900473ffffffffffffffffffffffffffffffffffffffff169050815f5f6101000a81548173ffffffffffffffffffffffffffffffffffffffff021916908373ffffffffffffffffffffffffffffffffffffffff1602179055508173ffffffffffffffffffffffffffffffffffffffff168173ffffffffffffffffffffffffffffffffffffffff167f8be0079c531659141344cd1fd0a4f28419497f9722a3daafe3b4186f6b6457e060405160405180910390a35050565b6118c7838473ffffffffffffffffffffffffffffffffffffffff1663a9059cbb858560405160240161188092919061216a565b604051602081830303815290604052915060e01b6020820180517bffffffffffffffffffffffffffffffffffffffffffffffffffffffff83818316178352505050506118cc565b505050565b5f5f60205f8451602086015f885af1806118eb576040513d5f823e3d81fd5b3d92505f519150505f821461190457600181141561191f565b5f8473ffffffffffffffffffffffffffffffffffffffff163b145b1561196157836040517f5274afe70000000000000000000000000000000000000000000000000000000081526004016119589190611b17565b60405180910390fd5b50505050565b5f33905090565b60405180604001604052805f73ffffffffffffffffffffffffffffffffffffffff1681526020015f60ff1681525090565b5f819050919050565b6119b18161199f565b82525050565b5f6020820190506119ca5f8301846119a8565b92915050565b5f5ffd5b5f73ffffffffffffffffffffffffffffffffffffffff82169050919050565b5f6119fd826119d4565b9050919050565b611a0d816119f3565b8114611a17575f5ffd5b50565b5f81359050611a2881611a04565b92915050565b611a378161199f565b8114611a41575f5ffd5b50565b5f81359050611a5281611a2e565b92915050565b5f5f60408385031215611a6e57611a6d6119d0565b5b5f611a7b85828601611a1a565b9250506020611a8c85828601611a44565b9150509250929050565b5f60ff82169050919050565b611aab81611a96565b82525050565b5f602082019050611ac45f830184611aa2565b92915050565b5f5f60408385031215611ae057611adf6119d0565b5b5f611aed85828601611a1a565b9250506020611afe85828601611a1a565b9150509250929050565b611b11816119f3565b82525050565b5f602082019050611b2a5f830184611b08565b92915050565b5f60208284031215611b4557611b446119d0565b5b5f611b5284828501611a1a565b91505092915050565b611b64816119f3565b82525050565b611b7381611a96565b82525050565b604082015f820151611b8d5f850182611b5b565b506020820151611ba06020850182611b6a565b50505050565b5f604082019050611bb95f830184611b79565b92915050565b5f604082019050611bd25f830185611b08565b611bdf6020830184611aa2565b9392505050565b611bef81611a96565b8114611bf9575f5ffd5b50565b5f81359050611c0a81611be6565b92915050565b5f5f5f60608486031215611c2757611c266119d0565b5b5f611c3486828701611a1a565b9350506020611c4586828701611a1a565b9250506040611c5686828701611bfc565b9150509250925092565b7f4e487b71000000000000000000000000000000000000000000000000000000005f52601160045260245ffd5b5f611c978261199f565b9150611ca28361199f565b9250828201905080821115611cba57611cb9611c60565b5b92915050565b5f606082019050611cd35f8301866119a8565b611ce060208301856119a8565b611ced60408301846119a8565b949350505050565b5f611cff8261199f565b91507fffffffffffffffffffffffffffffffffffffffffffffffffffffffffffffffff8203611d3157611d30611c60565b5b600182019050919050565b5f604082019050611d4f5f8301856119a8565b611d5c60208301846119a8565b9392505050565b5f69ffffffffffffffffffff82169050919050565b611d8181611d63565b8114611d8b575f5ffd5b50565b5f81519050611d9c81611d78565b92915050565b5f819050919050565b611db481611da2565b8114611dbe575f5ffd5b50565b5f81519050611dcf81611dab565b92915050565b5f81519050611de381611a2e565b92915050565b5f5f5f5f5f60a08688031215611e0257611e016119d0565b5b5f611e0f88828901611d8e565b9550506020611e2088828901611dc1565b9450506040611e3188828901611dd5565b9350506060611e4288828901611dd5565b9250506080611e5388828901611d8e565b9150509295509295909350565b5f8160011c9050919050565b5f5f8291508390505b6001851115611eb557808604811115611e9157611e90611c60565b5b6001851615611ea05780820291505b8081029050611eae85611e60565b9450611e75565b94509492505050565b5f82611ecd5760019050611f88565b81611eda575f9050611f88565b8160018114611ef05760028114611efa57611f29565b6001915050611f88565b60ff841115611f0c57611f0b611c60565b5b8360020a915084821115611f2357611f22611c60565b5b50611f88565b5060208310610133831016604e8410600b8410161715611f5e5782820a905083811115611f5957611f58611c60565b5b611f88565b611f6b8484846001611e6c565b92509050818404811115611f8257611f81611c60565b5b81810290505b9392505050565b5f611f998261199f565b9150611fa48361199f565b9250611fd17fffffffffffffffffffffffffffffffffffffffffffffffffffffffffffffffff8484611ebe565b905092915050565b5f611fe38261199f565b9150611fee8361199f565b9250828202611ffc8161199f565b9150828204841483151761201357612012611c60565b5b5092915050565b7f4e487b71000000000000000000000000000000000000000000000000000000005f52601260045260245ffd5b5f6120518261199f565b915061205c8361199f565b92508261206c5761206b61201a565b5b828204905092915050565b5f6120818261199f565b915061208c83611a96565b92506120b97fffffffffffffffffffffffffffffffffffffffffffffffffffffffffffffffff8484611ebe565b905092915050565b5f81905092915050565b50565b5f6120d95f836120c1565b91506120e4826120cb565b5f82019050919050565b5f6120f8826120ce565b9150819050919050565b5f61210c8261199f565b91506121178361199f565b925082820390508181111561212f5761212e611c60565b5b92915050565b5f6060820190506121485f830186611b08565b6121556020830185611b08565b61216260408301846119a8565b949350505050565b5f60408201905061217d5f830185611b08565b61218a60208301846119a8565b939250505056fea26469706673582212207e72c599d82903b29b1af61abf6b94663099371996f78837b10422a80ce169ec64736f6c634300081e0033",
					"opcodes": "PUSH1 0xC0 PUSH1 0x40 MSTORE CALLVALUE DUP1 ISZERO PUSH2 0xF JUMPI PUSH0 PUSH0 REVERT JUMPDEST POP PUSH1 0x40 MLOAD PUSH2 0x26A8 CODESIZE SUB DUP1 PUSH2 0x26A8 DUP4 CODECOPY DUP2 DUP2 ADD PUSH1 0x40 MSTORE DUP2 ADD SWAP1 PUSH2 0x31 SWAP2 SWAP1 PUSH2 0x3C5 JUMP JUMPDEST CALLER PUSH0 PUSH20 0xFFFFFFFFFFFFFFFFFFFFFFFFFFFFFFFFFFFFFFFF AND DUP2 PUSH20 0xFFFFFFFFFFFFFFFFFFFFFFFFFFFFFFFFFFFFFFFF AND SUB PUSH2 0xA2 JUMPI PUSH0 PUSH1 0x40 MLOAD PUSH32 0x1E4FBDF700000000000000000000000000000000000000000000000000000000 DUP2 MSTORE PUSH1 0x4 ADD PUSH2 0x99 SWAP2 SWAP1 PUSH2 0x424 JUMP JUMPDEST PUSH1 0x40 MLOAD DUP1 SWAP2 SUB SWAP1 REVERT JUMPDEST PUSH2 0xB1 DUP2 PUSH2 0x273 PUSH1 0x20 SHL PUSH1 0x20 SHR JUMP JUMPDEST POP PUSH0 PUSH20 0xFFFFFFFFFFFFFFFFFFFFFFFFFFFFFFFFFFFFFFFF AND DUP2 PUSH20 0xFFFFFFFFFFFFFFFFFFFFFFFFFFFFFFFFFFFFFFFF AND SUB PUSH2 0x122 JUMPI DUP1 PUSH1 0x40 MLOAD PUSH32 0x18378D8C00000000000000000000000000000000000000000000000000000000 DUP2 MSTORE PUSH1 0x4 ADD PUSH2 0x119 SWAP2 SWAP1 PUSH2 0x424 JUMP JUMPDEST PUSH1 0x40 MLOAD DUP1 SWAP2 SUB SWAP1 REVERT JUMPDEST DUP3 PUSH1 0x80 DUP2 DUP2 MSTORE POP POP DUP2 PUSH1 0xA0 DUP2 DUP2 MSTORE POP POP PUSH1 0x40 MLOAD DUP1 PUSH1 0x40 ADD PUSH1 0x40 MSTORE DUP1 DUP3 PUSH20 0xFFFFFFFFFFFFFFFFFFFFFFFFFFFFFFFFFFFFFFFF AND DUP2 MSTORE PUSH1 0x20 ADD PUSH1 0x12 PUSH1 0xFF AND DUP2 MSTORE POP PUSH1 0x5 PUSH0 PUSH0 PUSH20 0xFFFFFFFFFFFFFFFFFFFFFFFFFFFFFFFFFFFFFFFF AND PUSH20 0xFFFFFFFFFFFFFFFFFFFFFFFFFFFFFFFFFFFFFFFF AND DUP2 MSTORE PUSH1 0x20 ADD SWAP1 DUP2 MSTORE PUSH1 0x20 ADD PUSH0 KECCAK256 PUSH0 DUP3 ADD MLOAD DUP2 PUSH0 ADD PUSH0 PUSH2 0x100 EXP DUP2 SLOAD DUP2 PUSH20 0xFFFFFFFFFFFFFFFFFFFFFFFFFFFFFFFFFFFFFFFF MUL NOT AND SWAP1 DUP4 PUSH20 0xFFFFFFFFFFFFFFFFFFFFFFFFFFFFFFFFFFFFFFFF AND MUL OR SWAP1 SSTORE POP PUSH1 0x20 DUP3 ADD MLOAD DUP2 PUSH0 ADD PUSH1 0x14 PUSH2 0x100 EXP DUP2 SLOAD DUP2 PUSH1 0xFF MUL NOT AND SWAP1 DUP4 PUSH1 0xFF AND MUL OR SWAP1 SSTORE POP SWAP1 POP POP DUP1 PUSH20 0xFFFFFFFFFFFFFFFFFFFFFFFFFFFFFFFFFFFFFFFF AND PUSH0 PUSH20 0xFFFFFFFFFFFFFFFFFFFFFFFFFFFFFFFFFFFFFFFF AND PUSH32 0x6D28000829E988111DFD4F9075C2DC3F734E48013BC94E9FFBC8E523687314D7 PUSH1 0x12 PUSH1 0x40 MLOAD PUSH2 0x263 SWAP2 SWAP1 PUSH2 0x48B JUMP JUMPDEST PUSH1 0x40 MLOAD DUP1 SWAP2 SUB SWAP1 LOG3 POP POP POP PUSH2 0x4A4 JUMP JUMPDEST PUSH0 PUSH0 PUSH0 SWAP1 SLOAD SWAP1 PUSH2 0x100 EXP SWAP1 DIV PUSH20 0xFFFFFFFFFFFFFFFFFFFFFFFFFFFFFFFFFFFFFFFF AND SWAP1 POP DUP2 PUSH0 PUSH0 PUSH2 0x100 EXP DUP2 SLOAD DUP2 PUSH20 0xFFFFFFFFFFFFFFFFFFFFFFFFFFFFFFFFFFFFFFFF MUL NOT AND SWAP1 DUP4 PUSH20 0xFFFFFFFFFFFFFFFFFFFFFFFFFFFFFFFFFFFFFFFF AND MUL OR SWAP1 SSTORE POP DUP2 PUSH20 0xFFFFFFFFFFFFFFFFFFFFFFFFFFFFFFFFFFFFFFFF AND DUP2 PUSH20 0xFFFFFFFFFFFFFFFFFFFFFFFFFFFFFFFFFFFFFFFF AND PUSH32 0x8BE0079C531659141344CD1FD0A4F28419497F9722A3DAAFE3B4186F6B6457E0 PUSH1 0x40 MLOAD PUSH1 0x40 MLOAD DUP1 SWAP2 SUB SWAP1 LOG3 POP POP JUMP JUMPDEST PUSH0 PUSH0 REVERT JUMPDEST PUSH0 DUP2 SWAP1 POP SWAP2 SWAP1 POP JUMP JUMPDEST PUSH2 0x34A DUP2 PUSH2 0x338 JUMP JUMPDEST DUP2 EQ PUSH2 0x354 JUMPI PUSH0 PUSH0 REVERT JUMPDEST POP JUMP JUMPDEST PUSH0 DUP2 MLOAD SWAP1 POP PUSH2 0x365 DUP2 PUSH2 0x341 JUMP JUMPDEST SWAP3 SWAP2 POP POP JUMP JUMPDEST PUSH0 PUSH20 0xFFFFFFFFFFFFFFFFFFFFFFFFFFFFFFFFFFFFFFFF DUP3 AND SWAP1 POP SWAP2 SWAP1 POP JUMP JUMPDEST PUSH0 PUSH2 0x394 DUP3 PUSH2 0x36B JUMP JUMPDEST SWAP1 POP SWAP2 SWAP1 POP JUMP JUMPDEST PUSH2 0x3A4 DUP2 PUSH2 0x38A JUMP JUMPDEST DUP2 EQ PUSH2 0x3AE JUMPI PUSH0 PUSH0 REVERT JUMPDEST POP JUMP JUMPDEST PUSH0 DUP2 MLOAD SWAP1 POP PUSH2 0x3BF DUP2 PUSH2 0x39B JUMP JUMPDEST SWAP3 SWAP2 POP POP JUMP JUMPDEST PUSH0 PUSH0 PUSH0 PUSH1 0x60 DUP5 DUP7 SUB SLT ISZERO PUSH2 0x3DC JUMPI PUSH2 0x3DB PUSH2 0x334 JUMP JUMPDEST JUMPDEST PUSH0 PUSH2 0x3E9 DUP7 DUP3 DUP8 ADD PUSH2 0x357 JUMP JUMPDEST SWAP4 POP POP PUSH1 0x20 PUSH2 0x3FA DUP7 DUP3 DUP8 ADD PUSH2 0x357 JUMP JUMPDEST SWAP3 POP POP PUSH1 0x40 PUSH2 0x40B DUP7 DUP3 DUP8 ADD PUSH2 0x3B1 JUMP JUMPDEST SWAP2 POP POP SWAP3 POP SWAP3 POP SWAP3 JUMP JUMPDEST PUSH2 0x41E DUP2 PUSH2 0x38A JUMP JUMPDEST DUP3 MSTORE POP POP JUMP JUMPDEST PUSH0 PUSH1 0x20 DUP3 ADD SWAP1 POP PUSH2 0x437 PUSH0 DUP4 ADD DUP5 PUSH2 0x415 JUMP JUMPDEST SWAP3 SWAP2 POP POP JUMP JUMPDEST PUSH0 DUP2 SWAP1 POP SWAP2 SWAP1 POP JUMP JUMPDEST PUSH0 PUSH1 0xFF DUP3 AND SWAP1 POP SWAP2 SWAP1 POP JUMP JUMPDEST PUSH0 DUP2 SWAP1 POP SWAP2 SWAP1 POP JUMP JUMPDEST PUSH0 PUSH2 0x475 PUSH2 0x470 PUSH2 0x46B DUP5 PUSH2 0x43D JUMP JUMPDEST PUSH2 0x452 JUMP JUMPDEST PUSH2 0x446 JUMP JUMPDEST SWAP1 POP SWAP2 SWAP1 POP JUMP JUMPDEST PUSH2 0x485 DUP2 PUSH2 0x45B JUMP JUMPDEST DUP3 MSTORE POP POP JUMP JUMPDEST PUSH0 PUSH1 0x20 DUP3 ADD SWAP1 POP PUSH2 0x49E PUSH0 DUP4 ADD DUP5 PUSH2 0x47C JUMP JUMPDEST SWAP3 SWAP2 POP POP JUMP JUMPDEST PUSH1 0x80 MLOAD PUSH1 0xA0 MLOAD PUSH2 0x21C7 PUSH2 0x4E1 PUSH0 CODECOPY PUSH0 DUP2 DUP2 PUSH2 0xAB5 ADD MSTORE DUP2 DUP2 PUSH2 0x1095 ADD MSTORE PUSH2 0x10BE ADD MSTORE PUSH0 DUP2 DUP2 PUSH2 0x594 ADD MSTORE DUP2 DUP2 PUSH2 0x5C0 ADD MSTORE PUSH2 0x799 ADD MSTORE PUSH2 0x21C7 PUSH0 RETURN INVALID PUSH1 0x80 PUSH1 0x40 MSTORE PUSH1 0x4 CALLDATASIZE LT PUSH2 0x138 JUMPI PUSH0 CALLDATALOAD PUSH1 0xE0 SHR DUP1 PUSH4 0xA734F06E GT PUSH2 0xAA JUMPI DUP1 PUSH4 0xDCCD58E3 GT PUSH2 0x6E JUMPI DUP1 PUSH4 0xDCCD58E3 EQ PUSH2 0x450 JUMPI DUP1 PUSH4 0xEDD2F190 EQ PUSH2 0x48C JUMPI DUP1 PUSH4 0xF2FDE38B EQ PUSH2 0x4B6 JUMPI DUP1 PUSH4 0xF3FEF3A3 EQ PUSH2 0x4DE JUMPI DUP1 PUSH4 0xFC5C96EE EQ PUSH2 0x506 JUMPI DUP1 PUSH4 0xFEE4AAEB EQ PUSH2 0x543 JUMPI PUSH2 0x182 JUMP JUMPDEST DUP1 PUSH4 0xA734F06E EQ PUSH2 0x35A JUMPI DUP1 PUSH4 0xB2343B1C EQ PUSH2 0x384 JUMPI DUP1 PUSH4 0xCAC2E25F EQ PUSH2 0x3AE JUMPI DUP1 PUSH4 0xCB67E3B1 EQ PUSH2 0x3D8 JUMPI DUP1 PUSH4 0xD4FAC45D EQ PUSH2 0x414 JUMPI PUSH2 0x182 JUMP JUMPDEST DUP1 PUSH4 0x4BFDFA6F GT PUSH2 0xFC JUMPI DUP1 PUSH4 0x4BFDFA6F EQ PUSH2 0x276 JUMPI DUP1 PUSH4 0x6B251A0B EQ PUSH2 0x2A0 JUMPI DUP1 PUSH4 0x715018A6 EQ PUSH2 0x2CA JUMPI DUP1 PUSH4 0x82D2F5B1 EQ PUSH2 0x2E0 JUMPI DUP1 PUSH4 0x8DA5CB5B EQ PUSH2 0x308 JUMPI DUP1 PUSH4 0x95CCEA67 EQ PUSH2 0x332 JUMPI PUSH2 0x182 JUMP JUMPDEST DUP1 PUSH4 0xCCEE433 EQ PUSH2 0x1B4 JUMPI DUP1 PUSH4 0x2A6DABA3 EQ PUSH2 0x1DE JUMPI DUP1 PUSH4 0x2F6EE695 EQ PUSH2 0x21A JUMPI DUP1 PUSH4 0x338B5DEA EQ PUSH2 0x244 JUMPI DUP1 PUSH4 0x439370B1 EQ PUSH2 0x26C JUMPI PUSH2 0x182 JUMP JUMPDEST CALLDATASIZE PUSH2 0x182 JUMPI PUSH0 CALLVALUE SUB PUSH2 0x176 JUMPI PUSH1 0x40 MLOAD PUSH32 0x3F36295200000000000000000000000000000000000000000000000000000000 DUP2 MSTORE PUSH1 0x4 ADD PUSH1 0x40 MLOAD DUP1 SWAP2 SUB SWAP1 REVERT JUMPDEST PUSH2 0x180 PUSH0 CALLVALUE PUSH2 0x56B JUMP JUMPDEST STOP JUMPDEST PUSH1 0x40 MLOAD PUSH32 0x9437E2A700000000000000000000000000000000000000000000000000000000 DUP2 MSTORE PUSH1 0x4 ADD PUSH1 0x40 MLOAD DUP1 SWAP2 SUB SWAP1 REVERT JUMPDEST CALLVALUE DUP1 ISZERO PUSH2 0x1BF JUMPI PUSH0 PUSH0 REVERT JUMPDEST POP PUSH2 0x1C8 PUSH2 0x797 JUMP JUMPDEST PUSH1 0x40 MLOAD PUSH2 0x1D5 SWAP2 SWAP1 PUSH2 0x19B7 JUMP JUMPDEST PUSH1 0x40 MLOAD DUP1 SWAP2 SUB SWAP1 RETURN JUMPDEST CALLVALUE DUP1 ISZERO PUSH2 0x1E9 JUMPI PUSH0 PUSH0 REVERT JUMPDEST POP PUSH2 0x204 PUSH1 0x4 DUP1 CALLDATASIZE SUB DUP2 ADD SWAP1 PUSH2 0x1FF SWAP2 SWAP1 PUSH2 0x1A58 JUMP JUMPDEST PUSH2 0x7BB JUMP JUMPDEST PUSH1 0x40 MLOAD PUSH2 0x211 SWAP2 SWAP1 PUSH2 0x19B7 JUMP JUMPDEST PUSH1 0x40 MLOAD DUP1 SWAP2 SUB SWAP1 RETURN JUMPDEST CALLVALUE DUP1 ISZERO PUSH2 0x225 JUMPI PUSH0 PUSH0 REVERT JUMPDEST POP PUSH2 0x22E PUSH2 0x9AA JUMP JUMPDEST PUSH1 0x40 MLOAD PUSH2 0x23B SWAP2 SWAP1 PUSH2 0x1AB1 JUMP JUMPDEST PUSH1 0x40 MLOAD DUP1 SWAP2 SUB SWAP1 RETURN JUMPDEST CALLVALUE DUP1 ISZERO PUSH2 0x24F JUMPI PUSH0 PUSH0 REVERT JUMPDEST POP PUSH2 0x26A PUSH1 0x4 DUP1 CALLDATASIZE SUB DUP2 ADD SWAP1 PUSH2 0x265 SWAP2 SWAP1 PUSH2 0x1A58 JUMP JUMPDEST PUSH2 0x9AF JUMP JUMPDEST STOP JUMPDEST PUSH2 0x274 PUSH2 0xA5D JUMP JUMPDEST STOP JUMPDEST CALLVALUE DUP1 ISZERO PUSH2 0x281 JUMPI PUSH0 PUSH0 REVERT JUMPDEST POP PUSH2 0x28A PUSH2 0xAA2 JUMP JUMPDEST PUSH1 0x40 MLOAD PUSH2 0x297 SWAP2 SWAP1 PUSH2 0x19B7 JUMP JUMPDEST PUSH1 0x40 MLOAD DUP1 SWAP2 SUB SWAP1 RETURN JUMPDEST CALLVALUE DUP1 ISZERO PUSH2 0x2AB JUMPI PUSH0 PUSH0 REVERT JUMPDEST POP PUSH2 0x2B4 PUSH2 0xAB3 JUMP JUMPDEST PUSH1 0x40 MLOAD PUSH2 0x2C1 SWAP2 SWAP1 PUSH2 0x19B7 JUMP JUMPDEST PUSH1 0x40 MLOAD DUP1 SWAP2 SUB SWAP1 RETURN JUMPDEST CALLVALUE DUP1 ISZERO PUSH2 0x2D5 JUMPI PUSH0 PUSH0 REVERT JUMPDEST POP PUSH2 0x2DE PUSH2 0xAD7 JUMP JUMPDEST STOP JUMPDEST CALLVALUE DUP1 ISZERO PUSH2 0x2EB JUMPI PUSH0 PUSH0 REVERT JUMPDEST POP PUSH2 0x306 PUSH1 0x4 DUP1 CALLDATASIZE SUB DUP2 ADD SWAP1 PUSH2 0x301 SWAP2 SWAP1 PUSH2 0x1ACA JUMP JUMPDEST PUSH2 0xAEA JUMP JUMPDEST STOP JUMPDEST CALLVALUE DUP1 ISZERO PUSH2 0x313 JUMPI PUSH0 PUSH0 REVERT JUMPDEST POP PUSH2 0x31C PUSH2 0xC46 JUMP JUMPDEST PUSH1 0x40 MLOAD PUSH2 0x329 SWAP2 SWAP1 PUSH2 0x1B17 JUMP JUMPDEST PUSH1 0x40 MLOAD DUP1 SWAP2 SUB SWAP1 RETURN JUMPDEST CALLVALUE DUP1 ISZERO PUSH2 0x33D JUMPI PUSH0 PUSH0 REVERT JUMPDEST POP PUSH2 0x358 PUSH1 0x4 DUP1 CALLDATASIZE SUB DUP2 ADD SWAP1 PUSH2 0x353 SWAP2 SWAP1 PUSH2 0x1A58 JUMP JUMPDEST PUSH2 0xC6D JUMP JUMPDEST STOP JUMPDEST CALLVALUE DUP1 ISZERO PUSH2 0x365 JUMPI PUSH0 PUSH0 REVERT JUMPDEST POP PUSH2 0x36E PUSH2 0xD7D JUMP JUMPDEST PUSH1 0x40 MLOAD PUSH2 0x37B SWAP2 SWAP1 PUSH2 0x1B17 JUMP JUMPDEST PUSH1 0x40 MLOAD DUP1 SWAP2 SUB SWAP1 RETURN JUMPDEST CALLVALUE DUP1 ISZERO PUSH2 0x38F JUMPI PUSH0 PUSH0 REVERT JUMPDEST POP PUSH2 0x398 PUSH2 0xD81 JUMP JUMPDEST PUSH1 0x40 MLOAD PUSH2 0x3A5 SWAP2 SWAP1 PUSH2 0x19B7 JUMP JUMPDEST PUSH1 0x40 MLOAD DUP1 SWAP2 SUB SWAP1 RETURN JUMPDEST CALLVALUE DUP1 ISZERO PUSH2 0x3B9 JUMPI PUSH0 PUSH0 REVERT JUMPDEST POP PUSH2 0x3C2 PUSH2 0xD87 JUMP JUMPDEST PUSH1 0x40 MLOAD PUSH2 0x3CF SWAP2 SWAP1 PUSH2 0x19B7 JUMP JUMPDEST PUSH1 0x40 MLOAD DUP1 SWAP2 SUB SWAP1 RETURN JUMPDEST CALLVALUE DUP1 ISZERO PUSH2 0x3E3 JUMPI PUSH0 PUSH0 REVERT JUMPDEST POP PUSH2 0x3FE PUSH1 0x4 DUP1 CALLDATASIZE SUB DUP2 ADD SWAP1 PUSH2 0x3F9 SWAP2 SWAP1 PUSH2 0x1B30 JUMP JUMPDEST PUSH2 0xD8D JUMP JUMPDEST PUSH1 0x40 MLOAD PUSH2 0x40B SWAP2 SWAP1 PUSH2 0x1BA6 JUMP JUMPDEST PUSH1 0x40 MLOAD DUP1 SWAP2 SUB SWAP1 RETURN JUMPDEST CALLVALUE DUP1 ISZERO PUSH2 0x41F JUMPI PUSH0 PUSH0 REVERT JUMPDEST POP PUSH2 0x43A PUSH1 0x4 DUP1 CALLDATASIZE SUB DUP2 ADD SWAP1 PUSH2 0x435 SWAP2 SWAP1 PUSH2 0x1ACA JUMP JUMPDEST PUSH2 0xE54 JUMP JUMPDEST PUSH1 0x40 MLOAD PUSH2 0x447 SWAP2 SWAP1 PUSH2 0x19B7 JUMP JUMPDEST PUSH1 0x40 MLOAD DUP1 SWAP2 SUB SWAP1 RETURN JUMPDEST CALLVALUE DUP1 ISZERO PUSH2 0x45B JUMPI PUSH0 PUSH0 REVERT JUMPDEST POP PUSH2 0x476 PUSH1 0x4 DUP1 CALLDATASIZE SUB DUP2 ADD SWAP1 PUSH2 0x471 SWAP2 SWAP1 PUSH2 0x1ACA JUMP JUMPDEST PUSH2 0xED6 JUMP JUMPDEST PUSH1 0x40 MLOAD PUSH2 0x483 SWAP2 SWAP1 PUSH2 0x19B7 JUMP JUMPDEST PUSH1 0x40 MLOAD DUP1 SWAP2 SUB SWAP1 RETURN JUMPDEST CALLVALUE DUP1 ISZERO PUSH2 0x497 JUMPI PUSH0 PUSH0 REVERT JUMPDEST POP PUSH2 0x4A0 PUSH2 0xEF6 JUMP JUMPDEST PUSH1 0x40 MLOAD PUSH2 0x4AD SWAP2 SWAP1 PUSH2 0x19B7 JUMP JUMPDEST PUSH1 0x40 MLOAD DUP1 SWAP2 SUB SWAP1 RETURN JUMPDEST CALLVALUE DUP1 ISZERO PUSH2 0x4C1 JUMPI PUSH0 PUSH0 REVERT JUMPDEST POP PUSH2 0x4DC PUSH1 0x4 DUP1 CALLDATASIZE SUB DUP2 ADD SWAP1 PUSH2 0x4D7 SWAP2 SWAP1 PUSH2 0x1B30 JUMP JUMPDEST PUSH2 0xEFC JUMP JUMPDEST STOP JUMPDEST CALLVALUE DUP1 ISZERO PUSH2 0x4E9 JUMPI PUSH0 PUSH0 REVERT JUMPDEST POP PUSH2 0x504 PUSH1 0x4 DUP1 CALLDATASIZE SUB DUP2 ADD SWAP1 PUSH2 0x4FF SWAP2 SWAP1 PUSH2 0x1A58 JUMP JUMPDEST PUSH2 0xF80 JUMP JUMPDEST STOP JUMPDEST CALLVALUE DUP1 ISZERO PUSH2 0x511 JUMPI PUSH0 PUSH0 REVERT JUMPDEST POP PUSH2 0x52C PUSH1 0x4 DUP1 CALLDATASIZE SUB DUP2 ADD SWAP1 PUSH2 0x527 SWAP2 SWAP1 PUSH2 0x1B30 JUMP JUMPDEST PUSH2 0x1343 JUMP JUMPDEST PUSH1 0x40 MLOAD PUSH2 0x53A SWAP3 SWAP2 SWAP1 PUSH2 0x1BBF JUMP JUMPDEST PUSH1 0x40 MLOAD DUP1 SWAP2 SUB SWAP1 RETURN JUMPDEST CALLVALUE DUP1 ISZERO PUSH2 0x54E JUMPI PUSH0 PUSH0 REVERT JUMPDEST POP PUSH2 0x569 PUSH1 0x4 DUP1 CALLDATASIZE SUB DUP2 ADD SWAP1 PUSH2 0x564 SWAP2 SWAP1 PUSH2 0x1C10 JUMP JUMPDEST PUSH2 0x138E JUMP JUMPDEST STOP JUMPDEST PUSH2 0x574 DUP3 PUSH2 0x15B2 JUMP JUMPDEST PUSH0 PUSH2 0x57F DUP4 DUP4 PUSH2 0x7BB JUMP JUMPDEST SWAP1 POP PUSH0 DUP2 PUSH1 0x1 SLOAD PUSH2 0x590 SWAP2 SWAP1 PUSH2 0x1C8D JUMP JUMPDEST SWAP1 POP PUSH32 0x0 DUP2 GT ISZERO PUSH2 0x61D JUMPI PUSH1 0x1 SLOAD DUP3 PUSH32 0x0 PUSH1 0x40 MLOAD PUSH32 0xC4A0472300000000000000000000000000000000000000000000000000000000 DUP2 MSTORE PUSH1 0x4 ADD PUSH2 0x614 SWAP4 SWAP3 SWAP2 SWAP1 PUSH2 0x1CC0 JUMP JUMPDEST PUSH1 0x40 MLOAD DUP1 SWAP2 SUB SWAP1 REVERT JUMPDEST DUP3 PUSH1 0x4 PUSH0 DUP7 PUSH20 0xFFFFFFFFFFFFFFFFFFFFFFFFFFFFFFFFFFFFFFFF AND PUSH20 0xFFFFFFFFFFFFFFFFFFFFFFFFFFFFFFFFFFFFFFFF AND DUP2 MSTORE PUSH1 0x20 ADD SWAP1 DUP2 MSTORE PUSH1 0x20 ADD PUSH0 KECCAK256 PUSH0 CALLER PUSH20 0xFFFFFFFFFFFFFFFFFFFFFFFFFFFFFFFFFFFFFFFF AND PUSH20 0xFFFFFFFFFFFFFFFFFFFFFFFFFFFFFFFFFFFFFFFF AND DUP2 MSTORE PUSH1 0x20 ADD SWAP1 DUP2 MSTORE PUSH1 0x20 ADD PUSH0 KECCAK256 PUSH0 DUP3 DUP3 SLOAD PUSH2 0x6A4 SWAP2 SWAP1 PUSH2 0x1C8D JUMP JUMPDEST SWAP3 POP POP DUP2 SWAP1 SSTORE POP DUP1 PUSH1 0x1 DUP2 SWAP1 SSTORE POP PUSH1 0x2 PUSH0 DUP2 SLOAD DUP1 SWAP3 SWAP2 SWAP1 PUSH2 0x6C4 SWAP1 PUSH2 0x1CF5 JUMP JUMPDEST SWAP2 SWAP1 POP SSTORE POP PUSH0 PUSH20 0xFFFFFFFFFFFFFFFFFFFFFFFFFFFFFFFFFFFFFFFF AND DUP5 PUSH20 0xFFFFFFFFFFFFFFFFFFFFFFFFFFFFFFFFFFFFFFFF AND EQ PUSH2 0x72A JUMPI PUSH2 0x729 CALLER ADDRESS DUP6 DUP8 PUSH20 0xFFFFFFFFFFFFFFFFFFFFFFFFFFFFFFFFFFFFFFFF AND PUSH2 0x1683 SWAP1 SWAP4 SWAP3 SWAP2 SWAP1 PUSH4 0xFFFFFFFF AND JUMP JUMPDEST JUMPDEST DUP4 PUSH20 0xFFFFFFFFFFFFFFFFFFFFFFFFFFFFFFFFFFFFFFFF AND CALLER PUSH20 0xFFFFFFFFFFFFFFFFFFFFFFFFFFFFFFFFFFFFFFFF AND PUSH32 0xF5681F9D0DB1B911AC18EE83D515A1CF1051853A9EAE418316A2FDF7DEA427C5 DUP6 DUP6 PUSH1 0x40 MLOAD PUSH2 0x789 SWAP3 SWAP2 SWAP1 PUSH2 0x1D3C JUMP JUMPDEST PUSH1 0x40 MLOAD DUP1 SWAP2 SUB SWAP1 LOG3 POP POP POP POP JUMP JUMPDEST PUSH32 0x0 DUP2 JUMP JUMPDEST PUSH0 PUSH0 DUP3 SUB PUSH2 0x7CB JUMPI PUSH0 SWAP1 POP PUSH2 0x9A4 JUMP JUMPDEST PUSH0 PUSH1 0x5 PUSH0 DUP6 PUSH20 0xFFFFFFFFFFFFFFFFFFFFFFFFFFFFFFFFFFFFFFFF AND PUSH20 0xFFFFFFFFFFFFFFFFFFFFFFFFFFFFFFFFFFFFFFFF AND DUP2 MSTORE PUSH1 0x20 ADD SWAP1 DUP2 MSTORE PUSH1 0x20 ADD PUSH0 KECCAK256 PUSH1 0x40 MLOAD DUP1 PUSH1 0x40 ADD PUSH1 0x40 MSTORE SWAP1 DUP2 PUSH0 DUP3 ADD PUSH0 SWAP1 SLOAD SWAP1 PUSH2 0x100 EXP SWAP1 DIV PUSH20 0xFFFFFFFFFFFFFFFFFFFFFFFFFFFFFFFFFFFFFFFF AND PUSH20 0xFFFFFFFFFFFFFFFFFFFFFFFFFFFFFFFFFFFFFFFF AND PUSH20 0xFFFFFFFFFFFFFFFFFFFFFFFFFFFFFFFFFFFFFFFF AND DUP2 MSTORE PUSH1 0x20 ADD PUSH0 DUP3 ADD PUSH1 0x14 SWAP1 SLOAD SWAP1 PUSH2 0x100 EXP SWAP1 DIV PUSH1 0xFF AND PUSH1 0xFF AND PUSH1 0xFF AND DUP2 MSTORE POP POP SWAP1 POP PUSH0 PUSH20 0xFFFFFFFFFFFFFFFFFFFFFFFFFFFFFFFFFFFFFFFF AND DUP2 PUSH0 ADD MLOAD PUSH20 0xFFFFFFFFFFFFFFFFFFFFFFFFFFFFFFFFFFFFFFFF AND SUB PUSH2 0x8F9 JUMPI DUP4 PUSH1 0x40 MLOAD PUSH32 0xFB21D4AA00000000000000000000000000000000000000000000000000000000 DUP2 MSTORE PUSH1 0x4 ADD PUSH2 0x8F0 SWAP2 SWAP1 PUSH2 0x1B17 JUMP JUMPDEST PUSH1 0x40 MLOAD DUP1 SWAP2 SUB SWAP1 REVERT JUMPDEST PUSH0 DUP2 PUSH0 ADD MLOAD SWAP1 POP PUSH0 DUP2 PUSH20 0xFFFFFFFFFFFFFFFFFFFFFFFFFFFFFFFFFFFFFFFF AND PUSH4 0xFEAF968C PUSH1 0x40 MLOAD DUP2 PUSH4 0xFFFFFFFF AND PUSH1 0xE0 SHL DUP2 MSTORE PUSH1 0x4 ADD PUSH1 0xA0 PUSH1 0x40 MLOAD DUP1 DUP4 SUB DUP2 DUP7 GAS STATICCALL ISZERO DUP1 ISZERO PUSH2 0x94A JUMPI RETURNDATASIZE PUSH0 PUSH0 RETURNDATACOPY RETURNDATASIZE PUSH0 REVERT JUMPDEST POP POP POP POP PUSH1 0x40 MLOAD RETURNDATASIZE PUSH1 0x1F NOT PUSH1 0x1F DUP3 ADD AND DUP3 ADD DUP1 PUSH1 0x40 MSTORE POP DUP2 ADD SWAP1 PUSH2 0x96E SWAP2 SWAP1 PUSH2 0x1DE9 JUMP JUMPDEST POP POP POP SWAP2 POP POP DUP3 PUSH1 0x20 ADD MLOAD PUSH1 0xFF AND PUSH1 0xA PUSH2 0x988 SWAP2 SWAP1 PUSH2 0x1F8F JUMP JUMPDEST DUP2 DUP7 PUSH2 0x994 SWAP2 SWAP1 PUSH2 0x1FD9 JUMP JUMPDEST PUSH2 0x99E SWAP2 SWAP1 PUSH2 0x2047 JUMP JUMPDEST SWAP4 POP POP POP POP JUMPDEST SWAP3 SWAP2 POP POP JUMP JUMPDEST PUSH1 0x8 DUP2 JUMP JUMPDEST DUP1 PUSH0 DUP2 SUB PUSH2 0x9E9 JUMPI PUSH1 0x40 MLOAD PUSH32 0x3F36295200000000000000000000000000000000000000000000000000000000 DUP2 MSTORE PUSH1 0x4 ADD PUSH1 0x40 MLOAD DUP1 SWAP2 SUB SWAP1 REVERT JUMPDEST PUSH0 PUSH20 0xFFFFFFFFFFFFFFFFFFFFFFFFFFFFFFFFFFFFFFFF AND DUP4 PUSH20 0xFFFFFFFFFFFFFFFFFFFFFFFFFFFFFFFFFFFFFFFF AND SUB PUSH2 0xA4E JUMPI PUSH1 0x40 MLOAD PUSH32 0x633BFFF400000000000000000000000000000000000000000000000000000000 DUP2 MSTORE PUSH1 0x4 ADD PUSH1 0x40 MLOAD DUP1 SWAP2 SUB SWAP1 REVERT JUMPDEST PUSH2 0xA58 DUP4 DUP4 PUSH2 0x56B JUMP JUMPDEST POP POP POP JUMP JUMPDEST PUSH0 CALLVALUE SUB PUSH2 0xA96 JUMPI PUSH1 0x40 MLOAD PUSH32 0x3F36295200000000000000000000000000000000000000000000000000000000 DUP2 MSTORE PUSH1 0x4 ADD PUSH1 0x40 MLOAD DUP1 SWAP2 SUB SWAP1 REVERT JUMPDEST PUSH2 0xAA0 PUSH0 CALLVALUE PUSH2 0x56B JUMP JUMPDEST JUMP JUMPDEST PUSH1 0x8 PUSH1 0xA PUSH2 0xAB0 SWAP2 SWAP1 PUSH2 0x2077 JUMP JUMPDEST DUP2 JUMP JUMPDEST PUSH32 0x0 DUP2 JUMP JUMPDEST PUSH2 0xADF PUSH2 0x1705 JUMP JUMPDEST PUSH2 0xAE8 PUSH0 PUSH2 0x178C JUMP JUMPDEST JUMP JUMPDEST PUSH2 0xAF2 PUSH2 0x1705 JUMP JUMPDEST PUSH2 0xAFB DUP3 PUSH2 0x15B2 JUMP JUMPDEST PUSH0 PUSH20 0xFFFFFFFFFFFFFFFFFFFFFFFFFFFFFFFFFFFFFFFF AND DUP2 PUSH20 0xFFFFFFFFFFFFFFFFFFFFFFFFFFFFFFFFFFFFFFFF AND SUB PUSH2 0xB6B JUMPI DUP1 PUSH1 0x40 MLOAD PUSH32 0x18378D8C00000000000000000000000000000000000000000000000000000000 DUP2 MSTORE PUSH1 0x4 ADD PUSH2 0xB62 SWAP2 SWAP1 PUSH2 0x1B17 JUMP JUMPDEST PUSH1 0x40 MLOAD DUP1 SWAP2 SUB SWAP1 REVERT JUMPDEST DUP1 PUSH1 0x5 PUSH0 DUP5 PUSH20 0xFFFFFFFFFFFFFFFFFFFFFFFFFFFFFFFFFFFFFFFF AND PUSH20 0xFFFFFFFFFFFFFFFFFFFFFFFFFFFFFFFFFFFFFFFF AND DUP2 MSTORE PUSH1 0x20 ADD SWAP1 DUP2 MSTORE PUSH1 0x20 ADD PUSH0 KECCAK256 PUSH0 ADD PUSH0 PUSH2 0x100 EXP DUP2 SLOAD DUP2 PUSH20 0xFFFFFFFFFFFFFFFFFFFFFFFFFFFFFFFFFFFFFFFF MUL NOT AND SWAP1 DUP4 PUSH20 0xFFFFFFFFFFFFFFFFFFFFFFFFFFFFFFFFFFFFFFFF AND MUL OR SWAP1 SSTORE POP DUP1 PUSH20 0xFFFFFFFFFFFFFFFFFFFFFFFFFFFFFFFFFFFFFFFF AND DUP3 PUSH20 0xFFFFFFFFFFFFFFFFFFFFFFFFFFFFFFFFFFFFFFFF AND PUSH32 0xBDC29F691F539931AAC0EB61B6040016944303CD36B1493F9BC5D3F74E10C8E2 PUSH1 0x40 MLOAD PUSH1 0x40 MLOAD DUP1 SWAP2 SUB SWAP1 LOG3 POP POP JUMP JUMPDEST PUSH0 PUSH0 PUSH0 SWAP1 SLOAD SWAP1 PUSH2 0x100 EXP SWAP1 DIV PUSH20 0xFFFFFFFFFFFFFFFFFFFFFFFFFFFFFFFFFFFFFFFF AND SWAP1 POP SWAP1 JUMP JUMPDEST PUSH2 0xC75 PUSH2 0x1705 JUMP JUMPDEST PUSH0 PUSH20 0xFFFFFFFFFFFFFFFFFFFFFFFFFFFFFFFFFFFFFFFF AND DUP3 PUSH20 0xFFFFFFFFFFFFFFFFFFFFFFFFFFFFFFFFFFFFFFFF AND SUB PUSH2 0xD4D JUMPI PUSH0 CALLER PUSH20 0xFFFFFFFFFFFFFFFFFFFFFFFFFFFFFFFFFFFFFFFF AND DUP3 PUSH1 0x40 MLOAD PUSH2 0xCCD SWAP1 PUSH2 0x20EE JUMP JUMPDEST PUSH0 PUSH1 0x40 MLOAD DUP1 DUP4 SUB DUP2 DUP6 DUP8 GAS CALL SWAP3 POP POP POP RETURNDATASIZE DUP1 PUSH0 DUP2 EQ PUSH2 0xD07 JUMPI PUSH1 0x40 MLOAD SWAP2 POP PUSH1 0x1F NOT PUSH1 0x3F RETURNDATASIZE ADD AND DUP3 ADD PUSH1 0x40 MSTORE RETURNDATASIZE DUP3 MSTORE RETURNDATASIZE PUSH0 PUSH1 0x20 DUP5 ADD RETURNDATACOPY PUSH2 0xD0C JUMP JUMPDEST PUSH1 0x60 SWAP2 POP JUMPDEST POP POP SWAP1 POP DUP1 PUSH2 0xD47 JUMPI PUSH1 0x40 MLOAD PUSH32 0x2AE871A500000000000000000000000000000000000000000000000000000000 DUP2 MSTORE PUSH1 0x4 ADD PUSH1 0x40 MLOAD DUP1 SWAP2 SUB SWAP1 REVERT JUMPDEST POP PUSH2 0xD79 JUMP JUMPDEST PUSH2 0xD78 CALLER DUP3 DUP5 PUSH20 0xFFFFFFFFFFFFFFFFFFFFFFFFFFFFFFFFFFFFFFFF AND PUSH2 0x184D SWAP1 SWAP3 SWAP2 SWAP1 PUSH4 0xFFFFFFFF AND JUMP JUMPDEST JUMPDEST POP POP JUMP JUMPDEST PUSH0 DUP2 JUMP JUMPDEST PUSH1 0x3 SLOAD DUP2 JUMP JUMPDEST PUSH1 0x2 SLOAD DUP2 JUMP JUMPDEST PUSH2 0xD95 PUSH2 0x196E JUMP JUMPDEST PUSH1 0x5 PUSH0 DUP4 PUSH20 0xFFFFFFFFFFFFFFFFFFFFFFFFFFFFFFFFFFFFFFFF AND PUSH20 0xFFFFFFFFFFFFFFFFFFFFFFFFFFFFFFFFFFFFFFFF AND DUP2 MSTORE PUSH1 0x20 ADD SWAP1 DUP2 MSTORE PUSH1 0x20 ADD PUSH0 KECCAK256 PUSH1 0x40 MLOAD DUP1 PUSH1 0x40 ADD PUSH1 0x40 MSTORE SWAP1 DUP2 PUSH0 DUP3 ADD PUSH0 SWAP1 SLOAD SWAP1 PUSH2 0x100 EXP SWAP1 DIV PUSH20 0xFFFFFFFFFFFFFFFFFFFFFFFFFFFFFFFFFFFFFFFF AND PUSH20 0xFFFFFFFFFFFFFFFFFFFFFFFFFFFFFFFFFFFFFFFF AND PUSH20 0xFFFFFFFFFFFFFFFFFFFFFFFFFFFFFFFFFFFFFFFF AND DUP2 MSTORE PUSH1 0x20 ADD PUSH0 DUP3 ADD PUSH1 0x14 SWAP1 SLOAD SWAP1 PUSH2 0x100 EXP SWAP1 DIV PUSH1 0xFF AND PUSH1 0xFF AND PUSH1 0xFF AND DUP2 MSTORE POP POP SWAP1 POP SWAP2 SWAP1 POP JUMP JUMPDEST PUSH0 PUSH1 0x4 PUSH0 DUP5 PUSH20 0xFFFFFFFFFFFFFFFFFFFFFFFFFFFFFFFFFFFFFFFF AND PUSH20 0xFFFFFFFFFFFFFFFFFFFFFFFFFFFFFFFFFFFFFFFF AND DUP2 MSTORE PUSH1 0x20 ADD SWAP1 DUP2 MSTORE PUSH1 0x20 ADD PUSH0 KECCAK256 PUSH0 DUP4 PUSH20 0xFFFFFFFFFFFFFFFFFFFFFFFFFFFFFFFFFFFFFFFF AND PUSH20 0xFFFFFFFFFFFFFFFFFFFFFFFFFFFFFFFFFFFFFFFF AND DUP2 MSTORE PUSH1 0x20 ADD SWAP1 DUP2 MSTORE PUSH1 0x20 ADD PUSH0 KECCAK256 SLOAD SWAP1 POP SWAP3 SWAP2 POP POP JUMP JUMPDEST PUSH1 0x4 PUSH1 0x20 MSTORE DUP2 PUSH0 MSTORE PUSH1 0x40 PUSH0 KECCAK256 PUSH1 0x20 MSTORE DUP1 PUSH0 MSTORE PUSH1 0x40 PUSH0 KECCAK256 PUSH0 SWAP2 POP SWAP2 POP POP SLOAD DUP2 JUMP JUMPDEST PUSH1 0x1 SLOAD DUP2 JUMP JUMPDEST PUSH2 0xF04 PUSH2 0x1705 JUMP JUMPDEST PUSH0 PUSH20 0xFFFFFFFFFFFFFFFFFFFFFFFFFFFFFFFFFFFFFFFF AND DUP2 PUSH20 0xFFFFFFFFFFFFFFFFFFFFFFFFFFFFFFFFFFFFFFFF AND SUB PUSH2 0xF74 JUMPI PUSH0 PUSH1 0x40 MLOAD PUSH32 0x1E4FBDF700000000000000000000000000000000000000000000000000000000 DUP2 MSTORE PUSH1 0x4 ADD PUSH2 0xF6B SWAP2 SWAP1 PUSH2 0x1B17 JUMP JUMPDEST PUSH1 0x40 MLOAD DUP1 SWAP2 SUB SWAP1 REVERT JUMPDEST PUSH2 0xF7D DUP2 PUSH2 0x178C JUMP JUMPDEST POP JUMP JUMPDEST DUP1 PUSH0 DUP2 SUB PUSH2 0xFBA JUMPI PUSH1 0x40 MLOAD PUSH32 0x3F36295200000000000000000000000000000000000000000000000000000000 DUP2 MSTORE PUSH1 0x4 ADD PUSH1 0x40 MLOAD DUP1 SWAP2 SUB SWAP1 REVERT JUMPDEST PUSH2 0xFC3 DUP4 PUSH2 0x15B2 JUMP JUMPDEST PUSH0 PUSH1 0x4 PUSH0 DUP6 PUSH20 0xFFFFFFFFFFFFFFFFFFFFFFFFFFFFFFFFFFFFFFFF AND PUSH20 0xFFFFFFFFFFFFFFFFFFFFFFFFFFFFFFFFFFFFFFFF AND DUP2 MSTORE PUSH1 0x20 ADD SWAP1 DUP2 MSTORE PUSH1 0x20 ADD PUSH0 KECCAK256 PUSH0 CALLER PUSH20 0xFFFFFFFFFFFFFFFFFFFFFFFFFFFFFFFFFFFFFFFF AND PUSH20 0xFFFFFFFFFFFFFFFFFFFFFFFFFFFFFFFFFFFFFFFF AND DUP2 MSTORE PUSH1 0x20 ADD SWAP1 DUP2 MSTORE PUSH1 0x20 ADD PUSH0 KECCAK256 SLOAD SWAP1 POP DUP1 DUP4 GT ISZERO PUSH2 0x1086 JUMPI DUP3 DUP2 PUSH1 0x40 MLOAD PUSH32 0x61965C4E00000000000000000000000000000000000000000000000000000000 DUP2 MSTORE PUSH1 0x4 ADD PUSH2 0x107D SWAP3 SWAP2 SWAP1 PUSH2 0x1D3C JUMP JUMPDEST PUSH1 0x40 MLOAD DUP1 SWAP2 SUB SWAP1 REVERT JUMPDEST PUSH0 PUSH2 0x1091 DUP6 DUP6 PUSH2 0x7BB JUMP JUMPDEST SWAP1 POP PUSH32 0x0 DUP2 GT ISZERO PUSH2 0x111A JUMPI DUP1 PUSH32 0x0 PUSH1 0x40 MLOAD PUSH32 0x8672A83200000000000000000000000000000000000000000000000000000000 DUP2 MSTORE PUSH1 0x4 ADD PUSH2 0x1111 SWAP3 SWAP2 SWAP1 PUSH2 0x1D3C JUMP JUMPDEST PUSH1 0x40 MLOAD DUP1 SWAP2 SUB SWAP1 REVERT JUMPDEST DUP4 DUP3 PUSH2 0x1126 SWAP2 SWAP1 PUSH2 0x2102 JUMP JUMPDEST PUSH1 0x4 PUSH0 DUP8 PUSH20 0xFFFFFFFFFFFFFFFFFFFFFFFFFFFFFFFFFFFFFFFF AND PUSH20 0xFFFFFFFFFFFFFFFFFFFFFFFFFFFFFFFFFFFFFFFF AND DUP2 MSTORE PUSH1 0x20 ADD SWAP1 DUP2 MSTORE PUSH1 0x20 ADD PUSH0 KECCAK256 PUSH0 CALLER PUSH20 0xFFFFFFFFFFFFFFFFFFFFFFFFFFFFFFFFFFFFFFFF AND PUSH20 0xFFFFFFFFFFFFFFFFFFFFFFFFFFFFFFFFFFFFFFFF AND DUP2 MSTORE PUSH1 0x20 ADD SWAP1 DUP2 MSTORE PUSH1 0x20 ADD PUSH0 KECCAK256 DUP2 SWAP1 SSTORE POP DUP1 PUSH1 0x1 PUSH0 DUP3 DUP3 SLOAD PUSH2 0x11B3 SWAP2 SWAP1 PUSH2 0x2102 JUMP JUMPDEST SWAP3 POP POP DUP2 SWAP1 SSTORE POP PUSH1 0x3 PUSH0 DUP2 SLOAD DUP1 SWAP3 SWAP2 SWAP1 PUSH2 0x11CC SWAP1 PUSH2 0x1CF5 JUMP JUMPDEST SWAP2 SWAP1 POP SSTORE POP PUSH0 PUSH20 0xFFFFFFFFFFFFFFFFFFFFFFFFFFFFFFFFFFFFFFFF AND DUP6 PUSH20 0xFFFFFFFFFFFFFFFFFFFFFFFFFFFFFFFFFFFFFFFF AND SUB PUSH2 0x12A9 JUMPI PUSH0 CALLER PUSH20 0xFFFFFFFFFFFFFFFFFFFFFFFFFFFFFFFFFFFFFFFF AND DUP6 PUSH1 0x40 MLOAD PUSH2 0x1229 SWAP1 PUSH2 0x20EE JUMP JUMPDEST PUSH0 PUSH1 0x40 MLOAD DUP1 DUP4 SUB DUP2 DUP6 DUP8 GAS CALL SWAP3 POP POP POP RETURNDATASIZE DUP1 PUSH0 DUP2 EQ PUSH2 0x1263 JUMPI PUSH1 0x40 MLOAD SWAP2 POP PUSH1 0x1F NOT PUSH1 0x3F RETURNDATASIZE ADD AND DUP3 ADD PUSH1 0x40 MSTORE RETURNDATASIZE DUP3 MSTORE RETURNDATASIZE PUSH0 PUSH1 0x20 DUP5 ADD RETURNDATACOPY PUSH2 0x1268 JUMP JUMPDEST PUSH1 0x60 SWAP2 POP JUMPDEST POP POP SWAP1 POP DUP1 PUSH2 0x12A3 JUMPI PUSH1 0x40 MLOAD PUSH32 0x2AE871A500000000000000000000000000000000000000000000000000000000 DUP2 MSTORE PUSH1 0x4 ADD PUSH1 0x40 MLOAD DUP1 SWAP2 SUB SWAP1 REVERT JUMPDEST POP PUSH2 0x12D5 JUMP JUMPDEST PUSH2 0x12D4 CALLER DUP6 DUP8 PUSH20 0xFFFFFFFFFFFFFFFFFFFFFFFFFFFFFFFFFFFFFFFF AND PUSH2 0x184D SWAP1 SWAP3 SWAP2 SWAP1 PUSH4 0xFFFFFFFF AND JUMP JUMPDEST JUMPDEST DUP5 PUSH20 0xFFFFFFFFFFFFFFFFFFFFFFFFFFFFFFFFFFFFFFFF AND CALLER PUSH20 0xFFFFFFFFFFFFFFFFFFFFFFFFFFFFFFFFFFFFFFFF AND PUSH32 0x91FB9D98B786C57D74C099CCD2BECA1739E9F6A81FB49001CA465C4B7591BBE2 DUP7 DUP5 PUSH1 0x40 MLOAD PUSH2 0x1334 SWAP3 SWAP2 SWAP1 PUSH2 0x1D3C JUMP JUMPDEST PUSH1 0x40 MLOAD DUP1 SWAP2 SUB SWAP1 LOG3 POP POP POP POP POP JUMP JUMPDEST PUSH1 0x5 PUSH1 0x20 MSTORE DUP1 PUSH0 MSTORE PUSH1 0x40 PUSH0 KECCAK256 PUSH0 SWAP2 POP SWAP1 POP DUP1 PUSH0 ADD PUSH0 SWAP1 SLOAD SWAP1 PUSH2 0x100 EXP SWAP1 DIV PUSH20 0xFFFFFFFFFFFFFFFFFFFFFFFFFFFFFFFFFFFFFFFF AND SWAP1 DUP1 PUSH0 ADD PUSH1 0x14 SWAP1 SLOAD SWAP1 PUSH2 0x100 EXP SWAP1 DIV PUSH1 0xFF AND SWAP1 POP DUP3 JUMP JUMPDEST PUSH2 0x1396 PUSH2 0x1705 JUMP JUMPDEST PUSH0 PUSH20 0xFFFFFFFFFFFFFFFFFFFFFFFFFFFFFFFFFFFFFFFF AND DUP4 PUSH20 0xFFFFFFFFFFFFFFFFFFFFFFFFFFFFFFFFFFFFFFFF AND SUB PUSH2 0x1406 JUMPI DUP3 PUSH1 0x40 MLOAD PUSH32 0xFB21D4AA00000000000000000000000000000000000000000000000000000000 DUP2 MSTORE PUSH1 0x4 ADD PUSH2 0x13FD SWAP2 SWAP1 PUSH2 0x1B17 JUMP JUMPDEST PUSH1 0x40 MLOAD DUP1 SWAP2 SUB SWAP1 REVERT JUMPDEST PUSH0 PUSH20 0xFFFFFFFFFFFFFFFFFFFFFFFFFFFFFFFFFFFFFFFF AND DUP3 PUSH20 0xFFFFFFFFFFFFFFFFFFFFFFFFFFFFFFFFFFFFFFFF AND SUB PUSH2 0x1476 JUMPI DUP2 PUSH1 0x40 MLOAD PUSH32 0x18378D8C00000000000000000000000000000000000000000000000000000000 DUP2 MSTORE PUSH1 0x4 ADD PUSH2 0x146D SWAP2 SWAP1 PUSH2 0x1B17 JUMP JUMPDEST PUSH1 0x40 MLOAD DUP1 SWAP2 SUB SWAP1 REVERT JUMPDEST PUSH1 0x40 MLOAD DUP1 PUSH1 0x40 ADD PUSH1 0x40 MSTORE DUP1 DUP4 PUSH20 0xFFFFFFFFFFFFFFFFFFFFFFFFFFFFFFFFFFFFFFFF AND DUP2 MSTORE PUSH1 0x20 ADD DUP3 PUSH1 0xFF AND DUP2 MSTORE POP PUSH1 0x5 PUSH0 DUP6 PUSH20 0xFFFFFFFFFFFFFFFFFFFFFFFFFFFFFFFFFFFFFFFF AND PUSH20 0xFFFFFFFFFFFFFFFFFFFFFFFFFFFFFFFFFFFFFFFF AND DUP2 MSTORE PUSH1 0x20 ADD SWAP1 DUP2 MSTORE PUSH1 0x20 ADD PUSH0 KECCAK256 PUSH0 DUP3 ADD MLOAD DUP2 PUSH0 ADD PUSH0 PUSH2 0x100 EXP DUP2 SLOAD DUP2 PUSH20 0xFFFFFFFFFFFFFFFFFFFFFFFFFFFFFFFFFFFFFFFF MUL NOT AND SWAP1 DUP4 PUSH20 0xFFFFFFFFFFFFFFFFFFFFFFFFFFFFFFFFFFFFFFFF AND MUL OR SWAP1 SSTORE POP PUSH1 0x20 DUP3 ADD MLOAD DUP2 PUSH0 ADD PUSH1 0x14 PUSH2 0x100 EXP DUP2 SLOAD DUP2 PUSH1 0xFF MUL NOT AND SWAP1 DUP4 PUSH1 0xFF AND MUL OR SWAP1 SSTORE POP SWAP1 POP POP DUP2 PUSH20 0xFFFFFFFFFFFFFFFFFFFFFFFFFFFFFFFFFFFFFFFF AND DUP4 PUSH20 0xFFFFFFFFFFFFFFFFFFFFFFFFFFFFFFFFFFFFFFFF AND PUSH32 0x6D28000829E988111DFD4F9075C2DC3F734E48013BC94E9FFBC8E523687314D7 DUP4 PUSH1 0x40 MLOAD PUSH2 0x15A5 SWAP2 SWAP1 PUSH2 0x1AB1 JUMP JUMPDEST PUSH1 0x40 MLOAD DUP1 SWAP2 SUB SWAP1 LOG3 POP POP POP JUMP JUMPDEST PUSH0 PUSH20 0xFFFFFFFFFFFFFFFFFFFFFFFFFFFFFFFFFFFFFFFF AND PUSH1 0x5 PUSH0 DUP4 PUSH20 0xFFFFFFFFFFFFFFFFFFFFFFFFFFFFFFFFFFFFFFFF AND PUSH20 0xFFFFFFFFFFFFFFFFFFFFFFFFFFFFFFFFFFFFFFFF AND DUP2 MSTORE PUSH1 0x20 ADD SWAP1 DUP2 MSTORE PUSH1 0x20 ADD PUSH0 KECCAK256 PUSH0 ADD PUSH0 SWAP1 SLOAD SWAP1 PUSH2 0x100 EXP SWAP1 DIV PUSH20 0xFFFFFFFFFFFFFFFFFFFFFFFFFFFFFFFFFFFFFFFF AND PUSH20 0xFFFFFFFFFFFFFFFFFFFFFFFFFFFFFFFFFFFFFFFF AND SUB PUSH2 0x1680 JUMPI DUP1 PUSH1 0x40 MLOAD PUSH32 0xFB21D4AA00000000000000000000000000000000000000000000000000000000 DUP2 MSTORE PUSH1 0x4 ADD PUSH2 0x1677 SWAP2 SWAP1 PUSH2 0x1B17 JUMP JUMPDEST PUSH1 0x40 MLOAD DUP1 SWAP2 SUB SWAP1 REVERT JUMPDEST POP JUMP JUMPDEST PUSH2 0x16FF DUP5 DUP6 PUSH20 0xFFFFFFFFFFFFFFFFFFFFFFFFFFFFFFFFFFFFFFFF AND PUSH4 0x23B872DD DUP7 DUP7 DUP7 PUSH1 0x40 MLOAD PUSH1 0x24 ADD PUSH2 0x16B8 SWAP4 SWAP3 SWAP2 SWAP1 PUSH2 0x2135 JUMP JUMPDEST PUSH1 0x40 MLOAD PUSH1 0x20 DUP2 DUP4 SUB SUB DUP2 MSTORE SWAP1 PUSH1 0x40 MSTORE SWAP2 POP PUSH1 0xE0 SHL PUSH1 0x20 DUP3 ADD DUP1 MLOAD PUSH28 0xFFFFFFFFFFFFFFFFFFFFFFFFFFFFFFFFFFFFFFFFFFFFFFFFFFFFFFFF DUP4 DUP2 DUP4 AND OR DUP4 MSTORE POP POP POP POP PUSH2 0x18CC JUMP JUMPDEST POP POP POP POP JUMP JUMPDEST PUSH2 0x170D PUSH2 0x1967 JUMP JUMPDEST PUSH20 0xFFFFFFFFFFFFFFFFFFFFFFFFFFFFFFFFFFFFFFFF AND PUSH2 0x172B PUSH2 0xC46 JUMP JUMPDEST PUSH20 0xFFFFFFFFFFFFFFFFFFFFFFFFFFFFFFFFFFFFFFFF AND EQ PUSH2 0x178A JUMPI PUSH2 0x174E PUSH2 0x1967 JUMP JUMPDEST PUSH1 0x40 MLOAD PUSH32 0x118CDAA700000000000000000000000000000000000000000000000000000000 DUP2 MSTORE PUSH1 0x4 ADD PUSH2 0x1781 SWAP2 SWAP1 PUSH2 0x1B17 JUMP JUMPDEST PUSH1 0x40 MLOAD DUP1 SWAP2 SUB SWAP1 REVERT JUMPDEST JUMP JUMPDEST PUSH0 PUSH0 PUSH0 SWAP1 SLOAD SWAP1 PUSH2 0x100 EXP SWAP1 DIV PUSH20 0xFFFFFFFFFFFFFFFFFFFFFFFFFFFFFFFFFFFFFFFF AND SWAP1 POP DUP2 PUSH0 PUSH0 PUSH2 0x100 EXP DUP2 SLOAD DUP2 PUSH20 0xFFFFFFFFFFFFFFFFFFFFFFFFFFFFFFFFFFFFFFFF MUL NOT AND SWAP1 DUP4 PUSH20 0xFFFFFFFFFFFFFFFFFFFFFFFFFFFFFFFFFFFFFFFF AND MUL OR SWAP1 SSTORE POP DUP2 PUSH20 0xFFFFFFFFFFFFFFFFFFFFFFFFFFFFFFFFFFFFFFFF AND DUP2 PUSH20 0xFFFFFFFFFFFFFFFFFFFFFFFFFFFFFFFFFFFFFFFF AND PUSH32 0x8BE0079C531659141344CD1FD0A4F28419497F9722A3DAAFE3B4186F6B6457E0 PUSH1 0x40 MLOAD PUSH1 0x40 MLOAD DUP1 SWAP2 SUB SWAP1 LOG3 POP POP JUMP JUMPDEST PUSH2 0x18C7 DUP4 DUP5 PUSH20 0xFFFFFFFFFFFFFFFFFFFFFFFFFFFFFFFFFFFFFFFF AND PUSH4 0xA9059CBB DUP6 DUP6 PUSH1 0x40 MLOAD PUSH1 0x24 ADD PUSH2 0x1880 SWAP3 SWAP2 SWAP1 PUSH2 0x216A JUMP JUMPDEST PUSH1 0x40 MLOAD PUSH1 0x20 DUP2 DUP4 SUB SUB DUP2 MSTORE SWAP1 PUSH1 0x40 MSTORE SWAP2 POP PUSH1 0xE0 SHL PUSH1 0x20 DUP3 ADD DUP1 MLOAD PUSH28 0xFFFFFFFFFFFFFFFFFFFFFFFFFFFFFFFFFFFFFFFFFFFFFFFFFFFFFFFF DUP4 DUP2 DUP4 AND OR DUP4 MSTORE POP POP POP POP PUSH2 0x18CC JUMP JUMPDEST POP POP POP JUMP JUMPDEST PUSH0 PUSH0 PUSH1 0x20 PUSH0 DUP5 MLOAD PUSH1 0x20 DUP7 ADD PUSH0 DUP9 GAS CALL DUP1 PUSH2 0x18EB JUMPI PUSH1 0x40 MLOAD RETURNDATASIZE PUSH0 DUP3 RETURNDATACOPY RETURNDATASIZE DUP2 REVERT JUMPDEST RETURNDATASIZE SWAP3 POP PUSH0 MLOAD SWAP2 POP POP PUSH0 DUP3 EQ PUSH2 0x1904 JUMPI PUSH1 0x1 DUP2 EQ ISZERO PUSH2 0x191F JUMP JUMPDEST PUSH0 DUP5 PUSH20 0xFFFFFFFFFFFFFFFFFFFFFFFFFFFFFFFFFFFFFFFF AND EXTCODESIZE EQ JUMPDEST ISZERO PUSH2 0x1961 JUMPI DUP4 PUSH1 0x40 MLOAD PUSH32 0x5274AFE700000000000000000000000000000000000000000000000000000000 DUP2 MSTORE PUSH1 0x4 ADD PUSH2 0x1958 SWAP2 SWAP1 PUSH2 0x1B17 JUMP JUMPDEST PUSH1 0x40 MLOAD DUP1 SWAP2 SUB SWAP1 REVERT JUMPDEST POP POP POP POP JUMP JUMPDEST PUSH0 CALLER SWAP1 POP SWAP1 JUMP JUMPDEST PUSH1 0x40 MLOAD DUP1 PUSH1 0x40 ADD PUSH1 0x40 MSTORE DUP1 PUSH0 PUSH20 0xFFFFFFFFFFFFFFFFFFFFFFFFFFFFFFFFFFFFFFFF AND DUP2 MSTORE PUSH1 0x20 ADD PUSH0 PUSH1 0xFF AND DUP2 MSTORE POP SWAP1 JUMP JUMPDEST PUSH0 DUP2 SWAP1 POP SWAP2 SWAP1 POP JUMP JUMPDEST PUSH2 0x19B1 DUP2 PUSH2 0x199F JUMP JUMPDEST DUP3 MSTORE POP POP JUMP JUMPDEST PUSH0 PUSH1 0x20 DUP3 ADD SWAP1 POP PUSH2 0x19CA PUSH0 DUP4 ADD DUP5 PUSH2 0x19A8 JUMP JUMPDEST SWAP3 SWAP2 POP POP JUMP JUMPDEST PUSH0 PUSH0 REVERT JUMPDEST PUSH0 PUSH20 0xFFFFFFFFFFFFFFFFFFFFFFFFFFFFFFFFFFFFFFFF DUP3 AND SWAP1 POP SWAP2 SWAP1 POP JUMP JUMPDEST PUSH0 PUSH2 0x19FD DUP3 PUSH2 0x19D4 JUMP JUMPDEST SWAP1 POP SWAP2 SWAP1 POP JUMP JUMPDEST PUSH2 0x1A0D DUP2 PUSH2 0x19F3 JUMP JUMPDEST DUP2 EQ PUSH2 0x1A17 JUMPI PUSH0 PUSH0 REVERT JUMPDEST POP JUMP JUMPDEST PUSH0 DUP2 CALLDATALOAD SWAP1 POP PUSH2 0x1A28 DUP2 PUSH2 0x1A04 JUMP JUMPDEST SWAP3 SWAP2 POP POP JUMP JUMPDEST PUSH2 0x1A37 DUP2 PUSH2 0x199F JUMP JUMPDEST DUP2 EQ PUSH2 0x1A41 JUMPI PUSH0 PUSH0 REVERT JUMPDEST POP JUMP JUMPDEST PUSH0 DUP2 CALLDATALOAD SWAP1 POP PUSH2 0x1A52 DUP2 PUSH2 0x1A2E JUMP JUMPDEST SWAP3 SWAP2 POP POP JUMP JUMPDEST PUSH0 PUSH0 PUSH1 0x40 DUP4 DUP6 SUB SLT ISZERO PUSH2 0x1A6E JUMPI PUSH2 0x1A6D PUSH2 0x19D0 JUMP JUMPDEST JUMPDEST PUSH0 PUSH2 0x1A7B DUP6 DUP3 DUP7 ADD PUSH2 0x1A1A JUMP JUMPDEST SWAP3 POP POP PUSH1 0x20 PUSH2 0x1A8C DUP6 DUP3 DUP7 ADD PUSH2 0x1A44 JUMP JUMPDEST SWAP2 POP POP SWAP3 POP SWAP3 SWAP1 POP JUMP JUMPDEST PUSH0 PUSH1 0xFF DUP3 AND SWAP1 POP SWAP2 SWAP1 POP JUMP JUMPDEST PUSH2 0x1AAB DUP2 PUSH2 0x1A96 JUMP JUMPDEST DUP3 MSTORE POP POP JUMP JUMPDEST PUSH0 PUSH1 0x20 DUP3 ADD SWAP1 POP PUSH2 0x1AC4 PUSH0 DUP4 ADD DUP5 PUSH2 0x1AA2 JUMP JUMPDEST SWAP3 SWAP2 POP POP JUMP JUMPDEST PUSH0 PUSH0 PUSH1 0x40 DUP4 DUP6 SUB SLT ISZERO PUSH2 0x1AE0 JUMPI PUSH2 0x1ADF PUSH2 0x19D0 JUMP JUMPDEST JUMPDEST PUSH0 PUSH2 0x1AED DUP6 DUP3 DUP7 ADD PUSH2 0x1A1A JUMP JUMPDEST SWAP3 POP POP PUSH1 0x20 PUSH2 0x1AFE DUP6 DUP3 DUP7 ADD PUSH2 0x1A1A JUMP JUMPDEST SWAP2 POP POP SWAP3 POP SWAP3 SWAP1 POP JUMP JUMPDEST PUSH2 0x1B11 DUP2 PUSH2 0x19F3 JUMP JUMPDEST DUP3 MSTORE POP POP JUMP JUMPDEST PUSH0 PUSH1 0x20 DUP3 ADD SWAP1 POP PUSH2 0x1B2A PUSH0 DUP4 ADD DUP5 PUSH2 0x1B08 JUMP JUMPDEST SWAP3 SWAP2 POP POP JUMP JUMPDEST PUSH0 PUSH1 0x20 DUP3 DUP5 SUB SLT ISZERO PUSH2 0x1B45 JUMPI PUSH2 0x1B44 PUSH2 0x19D0 JUMP JUMPDEST JUMPDEST PUSH0 PUSH2 0x1B52 DUP5 DUP3 DUP6 ADD PUSH2 0x1A1A JUMP JUMPDEST SWAP2 POP POP SWAP3 SWAP2 POP POP JUMP JUMPDEST PUSH2 0x1B64 DUP2 PUSH2 0x19F3 JUMP JUMPDEST DUP3 MSTORE POP POP JUMP JUMPDEST PUSH2 0x1B73 DUP2 PUSH2 0x1A96 JUMP JUMPDEST DUP3 MSTORE POP POP JUMP JUMPDEST PUSH1 0x40 DUP3 ADD PUSH0 DUP3 ADD MLOAD PUSH2 0x1B8D PUSH0 DUP6 ADD DUP3 PUSH2 0x1B5B JUMP JUMPDEST POP PUSH1 0x20 DUP3 ADD MLOAD PUSH2 0x1BA0 PUSH1 0x20 DUP6 ADD DUP3 PUSH2 0x1B6A JUMP JUMPDEST POP POP POP POP JUMP JUMPDEST PUSH0 PUSH1 0x40 DUP3 ADD SWAP1 POP PUSH2 0x1BB9 PUSH0 DUP4 ADD DUP5 PUSH2 0x1B79 JUMP JUMPDEST SWAP3 SWAP2 POP POP JUMP JUMPDEST PUSH0 PUSH1 0x40 DUP3 ADD SWAP1 POP PUSH2 0x1BD2 PUSH0 DUP4 ADD DUP6 PUSH2 0x1B08 JUMP JUMPDEST PUSH2 0x1BDF PUSH1 0x20 DUP4 ADD DUP5 PUSH2 0x1AA2 JUMP JUMPDEST SWAP4 SWAP3 POP POP POP JUMP JUMPDEST PUSH2 0x1BEF DUP2 PUSH2 0x1A96 JUMP JUMPDEST DUP2 EQ PUSH2 0x1BF9 JUMPI PUSH0 PUSH0 REVERT JUMPDEST POP JUMP JUMPDEST PUSH0 DUP2 CALLDATALOAD SWAP1 POP PUSH2 0x1C0A DUP2 PUSH2 0x1BE6 JUMP JUMPDEST SWAP3 SWAP2 POP POP JUMP JUMPDEST PUSH0 PUSH0 PUSH0 PUSH1 0x60 DUP5 DUP7 SUB SLT ISZERO PUSH2 0x1C27 JUMPI PUSH2 0x1C26 PUSH2 0x19D0 JUMP JUMPDEST JUMPDEST PUSH0 PUSH2 0x1C34 DUP7 DUP3 DUP8 ADD PUSH2 0x1A1A JUMP JUMPDEST SWAP4 POP POP PUSH1 0x20 PUSH2 0x1C45 DUP7 DUP3 DUP8 ADD PUSH2 0x1A1A JUMP JUMPDEST SWAP3 POP POP PUSH1 0x40 PUSH2 0x1C56 DUP7 DUP3 DUP8 ADD PUSH2 0x1BFC JUMP JUMPDEST SWAP2 POP POP SWAP3 POP SWAP3 POP SWAP3 JUMP JUMPDEST PUSH32 0x4E487B7100000000000000000000000000000000000000000000000000000000 PUSH0 MSTORE PUSH1 0x11 PUSH1 0x4 MSTORE PUSH1 0x24 PUSH0 REVERT JUMPDEST PUSH0 PUSH2 0x1C97 DUP3 PUSH2 0x199F JUMP JUMPDEST SWAP2 POP PUSH2 0x1CA2 DUP4 PUSH2 0x199F JUMP JUMPDEST SWAP3 POP DUP3 DUP3 ADD SWAP1 POP DUP1 DUP3 GT ISZERO PUSH2 0x1CBA JUMPI PUSH2 0x1CB9 PUSH2 0x1C60 JUMP JUMPDEST JUMPDEST SWAP3 SWAP2 POP POP JUMP JUMPDEST PUSH0 PUSH1 0x60 DUP3 ADD SWAP1 POP PUSH2 0x1CD3 PUSH0 DUP4 ADD DUP7 PUSH2 0x19A8 JUMP JUMPDEST PUSH2 0x1CE0 PUSH1 0x20 DUP4 ADD DUP6 PUSH2 0x19A8 JUMP JUMPDEST PUSH2 0x1CED PUSH1 0x40 DUP4 ADD DUP5 PUSH2 0x19A8 JUMP JUMPDEST SWAP5 SWAP4 POP POP POP POP JUMP JUMPDEST PUSH0 PUSH2 0x1CFF DUP3 PUSH2 0x199F JUMP JUMPDEST SWAP2 POP PUSH32 0xFFFFFFFFFFFFFFFFFFFFFFFFFFFFFFFFFFFFFFFFFFFFFFFFFFFFFFFFFFFFFFFF DUP3 SUB PUSH2 0x1D31 JUMPI PUSH2 0x1D30 PUSH2 0x1C60 JUMP JUMPDEST JUMPDEST PUSH1 0x1 DUP3 ADD SWAP1 POP SWAP2 SWAP1 POP JUMP JUMPDEST PUSH0 PUSH1 0x40 DUP3 ADD SWAP1 POP PUSH2 0x1D4F PUSH0 DUP4 ADD DUP6 PUSH2 0x19A8 JUMP JUMPDEST PUSH2 0x1D5C PUSH1 0x20 DUP4 ADD DUP5 PUSH2 0x19A8 JUMP JUMPDEST SWAP4 SWAP3 POP POP POP JUMP JUMPDEST PUSH0 PUSH10 0xFFFFFFFFFFFFFFFFFFFF DUP3 AND SWAP1 POP SWAP2 SWAP1 POP JUMP JUMPDEST PUSH2 0x1D81 DUP2 PUSH2 0x1D63 JUMP JUMPDEST DUP2 EQ PUSH2 0x1D8B JUMPI PUSH0 PUSH0 REVERT JUMPDEST POP JUMP JUMPDEST PUSH0 DUP2 MLOAD SWAP1 POP PUSH2 0x1D9C DUP2 PUSH2 0x1D78 JUMP JUMPDEST SWAP3 SWAP2 POP POP JUMP JUMPDEST PUSH0 DUP2 SWAP1 POP SWAP2 SWAP1 POP JUMP JUMPDEST PUSH2 0x1DB4 DUP2 PUSH2 0x1DA2 JUMP JUMPDEST DUP2 EQ PUSH2 0x1DBE JUMPI PUSH0 PUSH0 REVERT JUMPDEST POP JUMP JUMPDEST PUSH0 DUP2 MLOAD SWAP1 POP PUSH2 0x1DCF DUP2 PUSH2 0x1DAB JUMP JUMPDEST SWAP3 SWAP2 POP POP JUMP JUMPDEST PUSH0 DUP2 MLOAD SWAP1 POP PUSH2 0x1DE3 DUP2 PUSH2 0x1A2E JUMP JUMPDEST SWAP3 SWAP2 POP POP JUMP JUMPDEST PUSH0 PUSH0 PUSH0 PUSH0 PUSH0 PUSH1 0xA0 DUP7 DUP9 SUB SLT ISZERO PUSH2 0x1E02 JUMPI PUSH2 0x1E01 PUSH2 0x19D0 JUMP JUMPDEST JUMPDEST PUSH0 PUSH2 0x1E0F DUP9 DUP3 DUP10 ADD PUSH2 0x1D8E JUMP JUMPDEST SWAP6 POP POP PUSH1 0x20 PUSH2 0x1E20 DUP9 DUP3 DUP10 ADD PUSH2 0x1DC1 JUMP JUMPDEST SWAP5 POP POP PUSH1 0x40 PUSH2 0x1E31 DUP9 DUP3 DUP10 ADD PUSH2 0x1DD5 JUMP JUMPDEST SWAP4 POP POP PUSH1 0x60 PUSH2 0x1E42 DUP9 DUP3 DUP10 ADD PUSH2 0x1DD5 JUMP JUMPDEST SWAP3 POP POP PUSH1 0x80 PUSH2 0x1E53 DUP9 DUP3 DUP10 ADD PUSH2 0x1D8E JUMP JUMPDEST SWAP2 POP POP SWAP3 SWAP6 POP SWAP3 SWAP6 SWAP1 SWAP4 POP JUMP JUMPDEST PUSH0 DUP2 PUSH1 0x1 SHR SWAP1 POP SWAP2 SWAP1 POP JUMP JUMPDEST PUSH0 PUSH0 DUP3 SWAP2 POP DUP4 SWAP1 POP JUMPDEST PUSH1 0x1 DUP6 GT ISZERO PUSH2 0x1EB5 JUMPI DUP1 DUP7 DIV DUP2 GT ISZERO PUSH2 0x1E91 JUMPI PUSH2 0x1E90 PUSH2 0x1C60 JUMP JUMPDEST JUMPDEST PUSH1 0x1 DUP6 AND ISZERO PUSH2 0x1EA0 JUMPI DUP1 DUP3 MUL SWAP2 POP JUMPDEST DUP1 DUP2 MUL SWAP1 POP PUSH2 0x1EAE DUP6 PUSH2 0x1E60 JUMP JUMPDEST SWAP5 POP PUSH2 0x1E75 JUMP JUMPDEST SWAP5 POP SWAP5 SWAP3 POP POP POP JUMP JUMPDEST PUSH0 DUP3 PUSH2 0x1ECD JUMPI PUSH1 0x1 SWAP1 POP PUSH2 0x1F88 JUMP JUMPDEST DUP2 PUSH2 0x1EDA JUMPI PUSH0 SWAP1 POP PUSH2 0x1F88 JUMP JUMPDEST DUP2 PUSH1 0x1 DUP2 EQ PUSH2 0x1EF0 JUMPI PUSH1 0x2 DUP2 EQ PUSH2 0x1EFA JUMPI PUSH2 0x1F29 JUMP JUMPDEST PUSH1 0x1 SWAP2 POP POP PUSH2 0x1F88 JUMP JUMPDEST PUSH1 0xFF DUP5 GT ISZERO PUSH2 0x1F0C JUMPI PUSH2 0x1F0B PUSH2 0x1C60 JUMP JUMPDEST JUMPDEST DUP4 PUSH1 0x2 EXP SWAP2 POP DUP5 DUP3 GT ISZERO PUSH2 0x1F23 JUMPI PUSH2 0x1F22 PUSH2 0x1C60 JUMP JUMPDEST JUMPDEST POP PUSH2 0x1F88 JUMP JUMPDEST POP PUSH1 0x20 DUP4 LT PUSH2 0x133 DUP4 LT AND PUSH1 0x4E DUP5 LT PUSH1 0xB DUP5 LT AND OR ISZERO PUSH2 0x1F5E JUMPI DUP3 DUP3 EXP SWAP1 POP DUP4 DUP2 GT ISZERO PUSH2 0x1F59 JUMPI PUSH2 0x1F58 PUSH2 0x1C60 JUMP JUMPDEST JUMPDEST PUSH2 0x1F88 JUMP JUMPDEST PUSH2 0x1F6B DUP5 DUP5 DUP5 PUSH1 0x1 PUSH2 0x1E6C JUMP JUMPDEST SWAP3 POP SWAP1 POP DUP2 DUP5 DIV DUP2 GT ISZERO PUSH2 0x1F82 JUMPI PUSH2 0x1F81 PUSH2 0x1C60 JUMP JUMPDEST JUMPDEST DUP2 DUP2 MUL SWAP1 POP JUMPDEST SWAP4 SWAP3 POP POP POP JUMP JUMPDEST PUSH0 PUSH2 0x1F99 DUP3 PUSH2 0x199F JUMP JUMPDEST SWAP2 POP PUSH2 0x1FA4 DUP4 PUSH2 0x199F JUMP JUMPDEST SWAP3 POP PUSH2 0x1FD1 PUSH32 0xFFFFFFFFFFFFFFFFFFFFFFFFFFFFFFFFFFFFFFFFFFFFFFFFFFFFFFFFFFFFFFFF DUP5 DUP5 PUSH2 0x1EBE JUMP JUMPDEST SWAP1 POP SWAP3 SWAP2 POP POP JUMP JUMPDEST PUSH0 PUSH2 0x1FE3 DUP3 PUSH2 0x199F JUMP JUMPDEST SWAP2 POP PUSH2 0x1FEE DUP4 PUSH2 0x199F JUMP JUMPDEST SWAP3 POP DUP3 DUP3 MUL PUSH2 0x1FFC DUP2 PUSH2 0x199F JUMP JUMPDEST SWAP2 POP DUP3 DUP3 DIV DUP5 EQ DUP4 ISZERO OR PUSH2 0x2013 JUMPI PUSH2 0x2012 PUSH2 0x1C60 JUMP JUMPDEST JUMPDEST POP SWAP3 SWAP2 POP POP JUMP JUMPDEST PUSH32 0x4E487B7100000000000000000000000000000000000000000000000000000000 PUSH0 MSTORE PUSH1 0x12 PUSH1 0x4 MSTORE PUSH1 0x24 PUSH0 REVERT JUMPDEST PUSH0 PUSH2 0x2051 DUP3 PUSH2 0x199F JUMP JUMPDEST SWAP2 POP PUSH2 0x205C DUP4 PUSH2 0x199F JUMP JUMPDEST SWAP3 POP DUP3 PUSH2 0x206C JUMPI PUSH2 0x206B PUSH2 0x201A JUMP JUMPDEST JUMPDEST DUP3 DUP3 DIV SWAP1 POP SWAP3 SWAP2 POP POP JUMP JUMPDEST PUSH0 PUSH2 0x2081 DUP3 PUSH2 0x199F JUMP JUMPDEST SWAP2 POP PUSH2 0x208C DUP4 PUSH2 0x1A96 JUMP JUMPDEST SWAP3 POP PUSH2 0x20B9 PUSH32 0xFFFFFFFFFFFFFFFFFFFFFFFFFFFFFFFFFFFFFFFFFFFFFFFFFFFFFFFFFFFFFFFF DUP5 DUP5 PUSH2 0x1EBE JUMP JUMPDEST SWAP1 POP SWAP3 SWAP2 POP POP JUMP JUMPDEST PUSH0 DUP2 SWAP1 POP SWAP3 SWAP2 POP POP JUMP JUMPDEST POP JUMP JUMPDEST PUSH0 PUSH2 0x20D9 PUSH0 DUP4 PUSH2 0x20C1 JUMP JUMPDEST SWAP2 POP PUSH2 0x20E4 DUP3 PUSH2 0x20CB JUMP JUMPDEST PUSH0 DUP3 ADD SWAP1 POP SWAP2 SWAP1 POP JUMP JUMPDEST PUSH0 PUSH2 0x20F8 DUP3 PUSH2 0x20CE JUMP JUMPDEST SWAP2 POP DUP2 SWAP1 POP SWAP2 SWAP1 POP JUMP JUMPDEST PUSH0 PUSH2 0x210C DUP3 PUSH2 0x199F JUMP JUMPDEST SWAP2 POP PUSH2 0x2117 DUP4 PUSH2 0x199F JUMP JUMPDEST SWAP3 POP DUP3 DUP3 SUB SWAP1 POP DUP2 DUP2 GT ISZERO PUSH2 0x212F JUMPI PUSH2 0x212E PUSH2 0x1C60 JUMP JUMPDEST JUMPDEST SWAP3 SWAP2 POP POP JUMP JUMPDEST PUSH0 PUSH1 0x60 DUP3 ADD SWAP1 POP PUSH2 0x2148 PUSH0 DUP4 ADD DUP7 PUSH2 0x1B08 JUMP JUMPDEST PUSH2 0x2155 PUSH1 0x20 DUP4 ADD DUP6 PUSH2 0x1B08 JUMP JUMPDEST PUSH2 0x2162 PUSH1 0x40 DUP4 ADD DUP5 PUSH2 0x19A8 JUMP JUMPDEST SWAP5 SWAP4 POP POP POP POP JUMP JUMPDEST PUSH0 PUSH1 0x40 DUP3 ADD SWAP1 POP PUSH2 0x217D PUSH0 DUP4 ADD DUP6 PUSH2 0x1B08 JUMP JUMPDEST PUSH2 0x218A PUSH1 0x20 DUP4 ADD DUP5 PUSH2 0x19A8 JUMP JUMPDEST SWAP4 SWAP3 POP POP POP JUMP INVALID LOG2 PUSH5 0x6970667358 0x22 SLT KECCAK256 PUSH31 0x72C599D82903B29B1AF61ABF6B94663099371996F78837B10422A80CE169EC PUSH5 0x736F6C6343 STOP ADDMOD 0x1E STOP CALLER "
				},
				"gasEstimates": {
					"creation": {
						"codeDepositCost": "1729400",
						"executionCost": "infinite",
						"totalCost": "infinite"
					},
					"external": {
						"": "263",
						"ETH_ADDRESS()": "395",
						"USD_DECIMALS()": "399",
						"USD_PRECISION()": "infinite",
						"allowToken(address,address,uint8)": "infinite",
						"depositEth()": "infinite",
						"depositToken(address,uint256)": "infinite",
						"emergencyWithdraw(address,uint256)": "infinite",
						"getBalance(address,address)": "infinite",
						"getTokenConfig(address)": "infinite",
						"getTokenValueUSD(address,uint256)": "infinite",
						"i_bankCapUSD()": "infinite",
						"i_withdrawalLimitUSD()": "infinite",
						"owner()": "2625",
						"renounceOwnership()": "infinite",
						"s_balances(address,address)": "infinite",
						"s_depositCount()": "2492",
						"s_tokenConfig(address)": "infinite",
						"s_totalBankValueUSD()": "2469",
						"s_withdrawalCount()": "2470",
						"transferOwnership(address)": "infinite",
						"updateTokenPriceFeed(address,address)": "infinite",
						"withdraw(address,uint256)": "infinite"
					},
					"internal": {
						"_checkTokenAllowed(address)": "infinite",
						"_handleDeposit(address,uint256)": "infinite"
					}
				},
				"methodIdentifiers": {
					"ETH_ADDRESS()": "a734f06e",
					"USD_DECIMALS()": "2f6ee695",
					"USD_PRECISION()": "4bfdfa6f",
					"allowToken(address,address,uint8)": "fee4aaeb",
					"depositEth()": "439370b1",
					"depositToken(address,uint256)": "338b5dea",
					"emergencyWithdraw(address,uint256)": "95ccea67",
					"getBalance(address,address)": "d4fac45d",
					"getTokenConfig(address)": "cb67e3b1",
					"getTokenValueUSD(address,uint256)": "2a6daba3",
					"i_bankCapUSD()": "0ccee433",
					"i_withdrawalLimitUSD()": "6b251a0b",
					"owner()": "8da5cb5b",
					"renounceOwnership()": "715018a6",
					"s_balances(address,address)": "dccd58e3",
					"s_depositCount()": "cac2e25f",
					"s_tokenConfig(address)": "fc5c96ee",
					"s_totalBankValueUSD()": "edd2f190",
					"s_withdrawalCount()": "b2343b1c",
					"transferOwnership(address)": "f2fde38b",
					"updateTokenPriceFeed(address,address)": "82d2f5b1",
					"withdraw(address,uint256)": "f3fef3a3"
				}
			},
			"storageLayout": {
				"storage": [
					{
						"astId": 54,
						"contract": "contracts/kipu-bankV2.sol:KipuBank",
						"label": "_owner",
						"offset": 0,
						"slot": "0",
						"type": "t_address"
					},
					{
						"astId": 912,
						"contract": "contracts/kipu-bankV2.sol:KipuBank",
						"label": "s_totalBankValueUSD",
						"offset": 0,
						"slot": "1",
						"type": "t_uint256"
					},
					{
						"astId": 915,
						"contract": "contracts/kipu-bankV2.sol:KipuBank",
						"label": "s_depositCount",
						"offset": 0,
						"slot": "2",
						"type": "t_uint256"
					},
					{
						"astId": 918,
						"contract": "contracts/kipu-bankV2.sol:KipuBank",
						"label": "s_withdrawalCount",
						"offset": 0,
						"slot": "3",
						"type": "t_uint256"
					},
					{
						"astId": 925,
						"contract": "contracts/kipu-bankV2.sol:KipuBank",
						"label": "s_balances",
						"offset": 0,
						"slot": "4",
						"type": "t_mapping(t_address,t_mapping(t_address,t_uint256))"
					},
					{
						"astId": 931,
						"contract": "contracts/kipu-bankV2.sol:KipuBank",
						"label": "s_tokenConfig",
						"offset": 0,
						"slot": "5",
						"type": "t_mapping(t_address,t_struct(TokenConfig)886_storage)"
					}
				],
				"types": {
					"t_address": {
						"encoding": "inplace",
						"label": "address",
						"numberOfBytes": "20"
					},
					"t_mapping(t_address,t_mapping(t_address,t_uint256))": {
						"encoding": "mapping",
						"key": "t_address",
						"label": "mapping(address => mapping(address => uint256))",
						"numberOfBytes": "32",
						"value": "t_mapping(t_address,t_uint256)"
					},
					"t_mapping(t_address,t_struct(TokenConfig)886_storage)": {
						"encoding": "mapping",
						"key": "t_address",
						"label": "mapping(address => struct KipuBank.TokenConfig)",
						"numberOfBytes": "32",
						"value": "t_struct(TokenConfig)886_storage"
					},
					"t_mapping(t_address,t_uint256)": {
						"encoding": "mapping",
						"key": "t_address",
						"label": "mapping(address => uint256)",
						"numberOfBytes": "32",
						"value": "t_uint256"
					},
					"t_struct(TokenConfig)886_storage": {
						"encoding": "inplace",
						"label": "struct KipuBank.TokenConfig",
						"members": [
							{
								"astId": 883,
								"contract": "contracts/kipu-bankV2.sol:KipuBank",
								"label": "priceFeed",
								"offset": 0,
								"slot": "0",
								"type": "t_address"
							},
							{
								"astId": 885,
								"contract": "contracts/kipu-bankV2.sol:KipuBank",
								"label": "decimals",
								"offset": 20,
								"slot": "0",
								"type": "t_uint8"
							}
						],
						"numberOfBytes": "32"
					},
					"t_uint256": {
						"encoding": "inplace",
						"label": "uint256",
						"numberOfBytes": "32"
					},
					"t_uint8": {
						"encoding": "inplace",
						"label": "uint8",
						"numberOfBytes": "1"
					}
				}
			},
			"userdoc": {
				"kind": "user",
				"methods": {
					"ETH_ADDRESS()": {
						"notice": "Direccion reservada para representar Ether nativo."
					},
					"USD_DECIMALS()": {
						"notice": "Los decimales estandar para los precios en USD de Chainlink."
					},
					"USD_PRECISION()": {
						"notice": "Precision para calculos con USD (10**8)."
					},
					"allowToken(address,address,uint8)": {
						"notice": "(Owner) Permite un nuevo token ERC-20 en el banco."
					},
					"depositEth()": {
						"notice": "Permite a un usuario depositar Ether nativo."
					},
					"depositToken(address,uint256)": {
						"notice": "Permite a un usuario depositar tokens ERC-20 permitidos."
					},
					"emergencyWithdraw(address,uint256)": {
						"notice": "(Owner) Permite retirar fondos de emergencia."
					},
					"getBalance(address,address)": {
						"notice": "Obtiene el saldo de un usuario para un token especifico."
					},
					"getTokenConfig(address)": {
						"notice": "Obtiene la configuracion de un token permitido."
					},
					"getTokenValueUSD(address,uint256)": {
						"notice": "Funcion de conversion de valor. Obtiene el valor en USD de una cantidad de token."
					},
					"i_bankCapUSD()": {
						"notice": "Limite de capitalizacion del banco en USD (con 8 decimales)."
					},
					"i_withdrawalLimitUSD()": {
						"notice": "Limite de retiro por transaccion en USD (con 8 decimales)."
					},
					"s_balances(address,address)": {
						"notice": "Mapping anidado para la contabilidad multi-token."
					},
					"s_depositCount()": {
						"notice": "Cantidad de depositos que se realizaron en el contrato."
					},
					"s_tokenConfig(address)": {
						"notice": "Mapping para almacenar la configuracion (price feed y decimales) de cada token permitido."
					},
					"s_totalBankValueUSD()": {
						"notice": "Valor total de todos los activos en el banco, en USD (con 8 decimales)."
					},
					"s_withdrawalCount()": {
						"notice": "Cantidad de retiros que se realizaron en el contrato."
					},
					"updateTokenPriceFeed(address,address)": {
						"notice": "(Owner) Actualiza el oraculo de un token."
					},
					"withdraw(address,uint256)": {
						"notice": "Permite a un usuario retirar sus fondos (Ether o ERC-20)."
					}
				},
				"version": 1
			}
		}
	}
}