{
	"contracts/kipu-bank.sol": {
		"KipuBank": {
			"abi": [
				{
					"inputs": [
						{
							"internalType": "uint256",
							"name": "_bankCapLimit",
							"type": "uint256"
						},
						{
							"internalType": "uint256",
							"name": "_withdrawalLimit",
							"type": "uint256"
						}
					],
					"stateMutability": "nonpayable",
					"type": "constructor"
				},
				{
					"inputs": [],
					"name": "DepositNotAllowed",
					"type": "error"
				},
				{
					"inputs": [
						{
							"internalType": "uint256",
							"name": "_depositAmount",
							"type": "uint256"
						},
						{
							"internalType": "uint256",
							"name": "_availableAmount",
							"type": "uint256"
						},
						{
							"internalType": "uint256",
							"name": "_limitBank",
							"type": "uint256"
						}
					],
					"name": "ExceedsBalanceBankLimit",
					"type": "error"
				},
				{
					"inputs": [
						{
							"internalType": "uint256",
							"name": "_amount",
							"type": "uint256"
						},
						{
							"internalType": "uint256",
							"name": "_limit",
							"type": "uint256"
						}
					],
					"name": "ExceedsWithdrawLimit",
					"type": "error"
				},
				{
					"inputs": [
						{
							"internalType": "uint256",
							"name": "_requered",
							"type": "uint256"
						},
						{
							"internalType": "uint256",
							"name": "_availableBalance",
							"type": "uint256"
						}
					],
					"name": "InsufficientBalance",
					"type": "error"
				},
				{
					"inputs": [],
					"name": "ZeroAmount",
					"type": "error"
				},
				{
					"anonymous": false,
					"inputs": [
						{
							"indexed": false,
							"internalType": "address",
							"name": "_sender",
							"type": "address"
						},
						{
							"indexed": false,
							"internalType": "uint256",
							"name": "_amount",
							"type": "uint256"
						}
					],
					"name": "Deposited",
					"type": "event"
				},
				{
					"anonymous": false,
					"inputs": [
						{
							"indexed": false,
							"internalType": "address",
							"name": "_receiver",
							"type": "address"
						},
						{
							"indexed": false,
							"internalType": "uint256",
							"name": "_amount",
							"type": "uint256"
						}
					],
					"name": "Withdrawn",
					"type": "event"
				},
				{
					"stateMutability": "payable",
					"type": "fallback"
				},
				{
					"inputs": [],
					"name": "deposit",
					"outputs": [],
					"stateMutability": "payable",
					"type": "function"
				},
				{
					"inputs": [],
					"name": "getBalance",
					"outputs": [
						{
							"internalType": "uint256",
							"name": "",
							"type": "uint256"
						}
					],
					"stateMutability": "view",
					"type": "function"
				},
				{
					"inputs": [],
					"name": "i_bankCapLimit",
					"outputs": [
						{
							"internalType": "uint256",
							"name": "",
							"type": "uint256"
						}
					],
					"stateMutability": "view",
					"type": "function"
				},
				{
					"inputs": [],
					"name": "i_withdrawalLimit",
					"outputs": [
						{
							"internalType": "uint256",
							"name": "",
							"type": "uint256"
						}
					],
					"stateMutability": "view",
					"type": "function"
				},
				{
					"inputs": [],
					"name": "s_depositCount",
					"outputs": [
						{
							"internalType": "uint256",
							"name": "",
							"type": "uint256"
						}
					],
					"stateMutability": "view",
					"type": "function"
				},
				{
					"inputs": [],
					"name": "s_withdrawalCount",
					"outputs": [
						{
							"internalType": "uint256",
							"name": "",
							"type": "uint256"
						}
					],
					"stateMutability": "view",
					"type": "function"
				},
				{
					"inputs": [
						{
							"internalType": "uint256",
							"name": "_amount",
							"type": "uint256"
						}
					],
					"name": "withdrawal",
					"outputs": [],
					"stateMutability": "nonpayable",
					"type": "function"
				},
				{
					"stateMutability": "payable",
					"type": "receive"
				}
			],
			"devdoc": {
				"author": "Facundo Criado",
				"events": {
					"Deposited(address,uint256)": {
						"params": {
							"_amount": "La cantidad de Saldo depositado",
							"_sender": "La direccion que realizo el deposito"
						}
					},
					"Withdrawn(address,uint256)": {
						"params": {
							"_amount": "La cantidad de saldo retirado.",
							"_receiver": "La direccion que realizo el retiro"
						}
					}
				},
				"kind": "dev",
				"methods": {
					"getBalance()": {
						"returns": {
							"_0": "Saldo del usuario"
						}
					},
					"withdrawal(uint256)": {
						"params": {
							"_amount": "La cantidad de saldo a retirar"
						}
					}
				},
				"title": "Contrato bancario",
				"version": 1
			},
			"evm": {
				"assembly": "    /* \"contracts/kipu-bank.sol\":127:5116  contract KipuBank {... */\n  mstore(0x40, 0xc0)\n    /* \"contracts/kipu-bank.sol\":2648:2806  constructor (uint256 _bankCapLimit, uint256 _withdrawalLimit) {... */\n  callvalue\n  dup1\n  iszero\n  tag_1\n  jumpi\n  revert(0x00, 0x00)\ntag_1:\n  pop\n  mload(0x40)\n  sub(codesize, bytecodeSize)\n  dup1\n  bytecodeSize\n  dup4\n  codecopy\n  dup2\n  dup2\n  add\n  0x40\n  mstore\n  dup2\n  add\n  swap1\n  tag_2\n  swap2\n  swap1\n  tag_3\n  jump\t// in\ntag_2:\n    /* \"contracts/kipu-bank.sol\":2738:2751  _bankCapLimit */\n  dup2\n    /* \"contracts/kipu-bank.sol\":2721:2751  i_bankCapLimit = _bankCapLimit */\n  0x80\n  dup2\n  dup2\n  mstore\n  pop\n  pop\n    /* \"contracts/kipu-bank.sol\":2782:2798  _withdrawalLimit */\n  dup1\n    /* \"contracts/kipu-bank.sol\":2762:2798  i_withdrawalLimit = _withdrawalLimit */\n  0xa0\n  dup2\n  dup2\n  mstore\n  pop\n  pop\n    /* \"contracts/kipu-bank.sol\":2648:2806  constructor (uint256 _bankCapLimit, uint256 _withdrawalLimit) {... */\n  pop\n  pop\n    /* \"contracts/kipu-bank.sol\":127:5116  contract KipuBank {... */\n  jump(tag_6)\n    /* \"#utility.yul\":88:205   */\ntag_8:\n    /* \"#utility.yul\":197:198   */\n  0x00\n    /* \"#utility.yul\":194:195   */\n  0x00\n    /* \"#utility.yul\":187:199   */\n  revert\n    /* \"#utility.yul\":334:411   */\ntag_10:\n    /* \"#utility.yul\":371:378   */\n  0x00\n    /* \"#utility.yul\":400:405   */\n  dup2\n    /* \"#utility.yul\":389:405   */\n  swap1\n  pop\n    /* \"#utility.yul\":334:411   */\n  swap2\n  swap1\n  pop\n  jump\t// out\n    /* \"#utility.yul\":417:539   */\ntag_11:\n    /* \"#utility.yul\":490:514   */\n  tag_19\n    /* \"#utility.yul\":508:513   */\n  dup2\n    /* \"#utility.yul\":490:514   */\n  tag_10\n  jump\t// in\ntag_19:\n    /* \"#utility.yul\":483:488   */\n  dup2\n    /* \"#utility.yul\":480:515   */\n  eq\n    /* \"#utility.yul\":470:533   */\n  tag_20\n  jumpi\n    /* \"#utility.yul\":529:530   */\n  0x00\n    /* \"#utility.yul\":526:527   */\n  0x00\n    /* \"#utility.yul\":519:531   */\n  revert\n    /* \"#utility.yul\":470:533   */\ntag_20:\n    /* \"#utility.yul\":417:539   */\n  pop\n  jump\t// out\n    /* \"#utility.yul\":545:688   */\ntag_12:\n    /* \"#utility.yul\":602:607   */\n  0x00\n    /* \"#utility.yul\":633:639   */\n  dup2\n    /* \"#utility.yul\":627:640   */\n  mload\n    /* \"#utility.yul\":618:640   */\n  swap1\n  pop\n    /* \"#utility.yul\":649:682   */\n  tag_22\n    /* \"#utility.yul\":676:681   */\n  dup2\n    /* \"#utility.yul\":649:682   */\n  tag_11\n  jump\t// in\ntag_22:\n    /* \"#utility.yul\":545:688   */\n  swap3\n  swap2\n  pop\n  pop\n  jump\t// out\n    /* \"#utility.yul\":694:1201   */\ntag_3:\n    /* \"#utility.yul\":773:779   */\n  0x00\n    /* \"#utility.yul\":781:787   */\n  0x00\n    /* \"#utility.yul\":830:832   */\n  0x40\n    /* \"#utility.yul\":818:827   */\n  dup4\n    /* \"#utility.yul\":809:816   */\n  dup6\n    /* \"#utility.yul\":805:828   */\n  sub\n    /* \"#utility.yul\":801:833   */\n  slt\n    /* \"#utility.yul\":798:917   */\n  iszero\n  tag_24\n  jumpi\n    /* \"#utility.yul\":836:915   */\n  tag_25\n  tag_8\n  jump\t// in\ntag_25:\n    /* \"#utility.yul\":798:917   */\ntag_24:\n    /* \"#utility.yul\":956:957   */\n  0x00\n    /* \"#utility.yul\":981:1045   */\n  tag_26\n    /* \"#utility.yul\":1037:1044   */\n  dup6\n    /* \"#utility.yul\":1028:1034   */\n  dup3\n    /* \"#utility.yul\":1017:1026   */\n  dup7\n    /* \"#utility.yul\":1013:1035   */\n  add\n    /* \"#utility.yul\":981:1045   */\n  tag_12\n  jump\t// in\ntag_26:\n    /* \"#utility.yul\":971:1045   */\n  swap3\n  pop\n    /* \"#utility.yul\":927:1055   */\n  pop\n    /* \"#utility.yul\":1094:1096   */\n  0x20\n    /* \"#utility.yul\":1120:1184   */\n  tag_27\n    /* \"#utility.yul\":1176:1183   */\n  dup6\n    /* \"#utility.yul\":1167:1173   */\n  dup3\n    /* \"#utility.yul\":1156:1165   */\n  dup7\n    /* \"#utility.yul\":1152:1174   */\n  add\n    /* \"#utility.yul\":1120:1184   */\n  tag_12\n  jump\t// in\ntag_27:\n    /* \"#utility.yul\":1110:1184   */\n  swap2\n  pop\n    /* \"#utility.yul\":1065:1194   */\n  pop\n    /* \"#utility.yul\":694:1201   */\n  swap3\n  pop\n  swap3\n  swap1\n  pop\n  jump\t// out\n    /* \"contracts/kipu-bank.sol\":127:5116  contract KipuBank {... */\ntag_6:\n  mload(0x80)\n  mload(0xa0)\n  codecopy(0x00, dataOffset(sub_0), dataSize(sub_0))\n  0x00\n  assignImmutable(\"0x939eb54753ed0cc7e2272bfb34cbe098308c93936ed54d79078f76ade0b2e789\")\n  0x00\n  assignImmutable(\"0x277ab82e5a4641341820a4a2933a62c1de997e42e92548657ae21b3728d580fe\")\n  return(0x00, dataSize(sub_0))\nstop\n\nsub_0: assembly {\n        /* \"contracts/kipu-bank.sol\":127:5116  contract KipuBank {... */\n      mstore(0x40, 0x80)\n      jumpi(tag_1, lt(calldatasize, 0x04))\n      shr(0xe0, calldataload(0x00))\n      dup1\n      0xb2343b1c\n      gt\n      tag_10\n      jumpi\n      dup1\n      0xb2343b1c\n      eq\n      tag_6\n      jumpi\n      dup1\n      0xcac2e25f\n      eq\n      tag_7\n      jumpi\n      dup1\n      0xd0e30db0\n      eq\n      tag_8\n      jumpi\n      dup1\n      0xde103d58\n      eq\n      tag_9\n      jumpi\n      jump(tag_2)\n    tag_10:\n      dup1\n      0x12065fe0\n      eq\n      tag_3\n      jumpi\n      dup1\n      0x835fc6ca\n      eq\n      tag_4\n      jumpi\n      dup1\n      0xaed002f6\n      eq\n      tag_5\n      jumpi\n      jump(tag_2)\n    tag_1:\n      jumpi(tag_2, calldatasize)\n        /* \"contracts/kipu-bank.sol\":2854:2879  _handleDeposit(msg.value) */\n      tag_13\n        /* \"contracts/kipu-bank.sol\":2869:2878  msg.value */\n      callvalue\n        /* \"contracts/kipu-bank.sol\":2854:2868  _handleDeposit */\n      tag_14\n        /* \"contracts/kipu-bank.sol\":2854:2879  _handleDeposit(msg.value) */\n      jump\t// in\n    tag_13:\n        /* \"contracts/kipu-bank.sol\":127:5116  contract KipuBank {... */\n      stop\n    tag_2:\n        /* \"contracts/kipu-bank.sol\":2942:2961  DepositNotAllowed() */\n      mload(0x40)\n      0x3d90e2a000000000000000000000000000000000000000000000000000000000\n      dup2\n      mstore\n      0x04\n      add\n      mload(0x40)\n      dup1\n      swap2\n      sub\n      swap1\n      revert\n        /* \"contracts/kipu-bank.sol\":4711:4814  function getBalance() public view returns (uint256) {... */\n    tag_3:\n      callvalue\n      dup1\n      iszero\n      tag_17\n      jumpi\n      revert(0x00, 0x00)\n    tag_17:\n      pop\n      tag_18\n      tag_19\n      jump\t// in\n    tag_18:\n      mload(0x40)\n      tag_20\n      swap2\n      swap1\n      tag_21\n      jump\t// in\n    tag_20:\n      mload(0x40)\n      dup1\n      swap2\n      sub\n      swap1\n      return\n        /* \"contracts/kipu-bank.sol\":3210:3860  function withdrawal(uint256 _amount) external nonZeroAmount(_amount) {... */\n    tag_4:\n      callvalue\n      dup1\n      iszero\n      tag_22\n      jumpi\n      revert(0x00, 0x00)\n    tag_22:\n      pop\n      tag_23\n      0x04\n      dup1\n      calldatasize\n      sub\n      dup2\n      add\n      swap1\n      tag_24\n      swap2\n      swap1\n      tag_25\n      jump\t// in\n    tag_24:\n      tag_26\n      jump\t// in\n    tag_23:\n      stop\n        /* \"contracts/kipu-bank.sol\":683:722  uint256 public immutable i_bankCapLimit */\n    tag_5:\n      callvalue\n      dup1\n      iszero\n      tag_27\n      jumpi\n      revert(0x00, 0x00)\n    tag_27:\n      pop\n      tag_28\n      tag_29\n      jump\t// in\n    tag_28:\n      mload(0x40)\n      tag_30\n      swap2\n      swap1\n      tag_21\n      jump\t// in\n    tag_30:\n      mload(0x40)\n      dup1\n      swap2\n      sub\n      swap1\n      return\n        /* \"contracts/kipu-bank.sol\":570:602  uint256 public s_withdrawalCount */\n    tag_6:\n      callvalue\n      dup1\n      iszero\n      tag_31\n      jumpi\n      revert(0x00, 0x00)\n    tag_31:\n      pop\n      tag_32\n      tag_33\n      jump\t// in\n    tag_32:\n      mload(0x40)\n      tag_34\n      swap2\n      swap1\n      tag_21\n      jump\t// in\n    tag_34:\n      mload(0x40)\n      dup1\n      swap2\n      sub\n      swap1\n      return\n        /* \"contracts/kipu-bank.sol\":463:492  uint256 public s_depositCount */\n    tag_7:\n      callvalue\n      dup1\n      iszero\n      tag_35\n      jumpi\n      revert(0x00, 0x00)\n    tag_35:\n      pop\n      tag_36\n      tag_37\n      jump\t// in\n    tag_36:\n      mload(0x40)\n      tag_38\n      swap2\n      swap1\n      tag_21\n      jump\t// in\n    tag_38:\n      mload(0x40)\n      dup1\n      swap2\n      sub\n      swap1\n      return\n        /* \"contracts/kipu-bank.sol\":3886:3991  function deposit() external payable nonZeroAmount(msg.value) {... */\n    tag_8:\n      tag_39\n      tag_40\n      jump\t// in\n    tag_39:\n      stop\n        /* \"contracts/kipu-bank.sol\":818:860  uint256 public immutable i_withdrawalLimit */\n    tag_9:\n      callvalue\n      dup1\n      iszero\n      tag_41\n      jumpi\n      revert(0x00, 0x00)\n    tag_41:\n      pop\n      tag_42\n      tag_43\n      jump\t// in\n    tag_42:\n      mload(0x40)\n      tag_44\n      swap2\n      swap1\n      tag_21\n      jump\t// in\n    tag_44:\n      mload(0x40)\n      dup1\n      swap2\n      sub\n      swap1\n      return\n        /* \"contracts/kipu-bank.sol\":4191:4613  function _handleDeposit(uint256 _amount) private {... */\n    tag_14:\n        /* \"contracts/kipu-bank.sol\":4307:4321  i_bankCapLimit */\n      immutable(\"0x277ab82e5a4641341820a4a2933a62c1de997e42e92548657ae21b3728d580fe\")\n        /* \"contracts/kipu-bank.sol\":4297:4304  _amount */\n      dup2\n        /* \"contracts/kipu-bank.sol\":4273:4294  address(this).balance */\n      selfbalance\n        /* \"contracts/kipu-bank.sol\":4273:4304  address(this).balance + _amount */\n      tag_46\n      swap2\n      swap1\n      tag_47\n      jump\t// in\n    tag_46:\n        /* \"contracts/kipu-bank.sol\":4273:4321  address(this).balance + _amount > i_bankCapLimit */\n      gt\n        /* \"contracts/kipu-bank.sol\":4269:4443  if (address(this).balance + _amount > i_bankCapLimit) {... */\n      iszero\n      tag_48\n      jumpi\n        /* \"contracts/kipu-bank.sol\":4374:4381  _amount */\n      dup1\n        /* \"contracts/kipu-bank.sol\":4407:4414  _amount */\n      dup2\n        /* \"contracts/kipu-bank.sol\":4383:4404  address(this).balance */\n      selfbalance\n        /* \"contracts/kipu-bank.sol\":4383:4414  address(this).balance - _amount */\n      tag_49\n      swap2\n      swap1\n      tag_50\n      jump\t// in\n    tag_49:\n        /* \"contracts/kipu-bank.sol\":4416:4430  i_bankCapLimit */\n      immutable(\"0x277ab82e5a4641341820a4a2933a62c1de997e42e92548657ae21b3728d580fe\")\n        /* \"contracts/kipu-bank.sol\":4349:4431  ExceedsBalanceBankLimit (_amount, address(this).balance - _amount, i_bankCapLimit) */\n      mload(0x40)\n      0xd9e81d5400000000000000000000000000000000000000000000000000000000\n      dup2\n      mstore\n      0x04\n      add\n      tag_51\n      swap4\n      swap3\n      swap2\n      swap1\n      tag_52\n      jump\t// in\n    tag_51:\n      mload(0x40)\n      dup1\n      swap2\n      sub\n      swap1\n      revert\n        /* \"contracts/kipu-bank.sol\":4269:4443  if (address(this).balance + _amount > i_bankCapLimit) {... */\n    tag_48:\n        /* \"contracts/kipu-bank.sol\":4499:4506  _amount */\n      dup1\n        /* \"contracts/kipu-bank.sol\":4474:4483  s_balance */\n      0x00\n        /* \"contracts/kipu-bank.sol\":4474:4495  s_balance[msg.sender] */\n      0x00\n        /* \"contracts/kipu-bank.sol\":4484:4494  msg.sender */\n      caller\n        /* \"contracts/kipu-bank.sol\":4474:4495  s_balance[msg.sender] */\n      0xffffffffffffffffffffffffffffffffffffffff\n      and\n      0xffffffffffffffffffffffffffffffffffffffff\n      and\n      dup2\n      mstore\n      0x20\n      add\n      swap1\n      dup2\n      mstore\n      0x20\n      add\n      0x00\n      keccak256\n      0x00\n        /* \"contracts/kipu-bank.sol\":4474:4506  s_balance[msg.sender] += _amount */\n      dup3\n      dup3\n      sload\n      tag_53\n      swap2\n      swap1\n      tag_47\n      jump\t// in\n    tag_53:\n      swap3\n      pop\n      pop\n      dup2\n      swap1\n      sstore\n      pop\n        /* \"contracts/kipu-bank.sol\":4517:4531  s_depositCount */\n      0x01\n      0x00\n        /* \"contracts/kipu-bank.sol\":4517:4533  s_depositCount++ */\n      dup2\n      sload\n      dup1\n      swap3\n      swap2\n      swap1\n      tag_54\n      swap1\n      tag_55\n      jump\t// in\n    tag_54:\n      swap2\n      swap1\n      pop\n      sstore\n      pop\n        /* \"contracts/kipu-bank.sol\":4575:4605  Deposited(msg.sender, _amount) */\n      0x2da466a7b24304f47e87fa2e1e5a81b9831ce54fec19055ce277ca2f39ba42c4\n        /* \"contracts/kipu-bank.sol\":4585:4595  msg.sender */\n      caller\n        /* \"contracts/kipu-bank.sol\":4597:4604  _amount */\n      dup3\n        /* \"contracts/kipu-bank.sol\":4575:4605  Deposited(msg.sender, _amount) */\n      mload(0x40)\n      tag_56\n      swap3\n      swap2\n      swap1\n      tag_57\n      jump\t// in\n    tag_56:\n      mload(0x40)\n      dup1\n      swap2\n      sub\n      swap1\n      log1\n        /* \"contracts/kipu-bank.sol\":4191:4613  function _handleDeposit(uint256 _amount) private {... */\n      pop\n      jump\t// out\n        /* \"contracts/kipu-bank.sol\":4711:4814  function getBalance() public view returns (uint256) {... */\n    tag_19:\n        /* \"contracts/kipu-bank.sol\":4754:4761  uint256 */\n      0x00\n        /* \"contracts/kipu-bank.sol\":4781:4806  _getBalanceOf(msg.sender) */\n      tag_59\n        /* \"contracts/kipu-bank.sol\":4795:4805  msg.sender */\n      caller\n        /* \"contracts/kipu-bank.sol\":4781:4794  _getBalanceOf */\n      tag_60\n        /* \"contracts/kipu-bank.sol\":4781:4806  _getBalanceOf(msg.sender) */\n      jump\t// in\n    tag_59:\n        /* \"contracts/kipu-bank.sol\":4774:4806  return _getBalanceOf(msg.sender) */\n      swap1\n      pop\n        /* \"contracts/kipu-bank.sol\":4711:4814  function getBalance() public view returns (uint256) {... */\n      swap1\n      jump\t// out\n        /* \"contracts/kipu-bank.sol\":3210:3860  function withdrawal(uint256 _amount) external nonZeroAmount(_amount) {... */\n    tag_26:\n        /* \"contracts/kipu-bank.sol\":3270:3277  _amount */\n      dup1\n        /* \"contracts/kipu-bank.sol\":2483:2484  0 */\n      0x00\n        /* \"contracts/kipu-bank.sol\":2472:2479  _amount */\n      dup2\n        /* \"contracts/kipu-bank.sol\":2472:2484  _amount == 0 */\n      sub\n        /* \"contracts/kipu-bank.sol\":2467:2532  if ( _amount == 0) {... */\n      tag_62\n      jumpi\n        /* \"contracts/kipu-bank.sol\":2508:2520  ZeroAmount() */\n      mload(0x40)\n      0x1f2a200500000000000000000000000000000000000000000000000000000000\n      dup2\n      mstore\n      0x04\n      add\n      mload(0x40)\n      dup1\n      swap2\n      sub\n      swap1\n      revert\n        /* \"contracts/kipu-bank.sol\":2467:2532  if ( _amount == 0) {... */\n    tag_62:\n        /* \"contracts/kipu-bank.sol\":3321:3338  i_withdrawalLimit */\n      immutable(\"0x939eb54753ed0cc7e2272bfb34cbe098308c93936ed54d79078f76ade0b2e789\")\n        /* \"contracts/kipu-bank.sol\":3311:3318  _amount */\n      dup3\n        /* \"contracts/kipu-bank.sol\":3311:3338  _amount > i_withdrawalLimit */\n      gt\n        /* \"contracts/kipu-bank.sol\":3307:3427  if (_amount > i_withdrawalLimit) {... */\n      iszero\n      tag_64\n      jumpi\n        /* \"contracts/kipu-bank.sol\":3388:3395  _amount */\n      dup2\n        /* \"contracts/kipu-bank.sol\":3397:3414  i_withdrawalLimit */\n      immutable(\"0x939eb54753ed0cc7e2272bfb34cbe098308c93936ed54d79078f76ade0b2e789\")\n        /* \"contracts/kipu-bank.sol\":3366:3415  ExceedsWithdrawLimit (_amount, i_withdrawalLimit) */\n      mload(0x40)\n      0x9c8983d900000000000000000000000000000000000000000000000000000000\n      dup2\n      mstore\n      0x04\n      add\n      tag_65\n      swap3\n      swap2\n      swap1\n      tag_66\n      jump\t// in\n    tag_65:\n      mload(0x40)\n      dup1\n      swap2\n      sub\n      swap1\n      revert\n        /* \"contracts/kipu-bank.sol\":3307:3427  if (_amount > i_withdrawalLimit) {... */\n    tag_64:\n        /* \"contracts/kipu-bank.sol\":3453:3462  s_balance */\n      0x00\n        /* \"contracts/kipu-bank.sol\":3453:3474  s_balance[msg.sender] */\n      0x00\n        /* \"contracts/kipu-bank.sol\":3463:3473  msg.sender */\n      caller\n        /* \"contracts/kipu-bank.sol\":3453:3474  s_balance[msg.sender] */\n      0xffffffffffffffffffffffffffffffffffffffff\n      and\n      0xffffffffffffffffffffffffffffffffffffffff\n      and\n      dup2\n      mstore\n      0x20\n      add\n      swap1\n      dup2\n      mstore\n      0x20\n      add\n      0x00\n      keccak256\n      sload\n        /* \"contracts/kipu-bank.sol\":3443:3450  _amount */\n      dup3\n        /* \"contracts/kipu-bank.sol\":3443:3474  _amount > s_balance[msg.sender] */\n      gt\n        /* \"contracts/kipu-bank.sol\":3439:3566  if (_amount > s_balance[msg.sender]) {... */\n      iszero\n      tag_67\n      jumpi\n        /* \"contracts/kipu-bank.sol\":3523:3530  _amount */\n      dup2\n        /* \"contracts/kipu-bank.sol\":3532:3541  s_balance */\n      0x00\n        /* \"contracts/kipu-bank.sol\":3532:3553  s_balance[msg.sender] */\n      0x00\n        /* \"contracts/kipu-bank.sol\":3542:3552  msg.sender */\n      caller\n        /* \"contracts/kipu-bank.sol\":3532:3553  s_balance[msg.sender] */\n      0xffffffffffffffffffffffffffffffffffffffff\n      and\n      0xffffffffffffffffffffffffffffffffffffffff\n      and\n      dup2\n      mstore\n      0x20\n      add\n      swap1\n      dup2\n      mstore\n      0x20\n      add\n      0x00\n      keccak256\n      sload\n        /* \"contracts/kipu-bank.sol\":3502:3554  InsufficientBalance (_amount, s_balance[msg.sender]) */\n      mload(0x40)\n      0xcf47918100000000000000000000000000000000000000000000000000000000\n      dup2\n      mstore\n      0x04\n      add\n      tag_68\n      swap3\n      swap2\n      swap1\n      tag_66\n      jump\t// in\n    tag_68:\n      mload(0x40)\n      dup1\n      swap2\n      sub\n      swap1\n      revert\n        /* \"contracts/kipu-bank.sol\":3439:3566  if (_amount > s_balance[msg.sender]) {... */\n    tag_67:\n        /* \"contracts/kipu-bank.sol\":3622:3629  _amount */\n      dup2\n        /* \"contracts/kipu-bank.sol\":3597:3606  s_balance */\n      0x00\n        /* \"contracts/kipu-bank.sol\":3597:3618  s_balance[msg.sender] */\n      0x00\n        /* \"contracts/kipu-bank.sol\":3607:3617  msg.sender */\n      caller\n        /* \"contracts/kipu-bank.sol\":3597:3618  s_balance[msg.sender] */\n      0xffffffffffffffffffffffffffffffffffffffff\n      and\n      0xffffffffffffffffffffffffffffffffffffffff\n      and\n      dup2\n      mstore\n      0x20\n      add\n      swap1\n      dup2\n      mstore\n      0x20\n      add\n      0x00\n      keccak256\n      0x00\n        /* \"contracts/kipu-bank.sol\":3597:3629  s_balance[msg.sender] -= _amount */\n      dup3\n      dup3\n      sload\n      tag_69\n      swap2\n      swap1\n      tag_50\n      jump\t// in\n    tag_69:\n      swap3\n      pop\n      pop\n      dup2\n      swap1\n      sstore\n      pop\n        /* \"contracts/kipu-bank.sol\":3640:3657  s_withdrawalCount */\n      0x02\n      0x00\n        /* \"contracts/kipu-bank.sol\":3640:3659  s_withdrawalCount++ */\n      dup2\n      sload\n      dup1\n      swap3\n      swap2\n      swap1\n      tag_70\n      swap1\n      tag_55\n      jump\t// in\n    tag_70:\n      swap2\n      swap1\n      pop\n      sstore\n      pop\n        /* \"contracts/kipu-bank.sol\":3697:3709  bool success */\n      0x00\n        /* \"contracts/kipu-bank.sol\":3714:3724  msg.sender */\n      caller\n        /* \"contracts/kipu-bank.sol\":3714:3729  msg.sender.call */\n      0xffffffffffffffffffffffffffffffffffffffff\n      and\n        /* \"contracts/kipu-bank.sol\":3737:3744  _amount */\n      dup4\n        /* \"contracts/kipu-bank.sol\":3714:3749  msg.sender.call {value:_amount}(\"\") */\n      mload(0x40)\n      tag_71\n      swap1\n      tag_72\n      jump\t// in\n    tag_71:\n      0x00\n      mload(0x40)\n      dup1\n      dup4\n      sub\n      dup2\n      dup6\n      dup8\n      gas\n      call\n      swap3\n      pop\n      pop\n      pop\n      returndatasize\n      dup1\n      0x00\n      dup2\n      eq\n      tag_75\n      jumpi\n      mload(0x40)\n      swap2\n      pop\n      and(add(returndatasize, 0x3f), not(0x1f))\n      dup3\n      add\n      0x40\n      mstore\n      returndatasize\n      dup3\n      mstore\n      returndatasize\n      0x00\n      0x20\n      dup5\n      add\n      returndatacopy\n      jump(tag_74)\n    tag_75:\n      0x60\n      swap2\n      pop\n    tag_74:\n      pop\n        /* \"contracts/kipu-bank.sol\":3696:3749  (bool success,) = msg.sender.call {value:_amount}(\"\") */\n      pop\n      swap1\n      pop\n        /* \"contracts/kipu-bank.sol\":3768:3775  success */\n      dup1\n        /* \"contracts/kipu-bank.sol\":3760:3804  require(success, \"Fallo el envio del saldo\") */\n      tag_76\n      jumpi\n      mload(0x40)\n      0x08c379a000000000000000000000000000000000000000000000000000000000\n      dup2\n      mstore\n      0x04\n      add\n      tag_77\n      swap1\n      tag_78\n      jump\t// in\n    tag_77:\n      mload(0x40)\n      dup1\n      swap2\n      sub\n      swap1\n      revert\n    tag_76:\n        /* \"contracts/kipu-bank.sol\":3822:3852  Withdrawn(msg.sender, _amount) */\n      0x7084f5476618d8e60b11ef0d7d3f06914655adb8793e28ff7f018d4c76d505d5\n        /* \"contracts/kipu-bank.sol\":3832:3842  msg.sender */\n      caller\n        /* \"contracts/kipu-bank.sol\":3844:3851  _amount */\n      dup5\n        /* \"contracts/kipu-bank.sol\":3822:3852  Withdrawn(msg.sender, _amount) */\n      mload(0x40)\n      tag_79\n      swap3\n      swap2\n      swap1\n      tag_57\n      jump\t// in\n    tag_79:\n      mload(0x40)\n      dup1\n      swap2\n      sub\n      swap1\n      log1\n        /* \"contracts/kipu-bank.sol\":3279:3860  {... */\n      pop\n        /* \"contracts/kipu-bank.sol\":3210:3860  function withdrawal(uint256 _amount) external nonZeroAmount(_amount) {... */\n      pop\n      pop\n      jump\t// out\n        /* \"contracts/kipu-bank.sol\":683:722  uint256 public immutable i_bankCapLimit */\n    tag_29:\n      immutable(\"0x277ab82e5a4641341820a4a2933a62c1de997e42e92548657ae21b3728d580fe\")\n      dup2\n      jump\t// out\n        /* \"contracts/kipu-bank.sol\":570:602  uint256 public s_withdrawalCount */\n    tag_33:\n      sload(0x02)\n      dup2\n      jump\t// out\n        /* \"contracts/kipu-bank.sol\":463:492  uint256 public s_depositCount */\n    tag_37:\n      sload(0x01)\n      dup2\n      jump\t// out\n        /* \"contracts/kipu-bank.sol\":3886:3991  function deposit() external payable nonZeroAmount(msg.value) {... */\n    tag_40:\n        /* \"contracts/kipu-bank.sol\":3936:3945  msg.value */\n      callvalue\n        /* \"contracts/kipu-bank.sol\":2483:2484  0 */\n      0x00\n        /* \"contracts/kipu-bank.sol\":2472:2479  _amount */\n      dup2\n        /* \"contracts/kipu-bank.sol\":2472:2484  _amount == 0 */\n      sub\n        /* \"contracts/kipu-bank.sol\":2467:2532  if ( _amount == 0) {... */\n      tag_81\n      jumpi\n        /* \"contracts/kipu-bank.sol\":2508:2520  ZeroAmount() */\n      mload(0x40)\n      0x1f2a200500000000000000000000000000000000000000000000000000000000\n      dup2\n      mstore\n      0x04\n      add\n      mload(0x40)\n      dup1\n      swap2\n      sub\n      swap1\n      revert\n        /* \"contracts/kipu-bank.sol\":2467:2532  if ( _amount == 0) {... */\n    tag_81:\n        /* \"contracts/kipu-bank.sol\":3958:3983  _handleDeposit(msg.value) */\n      tag_83\n        /* \"contracts/kipu-bank.sol\":3973:3982  msg.value */\n      callvalue\n        /* \"contracts/kipu-bank.sol\":3958:3972  _handleDeposit */\n      tag_14\n        /* \"contracts/kipu-bank.sol\":3958:3983  _handleDeposit(msg.value) */\n      jump\t// in\n    tag_83:\n        /* \"contracts/kipu-bank.sol\":3886:3991  function deposit() external payable nonZeroAmount(msg.value) {... */\n      pop\n      jump\t// out\n        /* \"contracts/kipu-bank.sol\":818:860  uint256 public immutable i_withdrawalLimit */\n    tag_43:\n      immutable(\"0x939eb54753ed0cc7e2272bfb34cbe098308c93936ed54d79078f76ade0b2e789\")\n      dup2\n      jump\t// out\n        /* \"contracts/kipu-bank.sol\":4997:5109  function _getBalanceOf (address _user) private view returns (uint256) {... */\n    tag_60:\n        /* \"contracts/kipu-bank.sol\":5058:5065  uint256 */\n      0x00\n        /* \"contracts/kipu-bank.sol\":5085:5094  s_balance */\n      0x00\n        /* \"contracts/kipu-bank.sol\":5085:5101  s_balance[_user] */\n      0x00\n        /* \"contracts/kipu-bank.sol\":5095:5100  _user */\n      dup4\n        /* \"contracts/kipu-bank.sol\":5085:5101  s_balance[_user] */\n      0xffffffffffffffffffffffffffffffffffffffff\n      and\n      0xffffffffffffffffffffffffffffffffffffffff\n      and\n      dup2\n      mstore\n      0x20\n      add\n      swap1\n      dup2\n      mstore\n      0x20\n      add\n      0x00\n      keccak256\n      sload\n        /* \"contracts/kipu-bank.sol\":5078:5101  return s_balance[_user] */\n      swap1\n      pop\n        /* \"contracts/kipu-bank.sol\":4997:5109  function _getBalanceOf (address _user) private view returns (uint256) {... */\n      swap2\n      swap1\n      pop\n      jump\t// out\n        /* \"#utility.yul\":7:84   */\n    tag_85:\n        /* \"#utility.yul\":44:51   */\n      0x00\n        /* \"#utility.yul\":73:78   */\n      dup2\n        /* \"#utility.yul\":62:78   */\n      swap1\n      pop\n        /* \"#utility.yul\":7:84   */\n      swap2\n      swap1\n      pop\n      jump\t// out\n        /* \"#utility.yul\":90:208   */\n    tag_86:\n        /* \"#utility.yul\":177:201   */\n      tag_105\n        /* \"#utility.yul\":195:200   */\n      dup2\n        /* \"#utility.yul\":177:201   */\n      tag_85\n      jump\t// in\n    tag_105:\n        /* \"#utility.yul\":172:175   */\n      dup3\n        /* \"#utility.yul\":165:202   */\n      mstore\n        /* \"#utility.yul\":90:208   */\n      pop\n      pop\n      jump\t// out\n        /* \"#utility.yul\":214:436   */\n    tag_21:\n        /* \"#utility.yul\":307:311   */\n      0x00\n        /* \"#utility.yul\":345:347   */\n      0x20\n        /* \"#utility.yul\":334:343   */\n      dup3\n        /* \"#utility.yul\":330:348   */\n      add\n        /* \"#utility.yul\":322:348   */\n      swap1\n      pop\n        /* \"#utility.yul\":358:429   */\n      tag_107\n        /* \"#utility.yul\":426:427   */\n      0x00\n        /* \"#utility.yul\":415:424   */\n      dup4\n        /* \"#utility.yul\":411:428   */\n      add\n        /* \"#utility.yul\":402:408   */\n      dup5\n        /* \"#utility.yul\":358:429   */\n      tag_86\n      jump\t// in\n    tag_107:\n        /* \"#utility.yul\":214:436   */\n      swap3\n      swap2\n      pop\n      pop\n      jump\t// out\n        /* \"#utility.yul\":523:640   */\n    tag_88:\n        /* \"#utility.yul\":632:633   */\n      0x00\n        /* \"#utility.yul\":629:630   */\n      0x00\n        /* \"#utility.yul\":622:634   */\n      revert\n        /* \"#utility.yul\":769:891   */\n    tag_90:\n        /* \"#utility.yul\":842:866   */\n      tag_112\n        /* \"#utility.yul\":860:865   */\n      dup2\n        /* \"#utility.yul\":842:866   */\n      tag_85\n      jump\t// in\n    tag_112:\n        /* \"#utility.yul\":835:840   */\n      dup2\n        /* \"#utility.yul\":832:867   */\n      eq\n        /* \"#utility.yul\":822:885   */\n      tag_113\n      jumpi\n        /* \"#utility.yul\":881:882   */\n      0x00\n        /* \"#utility.yul\":878:879   */\n      0x00\n        /* \"#utility.yul\":871:883   */\n      revert\n        /* \"#utility.yul\":822:885   */\n    tag_113:\n        /* \"#utility.yul\":769:891   */\n      pop\n      jump\t// out\n        /* \"#utility.yul\":897:1036   */\n    tag_91:\n        /* \"#utility.yul\":943:948   */\n      0x00\n        /* \"#utility.yul\":981:987   */\n      dup2\n        /* \"#utility.yul\":968:988   */\n      calldataload\n        /* \"#utility.yul\":959:988   */\n      swap1\n      pop\n        /* \"#utility.yul\":997:1030   */\n      tag_115\n        /* \"#utility.yul\":1024:1029   */\n      dup2\n        /* \"#utility.yul\":997:1030   */\n      tag_90\n      jump\t// in\n    tag_115:\n        /* \"#utility.yul\":897:1036   */\n      swap3\n      swap2\n      pop\n      pop\n      jump\t// out\n        /* \"#utility.yul\":1042:1371   */\n    tag_25:\n        /* \"#utility.yul\":1101:1107   */\n      0x00\n        /* \"#utility.yul\":1150:1152   */\n      0x20\n        /* \"#utility.yul\":1138:1147   */\n      dup3\n        /* \"#utility.yul\":1129:1136   */\n      dup5\n        /* \"#utility.yul\":1125:1148   */\n      sub\n        /* \"#utility.yul\":1121:1153   */\n      slt\n        /* \"#utility.yul\":1118:1237   */\n      iszero\n      tag_117\n      jumpi\n        /* \"#utility.yul\":1156:1235   */\n      tag_118\n      tag_88\n      jump\t// in\n    tag_118:\n        /* \"#utility.yul\":1118:1237   */\n    tag_117:\n        /* \"#utility.yul\":1276:1277   */\n      0x00\n        /* \"#utility.yul\":1301:1354   */\n      tag_119\n        /* \"#utility.yul\":1346:1353   */\n      dup5\n        /* \"#utility.yul\":1337:1343   */\n      dup3\n        /* \"#utility.yul\":1326:1335   */\n      dup6\n        /* \"#utility.yul\":1322:1344   */\n      add\n        /* \"#utility.yul\":1301:1354   */\n      tag_91\n      jump\t// in\n    tag_119:\n        /* \"#utility.yul\":1291:1354   */\n      swap2\n      pop\n        /* \"#utility.yul\":1247:1364   */\n      pop\n        /* \"#utility.yul\":1042:1371   */\n      swap3\n      swap2\n      pop\n      pop\n      jump\t// out\n        /* \"#utility.yul\":1377:1557   */\n    tag_92:\n        /* \"#utility.yul\":1425:1502   */\n      0x4e487b7100000000000000000000000000000000000000000000000000000000\n        /* \"#utility.yul\":1422:1423   */\n      0x00\n        /* \"#utility.yul\":1415:1503   */\n      mstore\n        /* \"#utility.yul\":1522:1526   */\n      0x11\n        /* \"#utility.yul\":1519:1520   */\n      0x04\n        /* \"#utility.yul\":1512:1527   */\n      mstore\n        /* \"#utility.yul\":1546:1550   */\n      0x24\n        /* \"#utility.yul\":1543:1544   */\n      0x00\n        /* \"#utility.yul\":1536:1551   */\n      revert\n        /* \"#utility.yul\":1563:1754   */\n    tag_47:\n        /* \"#utility.yul\":1603:1606   */\n      0x00\n        /* \"#utility.yul\":1622:1642   */\n      tag_122\n        /* \"#utility.yul\":1640:1641   */\n      dup3\n        /* \"#utility.yul\":1622:1642   */\n      tag_85\n      jump\t// in\n    tag_122:\n        /* \"#utility.yul\":1617:1642   */\n      swap2\n      pop\n        /* \"#utility.yul\":1656:1676   */\n      tag_123\n        /* \"#utility.yul\":1674:1675   */\n      dup4\n        /* \"#utility.yul\":1656:1676   */\n      tag_85\n      jump\t// in\n    tag_123:\n        /* \"#utility.yul\":1651:1676   */\n      swap3\n      pop\n        /* \"#utility.yul\":1699:1700   */\n      dup3\n        /* \"#utility.yul\":1696:1697   */\n      dup3\n        /* \"#utility.yul\":1692:1701   */\n      add\n        /* \"#utility.yul\":1685:1701   */\n      swap1\n      pop\n        /* \"#utility.yul\":1720:1723   */\n      dup1\n        /* \"#utility.yul\":1717:1718   */\n      dup3\n        /* \"#utility.yul\":1714:1724   */\n      gt\n        /* \"#utility.yul\":1711:1747   */\n      iszero\n      tag_124\n      jumpi\n        /* \"#utility.yul\":1727:1745   */\n      tag_125\n      tag_92\n      jump\t// in\n    tag_125:\n        /* \"#utility.yul\":1711:1747   */\n    tag_124:\n        /* \"#utility.yul\":1563:1754   */\n      swap3\n      swap2\n      pop\n      pop\n      jump\t// out\n        /* \"#utility.yul\":1760:1954   */\n    tag_50:\n        /* \"#utility.yul\":1800:1804   */\n      0x00\n        /* \"#utility.yul\":1820:1840   */\n      tag_127\n        /* \"#utility.yul\":1838:1839   */\n      dup3\n        /* \"#utility.yul\":1820:1840   */\n      tag_85\n      jump\t// in\n    tag_127:\n        /* \"#utility.yul\":1815:1840   */\n      swap2\n      pop\n        /* \"#utility.yul\":1854:1874   */\n      tag_128\n        /* \"#utility.yul\":1872:1873   */\n      dup4\n        /* \"#utility.yul\":1854:1874   */\n      tag_85\n      jump\t// in\n    tag_128:\n        /* \"#utility.yul\":1849:1874   */\n      swap3\n      pop\n        /* \"#utility.yul\":1898:1899   */\n      dup3\n        /* \"#utility.yul\":1895:1896   */\n      dup3\n        /* \"#utility.yul\":1891:1900   */\n      sub\n        /* \"#utility.yul\":1883:1900   */\n      swap1\n      pop\n        /* \"#utility.yul\":1922:1923   */\n      dup2\n        /* \"#utility.yul\":1916:1920   */\n      dup2\n        /* \"#utility.yul\":1913:1924   */\n      gt\n        /* \"#utility.yul\":1910:1947   */\n      iszero\n      tag_129\n      jumpi\n        /* \"#utility.yul\":1927:1945   */\n      tag_130\n      tag_92\n      jump\t// in\n    tag_130:\n        /* \"#utility.yul\":1910:1947   */\n    tag_129:\n        /* \"#utility.yul\":1760:1954   */\n      swap3\n      swap2\n      pop\n      pop\n      jump\t// out\n        /* \"#utility.yul\":1960:2402   */\n    tag_52:\n        /* \"#utility.yul\":2109:2113   */\n      0x00\n        /* \"#utility.yul\":2147:2149   */\n      0x60\n        /* \"#utility.yul\":2136:2145   */\n      dup3\n        /* \"#utility.yul\":2132:2150   */\n      add\n        /* \"#utility.yul\":2124:2150   */\n      swap1\n      pop\n        /* \"#utility.yul\":2160:2231   */\n      tag_132\n        /* \"#utility.yul\":2228:2229   */\n      0x00\n        /* \"#utility.yul\":2217:2226   */\n      dup4\n        /* \"#utility.yul\":2213:2230   */\n      add\n        /* \"#utility.yul\":2204:2210   */\n      dup7\n        /* \"#utility.yul\":2160:2231   */\n      tag_86\n      jump\t// in\n    tag_132:\n        /* \"#utility.yul\":2241:2313   */\n      tag_133\n        /* \"#utility.yul\":2309:2311   */\n      0x20\n        /* \"#utility.yul\":2298:2307   */\n      dup4\n        /* \"#utility.yul\":2294:2312   */\n      add\n        /* \"#utility.yul\":2285:2291   */\n      dup6\n        /* \"#utility.yul\":2241:2313   */\n      tag_86\n      jump\t// in\n    tag_133:\n        /* \"#utility.yul\":2323:2395   */\n      tag_134\n        /* \"#utility.yul\":2391:2393   */\n      0x40\n        /* \"#utility.yul\":2380:2389   */\n      dup4\n        /* \"#utility.yul\":2376:2394   */\n      add\n        /* \"#utility.yul\":2367:2373   */\n      dup5\n        /* \"#utility.yul\":2323:2395   */\n      tag_86\n      jump\t// in\n    tag_134:\n        /* \"#utility.yul\":1960:2402   */\n      swap5\n      swap4\n      pop\n      pop\n      pop\n      pop\n      jump\t// out\n        /* \"#utility.yul\":2408:2641   */\n    tag_55:\n        /* \"#utility.yul\":2447:2450   */\n      0x00\n        /* \"#utility.yul\":2470:2494   */\n      tag_136\n        /* \"#utility.yul\":2488:2493   */\n      dup3\n        /* \"#utility.yul\":2470:2494   */\n      tag_85\n      jump\t// in\n    tag_136:\n        /* \"#utility.yul\":2461:2494   */\n      swap2\n      pop\n        /* \"#utility.yul\":2516:2582   */\n      0xffffffffffffffffffffffffffffffffffffffffffffffffffffffffffffffff\n        /* \"#utility.yul\":2509:2514   */\n      dup3\n        /* \"#utility.yul\":2506:2583   */\n      sub\n        /* \"#utility.yul\":2503:2606   */\n      tag_137\n      jumpi\n        /* \"#utility.yul\":2586:2604   */\n      tag_138\n      tag_92\n      jump\t// in\n    tag_138:\n        /* \"#utility.yul\":2503:2606   */\n    tag_137:\n        /* \"#utility.yul\":2633:2634   */\n      0x01\n        /* \"#utility.yul\":2626:2631   */\n      dup3\n        /* \"#utility.yul\":2622:2635   */\n      add\n        /* \"#utility.yul\":2615:2635   */\n      swap1\n      pop\n        /* \"#utility.yul\":2408:2641   */\n      swap2\n      swap1\n      pop\n      jump\t// out\n        /* \"#utility.yul\":2647:2773   */\n    tag_93:\n        /* \"#utility.yul\":2684:2691   */\n      0x00\n        /* \"#utility.yul\":2724:2766   */\n      0xffffffffffffffffffffffffffffffffffffffff\n        /* \"#utility.yul\":2717:2722   */\n      dup3\n        /* \"#utility.yul\":2713:2767   */\n      and\n        /* \"#utility.yul\":2702:2767   */\n      swap1\n      pop\n        /* \"#utility.yul\":2647:2773   */\n      swap2\n      swap1\n      pop\n      jump\t// out\n        /* \"#utility.yul\":2779:2875   */\n    tag_94:\n        /* \"#utility.yul\":2816:2823   */\n      0x00\n        /* \"#utility.yul\":2845:2869   */\n      tag_141\n        /* \"#utility.yul\":2863:2868   */\n      dup3\n        /* \"#utility.yul\":2845:2869   */\n      tag_93\n      jump\t// in\n    tag_141:\n        /* \"#utility.yul\":2834:2869   */\n      swap1\n      pop\n        /* \"#utility.yul\":2779:2875   */\n      swap2\n      swap1\n      pop\n      jump\t// out\n        /* \"#utility.yul\":2881:2999   */\n    tag_95:\n        /* \"#utility.yul\":2968:2992   */\n      tag_143\n        /* \"#utility.yul\":2986:2991   */\n      dup2\n        /* \"#utility.yul\":2968:2992   */\n      tag_94\n      jump\t// in\n    tag_143:\n        /* \"#utility.yul\":2963:2966   */\n      dup3\n        /* \"#utility.yul\":2956:2993   */\n      mstore\n        /* \"#utility.yul\":2881:2999   */\n      pop\n      pop\n      jump\t// out\n        /* \"#utility.yul\":3005:3337   */\n    tag_57:\n        /* \"#utility.yul\":3126:3130   */\n      0x00\n        /* \"#utility.yul\":3164:3166   */\n      0x40\n        /* \"#utility.yul\":3153:3162   */\n      dup3\n        /* \"#utility.yul\":3149:3167   */\n      add\n        /* \"#utility.yul\":3141:3167   */\n      swap1\n      pop\n        /* \"#utility.yul\":3177:3248   */\n      tag_145\n        /* \"#utility.yul\":3245:3246   */\n      0x00\n        /* \"#utility.yul\":3234:3243   */\n      dup4\n        /* \"#utility.yul\":3230:3247   */\n      add\n        /* \"#utility.yul\":3221:3227   */\n      dup6\n        /* \"#utility.yul\":3177:3248   */\n      tag_95\n      jump\t// in\n    tag_145:\n        /* \"#utility.yul\":3258:3330   */\n      tag_146\n        /* \"#utility.yul\":3326:3328   */\n      0x20\n        /* \"#utility.yul\":3315:3324   */\n      dup4\n        /* \"#utility.yul\":3311:3329   */\n      add\n        /* \"#utility.yul\":3302:3308   */\n      dup5\n        /* \"#utility.yul\":3258:3330   */\n      tag_86\n      jump\t// in\n    tag_146:\n        /* \"#utility.yul\":3005:3337   */\n      swap4\n      swap3\n      pop\n      pop\n      pop\n      jump\t// out\n        /* \"#utility.yul\":3343:3675   */\n    tag_66:\n        /* \"#utility.yul\":3464:3468   */\n      0x00\n        /* \"#utility.yul\":3502:3504   */\n      0x40\n        /* \"#utility.yul\":3491:3500   */\n      dup3\n        /* \"#utility.yul\":3487:3505   */\n      add\n        /* \"#utility.yul\":3479:3505   */\n      swap1\n      pop\n        /* \"#utility.yul\":3515:3586   */\n      tag_148\n        /* \"#utility.yul\":3583:3584   */\n      0x00\n        /* \"#utility.yul\":3572:3581   */\n      dup4\n        /* \"#utility.yul\":3568:3585   */\n      add\n        /* \"#utility.yul\":3559:3565   */\n      dup6\n        /* \"#utility.yul\":3515:3586   */\n      tag_86\n      jump\t// in\n    tag_148:\n        /* \"#utility.yul\":3596:3668   */\n      tag_149\n        /* \"#utility.yul\":3664:3666   */\n      0x20\n        /* \"#utility.yul\":3653:3662   */\n      dup4\n        /* \"#utility.yul\":3649:3667   */\n      add\n        /* \"#utility.yul\":3640:3646   */\n      dup5\n        /* \"#utility.yul\":3596:3668   */\n      tag_86\n      jump\t// in\n    tag_149:\n        /* \"#utility.yul\":3343:3675   */\n      swap4\n      swap3\n      pop\n      pop\n      pop\n      jump\t// out\n        /* \"#utility.yul\":3681:3828   */\n    tag_96:\n        /* \"#utility.yul\":3782:3793   */\n      0x00\n        /* \"#utility.yul\":3819:3822   */\n      dup2\n        /* \"#utility.yul\":3804:3822   */\n      swap1\n      pop\n        /* \"#utility.yul\":3681:3828   */\n      swap3\n      swap2\n      pop\n      pop\n      jump\t// out\n        /* \"#utility.yul\":3834:3948   */\n    tag_97:\n      pop\n      jump\t// out\n        /* \"#utility.yul\":3954:4352   */\n    tag_98:\n        /* \"#utility.yul\":4113:4116   */\n      0x00\n        /* \"#utility.yul\":4134:4217   */\n      tag_153\n        /* \"#utility.yul\":4215:4216   */\n      0x00\n        /* \"#utility.yul\":4210:4213   */\n      dup4\n        /* \"#utility.yul\":4134:4217   */\n      tag_96\n      jump\t// in\n    tag_153:\n        /* \"#utility.yul\":4127:4217   */\n      swap2\n      pop\n        /* \"#utility.yul\":4226:4319   */\n      tag_154\n        /* \"#utility.yul\":4315:4318   */\n      dup3\n        /* \"#utility.yul\":4226:4319   */\n      tag_97\n      jump\t// in\n    tag_154:\n        /* \"#utility.yul\":4344:4345   */\n      0x00\n        /* \"#utility.yul\":4339:4342   */\n      dup3\n        /* \"#utility.yul\":4335:4346   */\n      add\n        /* \"#utility.yul\":4328:4346   */\n      swap1\n      pop\n        /* \"#utility.yul\":3954:4352   */\n      swap2\n      swap1\n      pop\n      jump\t// out\n        /* \"#utility.yul\":4358:4737   */\n    tag_72:\n        /* \"#utility.yul\":4542:4545   */\n      0x00\n        /* \"#utility.yul\":4564:4711   */\n      tag_156\n        /* \"#utility.yul\":4707:4710   */\n      dup3\n        /* \"#utility.yul\":4564:4711   */\n      tag_98\n      jump\t// in\n    tag_156:\n        /* \"#utility.yul\":4557:4711   */\n      swap2\n      pop\n        /* \"#utility.yul\":4728:4731   */\n      dup2\n        /* \"#utility.yul\":4721:4731   */\n      swap1\n      pop\n        /* \"#utility.yul\":4358:4737   */\n      swap2\n      swap1\n      pop\n      jump\t// out\n        /* \"#utility.yul\":4743:4912   */\n    tag_99:\n        /* \"#utility.yul\":4827:4838   */\n      0x00\n        /* \"#utility.yul\":4861:4867   */\n      dup3\n        /* \"#utility.yul\":4856:4859   */\n      dup3\n        /* \"#utility.yul\":4849:4868   */\n      mstore\n        /* \"#utility.yul\":4901:4905   */\n      0x20\n        /* \"#utility.yul\":4896:4899   */\n      dup3\n        /* \"#utility.yul\":4892:4906   */\n      add\n        /* \"#utility.yul\":4877:4906   */\n      swap1\n      pop\n        /* \"#utility.yul\":4743:4912   */\n      swap3\n      swap2\n      pop\n      pop\n      jump\t// out\n        /* \"#utility.yul\":4918:5092   */\n    tag_100:\n        /* \"#utility.yul\":5058:5084   */\n      0x46616c6c6f20656c20656e76696f2064656c2073616c646f0000000000000000\n        /* \"#utility.yul\":5054:5055   */\n      0x00\n        /* \"#utility.yul\":5046:5052   */\n      dup3\n        /* \"#utility.yul\":5042:5056   */\n      add\n        /* \"#utility.yul\":5035:5085   */\n      mstore\n        /* \"#utility.yul\":4918:5092   */\n      pop\n      jump\t// out\n        /* \"#utility.yul\":5098:5464   */\n    tag_101:\n        /* \"#utility.yul\":5240:5243   */\n      0x00\n        /* \"#utility.yul\":5261:5328   */\n      tag_160\n        /* \"#utility.yul\":5325:5327   */\n      0x18\n        /* \"#utility.yul\":5320:5323   */\n      dup4\n        /* \"#utility.yul\":5261:5328   */\n      tag_99\n      jump\t// in\n    tag_160:\n        /* \"#utility.yul\":5254:5328   */\n      swap2\n      pop\n        /* \"#utility.yul\":5337:5430   */\n      tag_161\n        /* \"#utility.yul\":5426:5429   */\n      dup3\n        /* \"#utility.yul\":5337:5430   */\n      tag_100\n      jump\t// in\n    tag_161:\n        /* \"#utility.yul\":5455:5457   */\n      0x20\n        /* \"#utility.yul\":5450:5453   */\n      dup3\n        /* \"#utility.yul\":5446:5458   */\n      add\n        /* \"#utility.yul\":5439:5458   */\n      swap1\n      pop\n        /* \"#utility.yul\":5098:5464   */\n      swap2\n      swap1\n      pop\n      jump\t// out\n        /* \"#utility.yul\":5470:5889   */\n    tag_78:\n        /* \"#utility.yul\":5636:5640   */\n      0x00\n        /* \"#utility.yul\":5674:5676   */\n      0x20\n        /* \"#utility.yul\":5663:5672   */\n      dup3\n        /* \"#utility.yul\":5659:5677   */\n      add\n        /* \"#utility.yul\":5651:5677   */\n      swap1\n      pop\n        /* \"#utility.yul\":5723:5732   */\n      dup2\n        /* \"#utility.yul\":5717:5721   */\n      dup2\n        /* \"#utility.yul\":5713:5733   */\n      sub\n        /* \"#utility.yul\":5709:5710   */\n      0x00\n        /* \"#utility.yul\":5698:5707   */\n      dup4\n        /* \"#utility.yul\":5694:5711   */\n      add\n        /* \"#utility.yul\":5687:5734   */\n      mstore\n        /* \"#utility.yul\":5751:5882   */\n      tag_163\n        /* \"#utility.yul\":5877:5881   */\n      dup2\n        /* \"#utility.yul\":5751:5882   */\n      tag_101\n      jump\t// in\n    tag_163:\n        /* \"#utility.yul\":5743:5882   */\n      swap1\n      pop\n        /* \"#utility.yul\":5470:5889   */\n      swap2\n      swap1\n      pop\n      jump\t// out\n\n    auxdata: 0xa2646970667358221220b2a9466691c49831a5e832353eeebec80fd9f53d961a2f6ed3e7907da11a715e64736f6c634300081e0033\n}\n",
				"bytecode": {
					"linkReferences": {},
					"object": "60c060405234801561000f575f5ffd5b50604051610ac9380380610ac98339818101604052810190610031919061007f565b81608081815250508060a0818152505050506100bd565b5f5ffd5b5f819050919050565b61005e8161004c565b8114610068575f5ffd5b50565b5f8151905061007981610055565b92915050565b5f5f6040838503121561009557610094610048565b5b5f6100a28582860161006b565b92505060206100b38582860161006b565b9150509250929050565b60805160a0516109cf6100fa5f395f818161034801528181610371015261065301525f81816101bb015281816101fb01526105dd01526109cf5ff3fe608060405260043610610073575f3560e01c8063b2343b1c1161004d578063b2343b1c14610131578063cac2e25f1461015b578063d0e30db014610185578063de103d581461018f57610083565b806312065fe0146100b5578063835fc6ca146100df578063aed002f61461010757610083565b3661008357610081346101b9565b005b6040517f3d90e2a000000000000000000000000000000000000000000000000000000000815260040160405180910390fd5b3480156100c0575f5ffd5b506100c96102fd565b6040516100d691906106d2565b60405180910390f35b3480156100ea575f5ffd5b5061010560048036038101906101009190610719565b61030c565b005b348015610112575f5ffd5b5061011b6105db565b60405161012891906106d2565b60405180910390f35b34801561013c575f5ffd5b506101456105ff565b60405161015291906106d2565b60405180910390f35b348015610166575f5ffd5b5061016f610605565b60405161017c91906106d2565b60405180910390f35b61018d61060b565b005b34801561019a575f5ffd5b506101a3610651565b6040516101b091906106d2565b60405180910390f35b7f000000000000000000000000000000000000000000000000000000000000000081476101e69190610771565b1115610258578081476101f991906107a4565b7f00000000000000000000000000000000000000000000000000000000000000006040517fd9e81d5400000000000000000000000000000000000000000000000000000000815260040161024f939291906107d7565b60405180910390fd5b805f5f3373ffffffffffffffffffffffffffffffffffffffff1673ffffffffffffffffffffffffffffffffffffffff1681526020019081526020015f205f8282546102a39190610771565b9250508190555060015f8154809291906102bc9061080c565b91905055507f2da466a7b24304f47e87fa2e1e5a81b9831ce54fec19055ce277ca2f39ba42c433826040516102f2929190610892565b60405180910390a150565b5f61030733610675565b905090565b805f8103610346576040517f1f2a200500000000000000000000000000000000000000000000000000000000815260040160405180910390fd5b7f00000000000000000000000000000000000000000000000000000000000000008211156103cd57817f00000000000000000000000000000000000000000000000000000000000000006040517f9c8983d90000000000000000000000000000000000000000000000000000000081526004016103c49291906108b9565b60405180910390fd5b5f5f3373ffffffffffffffffffffffffffffffffffffffff1673ffffffffffffffffffffffffffffffffffffffff1681526020019081526020015f205482111561048c57815f5f3373ffffffffffffffffffffffffffffffffffffffff1673ffffffffffffffffffffffffffffffffffffffff1681526020019081526020015f20546040517fcf4791810000000000000000000000000000000000000000000000000000000081526004016104839291906108b9565b60405180910390fd5b815f5f3373ffffffffffffffffffffffffffffffffffffffff1673ffffffffffffffffffffffffffffffffffffffff1681526020019081526020015f205f8282546104d791906107a4565b9250508190555060025f8154809291906104f09061080c565b91905055505f3373ffffffffffffffffffffffffffffffffffffffff168360405161051a9061090d565b5f6040518083038185875af1925050503d805f8114610554576040519150601f19603f3d011682016040523d82523d5f602084013e610559565b606091505b505090508061059d576040517f08c379a00000000000000000000000000000000000000000000000000000000081526004016105949061097b565b60405180910390fd5b7f7084f5476618d8e60b11ef0d7d3f06914655adb8793e28ff7f018d4c76d505d533846040516105ce929190610892565b60405180910390a1505050565b7f000000000000000000000000000000000000000000000000000000000000000081565b60025481565b60015481565b345f8103610645576040517f1f2a200500000000000000000000000000000000000000000000000000000000815260040160405180910390fd5b61064e346101b9565b50565b7f000000000000000000000000000000000000000000000000000000000000000081565b5f5f5f8373ffffffffffffffffffffffffffffffffffffffff1673ffffffffffffffffffffffffffffffffffffffff1681526020019081526020015f20549050919050565b5f819050919050565b6106cc816106ba565b82525050565b5f6020820190506106e55f8301846106c3565b92915050565b5f5ffd5b6106f8816106ba565b8114610702575f5ffd5b50565b5f81359050610713816106ef565b92915050565b5f6020828403121561072e5761072d6106eb565b5b5f61073b84828501610705565b91505092915050565b7f4e487b71000000000000000000000000000000000000000000000000000000005f52601160045260245ffd5b5f61077b826106ba565b9150610786836106ba565b925082820190508082111561079e5761079d610744565b5b92915050565b5f6107ae826106ba565b91506107b9836106ba565b92508282039050818111156107d1576107d0610744565b5b92915050565b5f6060820190506107ea5f8301866106c3565b6107f760208301856106c3565b61080460408301846106c3565b949350505050565b5f610816826106ba565b91507fffffffffffffffffffffffffffffffffffffffffffffffffffffffffffffffff820361084857610847610744565b5b600182019050919050565b5f73ffffffffffffffffffffffffffffffffffffffff82169050919050565b5f61087c82610853565b9050919050565b61088c81610872565b82525050565b5f6040820190506108a55f830185610883565b6108b260208301846106c3565b9392505050565b5f6040820190506108cc5f8301856106c3565b6108d960208301846106c3565b9392505050565b5f81905092915050565b50565b5f6108f85f836108e0565b9150610903826108ea565b5f82019050919050565b5f610917826108ed565b9150819050919050565b5f82825260208201905092915050565b7f46616c6c6f20656c20656e76696f2064656c2073616c646f00000000000000005f82015250565b5f610965601883610921565b915061097082610931565b602082019050919050565b5f6020820190508181035f83015261099281610959565b905091905056fea2646970667358221220b2a9466691c49831a5e832353eeebec80fd9f53d961a2f6ed3e7907da11a715e64736f6c634300081e0033",
					"opcodes": "PUSH1 0xC0 PUSH1 0x40 MSTORE CALLVALUE DUP1 ISZERO PUSH2 0xF JUMPI PUSH0 PUSH0 REVERT JUMPDEST POP PUSH1 0x40 MLOAD PUSH2 0xAC9 CODESIZE SUB DUP1 PUSH2 0xAC9 DUP4 CODECOPY DUP2 DUP2 ADD PUSH1 0x40 MSTORE DUP2 ADD SWAP1 PUSH2 0x31 SWAP2 SWAP1 PUSH2 0x7F JUMP JUMPDEST DUP2 PUSH1 0x80 DUP2 DUP2 MSTORE POP POP DUP1 PUSH1 0xA0 DUP2 DUP2 MSTORE POP POP POP POP PUSH2 0xBD JUMP JUMPDEST PUSH0 PUSH0 REVERT JUMPDEST PUSH0 DUP2 SWAP1 POP SWAP2 SWAP1 POP JUMP JUMPDEST PUSH2 0x5E DUP2 PUSH2 0x4C JUMP JUMPDEST DUP2 EQ PUSH2 0x68 JUMPI PUSH0 PUSH0 REVERT JUMPDEST POP JUMP JUMPDEST PUSH0 DUP2 MLOAD SWAP1 POP PUSH2 0x79 DUP2 PUSH2 0x55 JUMP JUMPDEST SWAP3 SWAP2 POP POP JUMP JUMPDEST PUSH0 PUSH0 PUSH1 0x40 DUP4 DUP6 SUB SLT ISZERO PUSH2 0x95 JUMPI PUSH2 0x94 PUSH2 0x48 JUMP JUMPDEST JUMPDEST PUSH0 PUSH2 0xA2 DUP6 DUP3 DUP7 ADD PUSH2 0x6B JUMP JUMPDEST SWAP3 POP POP PUSH1 0x20 PUSH2 0xB3 DUP6 DUP3 DUP7 ADD PUSH2 0x6B JUMP JUMPDEST SWAP2 POP POP SWAP3 POP SWAP3 SWAP1 POP JUMP JUMPDEST PUSH1 0x80 MLOAD PUSH1 0xA0 MLOAD PUSH2 0x9CF PUSH2 0xFA PUSH0 CODECOPY PUSH0 DUP2 DUP2 PUSH2 0x348 ADD MSTORE DUP2 DUP2 PUSH2 0x371 ADD MSTORE PUSH2 0x653 ADD MSTORE PUSH0 DUP2 DUP2 PUSH2 0x1BB ADD MSTORE DUP2 DUP2 PUSH2 0x1FB ADD MSTORE PUSH2 0x5DD ADD MSTORE PUSH2 0x9CF PUSH0 RETURN INVALID PUSH1 0x80 PUSH1 0x40 MSTORE PUSH1 0x4 CALLDATASIZE LT PUSH2 0x73 JUMPI PUSH0 CALLDATALOAD PUSH1 0xE0 SHR DUP1 PUSH4 0xB2343B1C GT PUSH2 0x4D JUMPI DUP1 PUSH4 0xB2343B1C EQ PUSH2 0x131 JUMPI DUP1 PUSH4 0xCAC2E25F EQ PUSH2 0x15B JUMPI DUP1 PUSH4 0xD0E30DB0 EQ PUSH2 0x185 JUMPI DUP1 PUSH4 0xDE103D58 EQ PUSH2 0x18F JUMPI PUSH2 0x83 JUMP JUMPDEST DUP1 PUSH4 0x12065FE0 EQ PUSH2 0xB5 JUMPI DUP1 PUSH4 0x835FC6CA EQ PUSH2 0xDF JUMPI DUP1 PUSH4 0xAED002F6 EQ PUSH2 0x107 JUMPI PUSH2 0x83 JUMP JUMPDEST CALLDATASIZE PUSH2 0x83 JUMPI PUSH2 0x81 CALLVALUE PUSH2 0x1B9 JUMP JUMPDEST STOP JUMPDEST PUSH1 0x40 MLOAD PUSH32 0x3D90E2A000000000000000000000000000000000000000000000000000000000 DUP2 MSTORE PUSH1 0x4 ADD PUSH1 0x40 MLOAD DUP1 SWAP2 SUB SWAP1 REVERT JUMPDEST CALLVALUE DUP1 ISZERO PUSH2 0xC0 JUMPI PUSH0 PUSH0 REVERT JUMPDEST POP PUSH2 0xC9 PUSH2 0x2FD JUMP JUMPDEST PUSH1 0x40 MLOAD PUSH2 0xD6 SWAP2 SWAP1 PUSH2 0x6D2 JUMP JUMPDEST PUSH1 0x40 MLOAD DUP1 SWAP2 SUB SWAP1 RETURN JUMPDEST CALLVALUE DUP1 ISZERO PUSH2 0xEA JUMPI PUSH0 PUSH0 REVERT JUMPDEST POP PUSH2 0x105 PUSH1 0x4 DUP1 CALLDATASIZE SUB DUP2 ADD SWAP1 PUSH2 0x100 SWAP2 SWAP1 PUSH2 0x719 JUMP JUMPDEST PUSH2 0x30C JUMP JUMPDEST STOP JUMPDEST CALLVALUE DUP1 ISZERO PUSH2 0x112 JUMPI PUSH0 PUSH0 REVERT JUMPDEST POP PUSH2 0x11B PUSH2 0x5DB JUMP JUMPDEST PUSH1 0x40 MLOAD PUSH2 0x128 SWAP2 SWAP1 PUSH2 0x6D2 JUMP JUMPDEST PUSH1 0x40 MLOAD DUP1 SWAP2 SUB SWAP1 RETURN JUMPDEST CALLVALUE DUP1 ISZERO PUSH2 0x13C JUMPI PUSH0 PUSH0 REVERT JUMPDEST POP PUSH2 0x145 PUSH2 0x5FF JUMP JUMPDEST PUSH1 0x40 MLOAD PUSH2 0x152 SWAP2 SWAP1 PUSH2 0x6D2 JUMP JUMPDEST PUSH1 0x40 MLOAD DUP1 SWAP2 SUB SWAP1 RETURN JUMPDEST CALLVALUE DUP1 ISZERO PUSH2 0x166 JUMPI PUSH0 PUSH0 REVERT JUMPDEST POP PUSH2 0x16F PUSH2 0x605 JUMP JUMPDEST PUSH1 0x40 MLOAD PUSH2 0x17C SWAP2 SWAP1 PUSH2 0x6D2 JUMP JUMPDEST PUSH1 0x40 MLOAD DUP1 SWAP2 SUB SWAP1 RETURN JUMPDEST PUSH2 0x18D PUSH2 0x60B JUMP JUMPDEST STOP JUMPDEST CALLVALUE DUP1 ISZERO PUSH2 0x19A JUMPI PUSH0 PUSH0 REVERT JUMPDEST POP PUSH2 0x1A3 PUSH2 0x651 JUMP JUMPDEST PUSH1 0x40 MLOAD PUSH2 0x1B0 SWAP2 SWAP1 PUSH2 0x6D2 JUMP JUMPDEST PUSH1 0x40 MLOAD DUP1 SWAP2 SUB SWAP1 RETURN JUMPDEST PUSH32 0x0 DUP2 SELFBALANCE PUSH2 0x1E6 SWAP2 SWAP1 PUSH2 0x771 JUMP JUMPDEST GT ISZERO PUSH2 0x258 JUMPI DUP1 DUP2 SELFBALANCE PUSH2 0x1F9 SWAP2 SWAP1 PUSH2 0x7A4 JUMP JUMPDEST PUSH32 0x0 PUSH1 0x40 MLOAD PUSH32 0xD9E81D5400000000000000000000000000000000000000000000000000000000 DUP2 MSTORE PUSH1 0x4 ADD PUSH2 0x24F SWAP4 SWAP3 SWAP2 SWAP1 PUSH2 0x7D7 JUMP JUMPDEST PUSH1 0x40 MLOAD DUP1 SWAP2 SUB SWAP1 REVERT JUMPDEST DUP1 PUSH0 PUSH0 CALLER PUSH20 0xFFFFFFFFFFFFFFFFFFFFFFFFFFFFFFFFFFFFFFFF AND PUSH20 0xFFFFFFFFFFFFFFFFFFFFFFFFFFFFFFFFFFFFFFFF AND DUP2 MSTORE PUSH1 0x20 ADD SWAP1 DUP2 MSTORE PUSH1 0x20 ADD PUSH0 KECCAK256 PUSH0 DUP3 DUP3 SLOAD PUSH2 0x2A3 SWAP2 SWAP1 PUSH2 0x771 JUMP JUMPDEST SWAP3 POP POP DUP2 SWAP1 SSTORE POP PUSH1 0x1 PUSH0 DUP2 SLOAD DUP1 SWAP3 SWAP2 SWAP1 PUSH2 0x2BC SWAP1 PUSH2 0x80C JUMP JUMPDEST SWAP2 SWAP1 POP SSTORE POP PUSH32 0x2DA466A7B24304F47E87FA2E1E5A81B9831CE54FEC19055CE277CA2F39BA42C4 CALLER DUP3 PUSH1 0x40 MLOAD PUSH2 0x2F2 SWAP3 SWAP2 SWAP1 PUSH2 0x892 JUMP JUMPDEST PUSH1 0x40 MLOAD DUP1 SWAP2 SUB SWAP1 LOG1 POP JUMP JUMPDEST PUSH0 PUSH2 0x307 CALLER PUSH2 0x675 JUMP JUMPDEST SWAP1 POP SWAP1 JUMP JUMPDEST DUP1 PUSH0 DUP2 SUB PUSH2 0x346 JUMPI PUSH1 0x40 MLOAD PUSH32 0x1F2A200500000000000000000000000000000000000000000000000000000000 DUP2 MSTORE PUSH1 0x4 ADD PUSH1 0x40 MLOAD DUP1 SWAP2 SUB SWAP1 REVERT JUMPDEST PUSH32 0x0 DUP3 GT ISZERO PUSH2 0x3CD JUMPI DUP2 PUSH32 0x0 PUSH1 0x40 MLOAD PUSH32 0x9C8983D900000000000000000000000000000000000000000000000000000000 DUP2 MSTORE PUSH1 0x4 ADD PUSH2 0x3C4 SWAP3 SWAP2 SWAP1 PUSH2 0x8B9 JUMP JUMPDEST PUSH1 0x40 MLOAD DUP1 SWAP2 SUB SWAP1 REVERT JUMPDEST PUSH0 PUSH0 CALLER PUSH20 0xFFFFFFFFFFFFFFFFFFFFFFFFFFFFFFFFFFFFFFFF AND PUSH20 0xFFFFFFFFFFFFFFFFFFFFFFFFFFFFFFFFFFFFFFFF AND DUP2 MSTORE PUSH1 0x20 ADD SWAP1 DUP2 MSTORE PUSH1 0x20 ADD PUSH0 KECCAK256 SLOAD DUP3 GT ISZERO PUSH2 0x48C JUMPI DUP2 PUSH0 PUSH0 CALLER PUSH20 0xFFFFFFFFFFFFFFFFFFFFFFFFFFFFFFFFFFFFFFFF AND PUSH20 0xFFFFFFFFFFFFFFFFFFFFFFFFFFFFFFFFFFFFFFFF AND DUP2 MSTORE PUSH1 0x20 ADD SWAP1 DUP2 MSTORE PUSH1 0x20 ADD PUSH0 KECCAK256 SLOAD PUSH1 0x40 MLOAD PUSH32 0xCF47918100000000000000000000000000000000000000000000000000000000 DUP2 MSTORE PUSH1 0x4 ADD PUSH2 0x483 SWAP3 SWAP2 SWAP1 PUSH2 0x8B9 JUMP JUMPDEST PUSH1 0x40 MLOAD DUP1 SWAP2 SUB SWAP1 REVERT JUMPDEST DUP2 PUSH0 PUSH0 CALLER PUSH20 0xFFFFFFFFFFFFFFFFFFFFFFFFFFFFFFFFFFFFFFFF AND PUSH20 0xFFFFFFFFFFFFFFFFFFFFFFFFFFFFFFFFFFFFFFFF AND DUP2 MSTORE PUSH1 0x20 ADD SWAP1 DUP2 MSTORE PUSH1 0x20 ADD PUSH0 KECCAK256 PUSH0 DUP3 DUP3 SLOAD PUSH2 0x4D7 SWAP2 SWAP1 PUSH2 0x7A4 JUMP JUMPDEST SWAP3 POP POP DUP2 SWAP1 SSTORE POP PUSH1 0x2 PUSH0 DUP2 SLOAD DUP1 SWAP3 SWAP2 SWAP1 PUSH2 0x4F0 SWAP1 PUSH2 0x80C JUMP JUMPDEST SWAP2 SWAP1 POP SSTORE POP PUSH0 CALLER PUSH20 0xFFFFFFFFFFFFFFFFFFFFFFFFFFFFFFFFFFFFFFFF AND DUP4 PUSH1 0x40 MLOAD PUSH2 0x51A SWAP1 PUSH2 0x90D JUMP JUMPDEST PUSH0 PUSH1 0x40 MLOAD DUP1 DUP4 SUB DUP2 DUP6 DUP8 GAS CALL SWAP3 POP POP POP RETURNDATASIZE DUP1 PUSH0 DUP2 EQ PUSH2 0x554 JUMPI PUSH1 0x40 MLOAD SWAP2 POP PUSH1 0x1F NOT PUSH1 0x3F RETURNDATASIZE ADD AND DUP3 ADD PUSH1 0x40 MSTORE RETURNDATASIZE DUP3 MSTORE RETURNDATASIZE PUSH0 PUSH1 0x20 DUP5 ADD RETURNDATACOPY PUSH2 0x559 JUMP JUMPDEST PUSH1 0x60 SWAP2 POP JUMPDEST POP POP SWAP1 POP DUP1 PUSH2 0x59D JUMPI PUSH1 0x40 MLOAD PUSH32 0x8C379A000000000000000000000000000000000000000000000000000000000 DUP2 MSTORE PUSH1 0x4 ADD PUSH2 0x594 SWAP1 PUSH2 0x97B JUMP JUMPDEST PUSH1 0x40 MLOAD DUP1 SWAP2 SUB SWAP1 REVERT JUMPDEST PUSH32 0x7084F5476618D8E60B11EF0D7D3F06914655ADB8793E28FF7F018D4C76D505D5 CALLER DUP5 PUSH1 0x40 MLOAD PUSH2 0x5CE SWAP3 SWAP2 SWAP1 PUSH2 0x892 JUMP JUMPDEST PUSH1 0x40 MLOAD DUP1 SWAP2 SUB SWAP1 LOG1 POP POP POP JUMP JUMPDEST PUSH32 0x0 DUP2 JUMP JUMPDEST PUSH1 0x2 SLOAD DUP2 JUMP JUMPDEST PUSH1 0x1 SLOAD DUP2 JUMP JUMPDEST CALLVALUE PUSH0 DUP2 SUB PUSH2 0x645 JUMPI PUSH1 0x40 MLOAD PUSH32 0x1F2A200500000000000000000000000000000000000000000000000000000000 DUP2 MSTORE PUSH1 0x4 ADD PUSH1 0x40 MLOAD DUP1 SWAP2 SUB SWAP1 REVERT JUMPDEST PUSH2 0x64E CALLVALUE PUSH2 0x1B9 JUMP JUMPDEST POP JUMP JUMPDEST PUSH32 0x0 DUP2 JUMP JUMPDEST PUSH0 PUSH0 PUSH0 DUP4 PUSH20 0xFFFFFFFFFFFFFFFFFFFFFFFFFFFFFFFFFFFFFFFF AND PUSH20 0xFFFFFFFFFFFFFFFFFFFFFFFFFFFFFFFFFFFFFFFF AND DUP2 MSTORE PUSH1 0x20 ADD SWAP1 DUP2 MSTORE PUSH1 0x20 ADD PUSH0 KECCAK256 SLOAD SWAP1 POP SWAP2 SWAP1 POP JUMP JUMPDEST PUSH0 DUP2 SWAP1 POP SWAP2 SWAP1 POP JUMP JUMPDEST PUSH2 0x6CC DUP2 PUSH2 0x6BA JUMP JUMPDEST DUP3 MSTORE POP POP JUMP JUMPDEST PUSH0 PUSH1 0x20 DUP3 ADD SWAP1 POP PUSH2 0x6E5 PUSH0 DUP4 ADD DUP5 PUSH2 0x6C3 JUMP JUMPDEST SWAP3 SWAP2 POP POP JUMP JUMPDEST PUSH0 PUSH0 REVERT JUMPDEST PUSH2 0x6F8 DUP2 PUSH2 0x6BA JUMP JUMPDEST DUP2 EQ PUSH2 0x702 JUMPI PUSH0 PUSH0 REVERT JUMPDEST POP JUMP JUMPDEST PUSH0 DUP2 CALLDATALOAD SWAP1 POP PUSH2 0x713 DUP2 PUSH2 0x6EF JUMP JUMPDEST SWAP3 SWAP2 POP POP JUMP JUMPDEST PUSH0 PUSH1 0x20 DUP3 DUP5 SUB SLT ISZERO PUSH2 0x72E JUMPI PUSH2 0x72D PUSH2 0x6EB JUMP JUMPDEST JUMPDEST PUSH0 PUSH2 0x73B DUP5 DUP3 DUP6 ADD PUSH2 0x705 JUMP JUMPDEST SWAP2 POP POP SWAP3 SWAP2 POP POP JUMP JUMPDEST PUSH32 0x4E487B7100000000000000000000000000000000000000000000000000000000 PUSH0 MSTORE PUSH1 0x11 PUSH1 0x4 MSTORE PUSH1 0x24 PUSH0 REVERT JUMPDEST PUSH0 PUSH2 0x77B DUP3 PUSH2 0x6BA JUMP JUMPDEST SWAP2 POP PUSH2 0x786 DUP4 PUSH2 0x6BA JUMP JUMPDEST SWAP3 POP DUP3 DUP3 ADD SWAP1 POP DUP1 DUP3 GT ISZERO PUSH2 0x79E JUMPI PUSH2 0x79D PUSH2 0x744 JUMP JUMPDEST JUMPDEST SWAP3 SWAP2 POP POP JUMP JUMPDEST PUSH0 PUSH2 0x7AE DUP3 PUSH2 0x6BA JUMP JUMPDEST SWAP2 POP PUSH2 0x7B9 DUP4 PUSH2 0x6BA JUMP JUMPDEST SWAP3 POP DUP3 DUP3 SUB SWAP1 POP DUP2 DUP2 GT ISZERO PUSH2 0x7D1 JUMPI PUSH2 0x7D0 PUSH2 0x744 JUMP JUMPDEST JUMPDEST SWAP3 SWAP2 POP POP JUMP JUMPDEST PUSH0 PUSH1 0x60 DUP3 ADD SWAP1 POP PUSH2 0x7EA PUSH0 DUP4 ADD DUP7 PUSH2 0x6C3 JUMP JUMPDEST PUSH2 0x7F7 PUSH1 0x20 DUP4 ADD DUP6 PUSH2 0x6C3 JUMP JUMPDEST PUSH2 0x804 PUSH1 0x40 DUP4 ADD DUP5 PUSH2 0x6C3 JUMP JUMPDEST SWAP5 SWAP4 POP POP POP POP JUMP JUMPDEST PUSH0 PUSH2 0x816 DUP3 PUSH2 0x6BA JUMP JUMPDEST SWAP2 POP PUSH32 0xFFFFFFFFFFFFFFFFFFFFFFFFFFFFFFFFFFFFFFFFFFFFFFFFFFFFFFFFFFFFFFFF DUP3 SUB PUSH2 0x848 JUMPI PUSH2 0x847 PUSH2 0x744 JUMP JUMPDEST JUMPDEST PUSH1 0x1 DUP3 ADD SWAP1 POP SWAP2 SWAP1 POP JUMP JUMPDEST PUSH0 PUSH20 0xFFFFFFFFFFFFFFFFFFFFFFFFFFFFFFFFFFFFFFFF DUP3 AND SWAP1 POP SWAP2 SWAP1 POP JUMP JUMPDEST PUSH0 PUSH2 0x87C DUP3 PUSH2 0x853 JUMP JUMPDEST SWAP1 POP SWAP2 SWAP1 POP JUMP JUMPDEST PUSH2 0x88C DUP2 PUSH2 0x872 JUMP JUMPDEST DUP3 MSTORE POP POP JUMP JUMPDEST PUSH0 PUSH1 0x40 DUP3 ADD SWAP1 POP PUSH2 0x8A5 PUSH0 DUP4 ADD DUP6 PUSH2 0x883 JUMP JUMPDEST PUSH2 0x8B2 PUSH1 0x20 DUP4 ADD DUP5 PUSH2 0x6C3 JUMP JUMPDEST SWAP4 SWAP3 POP POP POP JUMP JUMPDEST PUSH0 PUSH1 0x40 DUP3 ADD SWAP1 POP PUSH2 0x8CC PUSH0 DUP4 ADD DUP6 PUSH2 0x6C3 JUMP JUMPDEST PUSH2 0x8D9 PUSH1 0x20 DUP4 ADD DUP5 PUSH2 0x6C3 JUMP JUMPDEST SWAP4 SWAP3 POP POP POP JUMP JUMPDEST PUSH0 DUP2 SWAP1 POP SWAP3 SWAP2 POP POP JUMP JUMPDEST POP JUMP JUMPDEST PUSH0 PUSH2 0x8F8 PUSH0 DUP4 PUSH2 0x8E0 JUMP JUMPDEST SWAP2 POP PUSH2 0x903 DUP3 PUSH2 0x8EA JUMP JUMPDEST PUSH0 DUP3 ADD SWAP1 POP SWAP2 SWAP1 POP JUMP JUMPDEST PUSH0 PUSH2 0x917 DUP3 PUSH2 0x8ED JUMP JUMPDEST SWAP2 POP DUP2 SWAP1 POP SWAP2 SWAP1 POP JUMP JUMPDEST PUSH0 DUP3 DUP3 MSTORE PUSH1 0x20 DUP3 ADD SWAP1 POP SWAP3 SWAP2 POP POP JUMP JUMPDEST PUSH32 0x46616C6C6F20656C20656E76696F2064656C2073616C646F0000000000000000 PUSH0 DUP3 ADD MSTORE POP JUMP JUMPDEST PUSH0 PUSH2 0x965 PUSH1 0x18 DUP4 PUSH2 0x921 JUMP JUMPDEST SWAP2 POP PUSH2 0x970 DUP3 PUSH2 0x931 JUMP JUMPDEST PUSH1 0x20 DUP3 ADD SWAP1 POP SWAP2 SWAP1 POP JUMP JUMPDEST PUSH0 PUSH1 0x20 DUP3 ADD SWAP1 POP DUP2 DUP2 SUB PUSH0 DUP4 ADD MSTORE PUSH2 0x992 DUP2 PUSH2 0x959 JUMP JUMPDEST SWAP1 POP SWAP2 SWAP1 POP JUMP INVALID LOG2 PUSH5 0x6970667358 0x22 SLT KECCAK256 0xB2 0xA9 CHAINID PUSH7 0x91C49831A5E832 CALLDATALOAD RETURNDATACOPY RETURNCONTRACT 0xBE 0xC8 0xF 0xD9 CREATE2 RETURNDATASIZE SWAP7 BYTE 0x2F PUSH15 0xD3E7907DA11A715E64736F6C634300 ADDMOD 0x1E STOP CALLER "
				},
				"gasEstimates": {
					"creation": {
						"codeDepositCost": "502200",
						"executionCost": "infinite",
						"totalCost": "infinite"
					},
					"external": {
						"": "196",
						"deposit()": "infinite",
						"getBalance()": "2561",
						"i_bankCapLimit()": "infinite",
						"i_withdrawalLimit()": "infinite",
						"s_depositCount()": "2447",
						"s_withdrawalCount()": "2425",
						"withdrawal(uint256)": "infinite"
					},
					"internal": {
						"_getBalanceOf(address)": "2220",
						"_handleDeposit(uint256)": "infinite"
					}
				},
				"methodIdentifiers": {
					"deposit()": "d0e30db0",
					"getBalance()": "12065fe0",
					"i_bankCapLimit()": "aed002f6",
					"i_withdrawalLimit()": "de103d58",
					"s_depositCount()": "cac2e25f",
					"s_withdrawalCount()": "b2343b1c",
					"withdrawal(uint256)": "835fc6ca"
				}
			},
			"storageLayout": {
				"storage": [
					{
						"astId": 7,
						"contract": "contracts/kipu-bank.sol:KipuBank",
						"label": "s_balance",
						"offset": 0,
						"slot": "0",
						"type": "t_mapping(t_address,t_uint256)"
					},
					{
						"astId": 10,
						"contract": "contracts/kipu-bank.sol:KipuBank",
						"label": "s_depositCount",
						"offset": 0,
						"slot": "1",
						"type": "t_uint256"
					},
					{
						"astId": 13,
						"contract": "contracts/kipu-bank.sol:KipuBank",
						"label": "s_withdrawalCount",
						"offset": 0,
						"slot": "2",
						"type": "t_uint256"
					}
				],
				"types": {
					"t_address": {
						"encoding": "inplace",
						"label": "address",
						"numberOfBytes": "20"
					},
					"t_mapping(t_address,t_uint256)": {
						"encoding": "mapping",
						"key": "t_address",
						"label": "mapping(address => uint256)",
						"numberOfBytes": "32",
						"value": "t_uint256"
					},
					"t_uint256": {
						"encoding": "inplace",
						"label": "uint256",
						"numberOfBytes": "32"
					}
				}
			},
			"userdoc": {
				"errors": {
					"DepositNotAllowed()": [
						{
							"notice": "Error cuando se envia Ether al contrato sin llamar a la funcion deposit()."
						}
					],
					"ExceedsBalanceBankLimit(uint256,uint256,uint256)": [
						{
							"notice": "Error cuando la cantidad total depositada excede el limite permitido por el banco"
						}
					],
					"ExceedsWithdrawLimit(uint256,uint256)": [
						{
							"notice": "Error cuando el monto a retirar excede el limite de retiro permitido por transaccion"
						}
					],
					"InsufficientBalance(uint256,uint256)": [
						{
							"notice": "Error cuando un usuario intenta retirar mas fondos de los que tiene disponible"
						}
					],
					"ZeroAmount()": [
						{
							"notice": "Error cuando el monto de una transaccion es cero"
						}
					]
				},
				"events": {
					"Deposited(address,uint256)": {
						"notice": "Evento emitido cuando un deposito se realiza con exito."
					},
					"Withdrawn(address,uint256)": {
						"notice": "Evento emitido cuando un retiro se realiza con exito"
					}
				},
				"kind": "user",
				"methods": {
					"getBalance()": {
						"notice": "Obtiene el saldo actual de un usuario"
					},
					"i_bankCapLimit()": {
						"notice": "Limite de Saldo que el banco permite almacenar en total"
					},
					"i_withdrawalLimit()": {
						"notice": "Limite maximo de saldo que un usuario puede retirar en una transaccion"
					},
					"s_depositCount()": {
						"notice": "Cantidad de depositos que se realizaron en el contrato"
					},
					"s_withdrawalCount()": {
						"notice": "Cantidad de retiros que se realizaron en el contrato"
					},
					"withdrawal(uint256)": {
						"notice": "Permite a los usuarios retirar saldo de su deposito almacenado."
					}
				},
				"version": 1
			}
		}
	}
}